TBI0300000001760003NPR030                  33.9DI04-03-2022INDEM04-03-2022NNN  MIGRATION UPLOAD              04-03-2022                                        
TBI03002072524001  NPR030                  33.9CI04-03-2022     04-03-2022NNN  MIGRATION UPLOAD              04-03-2022                                        
TBI0300000002460003NPR030                 20.34DI04-03-2022INDEM04-03-2022NNN  MIGRATION UPLOAD              04-03-2022                                        
TBI03002072524001  NPR030                 20.34CI04-03-2022     04-03-2022NNN  MIGRATION UPLOAD              04-03-2022                                        
TBI0300000002460003NPR030                 58.32DI04-03-2022INDEM04-03-2022NNN  MIGRATION UPLOAD              04-03-2022                                        
TBI03002072524001  NPR030                 58.32CI04-03-2022     04-03-2022NNN  MIGRATION UPLOAD              04-03-2022                                        
TBI0300000003750004NPR030                 20.34DI04-03-2022INDEM04-03-2022NNN  MIGRATION UPLOAD              04-03-2022                                        
TBI03002072524001  NPR030                 20.34CI04-03-2022     04-03-2022NNN  MIGRATION UPLOAD              04-03-2022                                        
TBI0300000003750004NPR030                 58.32DI04-03-2022INDEM04-03-2022NNN  MIGRATION UPLOAD              04-03-2022                                        
TBI03002072524001  NPR030                 58.32CI04-03-2022     04-03-2022NNN  MIGRATION UPLOAD              04-03-2022                                        
TBI0300000003850003NPR030                 20.34DI04-03-2022INDEM04-03-2022NNN  MIGRATION UPLOAD              04-03-2022                                        
TBI03002072524001  NPR030                 20.34CI04-03-2022     04-03-2022NNN  MIGRATION UPLOAD              04-03-2022                                        
TBI0300000003850003NPR030                 58.32DI04-03-2022INDEM04-03-2022NNN  MIGRATION UPLOAD              04-03-2022                                        
TBI03002072524001  NPR030                 58.32CI04-03-2022     04-03-2022NNN  MIGRATION UPLOAD              04-03-2022                                        
TBI0300000005560002NPR030                    52DI04-03-2022INDEM04-03-2022NNN  MIGRATION UPLOAD              04-03-2022                                        
TBI03002072524001  NPR030                    52CI04-03-2022     04-03-2022NNN  MIGRATION UPLOAD              04-03-2022                                        
TBI0300000005700003NPR030                   100DI04-03-2022INDEM04-03-2022NNN  MIGRATION UPLOAD              04-03-2022                                        
TBI03002072524001  NPR030                   100CI04-03-2022     04-03-2022NNN  MIGRATION UPLOAD              04-03-2022                                        
TBI0300000005700003NPR030                 23.76DI04-03-2022INDEM04-03-2022NNN  MIGRATION UPLOAD              04-03-2022                                        
TBI03002072524001  NPR030                 23.76CI04-03-2022     04-03-2022NNN  MIGRATION UPLOAD              04-03-2022                                        
TBI0300000006220002NPR030                   100DI04-03-2022INDEM04-03-2022NNN  MIGRATION UPLOAD              04-03-2022                                        
TBI03002072524001  NPR030                   100CI04-03-2022     04-03-2022NNN  MIGRATION UPLOAD              04-03-2022                                        
TBI0300000006220002NPR030                 47.52DI04-03-2022INDEM04-03-2022NNN  MIGRATION UPLOAD              04-03-2022                                        
TBI03002072524001  NPR030                 47.52CI04-03-2022     04-03-2022NNN  MIGRATION UPLOAD              04-03-2022                                        
TBI0300000006270002NPR030                  37.3DI04-03-2022INDEM04-03-2022NNN  MIGRATION UPLOAD              04-03-2022                                        
TBI03002072524001  NPR030                  37.3CI04-03-2022     04-03-2022NNN  MIGRATION UPLOAD              04-03-2022                                        
TBI0300000006270002NPR030                260.24DI04-03-2022INDEM04-03-2022NNN  MIGRATION UPLOAD              04-03-2022                                        
TBI03002072524001  NPR030                260.24CI04-03-2022     04-03-2022NNN  MIGRATION UPLOAD              04-03-2022                                        
TBI0300000006270002NPR030                486.94DI04-03-2022INDEM04-03-2022NNN  MIGRATION UPLOAD              04-03-2022                                        
TBI03002072524001  NPR030                486.94CI04-03-2022     04-03-2022NNN  MIGRATION UPLOAD              04-03-2022                                        
TBI0300000006370005NPR030                  37.3DI04-03-2022INDEM04-03-2022NNN  MIGRATION UPLOAD              04-03-2022                                        
TBI03002072524001  NPR030                  37.3CI04-03-2022     04-03-2022NNN  MIGRATION UPLOAD              04-03-2022                                        
TBI0300000006370005NPR030                260.24DI04-03-2022INDEM04-03-2022NNN  MIGRATION UPLOAD              04-03-2022                                        
TBI03002072524001  NPR030                260.24CI04-03-2022     04-03-2022NNN  MIGRATION UPLOAD              04-03-2022                                        
TBI0300000006370005NPR030                486.94DI04-03-2022INDEM04-03-2022NNN  MIGRATION UPLOAD              04-03-2022                                        
TBI03002072524001  NPR030                486.94CI04-03-2022     04-03-2022NNN  MIGRATION UPLOAD              04-03-2022                                        
TBI0300000006390003NPR030                  57.2DI04-03-2022INDEM04-03-2022NNN  MIGRATION UPLOAD              04-03-2022                                        
TBI03002072524001  NPR030                  57.2CI04-03-2022     04-03-2022NNN  MIGRATION UPLOAD              04-03-2022                                        
TBI0300000006390003NPR030                 12.24DI04-03-2022INDEM04-03-2022NNN  MIGRATION UPLOAD              04-03-2022                                        
TBI03002072524001  NPR030                 12.24CI04-03-2022     04-03-2022NNN  MIGRATION UPLOAD              04-03-2022                                        
TBI0300000006390003NPR030                104.22DI04-03-2022INDEM04-03-2022NNN  MIGRATION UPLOAD              04-03-2022                                        
TBI03002072524001  NPR030                104.22CI04-03-2022     04-03-2022NNN  MIGRATION UPLOAD              04-03-2022                                        
TBI0300000006400002NPR030                  37.3DI04-03-2022INDEM04-03-2022NNN  MIGRATION UPLOAD              04-03-2022                                        
TBI03002072524001  NPR030                  37.3CI04-03-2022     04-03-2022NNN  MIGRATION UPLOAD              04-03-2022                                        
TBI0300000006400002NPR030                260.24DI04-03-2022INDEM04-03-2022NNN  MIGRATION UPLOAD              04-03-2022                                        
TBI03002072524001  NPR030                260.24CI04-03-2022     04-03-2022NNN  MIGRATION UPLOAD              04-03-2022                                        
TBI0300000006400002NPR030                486.94DI04-03-2022INDEM04-03-2022NNN  MIGRATION UPLOAD              04-03-2022                                        
TBI03002072524001  NPR030                486.94CI04-03-2022     04-03-2022NNN  MIGRATION UPLOAD              04-03-2022                                        
TBI0300000006470002NPR030                   100DI04-03-2022INDEM04-03-2022NNN  MIGRATION UPLOAD              04-03-2022                                        
TBI03002072524001  NPR030                   100CI04-03-2022     04-03-2022NNN  MIGRATION UPLOAD              04-03-2022                                        
TBI0300000006470002NPR030                 33.75DI04-03-2022INDEM04-03-2022NNN  MIGRATION UPLOAD              04-03-2022                                        
TBI03002072524001  NPR030                 33.75CI04-03-2022     04-03-2022NNN  MIGRATION UPLOAD              04-03-2022                                        
TBI0300000006470002NPR030                 67.08DI04-03-2022INDEM04-03-2022NNN  MIGRATION UPLOAD              04-03-2022                                        
TBI03002072524001  NPR030                 67.08CI04-03-2022     04-03-2022NNN  MIGRATION UPLOAD              04-03-2022                                        
TBI0300000007190002NPR030                140.55DI04-03-2022INDEM04-03-2022NNN  MIGRATION UPLOAD              04-03-2022                                        
TBI03002072524001  NPR030                140.55CI04-03-2022     04-03-2022NNN  MIGRATION UPLOAD              04-03-2022                                        
TBI0300000007190002NPR030                269.29DI04-03-2022INDEM04-03-2022NNN  MIGRATION UPLOAD              04-03-2022                                        
TBI03002072524001  NPR030                269.29CI04-03-2022     04-03-2022NNN  MIGRATION UPLOAD              04-03-2022                                        
TBI0300000007260002NPR030                 84.03DI04-03-2022INDEM04-03-2022NNN  MIGRATION UPLOAD              04-03-2022                                        
TBI03002072524001  NPR030                 84.03CI04-03-2022     04-03-2022NNN  MIGRATION UPLOAD              04-03-2022                                        
TBI0300000007260002NPR030                167.36DI04-03-2022INDEM04-03-2022NNN  MIGRATION UPLOAD              04-03-2022                                        
TBI03002072524001  NPR030                167.36CI04-03-2022     04-03-2022NNN  MIGRATION UPLOAD              04-03-2022                                        
TBI0300000007260002NPR030                291.85DI04-03-2022INDEM04-03-2022NNN  MIGRATION UPLOAD              04-03-2022                                        
TBI03002072524001  NPR030                291.85CI04-03-2022     04-03-2022NNN  MIGRATION UPLOAD              04-03-2022                                        
TBI0300000007310002NPR030                 33.75DI04-03-2022INDEM04-03-2022NNN  MIGRATION UPLOAD              04-03-2022                                        
TBI03002072524001  NPR030                 33.75CI04-03-2022     04-03-2022NNN  MIGRATION UPLOAD              04-03-2022                                        
TBI0300000007310002NPR030                 67.08DI04-03-2022INDEM04-03-2022NNN  MIGRATION UPLOAD              04-03-2022                                        
TBI03002072524001  NPR030                 67.08CI04-03-2022     04-03-2022NNN  MIGRATION UPLOAD              04-03-2022                                        
TBI0300000007310002NPR030                103.36DI04-03-2022INDEM04-03-2022NNN  MIGRATION UPLOAD              04-03-2022                                        
TBI03002072524001  NPR030                103.36CI04-03-2022     04-03-2022NNN  MIGRATION UPLOAD              04-03-2022                                        
TBI0300000007660003NPR030                 84.03DI04-03-2022INDEM04-03-2022NNN  MIGRATION UPLOAD              04-03-2022                                        
TBI03002072524001  NPR030                 84.03CI04-03-2022     04-03-2022NNN  MIGRATION UPLOAD              04-03-2022                                        
TBI0300000007660003NPR030                167.36DI04-03-2022INDEM04-03-2022NNN  MIGRATION UPLOAD              04-03-2022                                        
TBI03002072524001  NPR030                167.36CI04-03-2022     04-03-2022NNN  MIGRATION UPLOAD              04-03-2022                                        
TBI0300000007660003NPR030                291.85DI04-03-2022INDEM04-03-2022NNN  MIGRATION UPLOAD              04-03-2022                                        
TBI03002072524001  NPR030                291.85CI04-03-2022     04-03-2022NNN  MIGRATION UPLOAD              04-03-2022                                        
TBI0300000007990002NPR030                 198.5DI04-03-2022INDEM04-03-2022NNN  MIGRATION UPLOAD              04-03-2022                                        
TBI03002072524001  NPR030                 198.5CI04-03-2022     04-03-2022NNN  MIGRATION UPLOAD              04-03-2022                                        
TBI0300000007990002NPR030                111.03DI04-03-2022INDEM04-03-2022NNN  MIGRATION UPLOAD              04-03-2022                                        
TBI03002072524001  NPR030                111.03CI04-03-2022     04-03-2022NNN  MIGRATION UPLOAD              04-03-2022                                        
TBI0300000007990002NPR030                330.67DI04-03-2022INDEM04-03-2022NNN  MIGRATION UPLOAD              04-03-2022                                        
TBI03002072524001  NPR030                330.67CI04-03-2022     04-03-2022NNN  MIGRATION UPLOAD              04-03-2022                                        
TBI0300000008170002NPR030                    82DI04-03-2022INDEM04-03-2022NNN  MIGRATION UPLOAD              04-03-2022                                        
TBI03002072524001  NPR030                    82CI04-03-2022     04-03-2022NNN  MIGRATION UPLOAD              04-03-2022                                        
TBI0300000008170002NPR030                421.66DI04-03-2022INDEM04-03-2022NNN  MIGRATION UPLOAD              04-03-2022                                        
TBI03002072524001  NPR030                421.66CI04-03-2022     04-03-2022NNN  MIGRATION UPLOAD              04-03-2022                                        
TBI0300000008390002NPR030                 54.72DI04-03-2022INDEM04-03-2022NNN  MIGRATION UPLOAD              04-03-2022                                        
TBI03002072524001  NPR030                 54.72CI04-03-2022     04-03-2022NNN  MIGRATION UPLOAD              04-03-2022                                        
TBI0300000008390002NPR030                305.13DI04-03-2022INDEM04-03-2022NNN  MIGRATION UPLOAD              04-03-2022                                        
TBI03002072524001  NPR030                305.13CI04-03-2022     04-03-2022NNN  MIGRATION UPLOAD              04-03-2022                                        
TBI0300000008390002NPR030                563.71DI04-03-2022INDEM04-03-2022NNN  MIGRATION UPLOAD              04-03-2022                                        
TBI03002072524001  NPR030                563.71CI04-03-2022     04-03-2022NNN  MIGRATION UPLOAD              04-03-2022                                        
TBI0300000008400002NPR030                  16.4DI04-03-2022INDEM04-03-2022NNN  MIGRATION UPLOAD              04-03-2022                                        
TBI03002072524001  NPR030                  16.4CI04-03-2022     04-03-2022NNN  MIGRATION UPLOAD              04-03-2022                                        
TBI0300000008400002NPR030                387.66DI04-03-2022INDEM04-03-2022NNN  MIGRATION UPLOAD              04-03-2022                                        
TBI03002072524001  NPR030                387.66CI04-03-2022     04-03-2022NNN  MIGRATION UPLOAD              04-03-2022                                        
TBI0300000008630002NPR030                 63.14DI04-03-2022INDEM04-03-2022NNN  MIGRATION UPLOAD              04-03-2022                                        
TBI03002072524001  NPR030                 63.14CI04-03-2022     04-03-2022NNN  MIGRATION UPLOAD              04-03-2022                                        
TBI0300000008630002NPR030                298.51DI04-03-2022INDEM04-03-2022NNN  MIGRATION UPLOAD              04-03-2022                                        
TBI03002072524001  NPR030                298.51CI04-03-2022     04-03-2022NNN  MIGRATION UPLOAD              04-03-2022                                        
TBI0300000008640002NPR030                   181DI04-03-2022INDEM04-03-2022NNN  MIGRATION UPLOAD              04-03-2022                                        
TBI03002072524001  NPR030                   181CI04-03-2022     04-03-2022NNN  MIGRATION UPLOAD              04-03-2022                                        
TBI0300000008640002NPR030                 89.42DI04-03-2022INDEM04-03-2022NNN  MIGRATION UPLOAD              04-03-2022                                        
TBI03002072524001  NPR030                 89.42CI04-03-2022     04-03-2022NNN  MIGRATION UPLOAD              04-03-2022                                        
TBI0300000008640002NPR030                298.51DI04-03-2022INDEM04-03-2022NNN  MIGRATION UPLOAD              04-03-2022                                        
TBI03002072524001  NPR030                298.51CI04-03-2022     04-03-2022NNN  MIGRATION UPLOAD              04-03-2022                                        
TBI0300000008790002NPR030                  15.2DI04-03-2022INDEM04-03-2022NNN  MIGRATION UPLOAD              04-03-2022                                        
TBI03002072524001  NPR030                  15.2CI04-03-2022     04-03-2022NNN  MIGRATION UPLOAD              04-03-2022                                        
TBI0300000008790002NPR030                 58.68DI04-03-2022INDEM04-03-2022NNN  MIGRATION UPLOAD              04-03-2022                                        
TBI03002072524001  NPR030                 58.68CI04-03-2022     04-03-2022NNN  MIGRATION UPLOAD              04-03-2022                                        
TBI0300000008790002NPR030                105.94DI04-03-2022INDEM04-03-2022NNN  MIGRATION UPLOAD              04-03-2022                                        
TBI03002072524001  NPR030                105.94CI04-03-2022     04-03-2022NNN  MIGRATION UPLOAD              04-03-2022                                        
TBI0300000008800002NPR030                  15.2DI04-03-2022INDEM04-03-2022NNN  MIGRATION UPLOAD              04-03-2022                                        
TBI03002072524001  NPR030                  15.2CI04-03-2022     04-03-2022NNN  MIGRATION UPLOAD              04-03-2022                                        
TBI0300000008800002NPR030                 58.68DI04-03-2022INDEM04-03-2022NNN  MIGRATION UPLOAD              04-03-2022                                        
TBI03002072524001  NPR030                 58.68CI04-03-2022     04-03-2022NNN  MIGRATION UPLOAD              04-03-2022                                        
TBI0300000008800002NPR030                105.94DI04-03-2022INDEM04-03-2022NNN  MIGRATION UPLOAD              04-03-2022                                        
TBI03002072524001  NPR030                105.94CI04-03-2022     04-03-2022NNN  MIGRATION UPLOAD              04-03-2022                                        
TBI0300000008820002NPR030                  15.2DI04-03-2022INDEM04-03-2022NNN  MIGRATION UPLOAD              04-03-2022                                        
TBI03002072524001  NPR030                  15.2CI04-03-2022     04-03-2022NNN  MIGRATION UPLOAD              04-03-2022                                        
TBI0300000008820002NPR030                 58.68DI04-03-2022INDEM04-03-2022NNN  MIGRATION UPLOAD              04-03-2022                                        
TBI03002072524001  NPR030                 58.68CI04-03-2022     04-03-2022NNN  MIGRATION UPLOAD              04-03-2022                                        
TBI0300000008820002NPR030                105.94DI04-03-2022INDEM04-03-2022NNN  MIGRATION UPLOAD              04-03-2022                                        
TBI03002072524001  NPR030                105.94CI04-03-2022     04-03-2022NNN  MIGRATION UPLOAD              04-03-2022                                        
TBI0300000008990002NPR030                  15.2DI04-03-2022INDEM04-03-2022NNN  MIGRATION UPLOAD              04-03-2022                                        
TBI03002072524001  NPR030                  15.2CI04-03-2022     04-03-2022NNN  MIGRATION UPLOAD              04-03-2022                                        
TBI0300000008990002NPR030                 58.68DI04-03-2022INDEM04-03-2022NNN  MIGRATION UPLOAD              04-03-2022                                        
TBI03002072524001  NPR030                 58.68CI04-03-2022     04-03-2022NNN  MIGRATION UPLOAD              04-03-2022                                        
TBI0300000008990002NPR030                105.94DI04-03-2022INDEM04-03-2022NNN  MIGRATION UPLOAD              04-03-2022                                        
TBI03002072524001  NPR030                105.94CI04-03-2022     04-03-2022NNN  MIGRATION UPLOAD              04-03-2022                                        
TBI0300000009000002NPR030                  15.2DI04-03-2022INDEM04-03-2022NNN  MIGRATION UPLOAD              04-03-2022                                        
TBI03002072524001  NPR030                  15.2CI04-03-2022     04-03-2022NNN  MIGRATION UPLOAD              04-03-2022                                        
TBI0300000009000002NPR030                 58.68DI04-03-2022INDEM04-03-2022NNN  MIGRATION UPLOAD              04-03-2022                                        
TBI03002072524001  NPR030                 58.68CI04-03-2022     04-03-2022NNN  MIGRATION UPLOAD              04-03-2022                                        
TBI0300000009000002NPR030                105.94DI04-03-2022INDEM04-03-2022NNN  MIGRATION UPLOAD              04-03-2022                                        
TBI03002072524001  NPR030                105.94CI04-03-2022     04-03-2022NNN  MIGRATION UPLOAD              04-03-2022                                        
TBI0300000009010002NPR030                  15.2DI04-03-2022INDEM04-03-2022NNN  MIGRATION UPLOAD              04-03-2022                                        
TBI03002072524001  NPR030                  15.2CI04-03-2022     04-03-2022NNN  MIGRATION UPLOAD              04-03-2022                                        
TBI0300000009010002NPR030                 58.68DI04-03-2022INDEM04-03-2022NNN  MIGRATION UPLOAD              04-03-2022                                        
TBI03002072524001  NPR030                 58.68CI04-03-2022     04-03-2022NNN  MIGRATION UPLOAD              04-03-2022                                        
TBI0300000009010002NPR030                105.94DI04-03-2022INDEM04-03-2022NNN  MIGRATION UPLOAD              04-03-2022                                        
TBI03002072524001  NPR030                105.94CI04-03-2022     04-03-2022NNN  MIGRATION UPLOAD              04-03-2022                                        
TBI0300000009180002NPR030                 24.82DI04-03-2022INDEM04-03-2022NNN  MIGRATION UPLOAD              04-03-2022                                        
TBI03002072524001  NPR030                 24.82CI04-03-2022     04-03-2022NNN  MIGRATION UPLOAD              04-03-2022                                        
TBI0300000009180002NPR030                 45.36DI04-03-2022INDEM04-03-2022NNN  MIGRATION UPLOAD              04-03-2022                                        
TBI03002072524001  NPR030                 45.36CI04-03-2022     04-03-2022NNN  MIGRATION UPLOAD              04-03-2022                                        
TBI0300000009180002NPR030                 66.66DI04-03-2022INDEM04-03-2022NNN  MIGRATION UPLOAD              04-03-2022                                        
TBI03002072524001  NPR030                 66.66CI04-03-2022     04-03-2022NNN  MIGRATION UPLOAD              04-03-2022                                        
TBI0300000009190002NPR030                  15.2DI04-03-2022INDEM04-03-2022NNN  MIGRATION UPLOAD              04-03-2022                                        
TBI03002072524001  NPR030                  15.2CI04-03-2022     04-03-2022NNN  MIGRATION UPLOAD              04-03-2022                                        
TBI0300000009190002NPR030                 58.68DI04-03-2022INDEM04-03-2022NNN  MIGRATION UPLOAD              04-03-2022                                        
TBI03002072524001  NPR030                 58.68CI04-03-2022     04-03-2022NNN  MIGRATION UPLOAD              04-03-2022                                        
TBI0300000009190002NPR030                105.94DI04-03-2022INDEM04-03-2022NNN  MIGRATION UPLOAD              04-03-2022                                        
TBI03002072524001  NPR030                105.94CI04-03-2022     04-03-2022NNN  MIGRATION UPLOAD              04-03-2022                                        
TBI0300000009200002NPR030                  15.2DI04-03-2022INDEM04-03-2022NNN  MIGRATION UPLOAD              04-03-2022                                        
TBI03002072524001  NPR030                  15.2CI04-03-2022     04-03-2022NNN  MIGRATION UPLOAD              04-03-2022                                        
TBI0300000009200002NPR030                 58.68DI04-03-2022INDEM04-03-2022NNN  MIGRATION UPLOAD              04-03-2022                                        
TBI03002072524001  NPR030                 58.68CI04-03-2022     04-03-2022NNN  MIGRATION UPLOAD              04-03-2022                                        
TBI0300000009200002NPR030                105.94DI04-03-2022INDEM04-03-2022NNN  MIGRATION UPLOAD              04-03-2022                                        
TBI03002072524001  NPR030                105.94CI04-03-2022     04-03-2022NNN  MIGRATION UPLOAD              04-03-2022                                        
TBI0300000009480002NPR030                  15.2DI04-03-2022INDEM04-03-2022NNN  MIGRATION UPLOAD              04-03-2022                                        
TBI03002072524001  NPR030                  15.2CI04-03-2022     04-03-2022NNN  MIGRATION UPLOAD              04-03-2022                                        
TBI0300000009480002NPR030                 58.68DI04-03-2022INDEM04-03-2022NNN  MIGRATION UPLOAD              04-03-2022                                        
TBI03002072524001  NPR030                 58.68CI04-03-2022     04-03-2022NNN  MIGRATION UPLOAD              04-03-2022                                        
TBI0300000009480002NPR030                105.94DI04-03-2022INDEM04-03-2022NNN  MIGRATION UPLOAD              04-03-2022                                        
TBI03002072524001  NPR030                105.94CI04-03-2022     04-03-2022NNN  MIGRATION UPLOAD              04-03-2022                                        
TBI0300000009490002NPR030                 24.82DI04-03-2022INDEM04-03-2022NNN  MIGRATION UPLOAD              04-03-2022                                        
TBI03002072524001  NPR030                 24.82CI04-03-2022     04-03-2022NNN  MIGRATION UPLOAD              04-03-2022                                        
TBI0300000009490002NPR030                 45.36DI04-03-2022INDEM04-03-2022NNN  MIGRATION UPLOAD              04-03-2022                                        
TBI03002072524001  NPR030                 45.36CI04-03-2022     04-03-2022NNN  MIGRATION UPLOAD              04-03-2022                                        
TBI0300000009490002NPR030                 66.66DI04-03-2022INDEM04-03-2022NNN  MIGRATION UPLOAD              04-03-2022                                        
TBI03002072524001  NPR030                 66.66CI04-03-2022     04-03-2022NNN  MIGRATION UPLOAD              04-03-2022                                        
TBI0300000009500002NPR030                 24.82DI04-03-2022INDEM04-03-2022NNN  MIGRATION UPLOAD              04-03-2022                                        
TBI03002072524001  NPR030                 24.82CI04-03-2022     04-03-2022NNN  MIGRATION UPLOAD              04-03-2022                                        
TBI0300000009500002NPR030                 45.36DI04-03-2022INDEM04-03-2022NNN  MIGRATION UPLOAD              04-03-2022                                        
TBI03002072524001  NPR030                 45.36CI04-03-2022     04-03-2022NNN  MIGRATION UPLOAD              04-03-2022                                        
TBI0300000009500002NPR030                 66.66DI04-03-2022INDEM04-03-2022NNN  MIGRATION UPLOAD              04-03-2022                                        
TBI03002072524001  NPR030                 66.66CI04-03-2022     04-03-2022NNN  MIGRATION UPLOAD              04-03-2022                                        
TBI0300000009640003NPR030                  15.2DI04-03-2022INDEM04-03-2022NNN  MIGRATION UPLOAD              04-03-2022                                        
TBI03002072524001  NPR030                  15.2CI04-03-2022     04-03-2022NNN  MIGRATION UPLOAD              04-03-2022                                        
TBI0300000009640003NPR030                 58.68DI04-03-2022INDEM04-03-2022NNN  MIGRATION UPLOAD              04-03-2022                                        
TBI03002072524001  NPR030                 58.68CI04-03-2022     04-03-2022NNN  MIGRATION UPLOAD              04-03-2022                                        
TBI0300000009640003NPR030                105.94DI04-03-2022INDEM04-03-2022NNN  MIGRATION UPLOAD              04-03-2022                                        
TBI03002072524001  NPR030                105.94CI04-03-2022     04-03-2022NNN  MIGRATION UPLOAD              04-03-2022                                        
TBI0300000009650002NPR030                  15.2DI04-03-2022INDEM04-03-2022NNN  MIGRATION UPLOAD              04-03-2022                                        
TBI03002072524001  NPR030                  15.2CI04-03-2022     04-03-2022NNN  MIGRATION UPLOAD              04-03-2022                                        
TBI0300000009650002NPR030                 58.68DI04-03-2022INDEM04-03-2022NNN  MIGRATION UPLOAD              04-03-2022                                        
TBI03002072524001  NPR030                 58.68CI04-03-2022     04-03-2022NNN  MIGRATION UPLOAD              04-03-2022                                        
TBI0300000009650002NPR030                105.94DI04-03-2022INDEM04-03-2022NNN  MIGRATION UPLOAD              04-03-2022                                        
TBI03002072524001  NPR030                105.94CI04-03-2022     04-03-2022NNN  MIGRATION UPLOAD              04-03-2022                                        
TBI0300000009660002NPR030                 22.99DI04-03-2022INDEM04-03-2022NNN  MIGRATION UPLOAD              04-03-2022                                        
TBI03002072524001  NPR030                 22.99CI04-03-2022     04-03-2022NNN  MIGRATION UPLOAD              04-03-2022                                        
TBI0300000009660002NPR030                 88.36DI04-03-2022INDEM04-03-2022NNN  MIGRATION UPLOAD              04-03-2022                                        
TBI03002072524001  NPR030                 88.36CI04-03-2022     04-03-2022NNN  MIGRATION UPLOAD              04-03-2022                                        
TBI0300000009660002NPR030                160.18DI04-03-2022INDEM04-03-2022NNN  MIGRATION UPLOAD              04-03-2022                                        
TBI03002072524001  NPR030                160.18CI04-03-2022     04-03-2022NNN  MIGRATION UPLOAD              04-03-2022                                        
TBI0300000009670002NPR030                 22.99DI04-03-2022INDEM04-03-2022NNN  MIGRATION UPLOAD              04-03-2022                                        
TBI03002072524001  NPR030                 22.99CI04-03-2022     04-03-2022NNN  MIGRATION UPLOAD              04-03-2022                                        
TBI0300000009670002NPR030                 88.36DI04-03-2022INDEM04-03-2022NNN  MIGRATION UPLOAD              04-03-2022                                        
TBI03002072524001  NPR030                 88.36CI04-03-2022     04-03-2022NNN  MIGRATION UPLOAD              04-03-2022                                        
TBI0300000009670002NPR030                160.18DI04-03-2022INDEM04-03-2022NNN  MIGRATION UPLOAD              04-03-2022                                        
TBI03002072524001  NPR030                160.18CI04-03-2022     04-03-2022NNN  MIGRATION UPLOAD              04-03-2022                                        
TBI0300000009680003NPR030                  15.2DI04-03-2022INDEM04-03-2022NNN  MIGRATION UPLOAD              04-03-2022                                        
TBI03002072524001  NPR030                  15.2CI04-03-2022     04-03-2022NNN  MIGRATION UPLOAD              04-03-2022                                        
TBI0300000009680003NPR030                 58.68DI04-03-2022INDEM04-03-2022NNN  MIGRATION UPLOAD              04-03-2022                                        
TBI03002072524001  NPR030                 58.68CI04-03-2022     04-03-2022NNN  MIGRATION UPLOAD              04-03-2022                                        
TBI0300000009680003NPR030                105.94DI04-03-2022INDEM04-03-2022NNN  MIGRATION UPLOAD              04-03-2022                                        
TBI03002072524001  NPR030                105.94CI04-03-2022     04-03-2022NNN  MIGRATION UPLOAD              04-03-2022                                        
TBI0300000009690002NPR030                  15.2DI04-03-2022INDEM04-03-2022NNN  MIGRATION UPLOAD              04-03-2022                                        
TBI03002072524001  NPR030                  15.2CI04-03-2022     04-03-2022NNN  MIGRATION UPLOAD              04-03-2022                                        
TBI0300000009690002NPR030                 58.68DI04-03-2022INDEM04-03-2022NNN  MIGRATION UPLOAD              04-03-2022                                        
TBI03002072524001  NPR030                 58.68CI04-03-2022     04-03-2022NNN  MIGRATION UPLOAD              04-03-2022                                        
TBI0300000009690002NPR030                105.94DI04-03-2022INDEM04-03-2022NNN  MIGRATION UPLOAD              04-03-2022                                        
TBI03002072524001  NPR030                105.94CI04-03-2022     04-03-2022NNN  MIGRATION UPLOAD              04-03-2022                                        
TBI0300000009700002NPR030                  15.2DI04-03-2022INDEM04-03-2022NNN  MIGRATION UPLOAD              04-03-2022                                        
TBI03002072524001  NPR030                  15.2CI04-03-2022     04-03-2022NNN  MIGRATION UPLOAD              04-03-2022                                        
TBI0300000009700002NPR030                 58.68DI04-03-2022INDEM04-03-2022NNN  MIGRATION UPLOAD              04-03-2022                                        
TBI03002072524001  NPR030                 58.68CI04-03-2022     04-03-2022NNN  MIGRATION UPLOAD              04-03-2022                                        
TBI0300000009700002NPR030                105.94DI04-03-2022INDEM04-03-2022NNN  MIGRATION UPLOAD              04-03-2022                                        
TBI03002072524001  NPR030                105.94CI04-03-2022     04-03-2022NNN  MIGRATION UPLOAD              04-03-2022                                        
TBI0300000009710002NPR030                  15.2DI04-03-2022INDEM04-03-2022NNN  MIGRATION UPLOAD              04-03-2022                                        
TBI03002072524001  NPR030                  15.2CI04-03-2022     04-03-2022NNN  MIGRATION UPLOAD              04-03-2022                                        
TBI0300000009710002NPR030                 58.68DI04-03-2022INDEM04-03-2022NNN  MIGRATION UPLOAD              04-03-2022                                        
TBI03002072524001  NPR030                 58.68CI04-03-2022     04-03-2022NNN  MIGRATION UPLOAD              04-03-2022                                        
TBI0300000009710002NPR030                105.94DI04-03-2022INDEM04-03-2022NNN  MIGRATION UPLOAD              04-03-2022                                        
TBI03002072524001  NPR030                105.94CI04-03-2022     04-03-2022NNN  MIGRATION UPLOAD              04-03-2022                                        
TBI0300000009720002NPR030                  15.2DI04-03-2022INDEM04-03-2022NNN  MIGRATION UPLOAD              04-03-2022                                        
TBI03002072524001  NPR030                  15.2CI04-03-2022     04-03-2022NNN  MIGRATION UPLOAD              04-03-2022                                        
TBI0300000009720002NPR030                 58.68DI04-03-2022INDEM04-03-2022NNN  MIGRATION UPLOAD              04-03-2022                                        
TBI03002072524001  NPR030                 58.68CI04-03-2022     04-03-2022NNN  MIGRATION UPLOAD              04-03-2022                                        
TBI0300000009720002NPR030                105.94DI04-03-2022INDEM04-03-2022NNN  MIGRATION UPLOAD              04-03-2022                                        
TBI03002072524001  NPR030                105.94CI04-03-2022     04-03-2022NNN  MIGRATION UPLOAD              04-03-2022                                        
TBI0300000009730002NPR030                  15.2DI04-03-2022INDEM04-03-2022NNN  MIGRATION UPLOAD              04-03-2022                                        
TBI03002072524001  NPR030                  15.2CI04-03-2022     04-03-2022NNN  MIGRATION UPLOAD              04-03-2022                                        
TBI0300000009730002NPR030                 58.68DI04-03-2022INDEM04-03-2022NNN  MIGRATION UPLOAD              04-03-2022                                        
TBI03002072524001  NPR030                 58.68CI04-03-2022     04-03-2022NNN  MIGRATION UPLOAD              04-03-2022                                        
TBI0300000009730002NPR030                105.94DI04-03-2022INDEM04-03-2022NNN  MIGRATION UPLOAD              04-03-2022                                        
TBI03002072524001  NPR030                105.94CI04-03-2022     04-03-2022NNN  MIGRATION UPLOAD              04-03-2022                                        
TBI0300000009740002NPR030                  15.2DI04-03-2022INDEM04-03-2022NNN  MIGRATION UPLOAD              04-03-2022                                        
TBI03002072524001  NPR030                  15.2CI04-03-2022     04-03-2022NNN  MIGRATION UPLOAD              04-03-2022                                        
TBI0300000009740002NPR030                 58.68DI04-03-2022INDEM04-03-2022NNN  MIGRATION UPLOAD              04-03-2022                                        
TBI03002072524001  NPR030                 58.68CI04-03-2022     04-03-2022NNN  MIGRATION UPLOAD              04-03-2022                                        
TBI0300000009740002NPR030                105.94DI04-03-2022INDEM04-03-2022NNN  MIGRATION UPLOAD              04-03-2022                                        
TBI03002072524001  NPR030                105.94CI04-03-2022     04-03-2022NNN  MIGRATION UPLOAD              04-03-2022                                        
TBI0300000009750002NPR030                  15.2DI04-03-2022INDEM04-03-2022NNN  MIGRATION UPLOAD              04-03-2022                                        
TBI03002072524001  NPR030                  15.2CI04-03-2022     04-03-2022NNN  MIGRATION UPLOAD              04-03-2022                                        
TBI0300000009750002NPR030                 58.68DI04-03-2022INDEM04-03-2022NNN  MIGRATION UPLOAD              04-03-2022                                        
TBI03002072524001  NPR030                 58.68CI04-03-2022     04-03-2022NNN  MIGRATION UPLOAD              04-03-2022                                        
TBI0300000009750002NPR030                105.94DI04-03-2022INDEM04-03-2022NNN  MIGRATION UPLOAD              04-03-2022                                        
TBI03002072524001  NPR030                105.94CI04-03-2022     04-03-2022NNN  MIGRATION UPLOAD              04-03-2022                                        
TBI0300000009760002NPR030                  15.2DI04-03-2022INDEM04-03-2022NNN  MIGRATION UPLOAD              04-03-2022                                        
TBI03002072524001  NPR030                  15.2CI04-03-2022     04-03-2022NNN  MIGRATION UPLOAD              04-03-2022                                        
TBI0300000009760002NPR030                 58.68DI04-03-2022INDEM04-03-2022NNN  MIGRATION UPLOAD              04-03-2022                                        
TBI03002072524001  NPR030                 58.68CI04-03-2022     04-03-2022NNN  MIGRATION UPLOAD              04-03-2022                                        
TBI0300000009760002NPR030                105.94DI04-03-2022INDEM04-03-2022NNN  MIGRATION UPLOAD              04-03-2022                                        
TBI03002072524001  NPR030                105.94CI04-03-2022     04-03-2022NNN  MIGRATION UPLOAD              04-03-2022                                        
TBI0300000009770002NPR030                  15.2DI04-03-2022INDEM04-03-2022NNN  MIGRATION UPLOAD              04-03-2022                                        
TBI03002072524001  NPR030                  15.2CI04-03-2022     04-03-2022NNN  MIGRATION UPLOAD              04-03-2022                                        
TBI0300000009770002NPR030                 58.68DI04-03-2022INDEM04-03-2022NNN  MIGRATION UPLOAD              04-03-2022                                        
TBI03002072524001  NPR030                 58.68CI04-03-2022     04-03-2022NNN  MIGRATION UPLOAD              04-03-2022                                        
TBI0300000009770002NPR030                105.94DI04-03-2022INDEM04-03-2022NNN  MIGRATION UPLOAD              04-03-2022                                        
TBI03002072524001  NPR030                105.94CI04-03-2022     04-03-2022NNN  MIGRATION UPLOAD              04-03-2022                                        
TBI0300000009780002NPR030                  15.2DI04-03-2022INDEM04-03-2022NNN  MIGRATION UPLOAD              04-03-2022                                        
TBI03002072524001  NPR030                  15.2CI04-03-2022     04-03-2022NNN  MIGRATION UPLOAD              04-03-2022                                        
TBI0300000009780002NPR030                 58.68DI04-03-2022INDEM04-03-2022NNN  MIGRATION UPLOAD              04-03-2022                                        
TBI03002072524001  NPR030                 58.68CI04-03-2022     04-03-2022NNN  MIGRATION UPLOAD              04-03-2022                                        
TBI0300000009780002NPR030                105.94DI04-03-2022INDEM04-03-2022NNN  MIGRATION UPLOAD              04-03-2022                                        
TBI03002072524001  NPR030                105.94CI04-03-2022     04-03-2022NNN  MIGRATION UPLOAD              04-03-2022                                        
TBI0300000009790002NPR030                  15.2DI04-03-2022INDEM04-03-2022NNN  MIGRATION UPLOAD              04-03-2022                                        
TBI03002072524001  NPR030                  15.2CI04-03-2022     04-03-2022NNN  MIGRATION UPLOAD              04-03-2022                                        
TBI0300000009790002NPR030                 58.68DI04-03-2022INDEM04-03-2022NNN  MIGRATION UPLOAD              04-03-2022                                        
TBI03002072524001  NPR030                 58.68CI04-03-2022     04-03-2022NNN  MIGRATION UPLOAD              04-03-2022                                        
TBI0300000009790002NPR030                105.94DI04-03-2022INDEM04-03-2022NNN  MIGRATION UPLOAD              04-03-2022                                        
TBI03002072524001  NPR030                105.94CI04-03-2022     04-03-2022NNN  MIGRATION UPLOAD              04-03-2022                                        
TBI0300000009800002NPR030                  15.2DI04-03-2022INDEM04-03-2022NNN  MIGRATION UPLOAD              04-03-2022                                        
TBI03002072524001  NPR030                  15.2CI04-03-2022     04-03-2022NNN  MIGRATION UPLOAD              04-03-2022                                        
TBI0300000009800002NPR030                 58.68DI04-03-2022INDEM04-03-2022NNN  MIGRATION UPLOAD              04-03-2022                                        
TBI03002072524001  NPR030                 58.68CI04-03-2022     04-03-2022NNN  MIGRATION UPLOAD              04-03-2022                                        
TBI0300000009800002NPR030                105.94DI04-03-2022INDEM04-03-2022NNN  MIGRATION UPLOAD              04-03-2022                                        
TBI03002072524001  NPR030                105.94CI04-03-2022     04-03-2022NNN  MIGRATION UPLOAD              04-03-2022                                        
TBI0300000009810002NPR030                  15.2DI04-03-2022INDEM04-03-2022NNN  MIGRATION UPLOAD              04-03-2022                                        
TBI03002072524001  NPR030                  15.2CI04-03-2022     04-03-2022NNN  MIGRATION UPLOAD              04-03-2022                                        
TBI0300000009810002NPR030                 58.68DI04-03-2022INDEM04-03-2022NNN  MIGRATION UPLOAD              04-03-2022                                        
TBI03002072524001  NPR030                 58.68CI04-03-2022     04-03-2022NNN  MIGRATION UPLOAD              04-03-2022                                        
TBI0300000009810002NPR030                105.94DI04-03-2022INDEM04-03-2022NNN  MIGRATION UPLOAD              04-03-2022                                        
TBI03002072524001  NPR030                105.94CI04-03-2022     04-03-2022NNN  MIGRATION UPLOAD              04-03-2022                                        
TBI0300000009820002NPR030                  15.2DI04-03-2022INDEM04-03-2022NNN  MIGRATION UPLOAD              04-03-2022                                        
TBI03002072524001  NPR030                  15.2CI04-03-2022     04-03-2022NNN  MIGRATION UPLOAD              04-03-2022                                        
TBI0300000009820002NPR030                 58.68DI04-03-2022INDEM04-03-2022NNN  MIGRATION UPLOAD              04-03-2022                                        
TBI03002072524001  NPR030                 58.68CI04-03-2022     04-03-2022NNN  MIGRATION UPLOAD              04-03-2022                                        
TBI0300000009820002NPR030                105.94DI04-03-2022INDEM04-03-2022NNN  MIGRATION UPLOAD              04-03-2022                                        
TBI03002072524001  NPR030                105.94CI04-03-2022     04-03-2022NNN  MIGRATION UPLOAD              04-03-2022                                        
TBI0300000009830002NPR030                  15.2DI04-03-2022INDEM04-03-2022NNN  MIGRATION UPLOAD              04-03-2022                                        
TBI03002072524001  NPR030                  15.2CI04-03-2022     04-03-2022NNN  MIGRATION UPLOAD              04-03-2022                                        
TBI0300000009830002NPR030                 58.68DI04-03-2022INDEM04-03-2022NNN  MIGRATION UPLOAD              04-03-2022                                        
TBI03002072524001  NPR030                 58.68CI04-03-2022     04-03-2022NNN  MIGRATION UPLOAD              04-03-2022                                        
TBI0300000009830002NPR030                105.94DI04-03-2022INDEM04-03-2022NNN  MIGRATION UPLOAD              04-03-2022                                        
TBI03002072524001  NPR030                105.94CI04-03-2022     04-03-2022NNN  MIGRATION UPLOAD              04-03-2022                                        
TBI0300000009840002NPR030                  15.2DI04-03-2022INDEM04-03-2022NNN  MIGRATION UPLOAD              04-03-2022                                        
TBI03002072524001  NPR030                  15.2CI04-03-2022     04-03-2022NNN  MIGRATION UPLOAD              04-03-2022                                        
TBI0300000009840002NPR030                 58.68DI04-03-2022INDEM04-03-2022NNN  MIGRATION UPLOAD              04-03-2022                                        
TBI03002072524001  NPR030                 58.68CI04-03-2022     04-03-2022NNN  MIGRATION UPLOAD              04-03-2022                                        
TBI0300000009840002NPR030                105.94DI04-03-2022INDEM04-03-2022NNN  MIGRATION UPLOAD              04-03-2022                                        
TBI03002072524001  NPR030                105.94CI04-03-2022     04-03-2022NNN  MIGRATION UPLOAD              04-03-2022                                        
TBI0300000009850002NPR030                 24.82DI04-03-2022INDEM04-03-2022NNN  MIGRATION UPLOAD              04-03-2022                                        
TBI03002072524001  NPR030                 24.82CI04-03-2022     04-03-2022NNN  MIGRATION UPLOAD              04-03-2022                                        
TBI0300000009850002NPR030                 45.36DI04-03-2022INDEM04-03-2022NNN  MIGRATION UPLOAD              04-03-2022                                        
TBI03002072524001  NPR030                 45.36CI04-03-2022     04-03-2022NNN  MIGRATION UPLOAD              04-03-2022                                        
TBI0300000009850002NPR030                 66.66DI04-03-2022INDEM04-03-2022NNN  MIGRATION UPLOAD              04-03-2022                                        
TBI03002072524001  NPR030                 66.66CI04-03-2022     04-03-2022NNN  MIGRATION UPLOAD              04-03-2022                                        
TBI0300000009860002NPR030                 22.99DI04-03-2022INDEM04-03-2022NNN  MIGRATION UPLOAD              04-03-2022                                        
TBI03002072524001  NPR030                 22.99CI04-03-2022     04-03-2022NNN  MIGRATION UPLOAD              04-03-2022                                        
TBI0300000009860002NPR030                 88.36DI04-03-2022INDEM04-03-2022NNN  MIGRATION UPLOAD              04-03-2022                                        
TBI03002072524001  NPR030                 88.36CI04-03-2022     04-03-2022NNN  MIGRATION UPLOAD              04-03-2022                                        
TBI0300000009860002NPR030                160.18DI04-03-2022INDEM04-03-2022NNN  MIGRATION UPLOAD              04-03-2022                                        
TBI03002072524001  NPR030                160.18CI04-03-2022     04-03-2022NNN  MIGRATION UPLOAD              04-03-2022                                        
TBI0300000009870002NPR030                  15.2DI04-03-2022INDEM04-03-2022NNN  MIGRATION UPLOAD              04-03-2022                                        
TBI03002072524001  NPR030                  15.2CI04-03-2022     04-03-2022NNN  MIGRATION UPLOAD              04-03-2022                                        
TBI0300000009870002NPR030                 58.68DI04-03-2022INDEM04-03-2022NNN  MIGRATION UPLOAD              04-03-2022                                        
TBI03002072524001  NPR030                 58.68CI04-03-2022     04-03-2022NNN  MIGRATION UPLOAD              04-03-2022                                        
TBI0300000009870002NPR030                105.94DI04-03-2022INDEM04-03-2022NNN  MIGRATION UPLOAD              04-03-2022                                        
TBI03002072524001  NPR030                105.94CI04-03-2022     04-03-2022NNN  MIGRATION UPLOAD              04-03-2022                                        
TBI0300000009880002NPR030                  15.2DI04-03-2022INDEM04-03-2022NNN  MIGRATION UPLOAD              04-03-2022                                        
TBI03002072524001  NPR030                  15.2CI04-03-2022     04-03-2022NNN  MIGRATION UPLOAD              04-03-2022                                        
TBI0300000009880002NPR030                 58.68DI04-03-2022INDEM04-03-2022NNN  MIGRATION UPLOAD              04-03-2022                                        
TBI03002072524001  NPR030                 58.68CI04-03-2022     04-03-2022NNN  MIGRATION UPLOAD              04-03-2022                                        
TBI0300000009880002NPR030                105.94DI04-03-2022INDEM04-03-2022NNN  MIGRATION UPLOAD              04-03-2022                                        
TBI03002072524001  NPR030                105.94CI04-03-2022     04-03-2022NNN  MIGRATION UPLOAD              04-03-2022                                        
TBI0300000009890002NPR030                  15.2DI04-03-2022INDEM04-03-2022NNN  MIGRATION UPLOAD              04-03-2022                                        
TBI03002072524001  NPR030                  15.2CI04-03-2022     04-03-2022NNN  MIGRATION UPLOAD              04-03-2022                                        
TBI0300000009890002NPR030                 58.68DI04-03-2022INDEM04-03-2022NNN  MIGRATION UPLOAD              04-03-2022                                        
TBI03002072524001  NPR030                 58.68CI04-03-2022     04-03-2022NNN  MIGRATION UPLOAD              04-03-2022                                        
TBI0300000009890002NPR030                105.94DI04-03-2022INDEM04-03-2022NNN  MIGRATION UPLOAD              04-03-2022                                        
TBI03002072524001  NPR030                105.94CI04-03-2022     04-03-2022NNN  MIGRATION UPLOAD              04-03-2022                                        
TBI0300000009900002NPR030                  15.2DI04-03-2022INDEM04-03-2022NNN  MIGRATION UPLOAD              04-03-2022                                        
TBI03002072524001  NPR030                  15.2CI04-03-2022     04-03-2022NNN  MIGRATION UPLOAD              04-03-2022                                        
TBI0300000009900002NPR030                 58.68DI04-03-2022INDEM04-03-2022NNN  MIGRATION UPLOAD              04-03-2022                                        
TBI03002072524001  NPR030                 58.68CI04-03-2022     04-03-2022NNN  MIGRATION UPLOAD              04-03-2022                                        
TBI0300000009900002NPR030                105.94DI04-03-2022INDEM04-03-2022NNN  MIGRATION UPLOAD              04-03-2022                                        
TBI03002072524001  NPR030                105.94CI04-03-2022     04-03-2022NNN  MIGRATION UPLOAD              04-03-2022                                        
TBI0300000009920002NPR030                  15.2DI04-03-2022INDEM04-03-2022NNN  MIGRATION UPLOAD              04-03-2022                                        
TBI03002072524001  NPR030                  15.2CI04-03-2022     04-03-2022NNN  MIGRATION UPLOAD              04-03-2022                                        
TBI0300000009920002NPR030                 58.68DI04-03-2022INDEM04-03-2022NNN  MIGRATION UPLOAD              04-03-2022                                        
TBI03002072524001  NPR030                 58.68CI04-03-2022     04-03-2022NNN  MIGRATION UPLOAD              04-03-2022                                        
TBI0300000009920002NPR030                105.94DI04-03-2022INDEM04-03-2022NNN  MIGRATION UPLOAD              04-03-2022                                        
TBI03002072524001  NPR030                105.94CI04-03-2022     04-03-2022NNN  MIGRATION UPLOAD              04-03-2022                                        
TBI0300000009930002NPR030                 22.99DI04-03-2022INDEM04-03-2022NNN  MIGRATION UPLOAD              04-03-2022                                        
TBI03002072524001  NPR030                 22.99CI04-03-2022     04-03-2022NNN  MIGRATION UPLOAD              04-03-2022                                        
TBI0300000009930002NPR030                 88.36DI04-03-2022INDEM04-03-2022NNN  MIGRATION UPLOAD              04-03-2022                                        
TBI03002072524001  NPR030                 88.36CI04-03-2022     04-03-2022NNN  MIGRATION UPLOAD              04-03-2022                                        
TBI0300000009930002NPR030                160.18DI04-03-2022INDEM04-03-2022NNN  MIGRATION UPLOAD              04-03-2022                                        
TBI03002072524001  NPR030                160.18CI04-03-2022     04-03-2022NNN  MIGRATION UPLOAD              04-03-2022                                        
TBI0300000009940002NPR030                  15.2DI04-03-2022INDEM04-03-2022NNN  MIGRATION UPLOAD              04-03-2022                                        
TBI03002072524001  NPR030                  15.2CI04-03-2022     04-03-2022NNN  MIGRATION UPLOAD              04-03-2022                                        
TBI0300000009940002NPR030                 58.68DI04-03-2022INDEM04-03-2022NNN  MIGRATION UPLOAD              04-03-2022                                        
TBI03002072524001  NPR030                 58.68CI04-03-2022     04-03-2022NNN  MIGRATION UPLOAD              04-03-2022                                        
TBI0300000009940002NPR030                105.94DI04-03-2022INDEM04-03-2022NNN  MIGRATION UPLOAD              04-03-2022                                        
TBI03002072524001  NPR030                105.94CI04-03-2022     04-03-2022NNN  MIGRATION UPLOAD              04-03-2022                                        
TBI0300000009950002NPR030                 22.99DI04-03-2022INDEM04-03-2022NNN  MIGRATION UPLOAD              04-03-2022                                        
TBI03002072524001  NPR030                 22.99CI04-03-2022     04-03-2022NNN  MIGRATION UPLOAD              04-03-2022                                        
TBI0300000009950002NPR030                 88.36DI04-03-2022INDEM04-03-2022NNN  MIGRATION UPLOAD              04-03-2022                                        
TBI03002072524001  NPR030                 88.36CI04-03-2022     04-03-2022NNN  MIGRATION UPLOAD              04-03-2022                                        
TBI0300000009950002NPR030                160.18DI04-03-2022INDEM04-03-2022NNN  MIGRATION UPLOAD              04-03-2022                                        
TBI03002072524001  NPR030                160.18CI04-03-2022     04-03-2022NNN  MIGRATION UPLOAD              04-03-2022                                        
TBI0300000009960002NPR030                  15.2DI04-03-2022INDEM04-03-2022NNN  MIGRATION UPLOAD              04-03-2022                                        
TBI03002072524001  NPR030                  15.2CI04-03-2022     04-03-2022NNN  MIGRATION UPLOAD              04-03-2022                                        
TBI0300000009960002NPR030                 58.68DI04-03-2022INDEM04-03-2022NNN  MIGRATION UPLOAD              04-03-2022                                        
TBI03002072524001  NPR030                 58.68CI04-03-2022     04-03-2022NNN  MIGRATION UPLOAD              04-03-2022                                        
TBI0300000009960002NPR030                105.94DI04-03-2022INDEM04-03-2022NNN  MIGRATION UPLOAD              04-03-2022                                        
TBI03002072524001  NPR030                105.94CI04-03-2022     04-03-2022NNN  MIGRATION UPLOAD              04-03-2022                                        
TBI0300000009970002NPR030                  15.2DI04-03-2022INDEM04-03-2022NNN  MIGRATION UPLOAD              04-03-2022                                        
TBI03002072524001  NPR030                  15.2CI04-03-2022     04-03-2022NNN  MIGRATION UPLOAD              04-03-2022                                        
TBI0300000009970002NPR030                 58.68DI04-03-2022INDEM04-03-2022NNN  MIGRATION UPLOAD              04-03-2022                                        
TBI03002072524001  NPR030                 58.68CI04-03-2022     04-03-2022NNN  MIGRATION UPLOAD              04-03-2022                                        
TBI0300000009970002NPR030                105.94DI04-03-2022INDEM04-03-2022NNN  MIGRATION UPLOAD              04-03-2022                                        
TBI03002072524001  NPR030                105.94CI04-03-2022     04-03-2022NNN  MIGRATION UPLOAD              04-03-2022                                        
TBI0300000009980002NPR030                  15.2DI04-03-2022INDEM04-03-2022NNN  MIGRATION UPLOAD              04-03-2022                                        
TBI03002072524001  NPR030                  15.2CI04-03-2022     04-03-2022NNN  MIGRATION UPLOAD              04-03-2022                                        
TBI0300000009980002NPR030                 58.68DI04-03-2022INDEM04-03-2022NNN  MIGRATION UPLOAD              04-03-2022                                        
TBI03002072524001  NPR030                 58.68CI04-03-2022     04-03-2022NNN  MIGRATION UPLOAD              04-03-2022                                        
TBI0300000009980002NPR030                105.94DI04-03-2022INDEM04-03-2022NNN  MIGRATION UPLOAD              04-03-2022                                        
TBI03002072524001  NPR030                105.94CI04-03-2022     04-03-2022NNN  MIGRATION UPLOAD              04-03-2022                                        
TBI0300000009990002NPR030                  15.2DI04-03-2022INDEM04-03-2022NNN  MIGRATION UPLOAD              04-03-2022                                        
TBI03002072524001  NPR030                  15.2CI04-03-2022     04-03-2022NNN  MIGRATION UPLOAD              04-03-2022                                        
TBI0300000009990002NPR030                 58.68DI04-03-2022INDEM04-03-2022NNN  MIGRATION UPLOAD              04-03-2022                                        
TBI03002072524001  NPR030                 58.68CI04-03-2022     04-03-2022NNN  MIGRATION UPLOAD              04-03-2022                                        
TBI0300000009990002NPR030                105.94DI04-03-2022INDEM04-03-2022NNN  MIGRATION UPLOAD              04-03-2022                                        
TBI03002072524001  NPR030                105.94CI04-03-2022     04-03-2022NNN  MIGRATION UPLOAD              04-03-2022                                        
TBI0300000010000002NPR030                  15.2DI04-03-2022INDEM04-03-2022NNN  MIGRATION UPLOAD              04-03-2022                                        
TBI03002072524001  NPR030                  15.2CI04-03-2022     04-03-2022NNN  MIGRATION UPLOAD              04-03-2022                                        
TBI0300000010000002NPR030                 58.68DI04-03-2022INDEM04-03-2022NNN  MIGRATION UPLOAD              04-03-2022                                        
TBI03002072524001  NPR030                 58.68CI04-03-2022     04-03-2022NNN  MIGRATION UPLOAD              04-03-2022                                        
TBI0300000010000002NPR030                105.94DI04-03-2022INDEM04-03-2022NNN  MIGRATION UPLOAD              04-03-2022                                        
TBI03002072524001  NPR030                105.94CI04-03-2022     04-03-2022NNN  MIGRATION UPLOAD              04-03-2022                                        
TBI0300000010010002NPR030                  15.2DI04-03-2022INDEM04-03-2022NNN  MIGRATION UPLOAD              04-03-2022                                        
TBI03002072524001  NPR030                  15.2CI04-03-2022     04-03-2022NNN  MIGRATION UPLOAD              04-03-2022                                        
TBI0300000010010002NPR030                 58.68DI04-03-2022INDEM04-03-2022NNN  MIGRATION UPLOAD              04-03-2022                                        
TBI03002072524001  NPR030                 58.68CI04-03-2022     04-03-2022NNN  MIGRATION UPLOAD              04-03-2022                                        
TBI0300000010010002NPR030                105.94DI04-03-2022INDEM04-03-2022NNN  MIGRATION UPLOAD              04-03-2022                                        
TBI03002072524001  NPR030                105.94CI04-03-2022     04-03-2022NNN  MIGRATION UPLOAD              04-03-2022                                        
TBI0300000010020002NPR030                  15.2DI04-03-2022INDEM04-03-2022NNN  MIGRATION UPLOAD              04-03-2022                                        
TBI03002072524001  NPR030                  15.2CI04-03-2022     04-03-2022NNN  MIGRATION UPLOAD              04-03-2022                                        
TBI0300000010020002NPR030                 58.68DI04-03-2022INDEM04-03-2022NNN  MIGRATION UPLOAD              04-03-2022                                        
TBI03002072524001  NPR030                 58.68CI04-03-2022     04-03-2022NNN  MIGRATION UPLOAD              04-03-2022                                        
TBI0300000010020002NPR030                105.94DI04-03-2022INDEM04-03-2022NNN  MIGRATION UPLOAD              04-03-2022                                        
TBI03002072524001  NPR030                105.94CI04-03-2022     04-03-2022NNN  MIGRATION UPLOAD              04-03-2022                                        
TBI0300000010030002NPR030                  15.2DI04-03-2022INDEM04-03-2022NNN  MIGRATION UPLOAD              04-03-2022                                        
TBI03002072524001  NPR030                  15.2CI04-03-2022     04-03-2022NNN  MIGRATION UPLOAD              04-03-2022                                        
TBI0300000010030002NPR030                 58.68DI04-03-2022INDEM04-03-2022NNN  MIGRATION UPLOAD              04-03-2022                                        
TBI03002072524001  NPR030                 58.68CI04-03-2022     04-03-2022NNN  MIGRATION UPLOAD              04-03-2022                                        
TBI0300000010030002NPR030                105.94DI04-03-2022INDEM04-03-2022NNN  MIGRATION UPLOAD              04-03-2022                                        
TBI03002072524001  NPR030                105.94CI04-03-2022     04-03-2022NNN  MIGRATION UPLOAD              04-03-2022                                        
TBI0300000010040002NPR030                  15.2DI04-03-2022INDEM04-03-2022NNN  MIGRATION UPLOAD              04-03-2022                                        
TBI03002072524001  NPR030                  15.2CI04-03-2022     04-03-2022NNN  MIGRATION UPLOAD              04-03-2022                                        
TBI0300000010040002NPR030                 58.68DI04-03-2022INDEM04-03-2022NNN  MIGRATION UPLOAD              04-03-2022                                        
TBI03002072524001  NPR030                 58.68CI04-03-2022     04-03-2022NNN  MIGRATION UPLOAD              04-03-2022                                        
TBI0300000010040002NPR030                105.94DI04-03-2022INDEM04-03-2022NNN  MIGRATION UPLOAD              04-03-2022                                        
TBI03002072524001  NPR030                105.94CI04-03-2022     04-03-2022NNN  MIGRATION UPLOAD              04-03-2022                                        
TBI0300000010050002NPR030                  15.2DI04-03-2022INDEM04-03-2022NNN  MIGRATION UPLOAD              04-03-2022                                        
TBI03002072524001  NPR030                  15.2CI04-03-2022     04-03-2022NNN  MIGRATION UPLOAD              04-03-2022                                        
TBI0300000010050002NPR030                 58.68DI04-03-2022INDEM04-03-2022NNN  MIGRATION UPLOAD              04-03-2022                                        
TBI03002072524001  NPR030                 58.68CI04-03-2022     04-03-2022NNN  MIGRATION UPLOAD              04-03-2022                                        
TBI0300000010050002NPR030                105.94DI04-03-2022INDEM04-03-2022NNN  MIGRATION UPLOAD              04-03-2022                                        
TBI03002072524001  NPR030                105.94CI04-03-2022     04-03-2022NNN  MIGRATION UPLOAD              04-03-2022                                        
TBI0300000010060002NPR030                  15.2DI04-03-2022INDEM04-03-2022NNN  MIGRATION UPLOAD              04-03-2022                                        
TBI03002072524001  NPR030                  15.2CI04-03-2022     04-03-2022NNN  MIGRATION UPLOAD              04-03-2022                                        
TBI0300000010060002NPR030                 58.68DI04-03-2022INDEM04-03-2022NNN  MIGRATION UPLOAD              04-03-2022                                        
TBI03002072524001  NPR030                 58.68CI04-03-2022     04-03-2022NNN  MIGRATION UPLOAD              04-03-2022                                        
TBI0300000010060002NPR030                105.94DI04-03-2022INDEM04-03-2022NNN  MIGRATION UPLOAD              04-03-2022                                        
TBI03002072524001  NPR030                105.94CI04-03-2022     04-03-2022NNN  MIGRATION UPLOAD              04-03-2022                                        
TBI0300000010070002NPR030                  15.2DI04-03-2022INDEM04-03-2022NNN  MIGRATION UPLOAD              04-03-2022                                        
TBI03002072524001  NPR030                  15.2CI04-03-2022     04-03-2022NNN  MIGRATION UPLOAD              04-03-2022                                        
TBI0300000010070002NPR030                 58.68DI04-03-2022INDEM04-03-2022NNN  MIGRATION UPLOAD              04-03-2022                                        
TBI03002072524001  NPR030                 58.68CI04-03-2022     04-03-2022NNN  MIGRATION UPLOAD              04-03-2022                                        
TBI0300000010070002NPR030                105.94DI04-03-2022INDEM04-03-2022NNN  MIGRATION UPLOAD              04-03-2022                                        
TBI03002072524001  NPR030                105.94CI04-03-2022     04-03-2022NNN  MIGRATION UPLOAD              04-03-2022                                        
TBI0300000010090002NPR030                  15.2DI04-03-2022INDEM04-03-2022NNN  MIGRATION UPLOAD              04-03-2022                                        
TBI03002072524001  NPR030                  15.2CI04-03-2022     04-03-2022NNN  MIGRATION UPLOAD              04-03-2022                                        
TBI0300000010090002NPR030                 58.68DI04-03-2022INDEM04-03-2022NNN  MIGRATION UPLOAD              04-03-2022                                        
TBI03002072524001  NPR030                 58.68CI04-03-2022     04-03-2022NNN  MIGRATION UPLOAD              04-03-2022                                        
TBI0300000010090002NPR030                105.94DI04-03-2022INDEM04-03-2022NNN  MIGRATION UPLOAD              04-03-2022                                        
TBI03002072524001  NPR030                105.94CI04-03-2022     04-03-2022NNN  MIGRATION UPLOAD              04-03-2022                                        
TBI0300000010100002NPR030                  15.2DI04-03-2022INDEM04-03-2022NNN  MIGRATION UPLOAD              04-03-2022                                        
TBI03002072524001  NPR030                  15.2CI04-03-2022     04-03-2022NNN  MIGRATION UPLOAD              04-03-2022                                        
TBI0300000010100002NPR030                 58.68DI04-03-2022INDEM04-03-2022NNN  MIGRATION UPLOAD              04-03-2022                                        
TBI03002072524001  NPR030                 58.68CI04-03-2022     04-03-2022NNN  MIGRATION UPLOAD              04-03-2022                                        
TBI0300000010100002NPR030                105.94DI04-03-2022INDEM04-03-2022NNN  MIGRATION UPLOAD              04-03-2022                                        
TBI03002072524001  NPR030                105.94CI04-03-2022     04-03-2022NNN  MIGRATION UPLOAD              04-03-2022                                        
TBI0300000010110002NPR030                 22.99DI04-03-2022INDEM04-03-2022NNN  MIGRATION UPLOAD              04-03-2022                                        
TBI03002072524001  NPR030                 22.99CI04-03-2022     04-03-2022NNN  MIGRATION UPLOAD              04-03-2022                                        
TBI0300000010110002NPR030                 88.36DI04-03-2022INDEM04-03-2022NNN  MIGRATION UPLOAD              04-03-2022                                        
TBI03002072524001  NPR030                 88.36CI04-03-2022     04-03-2022NNN  MIGRATION UPLOAD              04-03-2022                                        
TBI0300000010110002NPR030                160.18DI04-03-2022INDEM04-03-2022NNN  MIGRATION UPLOAD              04-03-2022                                        
TBI03002072524001  NPR030                160.18CI04-03-2022     04-03-2022NNN  MIGRATION UPLOAD              04-03-2022                                        
TBI0300000010120002NPR030                  15.2DI04-03-2022INDEM04-03-2022NNN  MIGRATION UPLOAD              04-03-2022                                        
TBI03002072524001  NPR030                  15.2CI04-03-2022     04-03-2022NNN  MIGRATION UPLOAD              04-03-2022                                        
TBI0300000010120002NPR030                 58.68DI04-03-2022INDEM04-03-2022NNN  MIGRATION UPLOAD              04-03-2022                                        
TBI03002072524001  NPR030                 58.68CI04-03-2022     04-03-2022NNN  MIGRATION UPLOAD              04-03-2022                                        
TBI0300000010120002NPR030                105.94DI04-03-2022INDEM04-03-2022NNN  MIGRATION UPLOAD              04-03-2022                                        
TBI03002072524001  NPR030                105.94CI04-03-2022     04-03-2022NNN  MIGRATION UPLOAD              04-03-2022                                        
TBI0300000010130002NPR030                  15.2DI04-03-2022INDEM04-03-2022NNN  MIGRATION UPLOAD              04-03-2022                                        
TBI03002072524001  NPR030                  15.2CI04-03-2022     04-03-2022NNN  MIGRATION UPLOAD              04-03-2022                                        
TBI0300000010130002NPR030                 58.68DI04-03-2022INDEM04-03-2022NNN  MIGRATION UPLOAD              04-03-2022                                        
TBI03002072524001  NPR030                 58.68CI04-03-2022     04-03-2022NNN  MIGRATION UPLOAD              04-03-2022                                        
TBI0300000010130002NPR030                105.94DI04-03-2022INDEM04-03-2022NNN  MIGRATION UPLOAD              04-03-2022                                        
TBI03002072524001  NPR030                105.94CI04-03-2022     04-03-2022NNN  MIGRATION UPLOAD              04-03-2022                                        
TBI0300000010140002NPR030                  15.2DI04-03-2022INDEM04-03-2022NNN  MIGRATION UPLOAD              04-03-2022                                        
TBI03002072524001  NPR030                  15.2CI04-03-2022     04-03-2022NNN  MIGRATION UPLOAD              04-03-2022                                        
TBI0300000010140002NPR030                 58.68DI04-03-2022INDEM04-03-2022NNN  MIGRATION UPLOAD              04-03-2022                                        
TBI03002072524001  NPR030                 58.68CI04-03-2022     04-03-2022NNN  MIGRATION UPLOAD              04-03-2022                                        
TBI0300000010140002NPR030                105.94DI04-03-2022INDEM04-03-2022NNN  MIGRATION UPLOAD              04-03-2022                                        
TBI03002072524001  NPR030                105.94CI04-03-2022     04-03-2022NNN  MIGRATION UPLOAD              04-03-2022                                        
TBI0300000010150002NPR030                  15.2DI04-03-2022INDEM04-03-2022NNN  MIGRATION UPLOAD              04-03-2022                                        
TBI03002072524001  NPR030                  15.2CI04-03-2022     04-03-2022NNN  MIGRATION UPLOAD              04-03-2022                                        
TBI0300000010150002NPR030                 58.68DI04-03-2022INDEM04-03-2022NNN  MIGRATION UPLOAD              04-03-2022                                        
TBI03002072524001  NPR030                 58.68CI04-03-2022     04-03-2022NNN  MIGRATION UPLOAD              04-03-2022                                        
TBI0300000010150002NPR030                105.94DI04-03-2022INDEM04-03-2022NNN  MIGRATION UPLOAD              04-03-2022                                        
TBI03002072524001  NPR030                105.94CI04-03-2022     04-03-2022NNN  MIGRATION UPLOAD              04-03-2022                                        
TBI0300000010160002NPR030                  15.2DI04-03-2022INDEM04-03-2022NNN  MIGRATION UPLOAD              04-03-2022                                        
TBI03002072524001  NPR030                  15.2CI04-03-2022     04-03-2022NNN  MIGRATION UPLOAD              04-03-2022                                        
TBI0300000010160002NPR030                 58.68DI04-03-2022INDEM04-03-2022NNN  MIGRATION UPLOAD              04-03-2022                                        
TBI03002072524001  NPR030                 58.68CI04-03-2022     04-03-2022NNN  MIGRATION UPLOAD              04-03-2022                                        
TBI0300000010160002NPR030                105.94DI04-03-2022INDEM04-03-2022NNN  MIGRATION UPLOAD              04-03-2022                                        
TBI03002072524001  NPR030                105.94CI04-03-2022     04-03-2022NNN  MIGRATION UPLOAD              04-03-2022                                        
TBI0300000010170002NPR030                  15.2DI04-03-2022INDEM04-03-2022NNN  MIGRATION UPLOAD              04-03-2022                                        
TBI03002072524001  NPR030                  15.2CI04-03-2022     04-03-2022NNN  MIGRATION UPLOAD              04-03-2022                                        
TBI0300000010170002NPR030                 58.68DI04-03-2022INDEM04-03-2022NNN  MIGRATION UPLOAD              04-03-2022                                        
TBI03002072524001  NPR030                 58.68CI04-03-2022     04-03-2022NNN  MIGRATION UPLOAD              04-03-2022                                        
TBI0300000010170002NPR030                105.94DI04-03-2022INDEM04-03-2022NNN  MIGRATION UPLOAD              04-03-2022                                        
TBI03002072524001  NPR030                105.94CI04-03-2022     04-03-2022NNN  MIGRATION UPLOAD              04-03-2022                                        
TBI0300000010180002NPR030                  15.2DI04-03-2022INDEM04-03-2022NNN  MIGRATION UPLOAD              04-03-2022                                        
TBI03002072524001  NPR030                  15.2CI04-03-2022     04-03-2022NNN  MIGRATION UPLOAD              04-03-2022                                        
TBI0300000010180002NPR030                 58.68DI04-03-2022INDEM04-03-2022NNN  MIGRATION UPLOAD              04-03-2022                                        
TBI03002072524001  NPR030                 58.68CI04-03-2022     04-03-2022NNN  MIGRATION UPLOAD              04-03-2022                                        
TBI0300000010180002NPR030                105.94DI04-03-2022INDEM04-03-2022NNN  MIGRATION UPLOAD              04-03-2022                                        
TBI03002072524001  NPR030                105.94CI04-03-2022     04-03-2022NNN  MIGRATION UPLOAD              04-03-2022                                        
TBI0300000010190002NPR030                  15.2DI04-03-2022INDEM04-03-2022NNN  MIGRATION UPLOAD              04-03-2022                                        
TBI03002072524001  NPR030                  15.2CI04-03-2022     04-03-2022NNN  MIGRATION UPLOAD              04-03-2022                                        
TBI0300000010190002NPR030                 58.68DI04-03-2022INDEM04-03-2022NNN  MIGRATION UPLOAD              04-03-2022                                        
TBI03002072524001  NPR030                 58.68CI04-03-2022     04-03-2022NNN  MIGRATION UPLOAD              04-03-2022                                        
TBI0300000010190002NPR030                105.94DI04-03-2022INDEM04-03-2022NNN  MIGRATION UPLOAD              04-03-2022                                        
TBI03002072524001  NPR030                105.94CI04-03-2022     04-03-2022NNN  MIGRATION UPLOAD              04-03-2022                                        
TBI0300000010200002NPR030                  15.2DI04-03-2022INDEM04-03-2022NNN  MIGRATION UPLOAD              04-03-2022                                        
TBI03002072524001  NPR030                  15.2CI04-03-2022     04-03-2022NNN  MIGRATION UPLOAD              04-03-2022                                        
TBI0300000010200002NPR030                 58.68DI04-03-2022INDEM04-03-2022NNN  MIGRATION UPLOAD              04-03-2022                                        
TBI03002072524001  NPR030                 58.68CI04-03-2022     04-03-2022NNN  MIGRATION UPLOAD              04-03-2022                                        
TBI0300000010200002NPR030                105.94DI04-03-2022INDEM04-03-2022NNN  MIGRATION UPLOAD              04-03-2022                                        
TBI03002072524001  NPR030                105.94CI04-03-2022     04-03-2022NNN  MIGRATION UPLOAD              04-03-2022                                        
TBI0300000010210002NPR030                  15.2DI04-03-2022INDEM04-03-2022NNN  MIGRATION UPLOAD              04-03-2022                                        
TBI03002072524001  NPR030                  15.2CI04-03-2022     04-03-2022NNN  MIGRATION UPLOAD              04-03-2022                                        
TBI0300000010210002NPR030                 58.68DI04-03-2022INDEM04-03-2022NNN  MIGRATION UPLOAD              04-03-2022                                        
TBI03002072524001  NPR030                 58.68CI04-03-2022     04-03-2022NNN  MIGRATION UPLOAD              04-03-2022                                        
TBI0300000010210002NPR030                105.94DI04-03-2022INDEM04-03-2022NNN  MIGRATION UPLOAD              04-03-2022                                        
TBI03002072524001  NPR030                105.94CI04-03-2022     04-03-2022NNN  MIGRATION UPLOAD              04-03-2022                                        
TBI0300000010220002NPR030                  15.2DI04-03-2022INDEM04-03-2022NNN  MIGRATION UPLOAD              04-03-2022                                        
TBI03002072524001  NPR030                  15.2CI04-03-2022     04-03-2022NNN  MIGRATION UPLOAD              04-03-2022                                        
TBI0300000010220002NPR030                 58.68DI04-03-2022INDEM04-03-2022NNN  MIGRATION UPLOAD              04-03-2022                                        
TBI03002072524001  NPR030                 58.68CI04-03-2022     04-03-2022NNN  MIGRATION UPLOAD              04-03-2022                                        
TBI0300000010220002NPR030                105.94DI04-03-2022INDEM04-03-2022NNN  MIGRATION UPLOAD              04-03-2022                                        
TBI03002072524001  NPR030                105.94CI04-03-2022     04-03-2022NNN  MIGRATION UPLOAD              04-03-2022                                        
TBI0300000010230002NPR030                  15.2DI04-03-2022INDEM04-03-2022NNN  MIGRATION UPLOAD              04-03-2022                                        
TBI03002072524001  NPR030                  15.2CI04-03-2022     04-03-2022NNN  MIGRATION UPLOAD              04-03-2022                                        
TBI0300000010230002NPR030                 58.68DI04-03-2022INDEM04-03-2022NNN  MIGRATION UPLOAD              04-03-2022                                        
TBI03002072524001  NPR030                 58.68CI04-03-2022     04-03-2022NNN  MIGRATION UPLOAD              04-03-2022                                        
TBI0300000010230002NPR030                105.94DI04-03-2022INDEM04-03-2022NNN  MIGRATION UPLOAD              04-03-2022                                        
TBI03002072524001  NPR030                105.94CI04-03-2022     04-03-2022NNN  MIGRATION UPLOAD              04-03-2022                                        
TBI0300000010240002NPR030                  15.2DI04-03-2022INDEM04-03-2022NNN  MIGRATION UPLOAD              04-03-2022                                        
TBI03002072524001  NPR030                  15.2CI04-03-2022     04-03-2022NNN  MIGRATION UPLOAD              04-03-2022                                        
TBI0300000010240002NPR030                 58.68DI04-03-2022INDEM04-03-2022NNN  MIGRATION UPLOAD              04-03-2022                                        
TBI03002072524001  NPR030                 58.68CI04-03-2022     04-03-2022NNN  MIGRATION UPLOAD              04-03-2022                                        
TBI0300000010240002NPR030                105.94DI04-03-2022INDEM04-03-2022NNN  MIGRATION UPLOAD              04-03-2022                                        
TBI03002072524001  NPR030                105.94CI04-03-2022     04-03-2022NNN  MIGRATION UPLOAD              04-03-2022                                        
TBI0300000010250002NPR030                  15.2DI04-03-2022INDEM04-03-2022NNN  MIGRATION UPLOAD              04-03-2022                                        
TBI03002072524001  NPR030                  15.2CI04-03-2022     04-03-2022NNN  MIGRATION UPLOAD              04-03-2022                                        
TBI0300000010250002NPR030                 58.68DI04-03-2022INDEM04-03-2022NNN  MIGRATION UPLOAD              04-03-2022                                        
TBI03002072524001  NPR030                 58.68CI04-03-2022     04-03-2022NNN  MIGRATION UPLOAD              04-03-2022                                        
TBI0300000010250002NPR030                105.94DI04-03-2022INDEM04-03-2022NNN  MIGRATION UPLOAD              04-03-2022                                        
TBI03002072524001  NPR030                105.94CI04-03-2022     04-03-2022NNN  MIGRATION UPLOAD              04-03-2022                                        
TBI0300000010280002NPR030                  15.2DI04-03-2022INDEM04-03-2022NNN  MIGRATION UPLOAD              04-03-2022                                        
TBI03002072524001  NPR030                  15.2CI04-03-2022     04-03-2022NNN  MIGRATION UPLOAD              04-03-2022                                        
TBI0300000010280002NPR030                 58.68DI04-03-2022INDEM04-03-2022NNN  MIGRATION UPLOAD              04-03-2022                                        
TBI03002072524001  NPR030                 58.68CI04-03-2022     04-03-2022NNN  MIGRATION UPLOAD              04-03-2022                                        
TBI0300000010280002NPR030                105.94DI04-03-2022INDEM04-03-2022NNN  MIGRATION UPLOAD              04-03-2022                                        
TBI03002072524001  NPR030                105.94CI04-03-2022     04-03-2022NNN  MIGRATION UPLOAD              04-03-2022                                        
TBI0300000010290002NPR030                  15.2DI04-03-2022INDEM04-03-2022NNN  MIGRATION UPLOAD              04-03-2022                                        
TBI03002072524001  NPR030                  15.2CI04-03-2022     04-03-2022NNN  MIGRATION UPLOAD              04-03-2022                                        
TBI0300000010290002NPR030                 58.68DI04-03-2022INDEM04-03-2022NNN  MIGRATION UPLOAD              04-03-2022                                        
TBI03002072524001  NPR030                 58.68CI04-03-2022     04-03-2022NNN  MIGRATION UPLOAD              04-03-2022                                        
TBI0300000010290002NPR030                105.94DI04-03-2022INDEM04-03-2022NNN  MIGRATION UPLOAD              04-03-2022                                        
TBI03002072524001  NPR030                105.94CI04-03-2022     04-03-2022NNN  MIGRATION UPLOAD              04-03-2022                                        
TBI0300000010300002NPR030                  15.2DI04-03-2022INDEM04-03-2022NNN  MIGRATION UPLOAD              04-03-2022                                        
TBI03002072524001  NPR030                  15.2CI04-03-2022     04-03-2022NNN  MIGRATION UPLOAD              04-03-2022                                        
TBI0300000010300002NPR030                 58.68DI04-03-2022INDEM04-03-2022NNN  MIGRATION UPLOAD              04-03-2022                                        
TBI03002072524001  NPR030                 58.68CI04-03-2022     04-03-2022NNN  MIGRATION UPLOAD              04-03-2022                                        
TBI0300000010300002NPR030                105.94DI04-03-2022INDEM04-03-2022NNN  MIGRATION UPLOAD              04-03-2022                                        
TBI03002072524001  NPR030                105.94CI04-03-2022     04-03-2022NNN  MIGRATION UPLOAD              04-03-2022                                        
TBI0300000010310002NPR030                  15.2DI04-03-2022INDEM04-03-2022NNN  MIGRATION UPLOAD              04-03-2022                                        
TBI03002072524001  NPR030                  15.2CI04-03-2022     04-03-2022NNN  MIGRATION UPLOAD              04-03-2022                                        
TBI0300000010310002NPR030                 58.68DI04-03-2022INDEM04-03-2022NNN  MIGRATION UPLOAD              04-03-2022                                        
TBI03002072524001  NPR030                 58.68CI04-03-2022     04-03-2022NNN  MIGRATION UPLOAD              04-03-2022                                        
TBI0300000010310002NPR030                105.94DI04-03-2022INDEM04-03-2022NNN  MIGRATION UPLOAD              04-03-2022                                        
TBI03002072524001  NPR030                105.94CI04-03-2022     04-03-2022NNN  MIGRATION UPLOAD              04-03-2022                                        
TBI0300000010320002NPR030                  15.2DI04-03-2022INDEM04-03-2022NNN  MIGRATION UPLOAD              04-03-2022                                        
TBI03002072524001  NPR030                  15.2CI04-03-2022     04-03-2022NNN  MIGRATION UPLOAD              04-03-2022                                        
TBI0300000010320002NPR030                 58.68DI04-03-2022INDEM04-03-2022NNN  MIGRATION UPLOAD              04-03-2022                                        
TBI03002072524001  NPR030                 58.68CI04-03-2022     04-03-2022NNN  MIGRATION UPLOAD              04-03-2022                                        
TBI0300000010320002NPR030                105.94DI04-03-2022INDEM04-03-2022NNN  MIGRATION UPLOAD              04-03-2022                                        
TBI03002072524001  NPR030                105.94CI04-03-2022     04-03-2022NNN  MIGRATION UPLOAD              04-03-2022                                        
TBI0300000010330002NPR030                  15.2DI04-03-2022INDEM04-03-2022NNN  MIGRATION UPLOAD              04-03-2022                                        
TBI03002072524001  NPR030                  15.2CI04-03-2022     04-03-2022NNN  MIGRATION UPLOAD              04-03-2022                                        
TBI0300000010330002NPR030                 58.68DI04-03-2022INDEM04-03-2022NNN  MIGRATION UPLOAD              04-03-2022                                        
TBI03002072524001  NPR030                 58.68CI04-03-2022     04-03-2022NNN  MIGRATION UPLOAD              04-03-2022                                        
TBI0300000010330002NPR030                105.94DI04-03-2022INDEM04-03-2022NNN  MIGRATION UPLOAD              04-03-2022                                        
TBI03002072524001  NPR030                105.94CI04-03-2022     04-03-2022NNN  MIGRATION UPLOAD              04-03-2022                                        
TBI0300000010380002NPR030                  15.2DI04-03-2022INDEM04-03-2022NNN  MIGRATION UPLOAD              04-03-2022                                        
TBI03002072524001  NPR030                  15.2CI04-03-2022     04-03-2022NNN  MIGRATION UPLOAD              04-03-2022                                        
TBI0300000010380002NPR030                 58.68DI04-03-2022INDEM04-03-2022NNN  MIGRATION UPLOAD              04-03-2022                                        
TBI03002072524001  NPR030                 58.68CI04-03-2022     04-03-2022NNN  MIGRATION UPLOAD              04-03-2022                                        
TBI0300000010380002NPR030                105.94DI04-03-2022INDEM04-03-2022NNN  MIGRATION UPLOAD              04-03-2022                                        
TBI03002072524001  NPR030                105.94CI04-03-2022     04-03-2022NNN  MIGRATION UPLOAD              04-03-2022                                        
TBI0300000010390002NPR030                  15.2DI04-03-2022INDEM04-03-2022NNN  MIGRATION UPLOAD              04-03-2022                                        
TBI03002072524001  NPR030                  15.2CI04-03-2022     04-03-2022NNN  MIGRATION UPLOAD              04-03-2022                                        
TBI0300000010390002NPR030                 58.68DI04-03-2022INDEM04-03-2022NNN  MIGRATION UPLOAD              04-03-2022                                        
TBI03002072524001  NPR030                 58.68CI04-03-2022     04-03-2022NNN  MIGRATION UPLOAD              04-03-2022                                        
TBI0300000010390002NPR030                105.94DI04-03-2022INDEM04-03-2022NNN  MIGRATION UPLOAD              04-03-2022                                        
TBI03002072524001  NPR030                105.94CI04-03-2022     04-03-2022NNN  MIGRATION UPLOAD              04-03-2022                                        
TBI0300000010400002NPR030                  15.2DI04-03-2022INDEM04-03-2022NNN  MIGRATION UPLOAD              04-03-2022                                        
TBI03002072524001  NPR030                  15.2CI04-03-2022     04-03-2022NNN  MIGRATION UPLOAD              04-03-2022                                        
TBI0300000010400002NPR030                 58.68DI04-03-2022INDEM04-03-2022NNN  MIGRATION UPLOAD              04-03-2022                                        
TBI03002072524001  NPR030                 58.68CI04-03-2022     04-03-2022NNN  MIGRATION UPLOAD              04-03-2022                                        
TBI0300000010400002NPR030                105.94DI04-03-2022INDEM04-03-2022NNN  MIGRATION UPLOAD              04-03-2022                                        
TBI03002072524001  NPR030                105.94CI04-03-2022     04-03-2022NNN  MIGRATION UPLOAD              04-03-2022                                        
TBI0300000010410002NPR030                  15.2DI04-03-2022INDEM04-03-2022NNN  MIGRATION UPLOAD              04-03-2022                                        
TBI03002072524001  NPR030                  15.2CI04-03-2022     04-03-2022NNN  MIGRATION UPLOAD              04-03-2022                                        
TBI0300000010410002NPR030                 58.68DI04-03-2022INDEM04-03-2022NNN  MIGRATION UPLOAD              04-03-2022                                        
TBI03002072524001  NPR030                 58.68CI04-03-2022     04-03-2022NNN  MIGRATION UPLOAD              04-03-2022                                        
TBI0300000010410002NPR030                105.94DI04-03-2022INDEM04-03-2022NNN  MIGRATION UPLOAD              04-03-2022                                        
TBI03002072524001  NPR030                105.94CI04-03-2022     04-03-2022NNN  MIGRATION UPLOAD              04-03-2022                                        
TBI0300000010420002NPR030                  15.2DI04-03-2022INDEM04-03-2022NNN  MIGRATION UPLOAD              04-03-2022                                        
TBI03002072524001  NPR030                  15.2CI04-03-2022     04-03-2022NNN  MIGRATION UPLOAD              04-03-2022                                        
TBI0300000010420002NPR030                 58.68DI04-03-2022INDEM04-03-2022NNN  MIGRATION UPLOAD              04-03-2022                                        
TBI03002072524001  NPR030                 58.68CI04-03-2022     04-03-2022NNN  MIGRATION UPLOAD              04-03-2022                                        
TBI0300000010420002NPR030                105.94DI04-03-2022INDEM04-03-2022NNN  MIGRATION UPLOAD              04-03-2022                                        
TBI03002072524001  NPR030                105.94CI04-03-2022     04-03-2022NNN  MIGRATION UPLOAD              04-03-2022                                        
TBI0300000010430002NPR030                  15.2DI04-03-2022INDEM04-03-2022NNN  MIGRATION UPLOAD              04-03-2022                                        
TBI03002072524001  NPR030                  15.2CI04-03-2022     04-03-2022NNN  MIGRATION UPLOAD              04-03-2022                                        
TBI0300000010430002NPR030                 58.68DI04-03-2022INDEM04-03-2022NNN  MIGRATION UPLOAD              04-03-2022                                        
TBI03002072524001  NPR030                 58.68CI04-03-2022     04-03-2022NNN  MIGRATION UPLOAD              04-03-2022                                        
TBI0300000010430002NPR030                105.94DI04-03-2022INDEM04-03-2022NNN  MIGRATION UPLOAD              04-03-2022                                        
TBI03002072524001  NPR030                105.94CI04-03-2022     04-03-2022NNN  MIGRATION UPLOAD              04-03-2022                                        
TBI0300000010440002NPR030                  15.2DI04-03-2022INDEM04-03-2022NNN  MIGRATION UPLOAD              04-03-2022                                        
TBI03002072524001  NPR030                  15.2CI04-03-2022     04-03-2022NNN  MIGRATION UPLOAD              04-03-2022                                        
TBI0300000010440002NPR030                 58.68DI04-03-2022INDEM04-03-2022NNN  MIGRATION UPLOAD              04-03-2022                                        
TBI03002072524001  NPR030                 58.68CI04-03-2022     04-03-2022NNN  MIGRATION UPLOAD              04-03-2022                                        
TBI0300000010440002NPR030                105.94DI04-03-2022INDEM04-03-2022NNN  MIGRATION UPLOAD              04-03-2022                                        
TBI03002072524001  NPR030                105.94CI04-03-2022     04-03-2022NNN  MIGRATION UPLOAD              04-03-2022                                        
TBI0300000010450002NPR030                  15.2DI04-03-2022INDEM04-03-2022NNN  MIGRATION UPLOAD              04-03-2022                                        
TBI03002072524001  NPR030                  15.2CI04-03-2022     04-03-2022NNN  MIGRATION UPLOAD              04-03-2022                                        
TBI0300000010450002NPR030                 58.68DI04-03-2022INDEM04-03-2022NNN  MIGRATION UPLOAD              04-03-2022                                        
TBI03002072524001  NPR030                 58.68CI04-03-2022     04-03-2022NNN  MIGRATION UPLOAD              04-03-2022                                        
TBI0300000010450002NPR030                105.94DI04-03-2022INDEM04-03-2022NNN  MIGRATION UPLOAD              04-03-2022                                        
TBI03002072524001  NPR030                105.94CI04-03-2022     04-03-2022NNN  MIGRATION UPLOAD              04-03-2022                                        
TBI0300000010460002NPR030                 22.99DI04-03-2022INDEM04-03-2022NNN  MIGRATION UPLOAD              04-03-2022                                        
TBI03002072524001  NPR030                 22.99CI04-03-2022     04-03-2022NNN  MIGRATION UPLOAD              04-03-2022                                        
TBI0300000010460002NPR030                 88.36DI04-03-2022INDEM04-03-2022NNN  MIGRATION UPLOAD              04-03-2022                                        
