TBI00502071524001  NPR005              34596.38CA24-08-2022     24-08-2022NNN  Migration upload              Migration upload                                  
TBI0050000009900002NPR005              34596.38DA24-08-2022DISBT24-08-2022NNN  Migration upload              Migration upload                                  
TBI00502071524001  NPR005                8793.1CA24-08-2022     24-08-2022NNN  Migration upload              Migration upload                                  
TBI0050000009920002NPR005                8793.1DA24-08-2022DISBT24-08-2022NNN  Migration upload              Migration upload                                  
TBI00502071524001  NPR005              24467.73CA24-08-2022     24-08-2022NNN  Migration upload              Migration upload                                  
TBI0050000009930002NPR005              24467.73DA24-08-2022DISBT24-08-2022NNN  Migration upload              Migration upload                                  
TBI00502071524001  NPR005              19115.42CA24-08-2022     24-08-2022NNN  Migration upload              Migration upload                                  
TBI0050000009940002NPR005              19115.42DA24-08-2022DISBT24-08-2022NNN  Migration upload              Migration upload                                  
TBI00502071524001  NPR005               9557.71CA24-08-2022     24-08-2022NNN  Migration upload              Migration upload                                  
TBI0050000009950002NPR005               9557.71DA24-08-2022DISBT24-08-2022NNN  Migration upload              Migration upload                                  
TBI00502071524001  NPR005                 22000CA24-08-2022     24-08-2022NNN  Migration upload              Migration upload                                  
TBI0050000009970005NPR005                 22000DA24-08-2022DISBT24-08-2022NNN  Migration upload              Migration upload                                  
TBI00502071524001  NPR005                  6000CA24-08-2022     24-08-2022NNN  Migration upload              Migration upload                                  
TBI0050000010100002NPR005                  6000DA24-08-2022DISBT24-08-2022NNN  Migration upload              Migration upload                                  
TBI00502071524001  NPR005              25364.63CA24-08-2022     24-08-2022NNN  Migration upload              Migration upload                                  
TBI0050000010160002NPR005              25364.63DA24-08-2022DISBT24-08-2022NNN  Migration upload              Migration upload                                  
TBI00502071524001  NPR005                  5000CA24-08-2022     24-08-2022NNN  Migration upload              Migration upload                                  
TBI0050000010250003NPR005                  5000DA24-08-2022DISBT24-08-2022NNN  Migration upload              Migration upload                                  
TBI00502071524001  NPR005                  5000CA24-08-2022     24-08-2022NNN  Migration upload              Migration upload                                  
TBI0050000010250004NPR005                  5000DA24-08-2022DISBT24-08-2022NNN  Migration upload              Migration upload                                  
TBI00502071524001  NPR005                  5000CA24-08-2022     24-08-2022NNN  Migration upload              Migration upload                                  
TBI0050000010250005NPR005                  5000DA24-08-2022DISBT24-08-2022NNN  Migration upload              Migration upload                                  
TBI00502071524001  NPR005              10973.48CA24-08-2022     24-08-2022NNN  Migration upload              Migration upload                                  
TBI0050000010270002NPR005              10973.48DA24-08-2022DISBT24-08-2022NNN  Migration upload              Migration upload                                  
TBI00502071524001  NPR005              20644.65CA24-08-2022     24-08-2022NNN  Migration upload              Migration upload                                  
TBI0050000010300003NPR005              20644.65DA24-08-2022DISBT24-08-2022NNN  Migration upload              Migration upload                                  
TBI00502071524001  NPR005              19115.42CA24-08-2022     24-08-2022NNN  Migration upload              Migration upload                                  
TBI0050000010320002NPR005              19115.42DA24-08-2022DISBT24-08-2022NNN  Migration upload              Migration upload                                  
TBI00502071524001  NPR005               8441.13CA24-08-2022     24-08-2022NNN  Migration upload              Migration upload                                  
TBI0050000010350003NPR005               8441.13DA24-08-2022DISBT24-08-2022NNN  Migration upload              Migration upload                                  
TBI00502071524001  NPR005              22597.58CA24-08-2022     24-08-2022NNN  Migration upload              Migration upload                                  
TBI0050000010360002NPR005              22597.58DA24-08-2022DISBT24-08-2022NNN  Migration upload              Migration upload                                  
TBI00502071524001  NPR005              21791.58CA24-08-2022     24-08-2022NNN  Migration upload              Migration upload                                  
TBI0050000010520002NPR005              21791.58DA24-08-2022DISBT24-08-2022NNN  Migration upload              Migration upload                                  
TBI00502071524001  NPR005                 43000CA24-08-2022     24-08-2022NNN  Migration upload              Migration upload                                  
TBI0050000010540003NPR005                 43000DA24-08-2022DISBT24-08-2022NNN  Migration upload              Migration upload                                  
TBI00502071524001  NPR005              15292.34CA24-08-2022     24-08-2022NNN  Migration upload              Migration upload                                  
TBI0050000010640002NPR005              15292.34DA24-08-2022DISBT24-08-2022NNN  Migration upload              Migration upload                                  
TBI00502071524001  NPR005                 19500CA24-08-2022     24-08-2022NNN  Migration upload              Migration upload                                  
TBI0050000010670002NPR005                 19500DA24-08-2022DISBT24-08-2022NNN  Migration upload              Migration upload                                  
TBI00502071524001  NPR005              19414.61CA24-08-2022     24-08-2022NNN  Migration upload              Migration upload                                  
TBI0050000010750002NPR005              19414.61DA24-08-2022DISBT24-08-2022NNN  Migration upload              Migration upload                                  
TBI00502071524001  NPR005              12616.18CA24-08-2022     24-08-2022NNN  Migration upload              Migration upload                                  
TBI0050000010760002NPR005              12616.18DA24-08-2022DISBT24-08-2022NNN  Migration upload              Migration upload                                  
TBI00502071524001  NPR005                 44500CA24-08-2022     24-08-2022NNN  Migration upload              Migration upload                                  
TBI0050000010790004NPR005                 44500DA24-08-2022DISBT24-08-2022NNN  Migration upload              Migration upload                                  
TBI00502071524001  NPR005               36902.8CA24-08-2022     24-08-2022NNN  Migration upload              Migration upload                                  
TBI0050000010920002NPR005               36902.8DA24-08-2022DISBT24-08-2022NNN  Migration upload              Migration upload                                  
TBI00502071524001  NPR005              11469.25CA24-08-2022     24-08-2022NNN  Migration upload              Migration upload                                  
TBI0050000010970002NPR005              11469.25DA24-08-2022DISBT24-08-2022NNN  Migration upload              Migration upload                                  
TBI00502071524001  NPR005                 29000CA24-08-2022     24-08-2022NNN  Migration upload              Migration upload                                  
TBI0050000010980002NPR005                 29000DA24-08-2022DISBT24-08-2022NNN  Migration upload              Migration upload                                  
TBI00502071524001  NPR005              25157.02CA24-08-2022     24-08-2022NNN  Migration upload              Migration upload                                  
TBI0050000011000003NPR005              25157.02DA24-08-2022DISBT24-08-2022NNN  Migration upload              Migration upload                                  
TBI00502071524001  NPR005              10704.64CA24-08-2022     24-08-2022NNN  Migration upload              Migration upload                                  
TBI0050000011040002NPR005              10704.64DA24-08-2022DISBT24-08-2022NNN  Migration upload              Migration upload                                  
TBI00502071524001  NPR005              14145.41CA24-08-2022     24-08-2022NNN  Migration upload              Migration upload                                  
TBI0050000011080002NPR005              14145.41DA24-08-2022DISBT24-08-2022NNN  Migration upload              Migration upload                                  
TBI00502071524001  NPR005                 25000CA24-08-2022     24-08-2022NNN  Migration upload              Migration upload                                  
TBI0050000011140002NPR005                 25000DA24-08-2022DISBT24-08-2022NNN  Migration upload              Migration upload                                  
TBI00502071524001  NPR005              17726.38CA24-08-2022     24-08-2022NNN  Migration upload              Migration upload                                  
TBI0050000011240002NPR005              17726.38DA24-08-2022DISBT24-08-2022NNN  Migration upload              Migration upload                                  
TBI00502071524001  NPR005              77236.39CA24-08-2022     24-08-2022NNN  Migration upload              Migration upload                                  
TBI0050000011270003NPR005              77236.39DA24-08-2022DISBT24-08-2022NNN  Migration upload              Migration upload                                  
TBI00502071524001  NPR005              22141.68CA24-08-2022     24-08-2022NNN  Migration upload              Migration upload                                  
TBI0050000011300002NPR005              22141.68DA24-08-2022DISBT24-08-2022NNN  Migration upload              Migration upload                                  
TBI00502071524001  NPR005               13763.1CA24-08-2022     24-08-2022NNN  Migration upload              Migration upload                                  
TBI0050000011310002NPR005               13763.1DA24-08-2022DISBT24-08-2022NNN  Migration upload              Migration upload                                  
TBI00502071524001  NPR005               3569.14CA24-08-2022     24-08-2022NNN  Migration upload              Migration upload                                  
TBI0050000011340002NPR005               3569.14DA24-08-2022DISBT24-08-2022NNN  Migration upload              Migration upload                                  
TBI00502071524001  NPR005              29543.97CA24-08-2022     24-08-2022NNN  Migration upload              Migration upload                                  
TBI0050000011370002NPR005              29543.97DA24-08-2022DISBT24-08-2022NNN  Migration upload              Migration upload                                  
TBI00502071524001  NPR005              19115.42CA24-08-2022     24-08-2022NNN  Migration upload              Migration upload                                  
TBI0050000011390002NPR005              19115.42DA24-08-2022DISBT24-08-2022NNN  Migration upload              Migration upload                                  
TBI00502071524001  NPR005              44277.83CA24-08-2022     24-08-2022NNN  Migration upload              Migration upload                                  
TBI0050000011420002NPR005              44277.83DA24-08-2022DISBT24-08-2022NNN  Migration upload              Migration upload                                  
TBI00502071524001  NPR005              51490.92CA24-08-2022     24-08-2022NNN  Migration upload              Migration upload                                  
TBI0050000011430002NPR005              51490.92DA24-08-2022DISBT24-08-2022NNN  Migration upload              Migration upload                                  
TBI00502071524001  NPR005              23064.25CA24-08-2022     24-08-2022NNN  Migration upload              Migration upload                                  
TBI0050000011450002NPR005              23064.25DA24-08-2022DISBT24-08-2022NNN  Migration upload              Migration upload                                  
TBI00502071524001  NPR005                 11000CA24-08-2022     24-08-2022NNN  Migration upload              Migration upload                                  
TBI0050000011460005NPR005                 11000DA24-08-2022DISBT24-08-2022NNN  Migration upload              Migration upload                                  
TBI00502071524001  NPR005              12616.18CA24-08-2022     24-08-2022NNN  Migration upload              Migration upload                                  
TBI0050000011470002NPR005              12616.18DA24-08-2022DISBT24-08-2022NNN  Migration upload              Migration upload                                  
TBI00502071524001  NPR005              29820.06CA24-08-2022     24-08-2022NNN  Migration upload              Migration upload                                  
TBI0050000011510002NPR005              29820.06DA24-08-2022DISBT24-08-2022NNN  Migration upload              Migration upload                                  
TBI00502071524001  NPR005               18350.8CA24-08-2022     24-08-2022NNN  Migration upload              Migration upload                                  
TBI0050000011570002NPR005               18350.8DA24-08-2022DISBT24-08-2022NNN  Migration upload              Migration upload                                  
TBI00502071524001  NPR005               12661.7CA24-08-2022     24-08-2022NNN  Migration upload              Migration upload                                  
TBI0050000011620002NPR005               12661.7DA24-08-2022DISBT24-08-2022NNN  Migration upload              Migration upload                                  
TBI00502071524001  NPR005                 30000CA24-08-2022     24-08-2022NNN  Migration upload              Migration upload                                  
TBI0050000011720002NPR005                 30000DA24-08-2022DISBT24-08-2022NNN  Migration upload              Migration upload                                  
TBI00502071524001  NPR005               6754.67CA24-08-2022     24-08-2022NNN  Migration upload              Migration upload                                  
TBI0050000011780002NPR005               6754.67DA24-08-2022DISBT24-08-2022NNN  Migration upload              Migration upload                                  
TBI00502071524001  NPR005                 15000CA24-08-2022     24-08-2022NNN  Migration upload              Migration upload                                  
TBI0050000011860002NPR005                 15000DA24-08-2022DISBT24-08-2022NNN  Migration upload              Migration upload                                  
TBI00502071524001  NPR005              21409.27CA24-08-2022     24-08-2022NNN  Migration upload              Migration upload                                  
TBI0050000011870002NPR005              21409.27DA24-08-2022DISBT24-08-2022NNN  Migration upload              Migration upload                                  
TBI00502071524001  NPR005              26761.58CA24-08-2022     24-08-2022NNN  Migration upload              Migration upload                                  
TBI0050000011890002NPR005              26761.58DA24-08-2022DISBT24-08-2022NNN  Migration upload              Migration upload                                  
TBI00502071524001  NPR005              21102.84CA24-08-2022     24-08-2022NNN  Migration upload              Migration upload                                  
TBI0050000011900002NPR005              21102.84DA24-08-2022DISBT24-08-2022NNN  Migration upload              Migration upload                                  
TBI00502071524001  NPR005              18733.11CA24-08-2022     24-08-2022NNN  Migration upload              Migration upload                                  
TBI0050000012000002NPR005              18733.11DA24-08-2022DISBT24-08-2022NNN  Migration upload              Migration upload                                  
TBI00502071524001  NPR005              21102.84CA24-08-2022     24-08-2022NNN  Migration upload              Migration upload                                  
TBI0050000012010002NPR005              21102.84DA24-08-2022DISBT24-08-2022NNN  Migration upload              Migration upload                                  
TBI00502071524001  NPR005               21708.4CA24-08-2022     24-08-2022NNN  Migration upload              Migration upload                                  
TBI0050000012060002NPR005               21708.4DA24-08-2022DISBT24-08-2022NNN  Migration upload              Migration upload                                  
TBI00502071524001  NPR005              16439.26CA24-08-2022     24-08-2022NNN  Migration upload              Migration upload                                  
TBI0050000012080002NPR005              16439.26DA24-08-2022DISBT24-08-2022NNN  Migration upload              Migration upload                                  
TBI00502071524001  NPR005              13374.08CA24-08-2022     24-08-2022NNN  Migration upload              Migration upload                                  
TBI0050000012180003NPR005              13374.08DA24-08-2022DISBT24-08-2022NNN  Migration upload              Migration upload                                  
TBI00502071524001  NPR005              18733.11CA24-08-2022     24-08-2022NNN  Migration upload              Migration upload                                  
TBI0050000012260002NPR005              18733.11DA24-08-2022DISBT24-08-2022NNN  Migration upload              Migration upload                                  
TBI00502071524001  NPR005              14296.43CA24-08-2022     24-08-2022NNN  Migration upload              Migration upload                                  
TBI0050000012290002NPR005              14296.43DA24-08-2022DISBT24-08-2022NNN  Migration upload              Migration upload                                  
TBI00502071524001  NPR005              10607.03CA24-08-2022     24-08-2022NNN  Migration upload              Migration upload                                  
TBI0050000012300002NPR005              10607.03DA24-08-2022DISBT24-08-2022NNN  Migration upload              Migration upload                                  
TBI00502071524001  NPR005                 30000CA24-08-2022     24-08-2022NNN  Migration upload              Migration upload                                  
TBI0050000012420002NPR005                 30000DA24-08-2022DISBT24-08-2022NNN  Migration upload              Migration upload                                  
TBI00502071524001  NPR005              23213.13CA24-08-2022     24-08-2022NNN  Migration upload              Migration upload                                  
TBI0050000012520002NPR005              23213.13DA24-08-2022DISBT24-08-2022NNN  Migration upload              Migration upload                                  
TBI00502071524001  NPR005               12661.7CA24-08-2022     24-08-2022NNN  Migration upload              Migration upload                                  
TBI0050000012570002NPR005               12661.7DA24-08-2022DISBT24-08-2022NNN  Migration upload              Migration upload                                  
TBI00502071524001  NPR005              12998.49CA24-08-2022     24-08-2022NNN  Migration upload              Migration upload                                  
TBI0050000012590002NPR005              12998.49DA24-08-2022DISBT24-08-2022NNN  Migration upload              Migration upload                                  
TBI00502071524001  NPR005                 25500CA24-08-2022     24-08-2022NNN  Migration upload              Migration upload                                  
TBI0050000012720003NPR005                 25500DA24-08-2022DISBT24-08-2022NNN  Migration upload              Migration upload                                  
TBI00502071524001  NPR005                 30500CA24-08-2022     24-08-2022NNN  Migration upload              Migration upload                                  
TBI0050000012840002NPR005                 30500DA24-08-2022DISBT24-08-2022NNN  Migration upload              Migration upload                                  
TBI00502071524001  NPR005              10707.42CA24-08-2022     24-08-2022NNN  Migration upload              Migration upload                                  
TBI0050000012900002NPR005              10707.42DA24-08-2022DISBT24-08-2022NNN  Migration upload              Migration upload                                  
TBI00502071524001  NPR005              25232.35CA24-08-2022     24-08-2022NNN  Migration upload              Migration upload                                  
TBI0050000013010002NPR005              25232.35DA24-08-2022DISBT24-08-2022NNN  Migration upload              Migration upload                                  
TBI00502071524001  NPR005              35053.28CA24-08-2022     24-08-2022NNN  Migration upload              Migration upload                                  
TBI0050000013040003NPR005              35053.28DA24-08-2022DISBT24-08-2022NNN  Migration upload              Migration upload                                  
TBI00502071524001  NPR005              19115.42CA24-08-2022     24-08-2022NNN  Migration upload              Migration upload                                  
TBI0050000013160002NPR005              19115.42DA24-08-2022DISBT24-08-2022NNN  Migration upload              Migration upload                                  
TBI00502071524001  NPR005               22556.2CA24-08-2022     24-08-2022NNN  Migration upload              Migration upload                                  
TBI0050000013250002NPR005               22556.2DA24-08-2022DISBT24-08-2022NNN  Migration upload              Migration upload                                  
TBI00502071524001  NPR005              12233.87CA24-08-2022     24-08-2022NNN  Migration upload              Migration upload                                  
TBI0050000013270002NPR005              12233.87DA24-08-2022DISBT24-08-2022NNN  Migration upload              Migration upload                                  
TBI00502071524001  NPR005              11086.95CA24-08-2022     24-08-2022NNN  Migration upload              Migration upload                                  
TBI0050000013280002NPR005              11086.95DA24-08-2022DISBT24-08-2022NNN  Migration upload              Migration upload                                  
TBI00502071524001  NPR005              20258.72CA24-08-2022     24-08-2022NNN  Migration upload              Migration upload                                  
TBI0050000013360002NPR005              20258.72DA24-08-2022DISBT24-08-2022NNN  Migration upload              Migration upload                                  
TBI00502071524001  NPR005               7646.16CA24-08-2022     24-08-2022NNN  Migration upload              Migration upload                                  
TBI0050000013370002NPR005               7646.16DA24-08-2022DISBT24-08-2022NNN  Migration upload              Migration upload                                  
TBI00502071524001  NPR005              35030.71CA24-08-2022     24-08-2022NNN  Migration upload              Migration upload                                  
TBI0050000013380002NPR005              35030.71DA24-08-2022DISBT24-08-2022NNN  Migration upload              Migration upload                                  
TBI00502071524001  NPR005              10197.54CA24-08-2022     24-08-2022NNN  Migration upload              Migration upload                                  
TBI0050000013390002NPR005              10197.54DA24-08-2022DISBT24-08-2022NNN  Migration upload              Migration upload                                  
TBI00502071524001  NPR005              48958.58CA24-08-2022     24-08-2022NNN  Migration upload              Migration upload                                  
TBI0050000013410002NPR005              48958.58DA24-08-2022DISBT24-08-2022NNN  Migration upload              Migration upload                                  
TBI00502071524001  NPR005              19836.67CA24-08-2022     24-08-2022NNN  Migration upload              Migration upload                                  
TBI0050000013710002NPR005              19836.67DA24-08-2022DISBT24-08-2022NNN  Migration upload              Migration upload                                  
TBI00502071524001  NPR005              30584.67CA24-08-2022     24-08-2022NNN  Migration upload              Migration upload                                  
TBI0050000013800002NPR005              30584.67DA24-08-2022DISBT24-08-2022NNN  Migration upload              Migration upload                                  
TBI00502071524001  NPR005              19115.42CA24-08-2022     24-08-2022NNN  Migration upload              Migration upload                                  
TBI0050000013870002NPR005              19115.42DA24-08-2022DISBT24-08-2022NNN  Migration upload              Migration upload                                  
TBI00502071524001  NPR005               8273.03CA24-08-2022     24-08-2022NNN  Migration upload              Migration upload                                  
TBI0050000013900002NPR005               8273.03DA24-08-2022DISBT24-08-2022NNN  Migration upload              Migration upload                                  
TBI00502071524001  NPR005              21102.84CA24-08-2022     24-08-2022NNN  Migration upload              Migration upload                                  
TBI0050000014220002NPR005              21102.84DA24-08-2022DISBT24-08-2022NNN  Migration upload              Migration upload                                  
TBI00502071524001  NPR005              16993.69CA24-08-2022     24-08-2022NNN  Migration upload              Migration upload                                  
TBI0050000014240002NPR005              16993.69DA24-08-2022DISBT24-08-2022NNN  Migration upload              Migration upload                                  
TBI00502071524001  NPR005              19115.42CA24-08-2022     24-08-2022NNN  Migration upload              Migration upload                                  
TBI0050000014290002NPR005              19115.42DA24-08-2022DISBT24-08-2022NNN  Migration upload              Migration upload                                  
TBI00502071524001  NPR005               9940.02CA24-08-2022     24-08-2022NNN  Migration upload              Migration upload                                  
TBI0050000014370002NPR005               9940.02DA24-08-2022DISBT24-08-2022NNN  Migration upload              Migration upload                                  
TBI00502071524001  NPR005              34025.45CA24-08-2022     24-08-2022NNN  Migration upload              Migration upload                                  
TBI0050000014420002NPR005              34025.45DA24-08-2022DISBT24-08-2022NNN  Migration upload              Migration upload                                  
TBI00502071524001  NPR005              24850.05CA24-08-2022     24-08-2022NNN  Migration upload              Migration upload                                  
TBI0050000014460002NPR005              24850.05DA24-08-2022DISBT24-08-2022NNN  Migration upload              Migration upload                                  
TBI00502071524001  NPR005              21409.27CA24-08-2022     24-08-2022NNN  Migration upload              Migration upload                                  
TBI0050000014470002NPR005              21409.27DA24-08-2022DISBT24-08-2022NNN  Migration upload              Migration upload                                  
TBI00502071524001  NPR005              29257.86CA24-08-2022     24-08-2022NNN  Migration upload              Migration upload                                  
TBI0050000014480002NPR005              29257.86DA24-08-2022DISBT24-08-2022NNN  Migration upload              Migration upload                                  
TBI00502071524001  NPR005               22938.5CA24-08-2022     24-08-2022NNN  Migration upload              Migration upload                                  
TBI0050000014490002NPR005               22938.5DA24-08-2022DISBT24-08-2022NNN  Migration upload              Migration upload                                  
TBI00502071524001  NPR005              19880.03CA24-08-2022     24-08-2022NNN  Migration upload              Migration upload                                  
TBI0050000014530002NPR005              19880.03DA24-08-2022DISBT24-08-2022NNN  Migration upload              Migration upload                                  
TBI00502071524001  NPR005              32743.43CA24-08-2022     24-08-2022NNN  Migration upload              Migration upload                                  
TBI0050000014580002NPR005              32743.43DA24-08-2022DISBT24-08-2022NNN  Migration upload              Migration upload                                  
TBI00502071524001  NPR005              16038.16CA24-08-2022     24-08-2022NNN  Migration upload              Migration upload                                  
TBI0050000014610002NPR005              16038.16DA24-08-2022DISBT24-08-2022NNN  Migration upload              Migration upload                                  
TBI00502071524001  NPR005              26761.58CA24-08-2022     24-08-2022NNN  Migration upload              Migration upload                                  
TBI0050000014650002NPR005              26761.58DA24-08-2022DISBT24-08-2022NNN  Migration upload              Migration upload                                  
TBI00502071524001  NPR005              12233.87CA24-08-2022     24-08-2022NNN  Migration upload              Migration upload                                  
TBI0050000014660002NPR005              12233.87DA24-08-2022DISBT24-08-2022NNN  Migration upload              Migration upload                                  
TBI00502071524001  NPR005                121000CA24-08-2022     24-08-2022NNN  Migration upload              Migration upload                                  
TBI0050000014730003NPR005                121000DA24-08-2022DISBT24-08-2022NNN  Migration upload              Migration upload                                  
TBI00502071524001  NPR005                 30000CA24-08-2022     24-08-2022NNN  Migration upload              Migration upload                                  
TBI0050000014780002NPR005                 30000DA24-08-2022DISBT24-08-2022NNN  Migration upload              Migration upload                                  
TBI00502071524001  NPR005                 30000CA24-08-2022     24-08-2022NNN  Migration upload              Migration upload                                  
TBI0050000014780003NPR005                 30000DA24-08-2022DISBT24-08-2022NNN  Migration upload              Migration upload                                  
TBI00502071524001  NPR005              32113.91CA24-08-2022     24-08-2022NNN  Migration upload              Migration upload                                  
TBI0050000014830002NPR005              32113.91DA24-08-2022DISBT24-08-2022NNN  Migration upload              Migration upload                                  
TBI00502071524001  NPR005             107046.36CA24-08-2022     24-08-2022NNN  Migration upload              Migration upload                                  
TBI0050000015030002NPR005             107046.36DA24-08-2022DISBT24-08-2022NNN  Migration upload              Migration upload                                  
TBI00502071524001  NPR005              23213.13CA24-08-2022     24-08-2022NNN  Migration upload              Migration upload                                  
TBI0050000015070002NPR005              23213.13DA24-08-2022DISBT24-08-2022NNN  Migration upload              Migration upload                                  
TBI00502071524001  NPR005              16056.95CA24-08-2022     24-08-2022NNN  Migration upload              Migration upload                                  
TBI0050000015110002NPR005              16056.95DA24-08-2022DISBT24-08-2022NNN  Migration upload              Migration upload                                  
TBI00502071524001  NPR005              15292.34CA24-08-2022     24-08-2022NNN  Migration upload              Migration upload                                  
TBI0050000015160002NPR005              15292.34DA24-08-2022DISBT24-08-2022NNN  Migration upload              Migration upload                                  
TBI00502071524001  NPR005               25323.4CA24-08-2022     24-08-2022NNN  Migration upload              Migration upload                                  
TBI0050000015410002NPR005               25323.4DA24-08-2022DISBT24-08-2022NNN  Migration upload              Migration upload                                  
TBI00502071524001  NPR005              23635.18CA24-08-2022     24-08-2022NNN  Migration upload              Migration upload                                  
TBI0050000015460002NPR005              23635.18DA24-08-2022DISBT24-08-2022NNN  Migration upload              Migration upload                                  
TBI00502071524001  NPR005              11424.66CA24-08-2022     24-08-2022NNN  Migration upload              Migration upload                                  
TBI0050000015480002NPR005              11424.66DA24-08-2022DISBT24-08-2022NNN  Migration upload              Migration upload                                  
TBI00502071524001  NPR005              29437.75CA24-08-2022     24-08-2022NNN  Migration upload              Migration upload                                  
TBI0050000015500002NPR005              29437.75DA24-08-2022DISBT24-08-2022NNN  Migration upload              Migration upload                                  
TBI00502071524001  NPR005                 20000CA24-08-2022     24-08-2022NNN  Migration upload              Migration upload                                  
TBI0050000015590002NPR005                 20000DA24-08-2022DISBT24-08-2022NNN  Migration upload              Migration upload                                  
TBI00502071524001  NPR005              15292.34CA24-08-2022     24-08-2022NNN  Migration upload              Migration upload                                  
TBI0050000015700002NPR005              15292.34DA24-08-2022DISBT24-08-2022NNN  Migration upload              Migration upload                                  
TBI00502071524001  NPR005               12661.7CA24-08-2022     24-08-2022NNN  Migration upload              Migration upload                                  
TBI0050000015730002NPR005               12661.7DA24-08-2022DISBT24-08-2022NNN  Migration upload              Migration upload                                  
TBI00502071524001  NPR005               27526.2CA24-08-2022     24-08-2022NNN  Migration upload              Migration upload                                  
TBI0050000015790002NPR005               27526.2DA24-08-2022DISBT24-08-2022NNN  Migration upload              Migration upload                                  
TBI00502071524001  NPR005               9224.55CA24-08-2022     24-08-2022NNN  Migration upload              Migration upload                                  
TBI0050000015800002NPR005               9224.55DA24-08-2022DISBT24-08-2022NNN  Migration upload              Migration upload                                  
TBI00502071524001  NPR005              20732.31CA24-08-2022     24-08-2022NNN  Migration upload              Migration upload                                  
TBI0050000015810002NPR005              20732.31DA24-08-2022DISBT24-08-2022NNN  Migration upload              Migration upload                                  
TBI00502071524001  NPR005                 72500CA24-08-2022     24-08-2022NNN  Migration upload              Migration upload                                  
TBI0050000015820003NPR005                 72500DA24-08-2022DISBT24-08-2022NNN  Migration upload              Migration upload                                  
TBI00502071524001  NPR005              26833.08CA24-08-2022     24-08-2022NNN  Migration upload              Migration upload                                  
TBI0050000015850003NPR005              26833.08DA24-08-2022DISBT24-08-2022NNN  Migration upload              Migration upload                                  
TBI00502071524001  NPR005               25323.4CA24-08-2022     24-08-2022NNN  Migration upload              Migration upload                                  
TBI0050000015910002NPR005               25323.4DA24-08-2022DISBT24-08-2022NNN  Migration upload              Migration upload                                  
TBI00502071524001  NPR005              18148.44CA24-08-2022     24-08-2022NNN  Migration upload              Migration upload                                  
TBI0050000016010002NPR005              18148.44DA24-08-2022DISBT24-08-2022NNN  Migration upload              Migration upload                                  
TBI00502071524001  NPR005              68373.19CA24-08-2022     24-08-2022NNN  Migration upload              Migration upload                                  
TBI0050000016020002NPR005              68373.19DA24-08-2022DISBT24-08-2022NNN  Migration upload              Migration upload                                  
TBI00502071524001  NPR005              14349.93CA24-08-2022     24-08-2022NNN  Migration upload              Migration upload                                  
TBI0050000016050002NPR005              14349.93DA24-08-2022DISBT24-08-2022NNN  Migration upload              Migration upload                                  
TBI00502071524001  NPR005              19414.61CA24-08-2022     24-08-2022NNN  Migration upload              Migration upload                                  
TBI0050000016190002NPR005              19414.61DA24-08-2022DISBT24-08-2022NNN  Migration upload              Migration upload                                  
TBI00502071524001  NPR005              19115.42CA24-08-2022     24-08-2022NNN  Migration upload              Migration upload                                  
TBI0050000016290002NPR005              19115.42DA24-08-2022DISBT24-08-2022NNN  Migration upload              Migration upload                                  
TBI00502071524001  NPR005              19115.42CA24-08-2022     24-08-2022NNN  Migration upload              Migration upload                                  
TBI0050000016320002NPR005              19115.42DA24-08-2022DISBT24-08-2022NNN  Migration upload              Migration upload                                  
TBI00502071524001  NPR005                 10000CA24-08-2022     24-08-2022NNN  Migration upload              Migration upload                                  
TBI0050000016360002NPR005                 10000DA24-08-2022DISBT24-08-2022NNN  Migration upload              Migration upload                                  
TBI00502071524001  NPR005              20680.78CA24-08-2022     24-08-2022NNN  Migration upload              Migration upload                                  
TBI0050000016440003NPR005              20680.78DA24-08-2022DISBT24-08-2022NNN  Migration upload              Migration upload                                  
TBI00502071524001  NPR005              24031.18CA24-08-2022     24-08-2022NNN  Migration upload              Migration upload                                  
TBI0050000016500002NPR005              24031.18DA24-08-2022DISBT24-08-2022NNN  Migration upload              Migration upload                                  
TBI00502071524001  NPR005              39001.42CA24-08-2022     24-08-2022NNN  Migration upload              Migration upload                                  
TBI0050000016570002NPR005              39001.42DA24-08-2022DISBT24-08-2022NNN  Migration upload              Migration upload                                  
TBI00502071524001  NPR005              16882.27CA24-08-2022     24-08-2022NNN  Migration upload              Migration upload                                  
TBI0050000016600002NPR005              16882.27DA24-08-2022DISBT24-08-2022NNN  Migration upload              Migration upload                                  
TBI00502071524001  NPR005               12661.7CA24-08-2022     24-08-2022NNN  Migration upload              Migration upload                                  
TBI0050000016660002NPR005               12661.7DA24-08-2022DISBT24-08-2022NNN  Migration upload              Migration upload                                  
TBI00502071524001  NPR005              23703.12CA24-08-2022     24-08-2022NNN  Migration upload              Migration upload                                  
TBI0050000016670002NPR005              23703.12DA24-08-2022DISBT24-08-2022NNN  Migration upload              Migration upload                                  
TBI00502071524001  NPR005              11469.25CA24-08-2022     24-08-2022NNN  Migration upload              Migration upload                                  
TBI0050000016690002NPR005              11469.25DA24-08-2022DISBT24-08-2022NNN  Migration upload              Migration upload                                  
TBI00502071524001  NPR005              38230.83CA24-08-2022     24-08-2022NNN  Migration upload              Migration upload                                  
TBI0050000016710002NPR005              38230.83DA24-08-2022DISBT24-08-2022NNN  Migration upload              Migration upload                                  
TBI00502071524001  NPR005              18992.56CA24-08-2022     24-08-2022NNN  Migration upload              Migration upload                                  
TBI0050000016720002NPR005              18992.56DA24-08-2022DISBT24-08-2022NNN  Migration upload              Migration upload                                  
TBI00502071524001  NPR005               8410.79CA24-08-2022     24-08-2022NNN  Migration upload              Migration upload                                  
TBI0050000016730002NPR005               8410.79DA24-08-2022DISBT24-08-2022NNN  Migration upload              Migration upload                                  
TBI00502071524001  NPR005              17203.88CA24-08-2022     24-08-2022NNN  Migration upload              Migration upload                                  
TBI0050000016780002NPR005              17203.88DA24-08-2022DISBT24-08-2022NNN  Migration upload              Migration upload                                  
TBI00502071524001  NPR005              62258.63CA24-08-2022     24-08-2022NNN  Migration upload              Migration upload                                  
TBI0050000016810002NPR005              62258.63DA24-08-2022DISBT24-08-2022NNN  Migration upload              Migration upload                                  
TBI00502071524001  NPR005              23111.42CA24-08-2022     24-08-2022NNN  Migration upload              Migration upload                                  
TBI0050000016820002NPR005              23111.42DA24-08-2022DISBT24-08-2022NNN  Migration upload              Migration upload                                  
TBI00502071524001  NPR005                 30000CA24-08-2022     24-08-2022NNN  Migration upload              Migration upload                                  
TBI0050000016830002NPR005                 30000DA24-08-2022DISBT24-08-2022NNN  Migration upload              Migration upload                                  
TBI00502071524001  NPR005              18693.05CA24-08-2022     24-08-2022NNN  Migration upload              Migration upload                                  
TBI0050000016850002NPR005              18693.05DA24-08-2022DISBT24-08-2022NNN  Migration upload              Migration upload                                  
TBI00502071524001  NPR005               7429.49CA24-08-2022     24-08-2022NNN  Migration upload              Migration upload                                  
TBI0050000017000003NPR005               7429.49DA24-08-2022DISBT24-08-2022NNN  Migration upload              Migration upload                                  
TBI00502071524001  NPR005               13380.8CA24-08-2022     24-08-2022NNN  Migration upload              Migration upload                                  
TBI0050000017010002NPR005               13380.8DA24-08-2022DISBT24-08-2022NNN  Migration upload              Migration upload                                  
TBI00502071524001  NPR005                 55500CA24-08-2022     24-08-2022NNN  Migration upload              Migration upload                                  
TBI0050000017030003NPR005                 55500DA24-08-2022DISBT24-08-2022NNN  Migration upload              Migration upload                                  
TBI00502071524001  NPR005               12661.7CA24-08-2022     24-08-2022NNN  Migration upload              Migration upload                                  
TBI0050000017050002NPR005               12661.7DA24-08-2022DISBT24-08-2022NNN  Migration upload              Migration upload                                  
TBI00502071524001  NPR005              11817.59CA24-08-2022     24-08-2022NNN  Migration upload              Migration upload                                  
TBI0050000017120002NPR005              11817.59DA24-08-2022DISBT24-08-2022NNN  Migration upload              Migration upload                                  
TBI00502071524001  NPR005               9557.71CA24-08-2022     24-08-2022NNN  Migration upload              Migration upload                                  
TBI0050000018140002NPR005               9557.71DA24-08-2022DISBT24-08-2022NNN  Migration upload              Migration upload                                  
TBI00502071524001  NPR005              14145.41CA24-08-2022     24-08-2022NNN  Migration upload              Migration upload                                  
TBI0050000018190002NPR005              14145.41DA24-08-2022DISBT24-08-2022NNN  Migration upload              Migration upload                                  
TBI00502071524001  NPR005               18570.5CA24-08-2022     24-08-2022NNN  Migration upload              Migration upload                                  
TBI0050000018210002NPR005               18570.5DA24-08-2022DISBT24-08-2022NNN  Migration upload              Migration upload                                  
TBI00502071524001  NPR005              13505.82CA24-08-2022     24-08-2022NNN  Migration upload              Migration upload                                  
TBI0050000018260002NPR005              13505.82DA24-08-2022DISBT24-08-2022NNN  Migration upload              Migration upload                                  
TBI00502071524001  NPR005              14349.93CA24-08-2022     24-08-2022NNN  Migration upload              Migration upload                                  
TBI0050000018270002NPR005              14349.93DA24-08-2022DISBT24-08-2022NNN  Migration upload              Migration upload                                  
TBI00502071524001  NPR005              36701.61CA24-08-2022     24-08-2022NNN  Migration upload              Migration upload                                  
TBI0050000018300002NPR005              36701.61DA24-08-2022DISBT24-08-2022NNN  Migration upload              Migration upload                                  
TBI00502071524001  NPR005              18992.56CA24-08-2022     24-08-2022NNN  Migration upload              Migration upload                                  
TBI0050000018340002NPR005              18992.56DA24-08-2022DISBT24-08-2022NNN  Migration upload              Migration upload                                  
TBI00502071524001  NPR005               27526.2CA24-08-2022     24-08-2022NNN  Migration upload              Migration upload                                  
TBI0050000018350002NPR005               27526.2DA24-08-2022DISBT24-08-2022NNN  Migration upload              Migration upload                                  
TBI00502071524001  NPR005               9940.02CA24-08-2022     24-08-2022NNN  Migration upload              Migration upload                                  
TBI0050000018380002NPR005               9940.02DA24-08-2022DISBT24-08-2022NNN  Migration upload              Migration upload                                  
TBI00502071524001  NPR005               27526.2CA24-08-2022     24-08-2022NNN  Migration upload              Migration upload                                  
TBI0050000018410002NPR005               27526.2DA24-08-2022DISBT24-08-2022NNN  Migration upload              Migration upload                                  
TBI00502071524001  NPR005               35049.3CA24-08-2022     24-08-2022NNN  Migration upload              Migration upload                                  
TBI0050000018430002NPR005               35049.3DA24-08-2022DISBT24-08-2022NNN  Migration upload              Migration upload                                  
TBI00502071524001  NPR005              30584.67CA24-08-2022     24-08-2022NNN  Migration upload              Migration upload                                  
TBI0050000018450002NPR005              30584.67DA24-08-2022DISBT24-08-2022NNN  Migration upload              Migration upload                                  
TBI00502071524001  NPR005              11086.95CA24-08-2022     24-08-2022NNN  Migration upload              Migration upload                                  
TBI0050000018510002NPR005              11086.95DA24-08-2022DISBT24-08-2022NNN  Migration upload              Migration upload                                  
TBI00502071524001  NPR005              10704.64CA24-08-2022     24-08-2022NNN  Migration upload              Migration upload                                  
TBI0050000018540002NPR005              10704.64DA24-08-2022DISBT24-08-2022NNN  Migration upload              Migration upload                                  
TBI00502071524001  NPR005              13505.82CA24-08-2022     24-08-2022NNN  Migration upload              Migration upload                                  
TBI0050000018580002NPR005              13505.82DA24-08-2022DISBT24-08-2022NNN  Migration upload              Migration upload                                  
TBI00502071524001  NPR005              28364.68CA24-08-2022     24-08-2022NNN  Migration upload              Migration upload                                  
TBI0050000018630002NPR005              28364.68DA24-08-2022DISBT24-08-2022NNN  Migration upload              Migration upload                                  
TBI00502071524001  NPR005              49944.93CA24-08-2022     24-08-2022NNN  Migration upload              Migration upload                                  
TBI0050000018650002NPR005              49944.93DA24-08-2022DISBT24-08-2022NNN  Migration upload              Migration upload                                  
TBI00502071524001  NPR005               13380.8CA24-08-2022     24-08-2022NNN  Migration upload              Migration upload                                  
TBI0050000018690002NPR005               13380.8DA24-08-2022DISBT24-08-2022NNN  Migration upload              Migration upload                                  
TBI00502071524001  NPR005              19115.42CA24-08-2022     24-08-2022NNN  Migration upload              Migration upload                                  
TBI0050000018700002NPR005              19115.42DA24-08-2022DISBT24-08-2022NNN  Migration upload              Migration upload                                  
TBI00502071524001  NPR005              24479.29CA24-08-2022     24-08-2022NNN  Migration upload              Migration upload                                  
TBI0050000018720002NPR005              24479.29DA24-08-2022DISBT24-08-2022NNN  Migration upload              Migration upload                                  
TBI00502071524001  NPR005              26286.98CA24-08-2022     24-08-2022NNN  Migration upload              Migration upload                                  
TBI0050000018740002NPR005              26286.98DA24-08-2022DISBT24-08-2022NNN  Migration upload              Migration upload                                  
TBI00502071524001  NPR005              38277.53CA24-08-2022     24-08-2022NNN  Migration upload              Migration upload                                  
TBI0050000018750002NPR005              38277.53DA24-08-2022DISBT24-08-2022NNN  Migration upload              Migration upload                                  
TBI00502071524001  NPR005              16886.67CA24-08-2022     24-08-2022NNN  Migration upload              Migration upload                                  
TBI0050000018820002NPR005              16886.67DA24-08-2022DISBT24-08-2022NNN  Migration upload              Migration upload                                  
TBI00502071524001  NPR005              27576.77CA24-08-2022     24-08-2022NNN  Migration upload              Migration upload                                  
TBI0050000018900002NPR005              27576.77DA24-08-2022DISBT24-08-2022NNN  Migration upload              Migration upload                                  
TBI00502071524001  NPR005              12239.65CA24-08-2022     24-08-2022NNN  Migration upload              Migration upload                                  
TBI0050000018940002NPR005              12239.65DA24-08-2022DISBT24-08-2022NNN  Migration upload              Migration upload                                  
TBI00502071524001  NPR005              21102.84CA24-08-2022     24-08-2022NNN  Migration upload              Migration upload                                  
TBI0050000019010002NPR005              21102.84DA24-08-2022DISBT24-08-2022NNN  Migration upload              Migration upload                                  
TBI00502071524001  NPR005                 43000CA24-08-2022     24-08-2022NNN  Migration upload              Migration upload                                  
TBI0050000019020002NPR005                 43000DA24-08-2022DISBT24-08-2022NNN  Migration upload              Migration upload                                  
TBI00502071524001  NPR005              12239.65CA24-08-2022     24-08-2022NNN  Migration upload              Migration upload                                  
TBI0050000019160002NPR005              12239.65DA24-08-2022DISBT24-08-2022NNN  Migration upload              Migration upload                                  
TBI00502071524001  NPR005              15296.31CA24-08-2022     24-08-2022NNN  Migration upload              Migration upload                                  
TBI0050000019180002NPR005              15296.31DA24-08-2022DISBT24-08-2022NNN  Migration upload              Migration upload                                  
TBI00502071524001  NPR005              23061.37CA24-08-2022     24-08-2022NNN  Migration upload              Migration upload                                  
TBI0050000019250002NPR005              23061.37DA24-08-2022DISBT24-08-2022NNN  Migration upload              Migration upload                                  
TBI00502071524001  NPR005              36432.83CA24-08-2022     24-08-2022NNN  Migration upload              Migration upload                                  
TBI0050000019260002NPR005              36432.83DA24-08-2022DISBT24-08-2022NNN  Migration upload              Migration upload                                  
TBI00502071524001  NPR005              17063.48CA24-08-2022     24-08-2022NNN  Migration upload              Migration upload                                  
TBI0050000019270002NPR005              17063.48DA24-08-2022DISBT24-08-2022NNN  Migration upload              Migration upload                                  
TBI00502071524001  NPR005               12661.7CA24-08-2022     24-08-2022NNN  Migration upload              Migration upload                                  
TBI0050000019360002NPR005               12661.7DA24-08-2022DISBT24-08-2022NNN  Migration upload              Migration upload                                  
TBI00502071524001  NPR005              56263.35CA24-08-2022     24-08-2022NNN  Migration upload              Migration upload                                  
TBI0050000019440002NPR005              56263.35DA24-08-2022DISBT24-08-2022NNN  Migration upload              Migration upload                                  
TBI00502071524001  NPR005                 50000CA24-08-2022     24-08-2022NNN  Migration upload              Migration upload                                  
TBI0050000019460002NPR005                 50000DA24-08-2022DISBT24-08-2022NNN  Migration upload              Migration upload                                  
TBI00502071524001  NPR005                 44500CA24-08-2022     24-08-2022NNN  Migration upload              Migration upload                                  
TBI0050000019500002NPR005                 44500DA24-08-2022DISBT24-08-2022NNN  Migration upload              Migration upload                                  
TBI00502071524001  NPR005               25323.4CA24-08-2022     24-08-2022NNN  Migration upload              Migration upload                                  
TBI0050000019510002NPR005               25323.4DA24-08-2022DISBT24-08-2022NNN  Migration upload              Migration upload                                  
TBI00502071524001  NPR005                 18000CA24-08-2022     24-08-2022NNN  Migration upload              Migration upload                                  
TBI0050000019570002NPR005                 18000DA24-08-2022DISBT24-08-2022NNN  Migration upload              Migration upload                                  
TBI00502071524001  NPR005              21102.84CA24-08-2022     24-08-2022NNN  Migration upload              Migration upload                                  
TBI0050000019670002NPR005              21102.84DA24-08-2022DISBT24-08-2022NNN  Migration upload              Migration upload                                  
TBI00502071524001  NPR005                 23500CA24-08-2022     24-08-2022NNN  Migration upload              Migration upload                                  
TBI0050000019690002NPR005                 23500DA24-08-2022DISBT24-08-2022NNN  Migration upload              Migration upload                                  
TBI00502071524001  NPR005               6754.67CA24-08-2022     24-08-2022NNN  Migration upload              Migration upload                                  
TBI0050000019700002NPR005               6754.67DA24-08-2022DISBT24-08-2022NNN  Migration upload              Migration upload                                  
TBI00502071524001  NPR005               16885.2CA24-08-2022     24-08-2022NNN  Migration upload              Migration upload                                  
TBI0050000019710002NPR005               16885.2DA24-08-2022DISBT24-08-2022NNN  Migration upload              Migration upload                                  
TBI00502071524001  NPR005              25303.66CA24-08-2022     24-08-2022NNN  Migration upload              Migration upload                                  
TBI0050000019730002NPR005              25303.66DA24-08-2022DISBT24-08-2022NNN  Migration upload              Migration upload                                  
TBI00502071524001  NPR005                 25000CA24-08-2022     24-08-2022NNN  Migration upload              Migration upload                                  
TBI0050000019760002NPR005                 25000DA24-08-2022DISBT24-08-2022NNN  Migration upload              Migration upload                                  
TBI00502071524001  NPR005              40939.51CA24-08-2022     24-08-2022NNN  Migration upload              Migration upload                                  
TBI0050000019780002NPR005              40939.51DA24-08-2022DISBT24-08-2022NNN  Migration upload              Migration upload                                  
TBI00502071524001  NPR005              11469.25CA24-08-2022     24-08-2022NNN  Migration upload              Migration upload                                  
TBI0050000019800002NPR005              11469.25DA24-08-2022DISBT24-08-2022NNN  Migration upload              Migration upload                                  
TBI00502071524001  NPR005                 10000CA24-08-2022     24-08-2022NNN  Migration upload              Migration upload                                  
TBI0050000019810003NPR005                 10000DA24-08-2022DISBT24-08-2022NNN  Migration upload              Migration upload                                  
TBI00502071524001  NPR005               9940.02CA24-08-2022     24-08-2022NNN  Migration upload              Migration upload                                  
TBI0050000019840002NPR005               9940.02DA24-08-2022DISBT24-08-2022NNN  Migration upload              Migration upload                                  
TBI00502071524001  NPR005              12969.32CA24-08-2022     24-08-2022NNN  Migration upload              Migration upload                                  
TBI0050000019850002NPR005              12969.32DA24-08-2022DISBT24-08-2022NNN  Migration upload              Migration upload                                  
TBI00502071524001  NPR005              19115.42CA24-08-2022     24-08-2022NNN  Migration upload              Migration upload                                  
TBI0050000019890002NPR005              19115.42DA24-08-2022DISBT24-08-2022NNN  Migration upload              Migration upload                                  
TBI00502071524001  NPR005               33204.6CA24-08-2022     24-08-2022NNN  Migration upload              Migration upload                                  
TBI0050000019900002NPR005               33204.6DA24-08-2022DISBT24-08-2022NNN  Migration upload              Migration upload                                  
TBI00502071524001  NPR005               20485.6CA24-08-2022     24-08-2022NNN  Migration upload              Migration upload                                  
TBI0050000019910003NPR005               20485.6DA24-08-2022DISBT24-08-2022NNN  Migration upload              Migration upload                                  
TBI00502071524001  NPR005                 30000CA24-08-2022     24-08-2022NNN  Migration upload              Migration upload                                  
TBI0050000019940002NPR005                 30000DA24-08-2022DISBT24-08-2022NNN  Migration upload              Migration upload                                  
TBI00502071524001  NPR005              19414.61CA24-08-2022     24-08-2022NNN  Migration upload              Migration upload                                  
TBI0050000019990002NPR005              19414.61DA24-08-2022DISBT24-08-2022NNN  Migration upload              Migration upload                                  
TBI00502071524001  NPR005               27526.2CA24-08-2022     24-08-2022NNN  Migration upload              Migration upload                                  
TBI0050000020040002NPR005               27526.2DA24-08-2022DISBT24-08-2022NNN  Migration upload              Migration upload                                  
TBI00502071524001  NPR005              32920.43CA24-08-2022     24-08-2022NNN  Migration upload              Migration upload                                  
TBI0050000020100002NPR005              32920.43DA24-08-2022DISBT24-08-2022NNN  Migration upload              Migration upload                                  
TBI00502071524001  NPR005              35172.37CA24-08-2022     24-08-2022NNN  Migration upload              Migration upload                                  
TBI0050000020130002NPR005              35172.37DA24-08-2022DISBT24-08-2022NNN  Migration upload              Migration upload                                  
TBI00502071524001  NPR005              14310.97CA24-08-2022     24-08-2022NNN  Migration upload              Migration upload                                  
TBI0050000020170002NPR005              14310.97DA24-08-2022DISBT24-08-2022NNN  Migration upload              Migration upload                                  
TBI00502071524001  NPR005               8410.79CA24-08-2022     24-08-2022NNN  Migration upload              Migration upload                                  
TBI0050000020230002NPR005               8410.79DA24-08-2022DISBT24-08-2022NNN  Migration upload              Migration upload                                  
TBI00502071524001  NPR005              13394.43CA24-08-2022     24-08-2022NNN  Migration upload              Migration upload                                  
TBI0050000020270002NPR005              13394.43DA24-08-2022DISBT24-08-2022NNN  Migration upload              Migration upload                                  
TBI00502071524001  NPR005              16882.27CA24-08-2022     24-08-2022NNN  Migration upload              Migration upload                                  
TBI0050000020340002NPR005              16882.27DA24-08-2022DISBT24-08-2022NNN  Migration upload              Migration upload                                  
TBI00502071524001  NPR005              35455.84CA24-08-2022     24-08-2022NNN  Migration upload              Migration upload                                  
TBI0050000020430002NPR005              35455.84DA24-08-2022DISBT24-08-2022NNN  Migration upload              Migration upload                                  
TBI00502071524001  NPR005               20291.7CA24-08-2022     24-08-2022NNN  Migration upload              Migration upload                                  
TBI0050000020440002NPR005               20291.7DA24-08-2022DISBT24-08-2022NNN  Migration upload              Migration upload                                  
TBI00502071524001  NPR005                 10000CA24-08-2022     24-08-2022NNN  Migration upload              Migration upload                                  
TBI0050000020500004NPR005                 10000DA24-08-2022DISBT24-08-2022NNN  Migration upload              Migration upload                                  
TBI00502071524001  NPR005                 13500CA24-08-2022     24-08-2022NNN  Migration upload              Migration upload                                  
TBI0050000020580002NPR005                 13500DA24-08-2022DISBT24-08-2022NNN  Migration upload              Migration upload                                  
TBI00502071524001  NPR005              35452.77CA24-08-2022     24-08-2022NNN  Migration upload              Migration upload                                  
TBI0050000020590003NPR005              35452.77DA24-08-2022DISBT24-08-2022NNN  Migration upload              Migration upload                                  
TBI00502071524001  NPR005              32920.43CA24-08-2022     24-08-2022NNN  Migration upload              Migration upload                                  
TBI0050000020770002NPR005              32920.43DA24-08-2022DISBT24-08-2022NNN  Migration upload              Migration upload                                  
TBI00502071524001  NPR005              35510.48CA24-08-2022     24-08-2022NNN  Migration upload              Migration upload                                  
TBI0050000020790002NPR005              35510.48DA24-08-2022DISBT24-08-2022NNN  Migration upload              Migration upload                                  
TBI00502071524001  NPR005              64996.74CA24-08-2022     24-08-2022NNN  Migration upload              Migration upload                                  
TBI0050000020800002NPR005              64996.74DA24-08-2022DISBT24-08-2022NNN  Migration upload              Migration upload                                  
TBI00502071524001  NPR005              18121.87CA24-08-2022     24-08-2022NNN  Migration upload              Migration upload                                  
TBI0050000020920002NPR005              18121.87DA24-08-2022DISBT24-08-2022NNN  Migration upload              Migration upload                                  
TBI00502071524001  NPR005              16771.35CA24-08-2022     24-08-2022NNN  Migration upload              Migration upload                                  
TBI0050000021030002NPR005              16771.35DA24-08-2022DISBT24-08-2022NNN  Migration upload              Migration upload                                  
TBI00502071524001  NPR005              13927.88CA24-08-2022     24-08-2022NNN  Migration upload              Migration upload                                  
TBI0050000021190003NPR005              13927.88DA24-08-2022DISBT24-08-2022NNN  Migration upload              Migration upload                                  
TBI00502071524001  NPR005              16882.27CA24-08-2022     24-08-2022NNN  Migration upload              Migration upload                                  
TBI0050000021360002NPR005              16882.27DA24-08-2022DISBT24-08-2022NNN  Migration upload              Migration upload                                  
TBI00502071524001  NPR005              17726.38CA24-08-2022     24-08-2022NNN  Migration upload              Migration upload                                  
TBI0050000021370002NPR005              17726.38DA24-08-2022DISBT24-08-2022NNN  Migration upload              Migration upload                                  
TBI00502071524001  NPR005                 20500CA24-08-2022     24-08-2022NNN  Migration upload              Migration upload                                  
TBI0050000021410002NPR005                 20500DA24-08-2022DISBT24-08-2022NNN  Migration upload              Migration upload                                  
TBI00502071524001  NPR005               12661.7CA24-08-2022     24-08-2022NNN  Migration upload              Migration upload                                  
TBI0050000021420002NPR005               12661.7DA24-08-2022DISBT24-08-2022NNN  Migration upload              Migration upload                                  
TBI00502071524001  NPR005                 11000CA24-08-2022     24-08-2022NNN  Migration upload              Migration upload                                  
TBI0050000021450002NPR005                 11000DA24-08-2022DISBT24-08-2022NNN  Migration upload              Migration upload                                  
TBI00502071524001  NPR005              16882.27CA24-08-2022     24-08-2022NNN  Migration upload              Migration upload                                  
TBI0050000021510002NPR005              16882.27DA24-08-2022DISBT24-08-2022NNN  Migration upload              Migration upload                                  
TBI00502071524001  NPR005              27855.74CA24-08-2022     24-08-2022NNN  Migration upload              Migration upload                                  
TBI0050000021520002NPR005              27855.74DA24-08-2022DISBT24-08-2022NNN  Migration upload              Migration upload                                  
TBI00502071524001  NPR005              15194.04CA24-08-2022     24-08-2022NNN  Migration upload              Migration upload                                  
TBI0050000021560002NPR005              15194.04DA24-08-2022DISBT24-08-2022NNN  Migration upload              Migration upload                                  
TBI00502071524001  NPR005              10551.42CA24-08-2022     24-08-2022NNN  Migration upload              Migration upload                                  
TBI0050000021590002NPR005              10551.42DA24-08-2022DISBT24-08-2022NNN  Migration upload              Migration upload                                  
TBI00502071524001  NPR005              23637.22CA24-08-2022     24-08-2022NNN  Migration upload              Migration upload                                  
TBI0050000021670002NPR005              23637.22DA24-08-2022DISBT24-08-2022NNN  Migration upload              Migration upload                                  
TBI00502071524001  NPR005              17304.33CA24-08-2022     24-08-2022NNN  Migration upload              Migration upload                                  
TBI0050000021770002NPR005              17304.33DA24-08-2022DISBT24-08-2022NNN  Migration upload              Migration upload                                  
TBI00502071524001  NPR005              18148.44CA24-08-2022     24-08-2022NNN  Migration upload              Migration upload                                  
TBI0050000021790002NPR005              18148.44DA24-08-2022DISBT24-08-2022NNN  Migration upload              Migration upload                                  
TBI00502071524001  NPR005                 22000CA24-08-2022     24-08-2022NNN  Migration upload              Migration upload                                  
TBI0050000021870002NPR005                 22000DA24-08-2022DISBT24-08-2022NNN  Migration upload              Migration upload                                  
TBI00502071524001  NPR005              33764.54CA24-08-2022     24-08-2022NNN  Migration upload              Migration upload                                  
TBI0050000021880002NPR005              33764.54DA24-08-2022DISBT24-08-2022NNN  Migration upload              Migration upload                                  
TBI00502071524001  NPR005                 18000CA24-08-2022     24-08-2022NNN  Migration upload              Migration upload                                  
TBI0050000021950003NPR005                 18000DA24-08-2022DISBT24-08-2022NNN  Migration upload              Migration upload                                  
TBI00502071524001  NPR005              20680.78CA24-08-2022     24-08-2022NNN  Migration upload              Migration upload                                  
TBI0050000022050002NPR005              20680.78DA24-08-2022DISBT24-08-2022NNN  Migration upload              Migration upload                                  
TBI00502071524001  NPR005              27855.74CA24-08-2022     24-08-2022NNN  Migration upload              Migration upload                                  
TBI0050000022080002NPR005              27855.74DA24-08-2022DISBT24-08-2022NNN  Migration upload              Migration upload                                  
TBI00502071524001  NPR005              13083.76CA24-08-2022     24-08-2022NNN  Migration upload              Migration upload                                  
TBI0050000022100002NPR005              13083.76DA24-08-2022DISBT24-08-2022NNN  Migration upload              Migration upload                                  
TBI00502071524001  NPR005               25323.4CA24-08-2022     24-08-2022NNN  Migration upload              Migration upload                                  
TBI0050000022120002NPR005               25323.4DA24-08-2022DISBT24-08-2022NNN  Migration upload              Migration upload                                  
TBI00502071524001  NPR005                 18000CA24-08-2022     24-08-2022NNN  Migration upload              Migration upload                                  
TBI0050000022160002NPR005                 18000DA24-08-2022DISBT24-08-2022NNN  Migration upload              Migration upload                                  
TBI00502071524001  NPR005              24057.24CA24-08-2022     24-08-2022NNN  Migration upload              Migration upload                                  
TBI0050000022200002NPR005              24057.24DA24-08-2022DISBT24-08-2022NNN  Migration upload              Migration upload                                  
TBI00502071524001  NPR005              10129.36CA24-08-2022     24-08-2022NNN  Migration upload              Migration upload                                  
TBI0050000022270002NPR005              10129.36DA24-08-2022DISBT24-08-2022NNN  Migration upload              Migration upload                                  
TBI00502071524001  NPR005              10973.48CA24-08-2022     24-08-2022NNN  Migration upload              Migration upload                                  
TBI0050000022380002NPR005              10973.48DA24-08-2022DISBT24-08-2022NNN  Migration upload              Migration upload                                  
TBI00502071524001  NPR005              24901.35CA24-08-2022     24-08-2022NNN  Migration upload              Migration upload                                  
TBI0050000022420002NPR005              24901.35DA24-08-2022DISBT24-08-2022NNN  Migration upload              Migration upload                                  
TBI00502071524001  NPR005               35049.3CA24-08-2022     24-08-2022NNN  Migration upload              Migration upload                                  
TBI0050000022500002NPR005               35049.3DA24-08-2022DISBT24-08-2022NNN  Migration upload              Migration upload                                  
TBI00502071524001  NPR005               29515.2CA24-08-2022     24-08-2022NNN  Migration upload              Migration upload                                  
TBI0050000022520002NPR005               29515.2DA24-08-2022DISBT24-08-2022NNN  Migration upload              Migration upload                                  
TBI00502071524001  NPR005              22791.06CA24-08-2022     24-08-2022NNN  Migration upload              Migration upload                                  
TBI0050000022540002NPR005              22791.06DA24-08-2022DISBT24-08-2022NNN  Migration upload              Migration upload                                  
TBI00502071524001  NPR005              27576.77CA24-08-2022     24-08-2022NNN  Migration upload              Migration upload                                  
TBI0050000022640002NPR005              27576.77DA24-08-2022DISBT24-08-2022NNN  Migration upload              Migration upload                                  
TBI00502071524001  NPR005              37985.11CA24-08-2022     24-08-2022NNN  Migration upload              Migration upload                                  
TBI0050000022650002NPR005              37985.11DA24-08-2022DISBT24-08-2022NNN  Migration upload              Migration upload                                  
TBI00502071524001  NPR005              21102.84CA24-08-2022     24-08-2022NNN  Migration upload              Migration upload                                  
TBI0050000022680002NPR005              21102.84DA24-08-2022DISBT24-08-2022NNN  Migration upload              Migration upload                                  
TBI00502071524001  NPR005              26167.52CA24-08-2022     24-08-2022NNN  Migration upload              Migration upload                                  
TBI0050000022810002NPR005              26167.52DA24-08-2022DISBT24-08-2022NNN  Migration upload              Migration upload                                  
TBI00502071524001  NPR005              37985.11CA24-08-2022     24-08-2022NNN  Migration upload              Migration upload                                  
TBI0050000022820002NPR005              37985.11DA24-08-2022DISBT24-08-2022NNN  Migration upload              Migration upload                                  
TBI00502071524001  NPR005               29515.2CA24-08-2022     24-08-2022NNN  Migration upload              Migration upload                                  
TBI0050000022840002NPR005               29515.2DA24-08-2022DISBT24-08-2022NNN  Migration upload              Migration upload                                  
TBI00502071524001  NPR005              10743.61CA24-08-2022     24-08-2022NNN  Migration upload              Migration upload                                  
TBI0050000022850002NPR005              10743.61DA24-08-2022DISBT24-08-2022NNN  Migration upload              Migration upload                                  
TBI00502071524001  NPR005               6754.67CA24-08-2022     24-08-2022NNN  Migration upload              Migration upload                                  
TBI0050000022910002NPR005               6754.67DA24-08-2022DISBT24-08-2022NNN  Migration upload              Migration upload                                  
TBI00502071524001  NPR005              23058.75CA24-08-2022     24-08-2022NNN  Migration upload              Migration upload                                  
TBI0050000023180003NPR005              23058.75DA24-08-2022DISBT24-08-2022NNN  Migration upload              Migration upload                                  
TBI00502071524001  NPR005                 15000CA24-08-2022     24-08-2022NNN  Migration upload              Migration upload                                  
TBI0050000023200002NPR005                 15000DA24-08-2022DISBT24-08-2022NNN  Migration upload              Migration upload                                  
TBI00502071524001  NPR005              16940.01CA24-08-2022     24-08-2022NNN  Migration upload              Migration upload                                  
TBI0050000023220002NPR005              16940.01DA24-08-2022DISBT24-08-2022NNN  Migration upload              Migration upload                                  
TBI00502071524001  NPR005              24742.73CA24-08-2022     24-08-2022NNN  Migration upload              Migration upload                                  
TBI0050000023280002NPR005              24742.73DA24-08-2022DISBT24-08-2022NNN  Migration upload              Migration upload                                  
TBI00502071524001  NPR005                 10500CA24-08-2022     24-08-2022NNN  Migration upload              Migration upload                                  
TBI0050000023350002NPR005                 10500DA24-08-2022DISBT24-08-2022NNN  Migration upload              Migration upload                                  
TBI00502071524001  NPR005              62886.46CA24-08-2022     24-08-2022NNN  Migration upload              Migration upload                                  
TBI0050000023410002NPR005              62886.46DA24-08-2022DISBT24-08-2022NNN  Migration upload              Migration upload                                  
TBI00502071524001  NPR005                  6500CA24-08-2022     24-08-2022NNN  Migration upload              Migration upload                                  
TBI0050000023420004NPR005                  6500DA24-08-2022DISBT24-08-2022NNN  Migration upload              Migration upload                                  
TBI00502071524001  NPR005              18992.56CA24-08-2022     24-08-2022NNN  Migration upload              Migration upload                                  
TBI0050000023430002NPR005              18992.56DA24-08-2022DISBT24-08-2022NNN  Migration upload              Migration upload                                  
TBI00502071524001  NPR005                 20000CA24-08-2022     24-08-2022NNN  Migration upload              Migration upload                                  
TBI0050000023460002NPR005                 20000DA24-08-2022DISBT24-08-2022NNN  Migration upload              Migration upload                                  
TBI00502071524001  NPR005              32747.14CA24-08-2022     24-08-2022NNN  Migration upload              Migration upload                                  
TBI0050000023470002NPR005              32747.14DA24-08-2022DISBT24-08-2022NNN  Migration upload              Migration upload                                  
TBI00502071524001  NPR005              29543.97CA24-08-2022     24-08-2022NNN  Migration upload              Migration upload                                  
TBI0050000023530002NPR005              29543.97DA24-08-2022DISBT24-08-2022NNN  Migration upload              Migration upload                                  
TBI00502071524001  NPR005                 22500CA24-08-2022     24-08-2022NNN  Migration upload              Migration upload                                  
TBI0050000023540002NPR005                 22500DA24-08-2022DISBT24-08-2022NNN  Migration upload              Migration upload                                  
TBI00502071524001  NPR005              24479.29CA24-08-2022     24-08-2022NNN  Migration upload              Migration upload                                  
TBI0050000023570002NPR005              24479.29DA24-08-2022DISBT24-08-2022NNN  Migration upload              Migration upload                                  
TBI00502071524001  NPR005              14349.93CA24-08-2022     24-08-2022NNN  Migration upload              Migration upload                                  
TBI0050000023590002NPR005              14349.93DA24-08-2022DISBT24-08-2022NNN  Migration upload              Migration upload                                  
TBI00502071524001  NPR005                 28500CA24-08-2022     24-08-2022NNN  Migration upload              Migration upload                                  
TBI0050000023600002NPR005                 28500DA24-08-2022DISBT24-08-2022NNN  Migration upload              Migration upload                                  
TBI00502071524001  NPR005                 25607CA24-08-2022     24-08-2022NNN  Migration upload              Migration upload                                  
TBI0050000023610002NPR005                 25607DA24-08-2022DISBT24-08-2022NNN  Migration upload              Migration upload                                  
TBI00502071524001  NPR005               16602.3CA24-08-2022     24-08-2022NNN  Migration upload              Migration upload                                  
TBI0050000023630002NPR005               16602.3DA24-08-2022DISBT24-08-2022NNN  Migration upload              Migration upload                                  
TBI00502071524001  NPR005                 34500CA24-08-2022     24-08-2022NNN  Migration upload              Migration upload                                  
TBI0050000023990002NPR005                 34500DA24-08-2022DISBT24-08-2022NNN  Migration upload              Migration upload                                  
TBI00502071524001  NPR005               14757.6CA24-08-2022     24-08-2022NNN  Migration upload              Migration upload                                  
TBI0050000024040003NPR005               14757.6DA24-08-2022DISBT24-08-2022NNN  Migration upload              Migration upload                                  
TBI00502071524001  NPR005                 10000CA24-08-2022     24-08-2022NNN  Migration upload              Migration upload                                  
TBI0050000024060004NPR005                 10000DA24-08-2022DISBT24-08-2022NNN  Migration upload              Migration upload                                  
TBI00502071524001  NPR005                 17000CA24-08-2022     24-08-2022NNN  Migration upload              Migration upload                                  
TBI0050000024190003NPR005                 17000DA24-08-2022DISBT24-08-2022NNN  Migration upload              Migration upload                                  
TBI00502071524001  NPR005               21524.9CA24-08-2022     24-08-2022NNN  Migration upload              Migration upload                                  
TBI0050000024290002NPR005               21524.9DA24-08-2022DISBT24-08-2022NNN  Migration upload              Migration upload                                  
TBI00502071524001  NPR005              27011.63CA24-08-2022     24-08-2022NNN  Migration upload              Migration upload                                  
TBI0050000024340002NPR005              27011.63DA24-08-2022DISBT24-08-2022NNN  Migration upload              Migration upload                                  
TBI00502071524001  NPR005               5893.43CA24-08-2022     24-08-2022NNN  Migration upload              Migration upload                                  
TBI0050000024400002NPR005               5893.43DA24-08-2022DISBT24-08-2022NNN  Migration upload              Migration upload                                  
TBI00502071524001  NPR005              17726.38CA24-08-2022     24-08-2022NNN  Migration upload              Migration upload                                  
TBI0050000024580002NPR005              17726.38DA24-08-2022DISBT24-08-2022NNN  Migration upload              Migration upload                                  
TBI00502071524001  NPR005              21946.95CA24-08-2022     24-08-2022NNN  Migration upload              Migration upload                                  
TBI0050000024720002NPR005              21946.95DA24-08-2022DISBT24-08-2022NNN  Migration upload              Migration upload                                  
TBI00502071524001  NPR005               18570.5CA24-08-2022     24-08-2022NNN  Migration upload              Migration upload                                  
TBI0050000024940002NPR005               18570.5DA24-08-2022DISBT24-08-2022NNN  Migration upload              Migration upload                                  
TBI00502071524001  NPR005                 10000CA24-08-2022     24-08-2022NNN  Migration upload              Migration upload                                  
TBI0050000025070002NPR005                 10000DA24-08-2022DISBT24-08-2022NNN  Migration upload              Migration upload                                  
TBI00502071524001  NPR005               7879.07CA24-08-2022     24-08-2022NNN  Migration upload              Migration upload                                  
TBI0050000025070003NPR005               7879.07DA24-08-2022DISBT24-08-2022NNN  Migration upload              Migration upload                                  
TBI00502071524001  NPR005              22369.01CA24-08-2022     24-08-2022NNN  Migration upload              Migration upload                                  
TBI0050000025090002NPR005              22369.01DA24-08-2022DISBT24-08-2022NNN  Migration upload              Migration upload                                  
TBI00502071524001  NPR005               7879.07CA24-08-2022     24-08-2022NNN  Migration upload              Migration upload                                  
TBI0050000025130002NPR005               7879.07DA24-08-2022DISBT24-08-2022NNN  Migration upload              Migration upload                                  
TBI00502071524001  NPR005              27011.63CA24-08-2022     24-08-2022NNN  Migration upload              Migration upload                                  
TBI0050000025150002NPR005              27011.63DA24-08-2022DISBT24-08-2022NNN  Migration upload              Migration upload                                  
TBI00502071524001  NPR005              11817.59CA24-08-2022     24-08-2022NNN  Migration upload              Migration upload                                  
TBI0050000025160002NPR005              11817.59DA24-08-2022DISBT24-08-2022NNN  Migration upload              Migration upload                                  
TBI00502071524001  NPR005               21524.9CA24-08-2022     24-08-2022NNN  Migration upload              Migration upload                                  
TBI0050000025200002NPR005               21524.9DA24-08-2022DISBT24-08-2022NNN  Migration upload              Migration upload                                  
TBI00502071524001  NPR005               25323.4CA24-08-2022     24-08-2022NNN  Migration upload              Migration upload                                  
TBI0050000025280002NPR005               25323.4DA24-08-2022DISBT24-08-2022NNN  Migration upload              Migration upload                                  
TBI00502071524001  NPR005                 40000CA24-08-2022     24-08-2022NNN  Migration upload              Migration upload                                  
TBI0050000025370002NPR005                 40000DA24-08-2022DISBT24-08-2022NNN  Migration upload              Migration upload                                  
TBI00502071524001  NPR005                 50000CA24-08-2022     24-08-2022NNN  Migration upload              Migration upload                                  
TBI0050000025390002NPR005                 50000DA24-08-2022DISBT24-08-2022NNN  Migration upload              Migration upload                                  
TBI00502071524001  NPR005                 32500CA24-08-2022     24-08-2022NNN  Migration upload              Migration upload                                  
TBI0050000025490002NPR005                 32500DA24-08-2022DISBT24-08-2022NNN  Migration upload              Migration upload                                  
TBI00502071524001  NPR005              32498.37CA24-08-2022     24-08-2022NNN  Migration upload              Migration upload                                  
TBI0050000025530002NPR005              32498.37DA24-08-2022DISBT24-08-2022NNN  Migration upload              Migration upload                                  
TBI00502071524001  NPR005              24057.24CA24-08-2022     24-08-2022NNN  Migration upload              Migration upload                                  
TBI0050000025550002NPR005              24057.24DA24-08-2022DISBT24-08-2022NNN  Migration upload              Migration upload                                  
TBI00502071524001  NPR005               9707.31CA24-08-2022     24-08-2022NNN  Migration upload              Migration upload                                  
TBI0050000025560002NPR005               9707.31DA24-08-2022DISBT24-08-2022NNN  Migration upload              Migration upload                                  
TBI00502071524001  NPR005              38213.52CA24-08-2022     24-08-2022NNN  Migration upload              Migration upload                                  
TBI0050000025620002NPR005              38213.52DA24-08-2022DISBT24-08-2022NNN  Migration upload              Migration upload                                  
TBI00502071524001  NPR005              14771.99CA24-08-2022     24-08-2022NNN  Migration upload              Migration upload                                  
TBI0050000025640002NPR005              14771.99DA24-08-2022DISBT24-08-2022NNN  Migration upload              Migration upload                                  
TBI00502071524001  NPR005               23981.1CA24-08-2022     24-08-2022NNN  Migration upload              Migration upload                                  
TBI0050000025650002NPR005               23981.1DA24-08-2022DISBT24-08-2022NNN  Migration upload              Migration upload                                  
TBI00502071524001  NPR005              29121.92CA24-08-2022     24-08-2022NNN  Migration upload              Migration upload                                  
TBI0050000025690002NPR005              29121.92DA24-08-2022DISBT24-08-2022NNN  Migration upload              Migration upload                                  
TBI00502071524001  NPR005                  5066CA24-08-2022     24-08-2022NNN  Migration upload              Migration upload                                  
TBI0050000025730002NPR005                  5066DA24-08-2022DISBT24-08-2022NNN  Migration upload              Migration upload                                  
TBI00502071524001  NPR005                 10000CA24-08-2022     24-08-2022NNN  Migration upload              Migration upload                                  
TBI0050000025750003NPR005                 10000DA24-08-2022DISBT24-08-2022NNN  Migration upload              Migration upload                                  
TBI00502071524001  NPR005              24479.29CA24-08-2022     24-08-2022NNN  Migration upload              Migration upload                                  
TBI0050000025760002NPR005              24479.29DA24-08-2022DISBT24-08-2022NNN  Migration upload              Migration upload                                  
TBI00502071524001  NPR005              10973.48CA24-08-2022     24-08-2022NNN  Migration upload              Migration upload                                  
TBI0050000025770002NPR005              10973.48DA24-08-2022DISBT24-08-2022NNN  Migration upload              Migration upload                                  
TBI00502071524001  NPR005              10973.48CA24-08-2022     24-08-2022NNN  Migration upload              Migration upload                                  
TBI0050000025810002NPR005              10973.48DA24-08-2022DISBT24-08-2022NNN  Migration upload              Migration upload                                  
TBI00502071524001  NPR005               25323.4CA24-08-2022     24-08-2022NNN  Migration upload              Migration upload                                  
TBI0050000025820002NPR005               25323.4DA24-08-2022DISBT24-08-2022NNN  Migration upload              Migration upload                                  
TBI00502071524001  NPR005              27011.63CA24-08-2022     24-08-2022NNN  Migration upload              Migration upload                                  
TBI0050000025840002NPR005              27011.63DA24-08-2022DISBT24-08-2022NNN  Migration upload              Migration upload                                  
TBI00502071524001  NPR005              15194.04CA24-08-2022     24-08-2022NNN  Migration upload              Migration upload                                  
TBI0050000025860002NPR005              15194.04DA24-08-2022DISBT24-08-2022NNN  Migration upload              Migration upload                                  
TBI00502071524001  NPR005              16882.27CA24-08-2022     24-08-2022NNN  Migration upload              Migration upload                                  
TBI0050000025880002NPR005              16882.27DA24-08-2022DISBT24-08-2022NNN  Migration upload              Migration upload                                  
TBI00502071524001  NPR005              31744.17CA24-08-2022     24-08-2022NNN  Migration upload              Migration upload                                  
TBI0050000025960002NPR005              31744.17DA24-08-2022DISBT24-08-2022NNN  Migration upload              Migration upload                                  
TBI00502071524001  NPR005              10129.36CA24-08-2022     24-08-2022NNN  Migration upload              Migration upload                                  
TBI0050000025970002NPR005              10129.36DA24-08-2022DISBT24-08-2022NNN  Migration upload              Migration upload                                  
TBI00502071524001  NPR005                 18000CA24-08-2022     24-08-2022NNN  Migration upload              Migration upload                                  
TBI0050000025980002NPR005                 18000DA24-08-2022DISBT24-08-2022NNN  Migration upload              Migration upload                                  
TBI00502071524001  NPR005             119444.33CA24-08-2022     24-08-2022NNN  Migration upload              Migration upload                                  
TBI0050000026010002NPR005             119444.33DA24-08-2022DISBT24-08-2022NNN  Migration upload              Migration upload                                  
TBI00502071524001  NPR005              19414.61CA24-08-2022     24-08-2022NNN  Migration upload              Migration upload                                  
TBI0050000026060002NPR005              19414.61DA24-08-2022DISBT24-08-2022NNN  Migration upload              Migration upload                                  
TBI00502071524001  NPR005              41505.75CA24-08-2022     24-08-2022NNN  Migration upload              Migration upload                                  
TBI0050000026080002NPR005              41505.75DA24-08-2022DISBT24-08-2022NNN  Migration upload              Migration upload                                  
TBI00502071524001  NPR005              17888.72CA24-08-2022     24-08-2022NNN  Migration upload              Migration upload                                  
TBI0050000026100002NPR005              17888.72DA24-08-2022DISBT24-08-2022NNN  Migration upload              Migration upload                                  
TBI00502071524001  NPR005              11070.84CA24-08-2022     24-08-2022NNN  Migration upload              Migration upload                                  
TBI0050000026150002NPR005              11070.84DA24-08-2022DISBT24-08-2022NNN  Migration upload              Migration upload                                  
TBI00502071524001  NPR005                 15000CA24-08-2022     24-08-2022NNN  Migration upload              Migration upload                                  
