TBI03102073524001  NPR031                 12000CA04-03-2022     04-03-2022NNN  Migration upload              Migration upload                                  
TBI0310000005540002NPR031                 12000DA04-03-2022DISBT04-03-2022NNN  Migration upload              Migration upload                                  
TBI03102073524001  NPR031                 18000CA04-03-2022     04-03-2022NNN  Migration upload              Migration upload                                  
TBI0310000005780002NPR031                 18000DA04-03-2022DISBT04-03-2022NNN  Migration upload              Migration upload                                  
TBI03102073524001  NPR031                 29000CA04-03-2022     04-03-2022NNN  Migration upload              Migration upload                                  
TBI0310000005790002NPR031                 29000DA04-03-2022DISBT04-03-2022NNN  Migration upload              Migration upload                                  
TBI03102073524001  NPR031                 18000CA04-03-2022     04-03-2022NNN  Migration upload              Migration upload                                  
TBI0310000006550002NPR031                 18000DA04-03-2022DISBT04-03-2022NNN  Migration upload              Migration upload                                  
TBI03102073524001  NPR031                  8000CA04-03-2022     04-03-2022NNN  Migration upload              Migration upload                                  
TBI0310000021740002NPR031                  8000DA04-03-2022DISBT04-03-2022NNN  Migration upload              Migration upload                                  
TBI03102073524001  NPR031                  8000CA04-03-2022     04-03-2022NNN  Migration upload              Migration upload                                  
TBI0310000021800002NPR031                  8000DA04-03-2022DISBT04-03-2022NNN  Migration upload              Migration upload                                  
TBI03102073524001  NPR031                  8000CA04-03-2022     04-03-2022NNN  Migration upload              Migration upload                                  
TBI0310000021840002NPR031                  8000DA04-03-2022DISBT04-03-2022NNN  Migration upload              Migration upload                                  
TBI03102073524001  NPR031                  8000CA04-03-2022     04-03-2022NNN  Migration upload              Migration upload                                  
TBI0310000022950002NPR031                  8000DA04-03-2022DISBT04-03-2022NNN  Migration upload              Migration upload                                  
TBI03102073524001  NPR031                  8000CA04-03-2022     04-03-2022NNN  Migration upload              Migration upload                                  
TBI0310000022960002NPR031                  8000DA04-03-2022DISBT04-03-2022NNN  Migration upload              Migration upload                                  
TBI03102073524001  NPR031                  8000CA04-03-2022     04-03-2022NNN  Migration upload              Migration upload                                  
TBI0310000022970002NPR031                  8000DA04-03-2022DISBT04-03-2022NNN  Migration upload              Migration upload                                  
TBI03102073524001  NPR031                  8000CA04-03-2022     04-03-2022NNN  Migration upload              Migration upload                                  
TBI0310000022980002NPR031                  8000DA04-03-2022DISBT04-03-2022NNN  Migration upload              Migration upload                                  
TBI03102073524001  NPR031                  8000CA04-03-2022     04-03-2022NNN  Migration upload              Migration upload                                  
TBI0310000022990002NPR031                  8000DA04-03-2022DISBT04-03-2022NNN  Migration upload              Migration upload                                  
TBI03102073524001  NPR031                  8000CA04-03-2022     04-03-2022NNN  Migration upload              Migration upload                                  
TBI0310000023000002NPR031                  8000DA04-03-2022DISBT04-03-2022NNN  Migration upload              Migration upload                                  
TBI03102073524001  NPR031                  8000CA04-03-2022     04-03-2022NNN  Migration upload              Migration upload                                  
TBI0310000023010002NPR031                  8000DA04-03-2022DISBT04-03-2022NNN  Migration upload              Migration upload                                  
TBI03102073524001  NPR031                  8000CA04-03-2022     04-03-2022NNN  Migration upload              Migration upload                                  
TBI0310000023020002NPR031                  8000DA04-03-2022DISBT04-03-2022NNN  Migration upload              Migration upload                                  
TBI03102073524001  NPR031                  8000CA04-03-2022     04-03-2022NNN  Migration upload              Migration upload                                  
TBI0310000023030002NPR031                  8000DA04-03-2022DISBT04-03-2022NNN  Migration upload              Migration upload                                  
TBI03102073524001  NPR031                  8000CA04-03-2022     04-03-2022NNN  Migration upload              Migration upload                                  
TBI0310000023040002NPR031                  8000DA04-03-2022DISBT04-03-2022NNN  Migration upload              Migration upload                                  
TBI03102073524001  NPR031                  8000CA04-03-2022     04-03-2022NNN  Migration upload              Migration upload                                  
TBI0310000023050002NPR031                  8000DA04-03-2022DISBT04-03-2022NNN  Migration upload              Migration upload                                  
TBI03102073524001  NPR031                  8000CA04-03-2022     04-03-2022NNN  Migration upload              Migration upload                                  
TBI0310000023060002NPR031                  8000DA04-03-2022DISBT04-03-2022NNN  Migration upload              Migration upload                                  
TBI03102073524001  NPR031                  8000CA04-03-2022     04-03-2022NNN  Migration upload              Migration upload                                  
TBI0310000023070002NPR031                  8000DA04-03-2022DISBT04-03-2022NNN  Migration upload              Migration upload                                  
TBI03102073524001  NPR031                  8000CA04-03-2022     04-03-2022NNN  Migration upload              Migration upload                                  
TBI0310000023080002NPR031                  8000DA04-03-2022DISBT04-03-2022NNN  Migration upload              Migration upload                                  
TBI03102073524001  NPR031                  8000CA04-03-2022     04-03-2022NNN  Migration upload              Migration upload                                  
TBI0310000023090002NPR031                  8000DA04-03-2022DISBT04-03-2022NNN  Migration upload              Migration upload                                  
TBI03102073524001  NPR031                  8000CA04-03-2022     04-03-2022NNN  Migration upload              Migration upload                                  
TBI0310000023100002NPR031                  8000DA04-03-2022DISBT04-03-2022NNN  Migration upload              Migration upload                                  
TBI03102073524001  NPR031                  8000CA04-03-2022     04-03-2022NNN  Migration upload              Migration upload                                  
TBI0310000023110002NPR031                  8000DA04-03-2022DISBT04-03-2022NNN  Migration upload              Migration upload                                  
TBI03102073524001  NPR031                  8000CA04-03-2022     04-03-2022NNN  Migration upload              Migration upload                                  
TBI0310000023120002NPR031                  8000DA04-03-2022DISBT04-03-2022NNN  Migration upload              Migration upload                                  
TBI03102073524001  NPR031                  8000CA04-03-2022     04-03-2022NNN  Migration upload              Migration upload                                  
TBI0310000023140002NPR031                  8000DA04-03-2022DISBT04-03-2022NNN  Migration upload              Migration upload                                  
TBI03102073524001  NPR031                  8000CA04-03-2022     04-03-2022NNN  Migration upload              Migration upload                                  
TBI0310000023150002NPR031                  8000DA04-03-2022DISBT04-03-2022NNN  Migration upload              Migration upload                                  
TBI03102073524001  NPR031                  8000CA04-03-2022     04-03-2022NNN  Migration upload              Migration upload                                  
TBI0310000023160002NPR031                  8000DA04-03-2022DISBT04-03-2022NNN  Migration upload              Migration upload                                  
TBI03102073524001  NPR031                  8000CA04-03-2022     04-03-2022NNN  Migration upload              Migration upload                                  
TBI0310000023170002NPR031                  8000DA04-03-2022DISBT04-03-2022NNN  Migration upload              Migration upload                                  
TBI03102073524001  NPR031                  8000CA04-03-2022     04-03-2022NNN  Migration upload              Migration upload                                  
TBI0310000023180002NPR031                  8000DA04-03-2022DISBT04-03-2022NNN  Migration upload              Migration upload                                  
TBI03102073524001  NPR031                  8000CA04-03-2022     04-03-2022NNN  Migration upload              Migration upload                                  
TBI0310000023190002NPR031                  8000DA04-03-2022DISBT04-03-2022NNN  Migration upload              Migration upload                                  
TBI03102073524001  NPR031                  8000CA04-03-2022     04-03-2022NNN  Migration upload              Migration upload                                  
TBI0310000023200002NPR031                  8000DA04-03-2022DISBT04-03-2022NNN  Migration upload              Migration upload                                  
TBI03102073524001  NPR031                  8000CA04-03-2022     04-03-2022NNN  Migration upload              Migration upload                                  
TBI0310000023210002NPR031                  8000DA04-03-2022DISBT04-03-2022NNN  Migration upload              Migration upload                                  
TBI03102073524001  NPR031                  8000CA04-03-2022     04-03-2022NNN  Migration upload              Migration upload                                  
TBI0310000023220002NPR031                  8000DA04-03-2022DISBT04-03-2022NNN  Migration upload              Migration upload                                  
TBI03102073524001  NPR031                  8000CA04-03-2022     04-03-2022NNN  Migration upload              Migration upload                                  
TBI0310000023230002NPR031                  8000DA04-03-2022DISBT04-03-2022NNN  Migration upload              Migration upload                                  
TBI03102073524001  NPR031                  8000CA04-03-2022     04-03-2022NNN  Migration upload              Migration upload                                  
TBI0310000023240002NPR031                  8000DA04-03-2022DISBT04-03-2022NNN  Migration upload              Migration upload                                  
TBI03102073524001  NPR031                  8000CA04-03-2022     04-03-2022NNN  Migration upload              Migration upload                                  
TBI0310000023250002NPR031                  8000DA04-03-2022DISBT04-03-2022NNN  Migration upload              Migration upload                                  
TBI03102073524001  NPR031                  8000CA04-03-2022     04-03-2022NNN  Migration upload              Migration upload                                  
TBI0310000023260002NPR031                  8000DA04-03-2022DISBT04-03-2022NNN  Migration upload              Migration upload                                  
TBI03102073524001  NPR031                  8000CA04-03-2022     04-03-2022NNN  Migration upload              Migration upload                                  
TBI0310000023270002NPR031                  8000DA04-03-2022DISBT04-03-2022NNN  Migration upload              Migration upload                                  
TBI03102073524001  NPR031                  8000CA04-03-2022     04-03-2022NNN  Migration upload              Migration upload                                  
TBI0310000023280002NPR031                  8000DA04-03-2022DISBT04-03-2022NNN  Migration upload              Migration upload                                  
TBI03102073524001  NPR031                  8000CA04-03-2022     04-03-2022NNN  Migration upload              Migration upload                                  
TBI0310000023290002NPR031                  8000DA04-03-2022DISBT04-03-2022NNN  Migration upload              Migration upload                                  
TBI03102073524001  NPR031                  8000CA04-03-2022     04-03-2022NNN  Migration upload              Migration upload                                  
TBI0310000023300002NPR031                  8000DA04-03-2022DISBT04-03-2022NNN  Migration upload              Migration upload                                  
TBI03102073524001  NPR031                  8000CA04-03-2022     04-03-2022NNN  Migration upload              Migration upload                                  
TBI0310000023310002NPR031                  8000DA04-03-2022DISBT04-03-2022NNN  Migration upload              Migration upload                                  
TBI03102073524001  NPR031                  8000CA04-03-2022     04-03-2022NNN  Migration upload              Migration upload                                  
TBI0310000023320002NPR031                  8000DA04-03-2022DISBT04-03-2022NNN  Migration upload              Migration upload                                  
TBI03102073524001  NPR031                  8000CA04-03-2022     04-03-2022NNN  Migration upload              Migration upload                                  
TBI0310000023330002NPR031                  8000DA04-03-2022DISBT04-03-2022NNN  Migration upload              Migration upload                                  
TBI03102073524001  NPR031                  8000CA04-03-2022     04-03-2022NNN  Migration upload              Migration upload                                  
TBI0310000023340002NPR031                  8000DA04-03-2022DISBT04-03-2022NNN  Migration upload              Migration upload                                  
TBI03102073524001  NPR031                  8000CA04-03-2022     04-03-2022NNN  Migration upload              Migration upload                                  
TBI0310000023350002NPR031                  8000DA04-03-2022DISBT04-03-2022NNN  Migration upload              Migration upload                                  
TBI03102073524001  NPR031                  8000CA04-03-2022     04-03-2022NNN  Migration upload              Migration upload                                  
TBI0310000023360002NPR031                  8000DA04-03-2022DISBT04-03-2022NNN  Migration upload              Migration upload                                  
TBI03102073524001  NPR031                  8000CA04-03-2022     04-03-2022NNN  Migration upload              Migration upload                                  
TBI0310000023370002NPR031                  8000DA04-03-2022DISBT04-03-2022NNN  Migration upload              Migration upload                                  
TBI03102073524001  NPR031                  8000CA04-03-2022     04-03-2022NNN  Migration upload              Migration upload                                  
TBI0310000023380002NPR031                  8000DA04-03-2022DISBT04-03-2022NNN  Migration upload              Migration upload                                  
TBI03102073524001  NPR031                  8000CA04-03-2022     04-03-2022NNN  Migration upload              Migration upload                                  
TBI0310000023390002NPR031                  8000DA04-03-2022DISBT04-03-2022NNN  Migration upload              Migration upload                                  
TBI03102073524001  NPR031                  8000CA04-03-2022     04-03-2022NNN  Migration upload              Migration upload                                  
TBI0310000023400002NPR031                  8000DA04-03-2022DISBT04-03-2022NNN  Migration upload              Migration upload                                  
TBI03102073524001  NPR031                  8000CA04-03-2022     04-03-2022NNN  Migration upload              Migration upload                                  
TBI0310000023410002NPR031                  8000DA04-03-2022DISBT04-03-2022NNN  Migration upload              Migration upload                                  
TBI03102073524001  NPR031                  8000CA04-03-2022     04-03-2022NNN  Migration upload              Migration upload                                  
TBI0310000023420002NPR031                  8000DA04-03-2022DISBT04-03-2022NNN  Migration upload              Migration upload                                  
TBI03102073524001  NPR031                  8000CA04-03-2022     04-03-2022NNN  Migration upload              Migration upload                                  
TBI0310000023430002NPR031                  8000DA04-03-2022DISBT04-03-2022NNN  Migration upload              Migration upload                                  
TBI03102073524001  NPR031                  8000CA04-03-2022     04-03-2022NNN  Migration upload              Migration upload                                  
TBI0310000023450002NPR031                  8000DA04-03-2022DISBT04-03-2022NNN  Migration upload              Migration upload                                  
TBI03102073524001  NPR031                  8000CA04-03-2022     04-03-2022NNN  Migration upload              Migration upload                                  
TBI0310000023460002NPR031                  8000DA04-03-2022DISBT04-03-2022NNN  Migration upload              Migration upload                                  
TBI03102073524001  NPR031                  8000CA04-03-2022     04-03-2022NNN  Migration upload              Migration upload                                  
TBI0310000023470002NPR031                  8000DA04-03-2022DISBT04-03-2022NNN  Migration upload              Migration upload                                  
TBI03102073524001  NPR031                  8000CA04-03-2022     04-03-2022NNN  Migration upload              Migration upload                                  
TBI0310000023480002NPR031                  8000DA04-03-2022DISBT04-03-2022NNN  Migration upload              Migration upload                                  
TBI03102073524001  NPR031                  8000CA04-03-2022     04-03-2022NNN  Migration upload              Migration upload                                  
TBI0310000023490002NPR031                  8000DA04-03-2022DISBT04-03-2022NNN  Migration upload              Migration upload                                  
TBI03102073524001  NPR031                  8000CA04-03-2022     04-03-2022NNN  Migration upload              Migration upload                                  
TBI0310000023500002NPR031                  8000DA04-03-2022DISBT04-03-2022NNN  Migration upload              Migration upload                                  
TBI03102073524001  NPR031                  8000CA04-03-2022     04-03-2022NNN  Migration upload              Migration upload                                  
TBI0310000023510002NPR031                  8000DA04-03-2022DISBT04-03-2022NNN  Migration upload              Migration upload                                  
TBI03102073524001  NPR031                  8000CA04-03-2022     04-03-2022NNN  Migration upload              Migration upload                                  
TBI0310000023520002NPR031                  8000DA04-03-2022DISBT04-03-2022NNN  Migration upload              Migration upload                                  
TBI03102073524001  NPR031                  8000CA04-03-2022     04-03-2022NNN  Migration upload              Migration upload                                  
TBI0310000023530002NPR031                  8000DA04-03-2022DISBT04-03-2022NNN  Migration upload              Migration upload                                  
TBI03102073524001  NPR031                  8000CA04-03-2022     04-03-2022NNN  Migration upload              Migration upload                                  
TBI0310000023550002NPR031                  8000DA04-03-2022DISBT04-03-2022NNN  Migration upload              Migration upload                                  
TBI03102073524001  NPR031                  8000CA04-03-2022     04-03-2022NNN  Migration upload              Migration upload                                  
TBI0310000023560002NPR031                  8000DA04-03-2022DISBT04-03-2022NNN  Migration upload              Migration upload                                  
TBI03102073524001  NPR031                  8000CA04-03-2022     04-03-2022NNN  Migration upload              Migration upload                                  
TBI0310000023570002NPR031                  8000DA04-03-2022DISBT04-03-2022NNN  Migration upload              Migration upload                                  
TBI03102073524001  NPR031                  8000CA04-03-2022     04-03-2022NNN  Migration upload              Migration upload                                  
TBI0310000023580002NPR031                  8000DA04-03-2022DISBT04-03-2022NNN  Migration upload              Migration upload                                  
TBI03102073524001  NPR031                  8000CA04-03-2022     04-03-2022NNN  Migration upload              Migration upload                                  
TBI0310000023590002NPR031                  8000DA04-03-2022DISBT04-03-2022NNN  Migration upload              Migration upload                                  
TBI03102073524001  NPR031                  8000CA04-03-2022     04-03-2022NNN  Migration upload              Migration upload                                  
TBI0310000023600002NPR031                  8000DA04-03-2022DISBT04-03-2022NNN  Migration upload              Migration upload                                  
TBI03102073524001  NPR031                  8000CA04-03-2022     04-03-2022NNN  Migration upload              Migration upload                                  
TBI0310000023610002NPR031                  8000DA04-03-2022DISBT04-03-2022NNN  Migration upload              Migration upload                                  
TBI03102073524001  NPR031                  8000CA04-03-2022     04-03-2022NNN  Migration upload              Migration upload                                  
TBI0310000023620002NPR031                  8000DA04-03-2022DISBT04-03-2022NNN  Migration upload              Migration upload                                  
TBI03102073524001  NPR031                  8000CA04-03-2022     04-03-2022NNN  Migration upload              Migration upload                                  
TBI0310000023630002NPR031                  8000DA04-03-2022DISBT04-03-2022NNN  Migration upload              Migration upload                                  
TBI03102073524001  NPR031                  8000CA04-03-2022     04-03-2022NNN  Migration upload              Migration upload                                  
TBI0310000023640002NPR031                  8000DA04-03-2022DISBT04-03-2022NNN  Migration upload              Migration upload                                  
TBI03102073524001  NPR031                  8000CA04-03-2022     04-03-2022NNN  Migration upload              Migration upload                                  
TBI0310000023650002NPR031                  8000DA04-03-2022DISBT04-03-2022NNN  Migration upload              Migration upload                                  
TBI03102073524001  NPR031                  8000CA04-03-2022     04-03-2022NNN  Migration upload              Migration upload                                  
TBI0310000023660002NPR031                  8000DA04-03-2022DISBT04-03-2022NNN  Migration upload              Migration upload                                  
TBI03102073524001  NPR031                  8000CA04-03-2022     04-03-2022NNN  Migration upload              Migration upload                                  
TBI0310000023670002NPR031                  8000DA04-03-2022DISBT04-03-2022NNN  Migration upload              Migration upload                                  
TBI03102073524001  NPR031                  8000CA04-03-2022     04-03-2022NNN  Migration upload              Migration upload                                  
TBI0310000023680002NPR031                  8000DA04-03-2022DISBT04-03-2022NNN  Migration upload              Migration upload                                  
TBI03102073524001  NPR031                  8000CA04-03-2022     04-03-2022NNN  Migration upload              Migration upload                                  
TBI0310000023690002NPR031                  8000DA04-03-2022DISBT04-03-2022NNN  Migration upload              Migration upload                                  
TBI03102073524001  NPR031                  8000CA04-03-2022     04-03-2022NNN  Migration upload              Migration upload                                  
TBI0310000023700002NPR031                  8000DA04-03-2022DISBT04-03-2022NNN  Migration upload              Migration upload                                  
TBI03102073524001  NPR031                  8000CA04-03-2022     04-03-2022NNN  Migration upload              Migration upload                                  
TBI0310000023710002NPR031                  8000DA04-03-2022DISBT04-03-2022NNN  Migration upload              Migration upload                                  
TBI03102073524001  NPR031                  8000CA04-03-2022     04-03-2022NNN  Migration upload              Migration upload                                  
TBI0310000023720002NPR031                  8000DA04-03-2022DISBT04-03-2022NNN  Migration upload              Migration upload                                  
TBI03102073524001  NPR031                  8000CA04-03-2022     04-03-2022NNN  Migration upload              Migration upload                                  
TBI0310000023730002NPR031                  8000DA04-03-2022DISBT04-03-2022NNN  Migration upload              Migration upload                                  
TBI03102073524001  NPR031                  8000CA04-03-2022     04-03-2022NNN  Migration upload              Migration upload                                  
TBI0310000023740002NPR031                  8000DA04-03-2022DISBT04-03-2022NNN  Migration upload              Migration upload                                  
TBI03102073524001  NPR031                  8000CA04-03-2022     04-03-2022NNN  Migration upload              Migration upload                                  
TBI0310000023750002NPR031                  8000DA04-03-2022DISBT04-03-2022NNN  Migration upload              Migration upload                                  
TBI03102073524001  NPR031                  8000CA04-03-2022     04-03-2022NNN  Migration upload              Migration upload                                  
TBI0310000023760002NPR031                  8000DA04-03-2022DISBT04-03-2022NNN  Migration upload              Migration upload                                  
TBI03102073524001  NPR031                  8000CA04-03-2022     04-03-2022NNN  Migration upload              Migration upload                                  
TBI0310000023770002NPR031                  8000DA04-03-2022DISBT04-03-2022NNN  Migration upload              Migration upload                                  
TBI03102073524001  NPR031                  8000CA04-03-2022     04-03-2022NNN  Migration upload              Migration upload                                  
TBI0310000023780002NPR031                  8000DA04-03-2022DISBT04-03-2022NNN  Migration upload              Migration upload                                  
TBI03102073524001  NPR031                  8000CA04-03-2022     04-03-2022NNN  Migration upload              Migration upload                                  
TBI0310000024180002NPR031                  8000DA04-03-2022DISBT04-03-2022NNN  Migration upload              Migration upload                                  
TBI03102073524001  NPR031                  8000CA04-03-2022     04-03-2022NNN  Migration upload              Migration upload                                  
TBI0310000024380002NPR031                  8000DA04-03-2022DISBT04-03-2022NNN  Migration upload              Migration upload                                  
TBI03102073524001  NPR031                  8000CA04-03-2022     04-03-2022NNN  Migration upload              Migration upload                                  
TBI0310000024390002NPR031                  8000DA04-03-2022DISBT04-03-2022NNN  Migration upload              Migration upload                                  
TBI03102073524001  NPR031                  8000CA04-03-2022     04-03-2022NNN  Migration upload              Migration upload                                  
TBI0310000024410002NPR031                  8000DA04-03-2022DISBT04-03-2022NNN  Migration upload              Migration upload                                  
TBI03102073524001  NPR031                  8000CA04-03-2022     04-03-2022NNN  Migration upload              Migration upload                                  
TBI0310000024420002NPR031                  8000DA04-03-2022DISBT04-03-2022NNN  Migration upload              Migration upload                                  
TBI03102073524001  NPR031                  8000CA04-03-2022     04-03-2022NNN  Migration upload              Migration upload                                  
TBI0310000024430002NPR031                  8000DA04-03-2022DISBT04-03-2022NNN  Migration upload              Migration upload                                  
TBI03102073524001  NPR031                  8000CA04-03-2022     04-03-2022NNN  Migration upload              Migration upload                                  
TBI0310000024440002NPR031                  8000DA04-03-2022DISBT04-03-2022NNN  Migration upload              Migration upload                                  
TBI03102073524001  NPR031                  8000CA04-03-2022     04-03-2022NNN  Migration upload              Migration upload                                  
TBI0310000024450002NPR031                  8000DA04-03-2022DISBT04-03-2022NNN  Migration upload              Migration upload                                  
TBI03102073524001  NPR031                  8000CA04-03-2022     04-03-2022NNN  Migration upload              Migration upload                                  
TBI0310000024460002NPR031                  8000DA04-03-2022DISBT04-03-2022NNN  Migration upload              Migration upload                                  
TBI03102073524001  NPR031                  8000CA04-03-2022     04-03-2022NNN  Migration upload              Migration upload                                  
TBI0310000024470002NPR031                  8000DA04-03-2022DISBT04-03-2022NNN  Migration upload              Migration upload                                  
TBI03102073524001  NPR031                  8000CA04-03-2022     04-03-2022NNN  Migration upload              Migration upload                                  
TBI0310000024480002NPR031                  8000DA04-03-2022DISBT04-03-2022NNN  Migration upload              Migration upload                                  
TBI03102073524001  NPR031                  8000CA04-03-2022     04-03-2022NNN  Migration upload              Migration upload                                  
TBI0310000024500002NPR031                  8000DA04-03-2022DISBT04-03-2022NNN  Migration upload              Migration upload                                  
TBI03102073524001  NPR031                  8000CA04-03-2022     04-03-2022NNN  Migration upload              Migration upload                                  
TBI0310000024510002NPR031                  8000DA04-03-2022DISBT04-03-2022NNN  Migration upload              Migration upload                                  
TBI03102073524001  NPR031                  8000CA04-03-2022     04-03-2022NNN  Migration upload              Migration upload                                  
TBI0310000024520002NPR031                  8000DA04-03-2022DISBT04-03-2022NNN  Migration upload              Migration upload                                  
TBI03102073524001  NPR031                  8000CA04-03-2022     04-03-2022NNN  Migration upload              Migration upload                                  
TBI0310000024530002NPR031                  8000DA04-03-2022DISBT04-03-2022NNN  Migration upload              Migration upload                                  
TBI03102073524001  NPR031                  8000CA04-03-2022     04-03-2022NNN  Migration upload              Migration upload                                  
TBI0310000024540002NPR031                  8000DA04-03-2022DISBT04-03-2022NNN  Migration upload              Migration upload                                  
TBI03102073524001  NPR031                  8000CA04-03-2022     04-03-2022NNN  Migration upload              Migration upload                                  
TBI0310000024550002NPR031                  8000DA04-03-2022DISBT04-03-2022NNN  Migration upload              Migration upload                                  
TBI03102073524001  NPR031                  8000CA04-03-2022     04-03-2022NNN  Migration upload              Migration upload                                  
TBI0310000024560002NPR031                  8000DA04-03-2022DISBT04-03-2022NNN  Migration upload              Migration upload                                  
TBI03102073524001  NPR031                  8000CA04-03-2022     04-03-2022NNN  Migration upload              Migration upload                                  
TBI0310000024570002NPR031                  8000DA04-03-2022DISBT04-03-2022NNN  Migration upload              Migration upload                                  
TBI03102073524001  NPR031                  8000CA04-03-2022     04-03-2022NNN  Migration upload              Migration upload                                  
TBI0310000024580002NPR031                  8000DA04-03-2022DISBT04-03-2022NNN  Migration upload              Migration upload                                  
TBI03102073524001  NPR031                  8000CA04-03-2022     04-03-2022NNN  Migration upload              Migration upload                                  
TBI0310000024590002NPR031                  8000DA04-03-2022DISBT04-03-2022NNN  Migration upload              Migration upload                                  
TBI03102073524001  NPR031                  8000CA04-03-2022     04-03-2022NNN  Migration upload              Migration upload                                  
TBI0310000024600002NPR031                  8000DA04-03-2022DISBT04-03-2022NNN  Migration upload              Migration upload                                  
TBI03102073524001  NPR031                  8000CA04-03-2022     04-03-2022NNN  Migration upload              Migration upload                                  
TBI0310000024610002NPR031                  8000DA04-03-2022DISBT04-03-2022NNN  Migration upload              Migration upload                                  
TBI03102073524001  NPR031                  8000CA04-03-2022     04-03-2022NNN  Migration upload              Migration upload                                  
TBI0310000024620002NPR031                  8000DA04-03-2022DISBT04-03-2022NNN  Migration upload              Migration upload                                  
TBI03102073524001  NPR031                  8000CA04-03-2022     04-03-2022NNN  Migration upload              Migration upload                                  
TBI0310000024630002NPR031                  8000DA04-03-2022DISBT04-03-2022NNN  Migration upload              Migration upload                                  
TBI03102073524001  NPR031                  8000CA04-03-2022     04-03-2022NNN  Migration upload              Migration upload                                  
TBI0310000024640002NPR031                  8000DA04-03-2022DISBT04-03-2022NNN  Migration upload              Migration upload                                  
TBI03102073524001  NPR031                  8000CA04-03-2022     04-03-2022NNN  Migration upload              Migration upload                                  
TBI0310000034670002NPR031                  8000DA04-03-2022DISBT04-03-2022NNN  Migration upload              Migration upload                                  
TBI03102073524001  NPR031                 10000CA04-03-2022     04-03-2022NNN  Migration upload              Migration upload                                  
TBI0310000045540004NPR031                 10000DA04-03-2022DISBT04-03-2022NNN  Migration upload              Migration upload                                  
TBI03102073524001  NPR031                  9000CA04-03-2022     04-03-2022NNN  Migration upload              Migration upload                                  
TBI0310000049280002NPR031                  9000DA04-03-2022DISBT04-03-2022NNN  Migration upload              Migration upload                                  
TBI03102073524001  NPR031                  9000CA04-03-2022     04-03-2022NNN  Migration upload              Migration upload                                  
TBI0310000049300002NPR031                  9000DA04-03-2022DISBT04-03-2022NNN  Migration upload              Migration upload                                  
TBI03102073524001  NPR031                  9000CA04-03-2022     04-03-2022NNN  Migration upload              Migration upload                                  
TBI0310000049310002NPR031                  9000DA04-03-2022DISBT04-03-2022NNN  Migration upload              Migration upload                                  
TBI03102073524001  NPR031                  9000CA04-03-2022     04-03-2022NNN  Migration upload              Migration upload                                  
TBI0310000049330002NPR031                  9000DA04-03-2022DISBT04-03-2022NNN  Migration upload              Migration upload                                  
TBI03102073524001  NPR031                 10000CA04-03-2022     04-03-2022NNN  Migration upload              Migration upload                                  
TBI0310000049330003NPR031                 10000DA04-03-2022DISBT04-03-2022NNN  Migration upload              Migration upload                                  
TBI03102073524001  NPR031                  9000CA04-03-2022     04-03-2022NNN  Migration upload              Migration upload                                  
TBI0310000049400002NPR031                  9000DA04-03-2022DISBT04-03-2022NNN  Migration upload              Migration upload                                  
TBI03102073524001  NPR031                 10000CA04-03-2022     04-03-2022NNN  Migration upload              Migration upload                                  
TBI0310000049490002NPR031                 10000DA04-03-2022DISBT04-03-2022NNN  Migration upload              Migration upload                                  
TBI03102073524001  NPR031                 10000CA04-03-2022     04-03-2022NNN  Migration upload              Migration upload                                  
TBI0310000049490003NPR031                 10000DA04-03-2022DISBT04-03-2022NNN  Migration upload              Migration upload                                  
TBI03102073524001  NPR031                 10000CA04-03-2022     04-03-2022NNN  Migration upload              Migration upload                                  
TBI0310000049490004NPR031                 10000DA04-03-2022DISBT04-03-2022NNN  Migration upload              Migration upload                                  
TBI03102073524001  NPR031                 10000CA04-03-2022     04-03-2022NNN  Migration upload              Migration upload                                  
TBI0310000049490005NPR031                 10000DA04-03-2022DISBT04-03-2022NNN  Migration upload              Migration upload                                  
TBI03102073524001  NPR031                 10000CA04-03-2022     04-03-2022NNN  Migration upload              Migration upload                                  
TBI0310000049490006NPR031                 10000DA04-03-2022DISBT04-03-2022NNN  Migration upload              Migration upload                                  
TBI03102073524001  NPR031                 26000CA04-03-2022     04-03-2022NNN  Migration upload              Migration upload                                  
TBI0310000049540002NPR031                 26000DA04-03-2022DISBT04-03-2022NNN  Migration upload              Migration upload                                  
TBI03102073524001  NPR031                 26000CA04-03-2022     04-03-2022NNN  Migration upload              Migration upload                                  
TBI0310000049550002NPR031                 26000DA04-03-2022DISBT04-03-2022NNN  Migration upload              Migration upload                                  
TBI03102073524001  NPR031                 26000CA04-03-2022     04-03-2022NNN  Migration upload              Migration upload                                  
TBI0310000049570002NPR031                 26000DA04-03-2022DISBT04-03-2022NNN  Migration upload              Migration upload                                  
TBI03102073524001  NPR031                 10000CA04-03-2022     04-03-2022NNN  Migration upload              Migration upload                                  
TBI0310000049580003NPR031                 10000DA04-03-2022DISBT04-03-2022NNN  Migration upload              Migration upload                                  
TBI03102073524001  NPR031                 10000CA04-03-2022     04-03-2022NNN  Migration upload              Migration upload                                  
TBI0310000049580004NPR031                 10000DA04-03-2022DISBT04-03-2022NNN  Migration upload              Migration upload                                  
TBI03102073524001  NPR031                 10000CA04-03-2022     04-03-2022NNN  Migration upload              Migration upload                                  
TBI0310000049580005NPR031                 10000DA04-03-2022DISBT04-03-2022NNN  Migration upload              Migration upload                                  
TBI03102073524001  NPR031                 10000CA04-03-2022     04-03-2022NNN  Migration upload              Migration upload                                  
TBI0310000049590002NPR031                 10000DA04-03-2022DISBT04-03-2022NNN  Migration upload              Migration upload                                  
TBI03102073524001  NPR031                 10000CA04-03-2022     04-03-2022NNN  Migration upload              Migration upload                                  
TBI0310000049590003NPR031                 10000DA04-03-2022DISBT04-03-2022NNN  Migration upload              Migration upload                                  
TBI03102073524001  NPR031                 10000CA04-03-2022     04-03-2022NNN  Migration upload              Migration upload                                  
TBI0310000049610002NPR031                 10000DA04-03-2022DISBT04-03-2022NNN  Migration upload              Migration upload                                  
TBI03102073524001  NPR031                 10000CA04-03-2022     04-03-2022NNN  Migration upload              Migration upload                                  
TBI0310000049660002NPR031                 10000DA04-03-2022DISBT04-03-2022NNN  Migration upload              Migration upload                                  
TBI03102073524001  NPR031                  9000CA04-03-2022     04-03-2022NNN  Migration upload              Migration upload                                  
TBI0310000049670002NPR031                  9000DA04-03-2022DISBT04-03-2022NNN  Migration upload              Migration upload                                  
TBI03102073524001  NPR031                  9000CA04-03-2022     04-03-2022NNN  Migration upload              Migration upload                                  
TBI0310000049680002NPR031                  9000DA04-03-2022DISBT04-03-2022NNN  Migration upload              Migration upload                                  
TBI03102073524001  NPR031                 10000CA04-03-2022     04-03-2022NNN  Migration upload              Migration upload                                  
TBI0310000049700002NPR031                 10000DA04-03-2022DISBT04-03-2022NNN  Migration upload              Migration upload                                  
TBI03102073524001  NPR031                  9000CA04-03-2022     04-03-2022NNN  Migration upload              Migration upload                                  
TBI0310000049710002NPR031                  9000DA04-03-2022DISBT04-03-2022NNN  Migration upload              Migration upload                                  
TBI03102073524001  NPR031                 10000CA04-03-2022     04-03-2022NNN  Migration upload              Migration upload                                  
TBI0310000049720002NPR031                 10000DA04-03-2022DISBT04-03-2022NNN  Migration upload              Migration upload                                  
TBI03102073524001  NPR031                 10000CA04-03-2022     04-03-2022NNN  Migration upload              Migration upload                                  
TBI0310000049730002NPR031                 10000DA04-03-2022DISBT04-03-2022NNN  Migration upload              Migration upload                                  
TBI03102073524001  NPR031                 10000CA04-03-2022     04-03-2022NNN  Migration upload              Migration upload                                  
TBI0310000049740002NPR031                 10000DA04-03-2022DISBT04-03-2022NNN  Migration upload              Migration upload                                  
TBI03102073524001  NPR031                 10000CA04-03-2022     04-03-2022NNN  Migration upload              Migration upload                                  
TBI0310000049740003NPR031                 10000DA04-03-2022DISBT04-03-2022NNN  Migration upload              Migration upload                                  
TBI03102073524001  NPR031                 10000CA04-03-2022     04-03-2022NNN  Migration upload              Migration upload                                  
TBI0310000049750002NPR031                 10000DA04-03-2022DISBT04-03-2022NNN  Migration upload              Migration upload                                  
TBI03102073524001  NPR031                  9000CA04-03-2022     04-03-2022NNN  Migration upload              Migration upload                                  
TBI0310000049750003NPR031                  9000DA04-03-2022DISBT04-03-2022NNN  Migration upload              Migration upload                                  
TBI03102073524001  NPR031                 10000CA04-03-2022     04-03-2022NNN  Migration upload              Migration upload                                  
TBI0310000049800002NPR031                 10000DA04-03-2022DISBT04-03-2022NNN  Migration upload              Migration upload                                  
TBI03102073524001  NPR031                 10000CA04-03-2022     04-03-2022NNN  Migration upload              Migration upload                                  
TBI0310000049830002NPR031                 10000DA04-03-2022DISBT04-03-2022NNN  Migration upload              Migration upload                                  
TBI03102073524001  NPR031                  9000CA04-03-2022     04-03-2022NNN  Migration upload              Migration upload                                  
TBI0310000049860002NPR031                  9000DA04-03-2022DISBT04-03-2022NNN  Migration upload              Migration upload                                  
TBI03102073524001  NPR031                 10000CA04-03-2022     04-03-2022NNN  Migration upload              Migration upload                                  
TBI0310000049930002NPR031                 10000DA04-03-2022DISBT04-03-2022NNN  Migration upload              Migration upload                                  
TBI03102073524001  NPR031                  9000CA04-03-2022     04-03-2022NNN  Migration upload              Migration upload                                  
TBI0310000049990002NPR031                  9000DA04-03-2022DISBT04-03-2022NNN  Migration upload              Migration upload                                  
TBI03102073524001  NPR031                  9000CA04-03-2022     04-03-2022NNN  Migration upload              Migration upload                                  
TBI0310000050010002NPR031                  9000DA04-03-2022DISBT04-03-2022NNN  Migration upload              Migration upload                                  
TBI03102073524001  NPR031                  9000CA04-03-2022     04-03-2022NNN  Migration upload              Migration upload                                  
TBI0310000050030002NPR031                  9000DA04-03-2022DISBT04-03-2022NNN  Migration upload              Migration upload                                  
TBI03102073524001  NPR031                  9000CA04-03-2022     04-03-2022NNN  Migration upload              Migration upload                                  
TBI0310000050040002NPR031                  9000DA04-03-2022DISBT04-03-2022NNN  Migration upload              Migration upload                                  
TBI03102073524001  NPR031                  9000CA04-03-2022     04-03-2022NNN  Migration upload              Migration upload                                  
TBI0310000050050002NPR031                  9000DA04-03-2022DISBT04-03-2022NNN  Migration upload              Migration upload                                  
TBI03102073524001  NPR031                  9000CA04-03-2022     04-03-2022NNN  Migration upload              Migration upload                                  
TBI0310000050060002NPR031                  9000DA04-03-2022DISBT04-03-2022NNN  Migration upload              Migration upload                                  
TBI03102073524001  NPR031                  9000CA04-03-2022     04-03-2022NNN  Migration upload              Migration upload                                  
TBI0310000050070002NPR031                  9000DA04-03-2022DISBT04-03-2022NNN  Migration upload              Migration upload                                  
TBI03102073524001  NPR031                  9000CA04-03-2022     04-03-2022NNN  Migration upload              Migration upload                                  
TBI0310000050080002NPR031                  9000DA04-03-2022DISBT04-03-2022NNN  Migration upload              Migration upload                                  
TBI03102073524001  NPR031                  9000CA04-03-2022     04-03-2022NNN  Migration upload              Migration upload                                  
TBI0310000050090002NPR031                  9000DA04-03-2022DISBT04-03-2022NNN  Migration upload              Migration upload                                  
TBI03102073524001  NPR031                  9000CA04-03-2022     04-03-2022NNN  Migration upload              Migration upload                                  
TBI0310000050100002NPR031                  9000DA04-03-2022DISBT04-03-2022NNN  Migration upload              Migration upload                                  
TBI03102073524001  NPR031                  9000CA04-03-2022     04-03-2022NNN  Migration upload              Migration upload                                  
TBI0310000050120002NPR031                  9000DA04-03-2022DISBT04-03-2022NNN  Migration upload              Migration upload                                  
TBI03102073524001  NPR031                  9000CA04-03-2022     04-03-2022NNN  Migration upload              Migration upload                                  
TBI0310000050130002NPR031                  9000DA04-03-2022DISBT04-03-2022NNN  Migration upload              Migration upload                                  
TBI03102073524001  NPR031                  9000CA04-03-2022     04-03-2022NNN  Migration upload              Migration upload                                  
TBI0310000050140002NPR031                  9000DA04-03-2022DISBT04-03-2022NNN  Migration upload              Migration upload                                  
TBI03102073524001  NPR031                  9000CA04-03-2022     04-03-2022NNN  Migration upload              Migration upload                                  
TBI0310000050150002NPR031                  9000DA04-03-2022DISBT04-03-2022NNN  Migration upload              Migration upload                                  
TBI03102073524001  NPR031                  9000CA04-03-2022     04-03-2022NNN  Migration upload              Migration upload                                  
TBI0310000050160002NPR031                  9000DA04-03-2022DISBT04-03-2022NNN  Migration upload              Migration upload                                  
TBI03102073524001  NPR031                  9000CA04-03-2022     04-03-2022NNN  Migration upload              Migration upload                                  
TBI0310000050170002NPR031                  9000DA04-03-2022DISBT04-03-2022NNN  Migration upload              Migration upload                                  
TBI03102073524001  NPR031                  9000CA04-03-2022     04-03-2022NNN  Migration upload              Migration upload                                  
TBI0310000050180002NPR031                  9000DA04-03-2022DISBT04-03-2022NNN  Migration upload              Migration upload                                  
TBI03102073524001  NPR031                  9000CA04-03-2022     04-03-2022NNN  Migration upload              Migration upload                                  
TBI0310000050190002NPR031                  9000DA04-03-2022DISBT04-03-2022NNN  Migration upload              Migration upload                                  
TBI03102073524001  NPR031                  9000CA04-03-2022     04-03-2022NNN  Migration upload              Migration upload                                  
TBI0310000050200002NPR031                  9000DA04-03-2022DISBT04-03-2022NNN  Migration upload              Migration upload                                  
TBI03102073524001  NPR031                  9000CA04-03-2022     04-03-2022NNN  Migration upload              Migration upload                                  
TBI0310000050210002NPR031                  9000DA04-03-2022DISBT04-03-2022NNN  Migration upload              Migration upload                                  
TBI03102073524001  NPR031                  9000CA04-03-2022     04-03-2022NNN  Migration upload              Migration upload                                  
TBI0310000050220002NPR031                  9000DA04-03-2022DISBT04-03-2022NNN  Migration upload              Migration upload                                  
TBI03102073524001  NPR031                  9000CA04-03-2022     04-03-2022NNN  Migration upload              Migration upload                                  
TBI0310000050230002NPR031                  9000DA04-03-2022DISBT04-03-2022NNN  Migration upload              Migration upload                                  
TBI03102073524001  NPR031                  9000CA04-03-2022     04-03-2022NNN  Migration upload              Migration upload                                  
TBI0310000050240002NPR031                  9000DA04-03-2022DISBT04-03-2022NNN  Migration upload              Migration upload                                  
TBI03102073524001  NPR031                  9000CA04-03-2022     04-03-2022NNN  Migration upload              Migration upload                                  
TBI0310000050250002NPR031                  9000DA04-03-2022DISBT04-03-2022NNN  Migration upload              Migration upload                                  
TBI03102073524001  NPR031                  9000CA04-03-2022     04-03-2022NNN  Migration upload              Migration upload                                  
TBI0310000050260002NPR031                  9000DA04-03-2022DISBT04-03-2022NNN  Migration upload              Migration upload                                  
TBI03102073524001  NPR031                  9000CA04-03-2022     04-03-2022NNN  Migration upload              Migration upload                                  
TBI0310000050270002NPR031                  9000DA04-03-2022DISBT04-03-2022NNN  Migration upload              Migration upload                                  
TBI03102073524001  NPR031                  9000CA04-03-2022     04-03-2022NNN  Migration upload              Migration upload                                  
TBI0310000050280002NPR031                  9000DA04-03-2022DISBT04-03-2022NNN  Migration upload              Migration upload                                  
TBI03102073524001  NPR031                  9000CA04-03-2022     04-03-2022NNN  Migration upload              Migration upload                                  
TBI0310000050290002NPR031                  9000DA04-03-2022DISBT04-03-2022NNN  Migration upload              Migration upload                                  
TBI03102073524001  NPR031                  9000CA04-03-2022     04-03-2022NNN  Migration upload              Migration upload                                  
TBI0310000050300002NPR031                  9000DA04-03-2022DISBT04-03-2022NNN  Migration upload              Migration upload                                  
TBI03102073524001  NPR031                  9000CA04-03-2022     04-03-2022NNN  Migration upload              Migration upload                                  
TBI0310000050310002NPR031                  9000DA04-03-2022DISBT04-03-2022NNN  Migration upload              Migration upload                                  
TBI03102073524001  NPR031                  9000CA04-03-2022     04-03-2022NNN  Migration upload              Migration upload                                  
TBI0310000050320002NPR031                  9000DA04-03-2022DISBT04-03-2022NNN  Migration upload              Migration upload                                  
TBI03102073524001  NPR031                  9000CA04-03-2022     04-03-2022NNN  Migration upload              Migration upload                                  
TBI0310000050330002NPR031                  9000DA04-03-2022DISBT04-03-2022NNN  Migration upload              Migration upload                                  
TBI03102073524001  NPR031                  9000CA04-03-2022     04-03-2022NNN  Migration upload              Migration upload                                  
TBI0310000050350002NPR031                  9000DA04-03-2022DISBT04-03-2022NNN  Migration upload              Migration upload                                  
TBI03102073524001  NPR031                  9000CA04-03-2022     04-03-2022NNN  Migration upload              Migration upload                                  
TBI0310000050360002NPR031                  9000DA04-03-2022DISBT04-03-2022NNN  Migration upload              Migration upload                                  
TBI03102073524001  NPR031                  9000CA04-03-2022     04-03-2022NNN  Migration upload              Migration upload                                  
TBI0310000050370002NPR031                  9000DA04-03-2022DISBT04-03-2022NNN  Migration upload              Migration upload                                  
TBI03102073524001  NPR031                  9000CA04-03-2022     04-03-2022NNN  Migration upload              Migration upload                                  
TBI0310000050380002NPR031                  9000DA04-03-2022DISBT04-03-2022NNN  Migration upload              Migration upload                                  
TBI03102073524001  NPR031                  9000CA04-03-2022     04-03-2022NNN  Migration upload              Migration upload                                  
TBI0310000050390002NPR031                  9000DA04-03-2022DISBT04-03-2022NNN  Migration upload              Migration upload                                  
TBI03102073524001  NPR031                  9000CA04-03-2022     04-03-2022NNN  Migration upload              Migration upload                                  
TBI0310000050400002NPR031                  9000DA04-03-2022DISBT04-03-2022NNN  Migration upload              Migration upload                                  
TBI03102073524001  NPR031                  9000CA04-03-2022     04-03-2022NNN  Migration upload              Migration upload                                  
TBI0310000050410002NPR031                  9000DA04-03-2022DISBT04-03-2022NNN  Migration upload              Migration upload                                  
TBI03102073524001  NPR031                  9000CA04-03-2022     04-03-2022NNN  Migration upload              Migration upload                                  
TBI0310000050430002NPR031                  9000DA04-03-2022DISBT04-03-2022NNN  Migration upload              Migration upload                                  
TBI03102073524001  NPR031                  9000CA04-03-2022     04-03-2022NNN  Migration upload              Migration upload                                  
TBI0310000050440002NPR031                  9000DA04-03-2022DISBT04-03-2022NNN  Migration upload              Migration upload                                  
TBI03102073524001  NPR031                  9000CA04-03-2022     04-03-2022NNN  Migration upload              Migration upload                                  
TBI0310000050450002NPR031                  9000DA04-03-2022DISBT04-03-2022NNN  Migration upload              Migration upload                                  
TBI03102073524001  NPR031                  9000CA04-03-2022     04-03-2022NNN  Migration upload              Migration upload                                  
TBI0310000050460002NPR031                  9000DA04-03-2022DISBT04-03-2022NNN  Migration upload              Migration upload                                  
TBI03102073524001  NPR031                  9000CA04-03-2022     04-03-2022NNN  Migration upload              Migration upload                                  
TBI0310000050470002NPR031                  9000DA04-03-2022DISBT04-03-2022NNN  Migration upload              Migration upload                                  
TBI03102073524001  NPR031                  9000CA04-03-2022     04-03-2022NNN  Migration upload              Migration upload                                  
TBI0310000050480002NPR031                  9000DA04-03-2022DISBT04-03-2022NNN  Migration upload              Migration upload                                  
TBI03102073524001  NPR031                  9000CA04-03-2022     04-03-2022NNN  Migration upload              Migration upload                                  
TBI0310000050490002NPR031                  9000DA04-03-2022DISBT04-03-2022NNN  Migration upload              Migration upload                                  
TBI03102073524001  NPR031                  9000CA04-03-2022     04-03-2022NNN  Migration upload              Migration upload                                  
TBI0310000050500002NPR031                  9000DA04-03-2022DISBT04-03-2022NNN  Migration upload              Migration upload                                  
TBI03102073524001  NPR031                  9000CA04-03-2022     04-03-2022NNN  Migration upload              Migration upload                                  
TBI0310000050520002NPR031                  9000DA04-03-2022DISBT04-03-2022NNN  Migration upload              Migration upload                                  
TBI03102073524001  NPR031                  9000CA04-03-2022     04-03-2022NNN  Migration upload              Migration upload                                  
TBI0310000050530002NPR031                  9000DA04-03-2022DISBT04-03-2022NNN  Migration upload              Migration upload                                  
TBI03102073524001  NPR031                  9000CA04-03-2022     04-03-2022NNN  Migration upload              Migration upload                                  
TBI0310000050540002NPR031                  9000DA04-03-2022DISBT04-03-2022NNN  Migration upload              Migration upload                                  
TBI03102073524001  NPR031                  9000CA04-03-2022     04-03-2022NNN  Migration upload              Migration upload                                  
TBI0310000050550002NPR031                  9000DA04-03-2022DISBT04-03-2022NNN  Migration upload              Migration upload                                  
TBI03102073524001  NPR031                  9000CA04-03-2022     04-03-2022NNN  Migration upload              Migration upload                                  
TBI0310000050560002NPR031                  9000DA04-03-2022DISBT04-03-2022NNN  Migration upload              Migration upload                                  
TBI03102073524001  NPR031                  9000CA04-03-2022     04-03-2022NNN  Migration upload              Migration upload                                  
TBI0310000050570002NPR031                  9000DA04-03-2022DISBT04-03-2022NNN  Migration upload              Migration upload                                  
TBI03102073524001  NPR031                  9000CA04-03-2022     04-03-2022NNN  Migration upload              Migration upload                                  
TBI0310000050580002NPR031                  9000DA04-03-2022DISBT04-03-2022NNN  Migration upload              Migration upload                                  
TBI03102073524001  NPR031                  9000CA04-03-2022     04-03-2022NNN  Migration upload              Migration upload                                  
TBI0310000050590002NPR031                  9000DA04-03-2022DISBT04-03-2022NNN  Migration upload              Migration upload                                  
TBI03102073524001  NPR031                  9000CA04-03-2022     04-03-2022NNN  Migration upload              Migration upload                                  
TBI0310000050610002NPR031                  9000DA04-03-2022DISBT04-03-2022NNN  Migration upload              Migration upload                                  
TBI03102073524001  NPR031                  9000CA04-03-2022     04-03-2022NNN  Migration upload              Migration upload                                  
TBI0310000050620002NPR031                  9000DA04-03-2022DISBT04-03-2022NNN  Migration upload              Migration upload                                  
TBI03102073524001  NPR031                  9000CA04-03-2022     04-03-2022NNN  Migration upload              Migration upload                                  
TBI0310000050630002NPR031                  9000DA04-03-2022DISBT04-03-2022NNN  Migration upload              Migration upload                                  
TBI03102073524001  NPR031                  9000CA04-03-2022     04-03-2022NNN  Migration upload              Migration upload                                  
TBI0310000050640002NPR031                  9000DA04-03-2022DISBT04-03-2022NNN  Migration upload              Migration upload                                  
TBI03102073524001  NPR031                  9000CA04-03-2022     04-03-2022NNN  Migration upload              Migration upload                                  
TBI0310000050650002NPR031                  9000DA04-03-2022DISBT04-03-2022NNN  Migration upload              Migration upload                                  
TBI03102073524001  NPR031                  9000CA04-03-2022     04-03-2022NNN  Migration upload              Migration upload                                  
TBI0310000050660002NPR031                  9000DA04-03-2022DISBT04-03-2022NNN  Migration upload              Migration upload                                  
TBI03102073524001  NPR031                  9000CA04-03-2022     04-03-2022NNN  Migration upload              Migration upload                                  
TBI0310000050680002NPR031                  9000DA04-03-2022DISBT04-03-2022NNN  Migration upload              Migration upload                                  
TBI03102073524001  NPR031                  9000CA04-03-2022     04-03-2022NNN  Migration upload              Migration upload                                  
TBI0310000050690002NPR031                  9000DA04-03-2022DISBT04-03-2022NNN  Migration upload              Migration upload                                  
TBI03102073524001  NPR031                  9000CA04-03-2022     04-03-2022NNN  Migration upload              Migration upload                                  
TBI0310000050700002NPR031                  9000DA04-03-2022DISBT04-03-2022NNN  Migration upload              Migration upload                                  
TBI03102073524001  NPR031                  9000CA04-03-2022     04-03-2022NNN  Migration upload              Migration upload                                  
TBI0310000050710002NPR031                  9000DA04-03-2022DISBT04-03-2022NNN  Migration upload              Migration upload                                  
TBI03102073524001  NPR031                  9000CA04-03-2022     04-03-2022NNN  Migration upload              Migration upload                                  
TBI0310000050720002NPR031                  9000DA04-03-2022DISBT04-03-2022NNN  Migration upload              Migration upload                                  
TBI03102073524001  NPR031                  9000CA04-03-2022     04-03-2022NNN  Migration upload              Migration upload                                  
TBI0310000050730002NPR031                  9000DA04-03-2022DISBT04-03-2022NNN  Migration upload              Migration upload                                  
TBI03102073524001  NPR031                  9000CA04-03-2022     04-03-2022NNN  Migration upload              Migration upload                                  
TBI0310000050740002NPR031                  9000DA04-03-2022DISBT04-03-2022NNN  Migration upload              Migration upload                                  
TBI03102073524001  NPR031                  9000CA04-03-2022     04-03-2022NNN  Migration upload              Migration upload                                  
TBI0310000050750002NPR031                  9000DA04-03-2022DISBT04-03-2022NNN  Migration upload              Migration upload                                  
TBI03102073524001  NPR031                  9000CA04-03-2022     04-03-2022NNN  Migration upload              Migration upload                                  
TBI0310000050760002NPR031                  9000DA04-03-2022DISBT04-03-2022NNN  Migration upload              Migration upload                                  
TBI03102073524001  NPR031                  9000CA04-03-2022     04-03-2022NNN  Migration upload              Migration upload                                  
TBI0310000050770002NPR031                  9000DA04-03-2022DISBT04-03-2022NNN  Migration upload              Migration upload                                  
TBI03102073524001  NPR031                  9000CA04-03-2022     04-03-2022NNN  Migration upload              Migration upload                                  
TBI0310000050780002NPR031                  9000DA04-03-2022DISBT04-03-2022NNN  Migration upload              Migration upload                                  
TBI03102073524001  NPR031                  9000CA04-03-2022     04-03-2022NNN  Migration upload              Migration upload                                  
TBI0310000050790002NPR031                  9000DA04-03-2022DISBT04-03-2022NNN  Migration upload              Migration upload                                  
TBI03102073524001  NPR031                  9000CA04-03-2022     04-03-2022NNN  Migration upload              Migration upload                                  
TBI0310000050800002NPR031                  9000DA04-03-2022DISBT04-03-2022NNN  Migration upload              Migration upload                                  
TBI03102073524001  NPR031                  9000CA04-03-2022     04-03-2022NNN  Migration upload              Migration upload                                  
TBI0310000050810002NPR031                  9000DA04-03-2022DISBT04-03-2022NNN  Migration upload              Migration upload                                  
TBI03102073524001  NPR031                  9000CA04-03-2022     04-03-2022NNN  Migration upload              Migration upload                                  
TBI0310000050820002NPR031                  9000DA04-03-2022DISBT04-03-2022NNN  Migration upload              Migration upload                                  
TBI03102073524001  NPR031                  9000CA04-03-2022     04-03-2022NNN  Migration upload              Migration upload                                  
TBI0310000050830002NPR031                  9000DA04-03-2022DISBT04-03-2022NNN  Migration upload              Migration upload                                  
TBI03102073524001  NPR031                  9000CA04-03-2022     04-03-2022NNN  Migration upload              Migration upload                                  
TBI0310000050840002NPR031                  9000DA04-03-2022DISBT04-03-2022NNN  Migration upload              Migration upload                                  
TBI03102073524001  NPR031                  9000CA04-03-2022     04-03-2022NNN  Migration upload              Migration upload                                  
TBI0310000050850002NPR031                  9000DA04-03-2022DISBT04-03-2022NNN  Migration upload              Migration upload                                  
TBI03102073524001  NPR031                  9000CA04-03-2022     04-03-2022NNN  Migration upload              Migration upload                                  
TBI0310000050860002NPR031                  9000DA04-03-2022DISBT04-03-2022NNN  Migration upload              Migration upload                                  
TBI03102073524001  NPR031                  9000CA04-03-2022     04-03-2022NNN  Migration upload              Migration upload                                  
TBI0310000050870002NPR031                  9000DA04-03-2022DISBT04-03-2022NNN  Migration upload              Migration upload                                  
TBI03102073524001  NPR031                  9000CA04-03-2022     04-03-2022NNN  Migration upload              Migration upload                                  
TBI0310000050880002NPR031                  9000DA04-03-2022DISBT04-03-2022NNN  Migration upload              Migration upload                                  
TBI03102073524001  NPR031                  9000CA04-03-2022     04-03-2022NNN  Migration upload              Migration upload                                  
TBI0310000050900002NPR031                  9000DA04-03-2022DISBT04-03-2022NNN  Migration upload              Migration upload                                  
TBI03102073524001  NPR031                  9000CA04-03-2022     04-03-2022NNN  Migration upload              Migration upload                                  
TBI0310000050910002NPR031                  9000DA04-03-2022DISBT04-03-2022NNN  Migration upload              Migration upload                                  
TBI03102073524001  NPR031                 10000CA04-03-2022     04-03-2022NNN  Migration upload              Migration upload                                  
TBI0310000050920002NPR031                 10000DA04-03-2022DISBT04-03-2022NNN  Migration upload              Migration upload                                  
TBI03102073524001  NPR031                 10000CA04-03-2022     04-03-2022NNN  Migration upload              Migration upload                                  
TBI0310000050920003NPR031                 10000DA04-03-2022DISBT04-03-2022NNN  Migration upload              Migration upload                                  
TBI03102073524001  NPR031                 10000CA04-03-2022     04-03-2022NNN  Migration upload              Migration upload                                  
TBI0310000050920004NPR031                 10000DA04-03-2022DISBT04-03-2022NNN  Migration upload              Migration upload                                  
TBI03102073524001  NPR031                 10000CA04-03-2022     04-03-2022NNN  Migration upload              Migration upload                                  
TBI0310000050920005NPR031                 10000DA04-03-2022DISBT04-03-2022NNN  Migration upload              Migration upload                                  
TBI03102073524001  NPR031                 10000CA04-03-2022     04-03-2022NNN  Migration upload              Migration upload                                  
TBI0310000050920006NPR031                 10000DA04-03-2022DISBT04-03-2022NNN  Migration upload              Migration upload                                  
TBI03102073524001  NPR031                 10000CA04-03-2022     04-03-2022NNN  Migration upload              Migration upload                                  
TBI0310000050920007NPR031                 10000DA04-03-2022DISBT04-03-2022NNN  Migration upload              Migration upload                                  
TBI03102073524001  NPR031                 10000CA04-03-2022     04-03-2022NNN  Migration upload              Migration upload                                  
TBI0310000050920008NPR031                 10000DA04-03-2022DISBT04-03-2022NNN  Migration upload              Migration upload                                  
TBI03102073524001  NPR031                  9000CA04-03-2022     04-03-2022NNN  Migration upload              Migration upload                                  
TBI0310000050930002NPR031                  9000DA04-03-2022DISBT04-03-2022NNN  Migration upload              Migration upload                                  
TBI03102073524001  NPR031                  9000CA04-03-2022     04-03-2022NNN  Migration upload              Migration upload                                  
TBI0310000050940002NPR031                  9000DA04-03-2022DISBT04-03-2022NNN  Migration upload              Migration upload                                  
TBI03102073524001  NPR031                  9000CA04-03-2022     04-03-2022NNN  Migration upload              Migration upload                                  
TBI0310000050950002NPR031                  9000DA04-03-2022DISBT04-03-2022NNN  Migration upload              Migration upload                                  
TBI03102073524001  NPR031                  9000CA04-03-2022     04-03-2022NNN  Migration upload              Migration upload                                  
TBI0310000050960002NPR031                  9000DA04-03-2022DISBT04-03-2022NNN  Migration upload              Migration upload                                  
TBI03102073524001  NPR031                  9000CA04-03-2022     04-03-2022NNN  Migration upload              Migration upload                                  
TBI0310000050970002NPR031                  9000DA04-03-2022DISBT04-03-2022NNN  Migration upload              Migration upload                                  
TBI03102073524001  NPR031                  9000CA04-03-2022     04-03-2022NNN  Migration upload              Migration upload                                  
TBI0310000050980002NPR031                  9000DA04-03-2022DISBT04-03-2022NNN  Migration upload              Migration upload                                  
TBI03102073524001  NPR031                  9000CA04-03-2022     04-03-2022NNN  Migration upload              Migration upload                                  
TBI0310000050990002NPR031                  9000DA04-03-2022DISBT04-03-2022NNN  Migration upload              Migration upload                                  
TBI03102073524001  NPR031                  9000CA04-03-2022     04-03-2022NNN  Migration upload              Migration upload                                  
TBI0310000051000002NPR031                  9000DA04-03-2022DISBT04-03-2022NNN  Migration upload              Migration upload                                  
TBI03102073524001  NPR031                  9000CA04-03-2022     04-03-2022NNN  Migration upload              Migration upload                                  
TBI0310000051010002NPR031                  9000DA04-03-2022DISBT04-03-2022NNN  Migration upload              Migration upload                                  
TBI03102073524001  NPR031                  9000CA04-03-2022     04-03-2022NNN  Migration upload              Migration upload                                  
TBI0310000051020002NPR031                  9000DA04-03-2022DISBT04-03-2022NNN  Migration upload              Migration upload                                  
TBI03102073524001  NPR031                  9000CA04-03-2022     04-03-2022NNN  Migration upload              Migration upload                                  
TBI0310000051040002NPR031                  9000DA04-03-2022DISBT04-03-2022NNN  Migration upload              Migration upload                                  
TBI03102073524001  NPR031                  9000CA04-03-2022     04-03-2022NNN  Migration upload              Migration upload                                  
TBI0310000051050002NPR031                  9000DA04-03-2022DISBT04-03-2022NNN  Migration upload              Migration upload                                  
TBI03102073524001  NPR031                  9000CA04-03-2022     04-03-2022NNN  Migration upload              Migration upload                                  
TBI0310000051060002NPR031                  9000DA04-03-2022DISBT04-03-2022NNN  Migration upload              Migration upload                                  
TBI03102073524001  NPR031                  9000CA04-03-2022     04-03-2022NNN  Migration upload              Migration upload                                  
TBI0310000051070002NPR031                  9000DA04-03-2022DISBT04-03-2022NNN  Migration upload              Migration upload                                  
TBI03102073524001  NPR031                  9000CA04-03-2022     04-03-2022NNN  Migration upload              Migration upload                                  
TBI0310000051080002NPR031                  9000DA04-03-2022DISBT04-03-2022NNN  Migration upload              Migration upload                                  
TBI03102073524001  NPR031                  9000CA04-03-2022     04-03-2022NNN  Migration upload              Migration upload                                  
TBI0310000051090002NPR031                  9000DA04-03-2022DISBT04-03-2022NNN  Migration upload              Migration upload                                  
TBI03102073524001  NPR031                  9000CA04-03-2022     04-03-2022NNN  Migration upload              Migration upload                                  
TBI0310000051110002NPR031                  9000DA04-03-2022DISBT04-03-2022NNN  Migration upload              Migration upload                                  
TBI03102073524001  NPR031                  9000CA04-03-2022     04-03-2022NNN  Migration upload              Migration upload                                  
TBI0310000051120002NPR031                  9000DA04-03-2022DISBT04-03-2022NNN  Migration upload              Migration upload                                  
TBI03102073524001  NPR031                  9000CA04-03-2022     04-03-2022NNN  Migration upload              Migration upload                                  
TBI0310000051130002NPR031                  9000DA04-03-2022DISBT04-03-2022NNN  Migration upload              Migration upload                                  
TBI03102073524001  NPR031                  9000CA04-03-2022     04-03-2022NNN  Migration upload              Migration upload                                  
TBI0310000051150002NPR031                  9000DA04-03-2022DISBT04-03-2022NNN  Migration upload              Migration upload                                  
TBI03102073524001  NPR031                  9000CA04-03-2022     04-03-2022NNN  Migration upload              Migration upload                                  
TBI0310000051160002NPR031                  9000DA04-03-2022DISBT04-03-2022NNN  Migration upload              Migration upload                                  
TBI03102073524001  NPR031                  9000CA04-03-2022     04-03-2022NNN  Migration upload              Migration upload                                  
TBI0310000051170002NPR031                  9000DA04-03-2022DISBT04-03-2022NNN  Migration upload              Migration upload                                  
TBI03102073524001  NPR031                  9000CA04-03-2022     04-03-2022NNN  Migration upload              Migration upload                                  
TBI0310000051180002NPR031                  9000DA04-03-2022DISBT04-03-2022NNN  Migration upload              Migration upload                                  
TBI03102073524001  NPR031                  9000CA04-03-2022     04-03-2022NNN  Migration upload              Migration upload                                  
TBI0310000051190002NPR031                  9000DA04-03-2022DISBT04-03-2022NNN  Migration upload              Migration upload                                  
TBI03102073524001  NPR031                  9000CA04-03-2022     04-03-2022NNN  Migration upload              Migration upload                                  
TBI0310000051200002NPR031                  9000DA04-03-2022DISBT04-03-2022NNN  Migration upload              Migration upload                                  
TBI03102073524001  NPR031                  9000CA04-03-2022     04-03-2022NNN  Migration upload              Migration upload                                  
TBI0310000051210002NPR031                  9000DA04-03-2022DISBT04-03-2022NNN  Migration upload              Migration upload                                  
TBI03102073524001  NPR031                  9000CA04-03-2022     04-03-2022NNN  Migration upload              Migration upload                                  
TBI0310000051220002NPR031                  9000DA04-03-2022DISBT04-03-2022NNN  Migration upload              Migration upload                                  
TBI03102073524001  NPR031                  9000CA04-03-2022     04-03-2022NNN  Migration upload              Migration upload                                  
TBI0310000051230002NPR031                  9000DA04-03-2022DISBT04-03-2022NNN  Migration upload              Migration upload                                  
TBI03102073524001  NPR031                  9000CA04-03-2022     04-03-2022NNN  Migration upload              Migration upload                                  
TBI0310000051240002NPR031                  9000DA04-03-2022DISBT04-03-2022NNN  Migration upload              Migration upload                                  
TBI03102073524001  NPR031                  9000CA04-03-2022     04-03-2022NNN  Migration upload              Migration upload                                  
TBI0310000051250002NPR031                  9000DA04-03-2022DISBT04-03-2022NNN  Migration upload              Migration upload                                  
TBI03102073524001  NPR031                  9000CA04-03-2022     04-03-2022NNN  Migration upload              Migration upload                                  
TBI0310000051270002NPR031                  9000DA04-03-2022DISBT04-03-2022NNN  Migration upload              Migration upload                                  
TBI03102073524001  NPR031                  9000CA04-03-2022     04-03-2022NNN  Migration upload              Migration upload                                  
TBI0310000051280002NPR031                  9000DA04-03-2022DISBT04-03-2022NNN  Migration upload              Migration upload                                  
TBI03102073524001  NPR031                  9000CA04-03-2022     04-03-2022NNN  Migration upload              Migration upload                                  
TBI0310000051290002NPR031                  9000DA04-03-2022DISBT04-03-2022NNN  Migration upload              Migration upload                                  
TBI03102073524001  NPR031                  9000CA04-03-2022     04-03-2022NNN  Migration upload              Migration upload                                  
TBI0310000051300002NPR031                  9000DA04-03-2022DISBT04-03-2022NNN  Migration upload              Migration upload                                  
TBI03102073524001  NPR031                  9000CA04-03-2022     04-03-2022NNN  Migration upload              Migration upload                                  
TBI0310000051310002NPR031                  9000DA04-03-2022DISBT04-03-2022NNN  Migration upload              Migration upload                                  
TBI03102073524001  NPR031                  9000CA04-03-2022     04-03-2022NNN  Migration upload              Migration upload                                  
TBI0310000051320002NPR031                  9000DA04-03-2022DISBT04-03-2022NNN  Migration upload              Migration upload                                  
TBI03102073524001  NPR031                  9000CA04-03-2022     04-03-2022NNN  Migration upload              Migration upload                                  
TBI0310000051330002NPR031                  9000DA04-03-2022DISBT04-03-2022NNN  Migration upload              Migration upload                                  
TBI03102073524001  NPR031                  9000CA04-03-2022     04-03-2022NNN  Migration upload              Migration upload                                  
TBI0310000051340002NPR031                  9000DA04-03-2022DISBT04-03-2022NNN  Migration upload              Migration upload                                  
TBI03102073524001  NPR031                  9000CA04-03-2022     04-03-2022NNN  Migration upload              Migration upload                                  
TBI0310000051350002NPR031                  9000DA04-03-2022DISBT04-03-2022NNN  Migration upload              Migration upload                                  
TBI03102073524001  NPR031                  9000CA04-03-2022     04-03-2022NNN  Migration upload              Migration upload                                  
TBI0310000051360002NPR031                  9000DA04-03-2022DISBT04-03-2022NNN  Migration upload              Migration upload                                  
TBI03102073524001  NPR031                  9000CA04-03-2022     04-03-2022NNN  Migration upload              Migration upload                                  
TBI0310000051370002NPR031                  9000DA04-03-2022DISBT04-03-2022NNN  Migration upload              Migration upload                                  
TBI03102073524001  NPR031                  9000CA04-03-2022     04-03-2022NNN  Migration upload              Migration upload                                  
TBI0310000051380002NPR031                  9000DA04-03-2022DISBT04-03-2022NNN  Migration upload              Migration upload                                  
TBI03102073524001  NPR031                  9000CA04-03-2022     04-03-2022NNN  Migration upload              Migration upload                                  
TBI0310000051400002NPR031                  9000DA04-03-2022DISBT04-03-2022NNN  Migration upload              Migration upload                                  
TBI03102073524001  NPR031                  9000CA04-03-2022     04-03-2022NNN  Migration upload              Migration upload                                  
TBI0310000051410002NPR031                  9000DA04-03-2022DISBT04-03-2022NNN  Migration upload              Migration upload                                  
TBI03102073524001  NPR031                  9000CA04-03-2022     04-03-2022NNN  Migration upload              Migration upload                                  
TBI0310000051420002NPR031                  9000DA04-03-2022DISBT04-03-2022NNN  Migration upload              Migration upload                                  
TBI03102073524001  NPR031                  9000CA04-03-2022     04-03-2022NNN  Migration upload              Migration upload                                  
TBI0310000051440002NPR031                  9000DA04-03-2022DISBT04-03-2022NNN  Migration upload              Migration upload                                  
TBI03102073524001  NPR031                  9000CA04-03-2022     04-03-2022NNN  Migration upload              Migration upload                                  
TBI0310000051450002NPR031                  9000DA04-03-2022DISBT04-03-2022NNN  Migration upload              Migration upload                                  
TBI03102073524001  NPR031                  9000CA04-03-2022     04-03-2022NNN  Migration upload              Migration upload                                  
TBI0310000051460002NPR031                  9000DA04-03-2022DISBT04-03-2022NNN  Migration upload              Migration upload                                  
TBI03102073524001  NPR031                  9000CA04-03-2022     04-03-2022NNN  Migration upload              Migration upload                                  
TBI0310000051470002NPR031                  9000DA04-03-2022DISBT04-03-2022NNN  Migration upload              Migration upload                                  
TBI03102073524001  NPR031                  9000CA04-03-2022     04-03-2022NNN  Migration upload              Migration upload                                  
TBI0310000051480002NPR031                  9000DA04-03-2022DISBT04-03-2022NNN  Migration upload              Migration upload                                  
TBI03102073524001  NPR031                  9000CA04-03-2022     04-03-2022NNN  Migration upload              Migration upload                                  
TBI0310000051490002NPR031                  9000DA04-03-2022DISBT04-03-2022NNN  Migration upload              Migration upload                                  
TBI03102073524001  NPR031                  9000CA04-03-2022     04-03-2022NNN  Migration upload              Migration upload                                  
TBI0310000051500002NPR031                  9000DA04-03-2022DISBT04-03-2022NNN  Migration upload              Migration upload                                  
TBI03102073524001  NPR031                  9000CA04-03-2022     04-03-2022NNN  Migration upload              Migration upload                                  
TBI0310000051510002NPR031                  9000DA04-03-2022DISBT04-03-2022NNN  Migration upload              Migration upload                                  
TBI03102073524001  NPR031                  9000CA04-03-2022     04-03-2022NNN  Migration upload              Migration upload                                  
TBI0310000051520002NPR031                  9000DA04-03-2022DISBT04-03-2022NNN  Migration upload              Migration upload                                  
TBI03102073524001  NPR031                  9000CA04-03-2022     04-03-2022NNN  Migration upload              Migration upload                                  
TBI0310000051530002NPR031                  9000DA04-03-2022DISBT04-03-2022NNN  Migration upload              Migration upload                                  
TBI03102073524001  NPR031                  9000CA04-03-2022     04-03-2022NNN  Migration upload              Migration upload                                  
TBI0310000051540002NPR031                  9000DA04-03-2022DISBT04-03-2022NNN  Migration upload              Migration upload                                  
TBI03102073524001  NPR031                  9000CA04-03-2022     04-03-2022NNN  Migration upload              Migration upload                                  
TBI0310000051550002NPR031                  9000DA04-03-2022DISBT04-03-2022NNN  Migration upload              Migration upload                                  
TBI03102073524001  NPR031                  9000CA04-03-2022     04-03-2022NNN  Migration upload              Migration upload                                  
TBI0310000051560002NPR031                  9000DA04-03-2022DISBT04-03-2022NNN  Migration upload              Migration upload                                  
TBI03102073524001  NPR031                  9000CA04-03-2022     04-03-2022NNN  Migration upload              Migration upload                                  
TBI0310000051570002NPR031                  9000DA04-03-2022DISBT04-03-2022NNN  Migration upload              Migration upload                                  
TBI03102073524001  NPR031                  9000CA04-03-2022     04-03-2022NNN  Migration upload              Migration upload                                  
TBI0310000051580002NPR031                  9000DA04-03-2022DISBT04-03-2022NNN  Migration upload              Migration upload                                  
TBI03102073524001  NPR031                  9000CA04-03-2022     04-03-2022NNN  Migration upload              Migration upload                                  
TBI0310000051590002NPR031                  9000DA04-03-2022DISBT04-03-2022NNN  Migration upload              Migration upload                                  
TBI03102073524001  NPR031                  9000CA04-03-2022     04-03-2022NNN  Migration upload              Migration upload                                  
TBI0310000051600002NPR031                  9000DA04-03-2022DISBT04-03-2022NNN  Migration upload              Migration upload                                  
TBI03102073524001  NPR031                  9000CA04-03-2022     04-03-2022NNN  Migration upload              Migration upload                                  
TBI0310000051610002NPR031                  9000DA04-03-2022DISBT04-03-2022NNN  Migration upload              Migration upload                                  
TBI03102073524001  NPR031                  9000CA04-03-2022     04-03-2022NNN  Migration upload              Migration upload                                  
TBI0310000051620002NPR031                  9000DA04-03-2022DISBT04-03-2022NNN  Migration upload              Migration upload                                  
TBI03102073524001  NPR031                  9000CA04-03-2022     04-03-2022NNN  Migration upload              Migration upload                                  
TBI0310000051630002NPR031                  9000DA04-03-2022DISBT04-03-2022NNN  Migration upload              Migration upload                                  
TBI03102073524001  NPR031                  9000CA04-03-2022     04-03-2022NNN  Migration upload              Migration upload                                  
TBI0310000051640002NPR031                  9000DA04-03-2022DISBT04-03-2022NNN  Migration upload              Migration upload                                  
TBI03102073524001  NPR031                  9000CA04-03-2022     04-03-2022NNN  Migration upload              Migration upload                                  
TBI0310000051650002NPR031                  9000DA04-03-2022DISBT04-03-2022NNN  Migration upload              Migration upload                                  
TBI03102073524001  NPR031                  9000CA04-03-2022     04-03-2022NNN  Migration upload              Migration upload                                  
TBI0310000051670002NPR031                  9000DA04-03-2022DISBT04-03-2022NNN  Migration upload              Migration upload                                  
TBI03102073524001  NPR031                  9000CA04-03-2022     04-03-2022NNN  Migration upload              Migration upload                                  
TBI0310000051680002NPR031                  9000DA04-03-2022DISBT04-03-2022NNN  Migration upload              Migration upload                                  
TBI03102073524001  NPR031                  9000CA04-03-2022     04-03-2022NNN  Migration upload              Migration upload                                  
TBI0310000051690002NPR031                  9000DA04-03-2022DISBT04-03-2022NNN  Migration upload              Migration upload                                  
TBI03102073524001  NPR031                  9000CA04-03-2022     04-03-2022NNN  Migration upload              Migration upload                                  
