TBI03002071524001  NPR030                  8000CA04-03-2022     04-03-2022NNN  Migration upload              Migration upload                                  
TBI0300000066620002NPR030                  8000DA04-03-2022DISBT04-03-2022NNN  Migration upload              Migration upload                                  
TBI03002071524001  NPR030                  8000CA04-03-2022     04-03-2022NNN  Migration upload              Migration upload                                  
TBI0300000066630002NPR030                  8000DA04-03-2022DISBT04-03-2022NNN  Migration upload              Migration upload                                  
TBI03002071524001  NPR030                  8000CA04-03-2022     04-03-2022NNN  Migration upload              Migration upload                                  
TBI0300000066640002NPR030                  8000DA04-03-2022DISBT04-03-2022NNN  Migration upload              Migration upload                                  
TBI03002071524001  NPR030                  8000CA04-03-2022     04-03-2022NNN  Migration upload              Migration upload                                  
TBI0300000066650002NPR030                  8000DA04-03-2022DISBT04-03-2022NNN  Migration upload              Migration upload                                  
TBI03002071524001  NPR030                  8000CA04-03-2022     04-03-2022NNN  Migration upload              Migration upload                                  
TBI0300000066660002NPR030                  8000DA04-03-2022DISBT04-03-2022NNN  Migration upload              Migration upload                                  
TBI03002071524001  NPR030                  8000CA04-03-2022     04-03-2022NNN  Migration upload              Migration upload                                  
TBI0300000066670002NPR030                  8000DA04-03-2022DISBT04-03-2022NNN  Migration upload              Migration upload                                  
TBI03002071524001  NPR030                  8000CA04-03-2022     04-03-2022NNN  Migration upload              Migration upload                                  
TBI0300000066680002NPR030                  8000DA04-03-2022DISBT04-03-2022NNN  Migration upload              Migration upload                                  
TBI03002071524001  NPR030                  8000CA04-03-2022     04-03-2022NNN  Migration upload              Migration upload                                  
TBI0300000066690002NPR030                  8000DA04-03-2022DISBT04-03-2022NNN  Migration upload              Migration upload                                  
TBI03002071524001  NPR030                  8000CA04-03-2022     04-03-2022NNN  Migration upload              Migration upload                                  
TBI0300000066700002NPR030                  8000DA04-03-2022DISBT04-03-2022NNN  Migration upload              Migration upload                                  
TBI03002071524001  NPR030                  8000CA04-03-2022     04-03-2022NNN  Migration upload              Migration upload                                  
TBI0300000066710002NPR030                  8000DA04-03-2022DISBT04-03-2022NNN  Migration upload              Migration upload                                  
TBI03002071524001  NPR030                  8000CA04-03-2022     04-03-2022NNN  Migration upload              Migration upload                                  
TBI0300000066720002NPR030                  8000DA04-03-2022DISBT04-03-2022NNN  Migration upload              Migration upload                                  
TBI03002071524001  NPR030                  8000CA04-03-2022     04-03-2022NNN  Migration upload              Migration upload                                  
TBI0300000066730002NPR030                  8000DA04-03-2022DISBT04-03-2022NNN  Migration upload              Migration upload                                  
TBI03002071524001  NPR030                  8000CA04-03-2022     04-03-2022NNN  Migration upload              Migration upload                                  
TBI0300000066740002NPR030                  8000DA04-03-2022DISBT04-03-2022NNN  Migration upload              Migration upload                                  
TBI03002071524001  NPR030                  8000CA04-03-2022     04-03-2022NNN  Migration upload              Migration upload                                  
TBI0300000066750002NPR030                  8000DA04-03-2022DISBT04-03-2022NNN  Migration upload              Migration upload                                  
TBI03002071524001  NPR030                  8000CA04-03-2022     04-03-2022NNN  Migration upload              Migration upload                                  
TBI0300000066760002NPR030                  8000DA04-03-2022DISBT04-03-2022NNN  Migration upload              Migration upload                                  
TBI03002071524001  NPR030                  8000CA04-03-2022     04-03-2022NNN  Migration upload              Migration upload                                  
TBI0300000066770002NPR030                  8000DA04-03-2022DISBT04-03-2022NNN  Migration upload              Migration upload                                  
TBI03002071524001  NPR030                  8000CA04-03-2022     04-03-2022NNN  Migration upload              Migration upload                                  
TBI0300000066780002NPR030                  8000DA04-03-2022DISBT04-03-2022NNN  Migration upload              Migration upload                                  
TBI03002071524001  NPR030                  8000CA04-03-2022     04-03-2022NNN  Migration upload              Migration upload                                  
TBI0300000066790002NPR030                  8000DA04-03-2022DISBT04-03-2022NNN  Migration upload              Migration upload                                  
TBI03002071524001  NPR030                  8000CA04-03-2022     04-03-2022NNN  Migration upload              Migration upload                                  
TBI0300000066800002NPR030                  8000DA04-03-2022DISBT04-03-2022NNN  Migration upload              Migration upload                                  
TBI03002071524001  NPR030                  8000CA04-03-2022     04-03-2022NNN  Migration upload              Migration upload                                  
TBI0300000066810002NPR030                  8000DA04-03-2022DISBT04-03-2022NNN  Migration upload              Migration upload                                  
TBI03002071524001  NPR030                  8000CA04-03-2022     04-03-2022NNN  Migration upload              Migration upload                                  
TBI0300000066820002NPR030                  8000DA04-03-2022DISBT04-03-2022NNN  Migration upload              Migration upload                                  
TBI03002071524001  NPR030                  8000CA04-03-2022     04-03-2022NNN  Migration upload              Migration upload                                  
TBI0300000066830002NPR030                  8000DA04-03-2022DISBT04-03-2022NNN  Migration upload              Migration upload                                  
TBI03002071524001  NPR030                 13000CA04-03-2022     04-03-2022NNN  Migration upload              Migration upload                                  
TBI0300000066840002NPR030                 13000DA04-03-2022DISBT04-03-2022NNN  Migration upload              Migration upload                                  
TBI03002071524001  NPR030                  8000CA04-03-2022     04-03-2022NNN  Migration upload              Migration upload                                  
TBI0300000066850002NPR030                  8000DA04-03-2022DISBT04-03-2022NNN  Migration upload              Migration upload                                  
TBI03002071524001  NPR030                  8000CA04-03-2022     04-03-2022NNN  Migration upload              Migration upload                                  
TBI0300000066860002NPR030                  8000DA04-03-2022DISBT04-03-2022NNN  Migration upload              Migration upload                                  
TBI03002071524001  NPR030                  8000CA04-03-2022     04-03-2022NNN  Migration upload              Migration upload                                  
TBI0300000066870002NPR030                  8000DA04-03-2022DISBT04-03-2022NNN  Migration upload              Migration upload                                  
TBI03002071524001  NPR030                  8000CA04-03-2022     04-03-2022NNN  Migration upload              Migration upload                                  
TBI0300000066880002NPR030                  8000DA04-03-2022DISBT04-03-2022NNN  Migration upload              Migration upload                                  
TBI03002071524001  NPR030                  8000CA04-03-2022     04-03-2022NNN  Migration upload              Migration upload                                  
TBI0300000066890002NPR030                  8000DA04-03-2022DISBT04-03-2022NNN  Migration upload              Migration upload                                  
TBI03002071524001  NPR030                  8000CA04-03-2022     04-03-2022NNN  Migration upload              Migration upload                                  
TBI0300000066900002NPR030                  8000DA04-03-2022DISBT04-03-2022NNN  Migration upload              Migration upload                                  
TBI03002071524001  NPR030                  8000CA04-03-2022     04-03-2022NNN  Migration upload              Migration upload                                  
TBI0300000066910002NPR030                  8000DA04-03-2022DISBT04-03-2022NNN  Migration upload              Migration upload                                  
TBI03002071524001  NPR030                  8000CA04-03-2022     04-03-2022NNN  Migration upload              Migration upload                                  
TBI0300000066920002NPR030                  8000DA04-03-2022DISBT04-03-2022NNN  Migration upload              Migration upload                                  
TBI03002071524001  NPR030                  8000CA04-03-2022     04-03-2022NNN  Migration upload              Migration upload                                  
TBI0300000066930002NPR030                  8000DA04-03-2022DISBT04-03-2022NNN  Migration upload              Migration upload                                  
TBI03002071524001  NPR030                  8000CA04-03-2022     04-03-2022NNN  Migration upload              Migration upload                                  
TBI0300000066940002NPR030                  8000DA04-03-2022DISBT04-03-2022NNN  Migration upload              Migration upload                                  
TBI03002071524001  NPR030                  8000CA04-03-2022     04-03-2022NNN  Migration upload              Migration upload                                  
TBI0300000066950002NPR030                  8000DA04-03-2022DISBT04-03-2022NNN  Migration upload              Migration upload                                  
TBI03002071524001  NPR030                  8000CA04-03-2022     04-03-2022NNN  Migration upload              Migration upload                                  
TBI0300000066960002NPR030                  8000DA04-03-2022DISBT04-03-2022NNN  Migration upload              Migration upload                                  
TBI03002071524001  NPR030                  8000CA04-03-2022     04-03-2022NNN  Migration upload              Migration upload                                  
TBI0300000066970002NPR030                  8000DA04-03-2022DISBT04-03-2022NNN  Migration upload              Migration upload                                  
TBI03002071524001  NPR030                  8000CA04-03-2022     04-03-2022NNN  Migration upload              Migration upload                                  
TBI0300000066980002NPR030                  8000DA04-03-2022DISBT04-03-2022NNN  Migration upload              Migration upload                                  
TBI03002071524001  NPR030                  8000CA04-03-2022     04-03-2022NNN  Migration upload              Migration upload                                  
TBI0300000066990002NPR030                  8000DA04-03-2022DISBT04-03-2022NNN  Migration upload              Migration upload                                  
TBI03002071524001  NPR030                  8000CA04-03-2022     04-03-2022NNN  Migration upload              Migration upload                                  
TBI0300000067000002NPR030                  8000DA04-03-2022DISBT04-03-2022NNN  Migration upload              Migration upload                                  
TBI03002071524001  NPR030                  8000CA04-03-2022     04-03-2022NNN  Migration upload              Migration upload                                  
TBI0300000067010002NPR030                  8000DA04-03-2022DISBT04-03-2022NNN  Migration upload              Migration upload                                  
TBI03002071524001  NPR030                  8000CA04-03-2022     04-03-2022NNN  Migration upload              Migration upload                                  
TBI0300000067020002NPR030                  8000DA04-03-2022DISBT04-03-2022NNN  Migration upload              Migration upload                                  
TBI03002071524001  NPR030                  8000CA04-03-2022     04-03-2022NNN  Migration upload              Migration upload                                  
TBI0300000067030002NPR030                  8000DA04-03-2022DISBT04-03-2022NNN  Migration upload              Migration upload                                  
TBI03002071524001  NPR030                  8000CA04-03-2022     04-03-2022NNN  Migration upload              Migration upload                                  
TBI0300000067040002NPR030                  8000DA04-03-2022DISBT04-03-2022NNN  Migration upload              Migration upload                                  
TBI03002071524001  NPR030                  8000CA04-03-2022     04-03-2022NNN  Migration upload              Migration upload                                  
TBI0300000067050002NPR030                  8000DA04-03-2022DISBT04-03-2022NNN  Migration upload              Migration upload                                  
TBI03002071524001  NPR030                  8000CA04-03-2022     04-03-2022NNN  Migration upload              Migration upload                                  
TBI0300000067060002NPR030                  8000DA04-03-2022DISBT04-03-2022NNN  Migration upload              Migration upload                                  
TBI03002071524001  NPR030                  8000CA04-03-2022     04-03-2022NNN  Migration upload              Migration upload                                  
TBI0300000067070002NPR030                  8000DA04-03-2022DISBT04-03-2022NNN  Migration upload              Migration upload                                  
TBI03002071524001  NPR030                  8000CA04-03-2022     04-03-2022NNN  Migration upload              Migration upload                                  
TBI0300000067080002NPR030                  8000DA04-03-2022DISBT04-03-2022NNN  Migration upload              Migration upload                                  
TBI03002071524001  NPR030                  8000CA04-03-2022     04-03-2022NNN  Migration upload              Migration upload                                  
TBI0300000067090002NPR030                  8000DA04-03-2022DISBT04-03-2022NNN  Migration upload              Migration upload                                  
TBI03002071524001  NPR030                  8000CA04-03-2022     04-03-2022NNN  Migration upload              Migration upload                                  
TBI0300000067100002NPR030                  8000DA04-03-2022DISBT04-03-2022NNN  Migration upload              Migration upload                                  
TBI03002071524001  NPR030                 13000CA04-03-2022     04-03-2022NNN  Migration upload              Migration upload                                  
TBI0300000067110002NPR030                 13000DA04-03-2022DISBT04-03-2022NNN  Migration upload              Migration upload                                  
TBI03002071524001  NPR030                  8000CA04-03-2022     04-03-2022NNN  Migration upload              Migration upload                                  
TBI0300000067120002NPR030                  8000DA04-03-2022DISBT04-03-2022NNN  Migration upload              Migration upload                                  
TBI03002071524001  NPR030                  8000CA04-03-2022     04-03-2022NNN  Migration upload              Migration upload                                  
TBI0300000067130002NPR030                  8000DA04-03-2022DISBT04-03-2022NNN  Migration upload              Migration upload                                  
TBI03002071524001  NPR030                  8000CA04-03-2022     04-03-2022NNN  Migration upload              Migration upload                                  
TBI0300000067140002NPR030                  8000DA04-03-2022DISBT04-03-2022NNN  Migration upload              Migration upload                                  
TBI03002071524001  NPR030                  8000CA04-03-2022     04-03-2022NNN  Migration upload              Migration upload                                  
TBI0300000067150002NPR030                  8000DA04-03-2022DISBT04-03-2022NNN  Migration upload              Migration upload                                  
TBI03002071524001  NPR030                  8000CA04-03-2022     04-03-2022NNN  Migration upload              Migration upload                                  
TBI0300000067160002NPR030                  8000DA04-03-2022DISBT04-03-2022NNN  Migration upload              Migration upload                                  
TBI03002071524001  NPR030                  8000CA04-03-2022     04-03-2022NNN  Migration upload              Migration upload                                  
TBI0300000067170002NPR030                  8000DA04-03-2022DISBT04-03-2022NNN  Migration upload              Migration upload                                  
TBI03002071524001  NPR030                 14000CA04-03-2022     04-03-2022NNN  Migration upload              Migration upload                                  
TBI0300000067180002NPR030                 14000DA04-03-2022DISBT04-03-2022NNN  Migration upload              Migration upload                                  
TBI03002071524001  NPR030                  8000CA04-03-2022     04-03-2022NNN  Migration upload              Migration upload                                  
TBI0300000067190002NPR030                  8000DA04-03-2022DISBT04-03-2022NNN  Migration upload              Migration upload                                  
TBI03002071524001  NPR030                  8000CA04-03-2022     04-03-2022NNN  Migration upload              Migration upload                                  
TBI0300000067200002NPR030                  8000DA04-03-2022DISBT04-03-2022NNN  Migration upload              Migration upload                                  
TBI03002071524001  NPR030                  8000CA04-03-2022     04-03-2022NNN  Migration upload              Migration upload                                  
TBI0300000067210002NPR030                  8000DA04-03-2022DISBT04-03-2022NNN  Migration upload              Migration upload                                  
TBI03002071524001  NPR030                  8000CA04-03-2022     04-03-2022NNN  Migration upload              Migration upload                                  
TBI0300000067220002NPR030                  8000DA04-03-2022DISBT04-03-2022NNN  Migration upload              Migration upload                                  
TBI03002071524001  NPR030                  8000CA04-03-2022     04-03-2022NNN  Migration upload              Migration upload                                  
TBI0300000067230002NPR030                  8000DA04-03-2022DISBT04-03-2022NNN  Migration upload              Migration upload                                  
TBI03002071524001  NPR030                  8000CA04-03-2022     04-03-2022NNN  Migration upload              Migration upload                                  
TBI0300000067240002NPR030                  8000DA04-03-2022DISBT04-03-2022NNN  Migration upload              Migration upload                                  
TBI03002071524001  NPR030                  8000CA04-03-2022     04-03-2022NNN  Migration upload              Migration upload                                  
TBI0300000067260002NPR030                  8000DA04-03-2022DISBT04-03-2022NNN  Migration upload              Migration upload                                  
TBI03002071524001  NPR030                  8000CA04-03-2022     04-03-2022NNN  Migration upload              Migration upload                                  
TBI0300000067270002NPR030                  8000DA04-03-2022DISBT04-03-2022NNN  Migration upload              Migration upload                                  
TBI03002071524001  NPR030                  8000CA04-03-2022     04-03-2022NNN  Migration upload              Migration upload                                  
TBI0300000067280002NPR030                  8000DA04-03-2022DISBT04-03-2022NNN  Migration upload              Migration upload                                  
TBI03002071524001  NPR030                  8000CA04-03-2022     04-03-2022NNN  Migration upload              Migration upload                                  
TBI0300000067290002NPR030                  8000DA04-03-2022DISBT04-03-2022NNN  Migration upload              Migration upload                                  
TBI03002071524001  NPR030                  8000CA04-03-2022     04-03-2022NNN  Migration upload              Migration upload                                  
TBI0300000067300002NPR030                  8000DA04-03-2022DISBT04-03-2022NNN  Migration upload              Migration upload                                  
TBI03002071524001  NPR030                  8000CA04-03-2022     04-03-2022NNN  Migration upload              Migration upload                                  
TBI0300000067310002NPR030                  8000DA04-03-2022DISBT04-03-2022NNN  Migration upload              Migration upload                                  
TBI03002071524001  NPR030                 12000CA04-03-2022     04-03-2022NNN  Migration upload              Migration upload                                  
TBI0300000067320002NPR030                 12000DA04-03-2022DISBT04-03-2022NNN  Migration upload              Migration upload                                  
TBI03002071524001  NPR030                  8000CA04-03-2022     04-03-2022NNN  Migration upload              Migration upload                                  
TBI0300000067330002NPR030                  8000DA04-03-2022DISBT04-03-2022NNN  Migration upload              Migration upload                                  
TBI03002071524001  NPR030                  8000CA04-03-2022     04-03-2022NNN  Migration upload              Migration upload                                  
TBI0300000067340002NPR030                  8000DA04-03-2022DISBT04-03-2022NNN  Migration upload              Migration upload                                  
TBI03002071524001  NPR030                  8000CA04-03-2022     04-03-2022NNN  Migration upload              Migration upload                                  
TBI0300000067350002NPR030                  8000DA04-03-2022DISBT04-03-2022NNN  Migration upload              Migration upload                                  
TBI03002071524001  NPR030                  8000CA04-03-2022     04-03-2022NNN  Migration upload              Migration upload                                  
TBI0300000067360002NPR030                  8000DA04-03-2022DISBT04-03-2022NNN  Migration upload              Migration upload                                  
TBI03002071524001  NPR030                  8000CA04-03-2022     04-03-2022NNN  Migration upload              Migration upload                                  
TBI0300000067370002NPR030                  8000DA04-03-2022DISBT04-03-2022NNN  Migration upload              Migration upload                                  
TBI03002071524001  NPR030                  8000CA04-03-2022     04-03-2022NNN  Migration upload              Migration upload                                  
TBI0300000067380002NPR030                  8000DA04-03-2022DISBT04-03-2022NNN  Migration upload              Migration upload                                  
TBI03002071524001  NPR030                  8000CA04-03-2022     04-03-2022NNN  Migration upload              Migration upload                                  
TBI0300000067390002NPR030                  8000DA04-03-2022DISBT04-03-2022NNN  Migration upload              Migration upload                                  
TBI03002071524001  NPR030                 15000CA04-03-2022     04-03-2022NNN  Migration upload              Migration upload                                  
TBI0300000067400003NPR030                 15000DA04-03-2022DISBT04-03-2022NNN  Migration upload              Migration upload                                  
TBI03002071524001  NPR030                  8000CA04-03-2022     04-03-2022NNN  Migration upload              Migration upload                                  
TBI0300000067410002NPR030                  8000DA04-03-2022DISBT04-03-2022NNN  Migration upload              Migration upload                                  
TBI03002071524001  NPR030                  8000CA04-03-2022     04-03-2022NNN  Migration upload              Migration upload                                  
TBI0300000067420002NPR030                  8000DA04-03-2022DISBT04-03-2022NNN  Migration upload              Migration upload                                  
TBI03002071524001  NPR030                  8000CA04-03-2022     04-03-2022NNN  Migration upload              Migration upload                                  
TBI0300000067430002NPR030                  8000DA04-03-2022DISBT04-03-2022NNN  Migration upload              Migration upload                                  
TBI03002071524001  NPR030                  8000CA04-03-2022     04-03-2022NNN  Migration upload              Migration upload                                  
TBI0300000067440002NPR030                  8000DA04-03-2022DISBT04-03-2022NNN  Migration upload              Migration upload                                  
TBI03002071524001  NPR030                  8000CA04-03-2022     04-03-2022NNN  Migration upload              Migration upload                                  
TBI0300000067450002NPR030                  8000DA04-03-2022DISBT04-03-2022NNN  Migration upload              Migration upload                                  
TBI03002071524001  NPR030                  8000CA04-03-2022     04-03-2022NNN  Migration upload              Migration upload                                  
TBI0300000067460002NPR030                  8000DA04-03-2022DISBT04-03-2022NNN  Migration upload              Migration upload                                  
TBI03002071524001  NPR030                  8000CA04-03-2022     04-03-2022NNN  Migration upload              Migration upload                                  
TBI0300000067470002NPR030                  8000DA04-03-2022DISBT04-03-2022NNN  Migration upload              Migration upload                                  
TBI03002071524001  NPR030                  8000CA04-03-2022     04-03-2022NNN  Migration upload              Migration upload                                  
TBI0300000067480002NPR030                  8000DA04-03-2022DISBT04-03-2022NNN  Migration upload              Migration upload                                  
TBI03002071524001  NPR030                  8000CA04-03-2022     04-03-2022NNN  Migration upload              Migration upload                                  
TBI0300000067490002NPR030                  8000DA04-03-2022DISBT04-03-2022NNN  Migration upload              Migration upload                                  
TBI03002071524001  NPR030                  8000CA04-03-2022     04-03-2022NNN  Migration upload              Migration upload                                  
TBI0300000067500002NPR030                  8000DA04-03-2022DISBT04-03-2022NNN  Migration upload              Migration upload                                  
TBI03002071524001  NPR030                  8000CA04-03-2022     04-03-2022NNN  Migration upload              Migration upload                                  
TBI0300000067510002NPR030                  8000DA04-03-2022DISBT04-03-2022NNN  Migration upload              Migration upload                                  
TBI03002071524001  NPR030                  8000CA04-03-2022     04-03-2022NNN  Migration upload              Migration upload                                  
TBI0300000067520002NPR030                  8000DA04-03-2022DISBT04-03-2022NNN  Migration upload              Migration upload                                  
TBI03002071524001  NPR030                  8000CA04-03-2022     04-03-2022NNN  Migration upload              Migration upload                                  
TBI0300000067530002NPR030                  8000DA04-03-2022DISBT04-03-2022NNN  Migration upload              Migration upload                                  
TBI03002071524001  NPR030                 10000CA04-03-2022     04-03-2022NNN  Migration upload              Migration upload                                  
TBI0300000067540002NPR030                 10000DA04-03-2022DISBT04-03-2022NNN  Migration upload              Migration upload                                  
TBI03002071524001  NPR030                  8000CA04-03-2022     04-03-2022NNN  Migration upload              Migration upload                                  
TBI0300000067550002NPR030                  8000DA04-03-2022DISBT04-03-2022NNN  Migration upload              Migration upload                                  
TBI03002071524001  NPR030                  8000CA04-03-2022     04-03-2022NNN  Migration upload              Migration upload                                  
TBI0300000067560002NPR030                  8000DA04-03-2022DISBT04-03-2022NNN  Migration upload              Migration upload                                  
TBI03002071524001  NPR030                  8000CA04-03-2022     04-03-2022NNN  Migration upload              Migration upload                                  
TBI0300000067570002NPR030                  8000DA04-03-2022DISBT04-03-2022NNN  Migration upload              Migration upload                                  
TBI03002071524001  NPR030                  8000CA04-03-2022     04-03-2022NNN  Migration upload              Migration upload                                  
TBI0300000067580002NPR030                  8000DA04-03-2022DISBT04-03-2022NNN  Migration upload              Migration upload                                  
TBI03002071524001  NPR030                  8000CA04-03-2022     04-03-2022NNN  Migration upload              Migration upload                                  
TBI0300000067590002NPR030                  8000DA04-03-2022DISBT04-03-2022NNN  Migration upload              Migration upload                                  
TBI03002071524001  NPR030                  8000CA04-03-2022     04-03-2022NNN  Migration upload              Migration upload                                  
TBI0300000067600002NPR030                  8000DA04-03-2022DISBT04-03-2022NNN  Migration upload              Migration upload                                  
TBI03002071524001  NPR030                  8000CA04-03-2022     04-03-2022NNN  Migration upload              Migration upload                                  
TBI0300000067610002NPR030                  8000DA04-03-2022DISBT04-03-2022NNN  Migration upload              Migration upload                                  
TBI03002071524001  NPR030                  8000CA04-03-2022     04-03-2022NNN  Migration upload              Migration upload                                  
TBI0300000067620002NPR030                  8000DA04-03-2022DISBT04-03-2022NNN  Migration upload              Migration upload                                  
TBI03002071524001  NPR030                  8000CA04-03-2022     04-03-2022NNN  Migration upload              Migration upload                                  
TBI0300000067630002NPR030                  8000DA04-03-2022DISBT04-03-2022NNN  Migration upload              Migration upload                                  
TBI03002071524001  NPR030                 10000CA04-03-2022     04-03-2022NNN  Migration upload              Migration upload                                  
TBI0300000067640002NPR030                 10000DA04-03-2022DISBT04-03-2022NNN  Migration upload              Migration upload                                  
TBI03002071524001  NPR030                 10000CA04-03-2022     04-03-2022NNN  Migration upload              Migration upload                                  
TBI0300000067640003NPR030                 10000DA04-03-2022DISBT04-03-2022NNN  Migration upload              Migration upload                                  
TBI03002071524001  NPR030                  8000CA04-03-2022     04-03-2022NNN  Migration upload              Migration upload                                  
TBI0300000067650002NPR030                  8000DA04-03-2022DISBT04-03-2022NNN  Migration upload              Migration upload                                  
TBI03002071524001  NPR030                  8000CA04-03-2022     04-03-2022NNN  Migration upload              Migration upload                                  
TBI0300000067660002NPR030                  8000DA04-03-2022DISBT04-03-2022NNN  Migration upload              Migration upload                                  
TBI03002071524001  NPR030                  8000CA04-03-2022     04-03-2022NNN  Migration upload              Migration upload                                  
TBI0300000067670002NPR030                  8000DA04-03-2022DISBT04-03-2022NNN  Migration upload              Migration upload                                  
TBI03002071524001  NPR030                  8000CA04-03-2022     04-03-2022NNN  Migration upload              Migration upload                                  
TBI0300000067680002NPR030                  8000DA04-03-2022DISBT04-03-2022NNN  Migration upload              Migration upload                                  
TBI03002071524001  NPR030                  8000CA04-03-2022     04-03-2022NNN  Migration upload              Migration upload                                  
TBI0300000067690002NPR030                  8000DA04-03-2022DISBT04-03-2022NNN  Migration upload              Migration upload                                  
TBI03002071524001  NPR030                  8000CA04-03-2022     04-03-2022NNN  Migration upload              Migration upload                                  
TBI0300000067700002NPR030                  8000DA04-03-2022DISBT04-03-2022NNN  Migration upload              Migration upload                                  
TBI03002071524001  NPR030                  8000CA04-03-2022     04-03-2022NNN  Migration upload              Migration upload                                  
TBI0300000067710002NPR030                  8000DA04-03-2022DISBT04-03-2022NNN  Migration upload              Migration upload                                  
TBI03002071524001  NPR030                  5000CA04-03-2022     04-03-2022NNN  Migration upload              Migration upload                                  
TBI0300000067720002NPR030                  5000DA04-03-2022DISBT04-03-2022NNN  Migration upload              Migration upload                                  
TBI03002071524001  NPR030                  8000CA04-03-2022     04-03-2022NNN  Migration upload              Migration upload                                  
TBI0300000067730002NPR030                  8000DA04-03-2022DISBT04-03-2022NNN  Migration upload              Migration upload                                  
TBI03002071524001  NPR030                  8000CA04-03-2022     04-03-2022NNN  Migration upload              Migration upload                                  
TBI0300000067740002NPR030                  8000DA04-03-2022DISBT04-03-2022NNN  Migration upload              Migration upload                                  
TBI03002071524001  NPR030                  8000CA04-03-2022     04-03-2022NNN  Migration upload              Migration upload                                  
TBI0300000067750002NPR030                  8000DA04-03-2022DISBT04-03-2022NNN  Migration upload              Migration upload                                  
TBI03002071524001  NPR030                  8000CA04-03-2022     04-03-2022NNN  Migration upload              Migration upload                                  
TBI0300000067760002NPR030                  8000DA04-03-2022DISBT04-03-2022NNN  Migration upload              Migration upload                                  
TBI03002071524001  NPR030                  8000CA04-03-2022     04-03-2022NNN  Migration upload              Migration upload                                  
TBI0300000067770002NPR030                  8000DA04-03-2022DISBT04-03-2022NNN  Migration upload              Migration upload                                  
TBI03002071524001  NPR030                 10000CA04-03-2022     04-03-2022NNN  Migration upload              Migration upload                                  
TBI0300000067790002NPR030                 10000DA04-03-2022DISBT04-03-2022NNN  Migration upload              Migration upload                                  
TBI03002071524001  NPR030                  8000CA04-03-2022     04-03-2022NNN  Migration upload              Migration upload                                  
TBI0300000067800002NPR030                  8000DA04-03-2022DISBT04-03-2022NNN  Migration upload              Migration upload                                  
TBI03002071524001  NPR030                  8000CA04-03-2022     04-03-2022NNN  Migration upload              Migration upload                                  
TBI0300000067810002NPR030                  8000DA04-03-2022DISBT04-03-2022NNN  Migration upload              Migration upload                                  
TBI03002071524001  NPR030                  8000CA04-03-2022     04-03-2022NNN  Migration upload              Migration upload                                  
TBI0300000067820002NPR030                  8000DA04-03-2022DISBT04-03-2022NNN  Migration upload              Migration upload                                  
TBI03002071524001  NPR030                  8000CA04-03-2022     04-03-2022NNN  Migration upload              Migration upload                                  
TBI0300000067830002NPR030                  8000DA04-03-2022DISBT04-03-2022NNN  Migration upload              Migration upload                                  
TBI03002071524001  NPR030                  8000CA04-03-2022     04-03-2022NNN  Migration upload              Migration upload                                  
TBI0300000067840002NPR030                  8000DA04-03-2022DISBT04-03-2022NNN  Migration upload              Migration upload                                  
TBI03002071524001  NPR030                  8000CA04-03-2022     04-03-2022NNN  Migration upload              Migration upload                                  
TBI0300000067850002NPR030                  8000DA04-03-2022DISBT04-03-2022NNN  Migration upload              Migration upload                                  
TBI03002071524001  NPR030                  8000CA04-03-2022     04-03-2022NNN  Migration upload              Migration upload                                  
TBI0300000067860002NPR030                  8000DA04-03-2022DISBT04-03-2022NNN  Migration upload              Migration upload                                  
TBI03002071524001  NPR030                  8000CA04-03-2022     04-03-2022NNN  Migration upload              Migration upload                                  
TBI0300000067870002NPR030                  8000DA04-03-2022DISBT04-03-2022NNN  Migration upload              Migration upload                                  
TBI03002071524001  NPR030                  8000CA04-03-2022     04-03-2022NNN  Migration upload              Migration upload                                  
TBI0300000067880002NPR030                  8000DA04-03-2022DISBT04-03-2022NNN  Migration upload              Migration upload                                  
TBI03002071524001  NPR030                  8000CA04-03-2022     04-03-2022NNN  Migration upload              Migration upload                                  
TBI0300000067890002NPR030                  8000DA04-03-2022DISBT04-03-2022NNN  Migration upload              Migration upload                                  
TBI03002071524001  NPR030                  8000CA04-03-2022     04-03-2022NNN  Migration upload              Migration upload                                  
TBI0300000067900002NPR030                  8000DA04-03-2022DISBT04-03-2022NNN  Migration upload              Migration upload                                  
TBI03002071524001  NPR030                  8000CA04-03-2022     04-03-2022NNN  Migration upload              Migration upload                                  
TBI0300000067910002NPR030                  8000DA04-03-2022DISBT04-03-2022NNN  Migration upload              Migration upload                                  
TBI03002071524001  NPR030                  8000CA04-03-2022     04-03-2022NNN  Migration upload              Migration upload                                  
TBI0300000067920002NPR030                  8000DA04-03-2022DISBT04-03-2022NNN  Migration upload              Migration upload                                  
TBI03002071524001  NPR030                 13000CA04-03-2022     04-03-2022NNN  Migration upload              Migration upload                                  
TBI0300000067930002NPR030                 13000DA04-03-2022DISBT04-03-2022NNN  Migration upload              Migration upload                                  
TBI03002071524001  NPR030                  8000CA04-03-2022     04-03-2022NNN  Migration upload              Migration upload                                  
TBI0300000067940002NPR030                  8000DA04-03-2022DISBT04-03-2022NNN  Migration upload              Migration upload                                  
TBI03002071524001  NPR030                  8000CA04-03-2022     04-03-2022NNN  Migration upload              Migration upload                                  
TBI0300000067950002NPR030                  8000DA04-03-2022DISBT04-03-2022NNN  Migration upload              Migration upload                                  
TBI03002071524001  NPR030                  8000CA04-03-2022     04-03-2022NNN  Migration upload              Migration upload                                  
TBI0300000067960002NPR030                  8000DA04-03-2022DISBT04-03-2022NNN  Migration upload              Migration upload                                  
TBI03002071524001  NPR030                  8000CA04-03-2022     04-03-2022NNN  Migration upload              Migration upload                                  
TBI0300000067970002NPR030                  8000DA04-03-2022DISBT04-03-2022NNN  Migration upload              Migration upload                                  
TBI03002071524001  NPR030                  8000CA04-03-2022     04-03-2022NNN  Migration upload              Migration upload                                  
TBI0300000067980002NPR030                  8000DA04-03-2022DISBT04-03-2022NNN  Migration upload              Migration upload                                  
TBI03002071524001  NPR030                  8000CA04-03-2022     04-03-2022NNN  Migration upload              Migration upload                                  
TBI0300000067990002NPR030                  8000DA04-03-2022DISBT04-03-2022NNN  Migration upload              Migration upload                                  
TBI03002071524001  NPR030                  8000CA04-03-2022     04-03-2022NNN  Migration upload              Migration upload                                  
TBI0300000068000002NPR030                  8000DA04-03-2022DISBT04-03-2022NNN  Migration upload              Migration upload                                  
TBI03002071524001  NPR030                 13000CA04-03-2022     04-03-2022NNN  Migration upload              Migration upload                                  
TBI0300000068010002NPR030                 13000DA04-03-2022DISBT04-03-2022NNN  Migration upload              Migration upload                                  
TBI03002071524001  NPR030                  8000CA04-03-2022     04-03-2022NNN  Migration upload              Migration upload                                  
TBI0300000068020002NPR030                  8000DA04-03-2022DISBT04-03-2022NNN  Migration upload              Migration upload                                  
TBI03002071524001  NPR030                  8000CA04-03-2022     04-03-2022NNN  Migration upload              Migration upload                                  
TBI0300000068030002NPR030                  8000DA04-03-2022DISBT04-03-2022NNN  Migration upload              Migration upload                                  
TBI03002071524001  NPR030                  8000CA04-03-2022     04-03-2022NNN  Migration upload              Migration upload                                  
TBI0300000068040002NPR030                  8000DA04-03-2022DISBT04-03-2022NNN  Migration upload              Migration upload                                  
TBI03002071524001  NPR030                  8000CA04-03-2022     04-03-2022NNN  Migration upload              Migration upload                                  
TBI0300000068050002NPR030                  8000DA04-03-2022DISBT04-03-2022NNN  Migration upload              Migration upload                                  
TBI03002071524001  NPR030                  8000CA04-03-2022     04-03-2022NNN  Migration upload              Migration upload                                  
TBI0300000068060002NPR030                  8000DA04-03-2022DISBT04-03-2022NNN  Migration upload              Migration upload                                  
TBI03002071524001  NPR030                  8000CA04-03-2022     04-03-2022NNN  Migration upload              Migration upload                                  
TBI0300000068070002NPR030                  8000DA04-03-2022DISBT04-03-2022NNN  Migration upload              Migration upload                                  
TBI03002071524001  NPR030                  8000CA04-03-2022     04-03-2022NNN  Migration upload              Migration upload                                  
TBI0300000068080002NPR030                  8000DA04-03-2022DISBT04-03-2022NNN  Migration upload              Migration upload                                  
TBI03002071524001  NPR030                  8000CA04-03-2022     04-03-2022NNN  Migration upload              Migration upload                                  
TBI0300000068090002NPR030                  8000DA04-03-2022DISBT04-03-2022NNN  Migration upload              Migration upload                                  
TBI03002071524001  NPR030                 10000CA04-03-2022     04-03-2022NNN  Migration upload              Migration upload                                  
TBI0300000068100002NPR030                 10000DA04-03-2022DISBT04-03-2022NNN  Migration upload              Migration upload                                  
TBI03002071524001  NPR030                  8000CA04-03-2022     04-03-2022NNN  Migration upload              Migration upload                                  
TBI0300000068110002NPR030                  8000DA04-03-2022DISBT04-03-2022NNN  Migration upload              Migration upload                                  
TBI03002071524001  NPR030                  8000CA04-03-2022     04-03-2022NNN  Migration upload              Migration upload                                  
TBI0300000068120002NPR030                  8000DA04-03-2022DISBT04-03-2022NNN  Migration upload              Migration upload                                  
TBI03002071524001  NPR030                  8000CA04-03-2022     04-03-2022NNN  Migration upload              Migration upload                                  
TBI0300000068130002NPR030                  8000DA04-03-2022DISBT04-03-2022NNN  Migration upload              Migration upload                                  
TBI03002071524001  NPR030                  8000CA04-03-2022     04-03-2022NNN  Migration upload              Migration upload                                  
TBI0300000068140002NPR030                  8000DA04-03-2022DISBT04-03-2022NNN  Migration upload              Migration upload                                  
TBI03002071524001  NPR030                  8000CA04-03-2022     04-03-2022NNN  Migration upload              Migration upload                                  
TBI0300000068150002NPR030                  8000DA04-03-2022DISBT04-03-2022NNN  Migration upload              Migration upload                                  
TBI03002071524001  NPR030                  8000CA04-03-2022     04-03-2022NNN  Migration upload              Migration upload                                  
TBI0300000068160002NPR030                  8000DA04-03-2022DISBT04-03-2022NNN  Migration upload              Migration upload                                  
TBI03002071524001  NPR030                  8000CA04-03-2022     04-03-2022NNN  Migration upload              Migration upload                                  
TBI0300000068170002NPR030                  8000DA04-03-2022DISBT04-03-2022NNN  Migration upload              Migration upload                                  
TBI03002071524001  NPR030                  8000CA04-03-2022     04-03-2022NNN  Migration upload              Migration upload                                  
TBI0300000068180002NPR030                  8000DA04-03-2022DISBT04-03-2022NNN  Migration upload              Migration upload                                  
TBI03002071524001  NPR030                  8000CA04-03-2022     04-03-2022NNN  Migration upload              Migration upload                                  
TBI0300000068200002NPR030                  8000DA04-03-2022DISBT04-03-2022NNN  Migration upload              Migration upload                                  
TBI03002071524001  NPR030                  8000CA04-03-2022     04-03-2022NNN  Migration upload              Migration upload                                  
TBI0300000068210002NPR030                  8000DA04-03-2022DISBT04-03-2022NNN  Migration upload              Migration upload                                  
TBI03002071524001  NPR030                  8000CA04-03-2022     04-03-2022NNN  Migration upload              Migration upload                                  
TBI0300000068220002NPR030                  8000DA04-03-2022DISBT04-03-2022NNN  Migration upload              Migration upload                                  
TBI03002071524001  NPR030                  8000CA04-03-2022     04-03-2022NNN  Migration upload              Migration upload                                  
TBI0300000068230002NPR030                  8000DA04-03-2022DISBT04-03-2022NNN  Migration upload              Migration upload                                  
TBI03002071524001  NPR030                  8000CA04-03-2022     04-03-2022NNN  Migration upload              Migration upload                                  
TBI0300000068240002NPR030                  8000DA04-03-2022DISBT04-03-2022NNN  Migration upload              Migration upload                                  
TBI03002071524001  NPR030                  9000CA04-03-2022     04-03-2022NNN  Migration upload              Migration upload                                  
TBI0300000068250002NPR030                  9000DA04-03-2022DISBT04-03-2022NNN  Migration upload              Migration upload                                  
TBI03002071524001  NPR030                  8000CA04-03-2022     04-03-2022NNN  Migration upload              Migration upload                                  
TBI0300000068260002NPR030                  8000DA04-03-2022DISBT04-03-2022NNN  Migration upload              Migration upload                                  
TBI03002071524001  NPR030                  8000CA04-03-2022     04-03-2022NNN  Migration upload              Migration upload                                  
TBI0300000068270002NPR030                  8000DA04-03-2022DISBT04-03-2022NNN  Migration upload              Migration upload                                  
TBI03002071524001  NPR030                  8000CA04-03-2022     04-03-2022NNN  Migration upload              Migration upload                                  
TBI0300000068280002NPR030                  8000DA04-03-2022DISBT04-03-2022NNN  Migration upload              Migration upload                                  
TBI03002071524001  NPR030                  8000CA04-03-2022     04-03-2022NNN  Migration upload              Migration upload                                  
TBI0300000068290002NPR030                  8000DA04-03-2022DISBT04-03-2022NNN  Migration upload              Migration upload                                  
TBI03002071524001  NPR030                  8000CA04-03-2022     04-03-2022NNN  Migration upload              Migration upload                                  
TBI0300000068300002NPR030                  8000DA04-03-2022DISBT04-03-2022NNN  Migration upload              Migration upload                                  
TBI03002071524001  NPR030                  8000CA04-03-2022     04-03-2022NNN  Migration upload              Migration upload                                  
TBI0300000068310002NPR030                  8000DA04-03-2022DISBT04-03-2022NNN  Migration upload              Migration upload                                  
TBI03002071524001  NPR030                  8000CA04-03-2022     04-03-2022NNN  Migration upload              Migration upload                                  
TBI0300000068320002NPR030                  8000DA04-03-2022DISBT04-03-2022NNN  Migration upload              Migration upload                                  
TBI03002071524001  NPR030                  8000CA04-03-2022     04-03-2022NNN  Migration upload              Migration upload                                  
TBI0300000068330002NPR030                  8000DA04-03-2022DISBT04-03-2022NNN  Migration upload              Migration upload                                  
TBI03002071524001  NPR030                  8000CA04-03-2022     04-03-2022NNN  Migration upload              Migration upload                                  
TBI0300000068340002NPR030                  8000DA04-03-2022DISBT04-03-2022NNN  Migration upload              Migration upload                                  
TBI03002071524001  NPR030                  8000CA04-03-2022     04-03-2022NNN  Migration upload              Migration upload                                  
TBI0300000068350002NPR030                  8000DA04-03-2022DISBT04-03-2022NNN  Migration upload              Migration upload                                  
TBI03002071524001  NPR030                  8000CA04-03-2022     04-03-2022NNN  Migration upload              Migration upload                                  
TBI0300000068360002NPR030                  8000DA04-03-2022DISBT04-03-2022NNN  Migration upload              Migration upload                                  
TBI03002071524001  NPR030                  8000CA04-03-2022     04-03-2022NNN  Migration upload              Migration upload                                  
TBI0300000068370002NPR030                  8000DA04-03-2022DISBT04-03-2022NNN  Migration upload              Migration upload                                  
TBI03002071524001  NPR030                  8000CA04-03-2022     04-03-2022NNN  Migration upload              Migration upload                                  
TBI0300000068380002NPR030                  8000DA04-03-2022DISBT04-03-2022NNN  Migration upload              Migration upload                                  
TBI03002071524001  NPR030                  8000CA04-03-2022     04-03-2022NNN  Migration upload              Migration upload                                  
TBI0300000068390002NPR030                  8000DA04-03-2022DISBT04-03-2022NNN  Migration upload              Migration upload                                  
TBI03002071524001  NPR030                  7000CA04-03-2022     04-03-2022NNN  Migration upload              Migration upload                                  
TBI0300000068400002NPR030                  7000DA04-03-2022DISBT04-03-2022NNN  Migration upload              Migration upload                                  
TBI03002071524001  NPR030                  8000CA04-03-2022     04-03-2022NNN  Migration upload              Migration upload                                  
TBI0300000068410002NPR030                  8000DA04-03-2022DISBT04-03-2022NNN  Migration upload              Migration upload                                  
TBI03002071524001  NPR030                  8000CA04-03-2022     04-03-2022NNN  Migration upload              Migration upload                                  
TBI0300000068420002NPR030                  8000DA04-03-2022DISBT04-03-2022NNN  Migration upload              Migration upload                                  
TBI03002071524001  NPR030                  8000CA04-03-2022     04-03-2022NNN  Migration upload              Migration upload                                  
TBI0300000068430002NPR030                  8000DA04-03-2022DISBT04-03-2022NNN  Migration upload              Migration upload                                  
TBI03002071524001  NPR030                  8000CA04-03-2022     04-03-2022NNN  Migration upload              Migration upload                                  
TBI0300000068440002NPR030                  8000DA04-03-2022DISBT04-03-2022NNN  Migration upload              Migration upload                                  
TBI03002071524001  NPR030                  8000CA04-03-2022     04-03-2022NNN  Migration upload              Migration upload                                  
TBI0300000068450002NPR030                  8000DA04-03-2022DISBT04-03-2022NNN  Migration upload              Migration upload                                  
TBI03002071524001  NPR030                  8000CA04-03-2022     04-03-2022NNN  Migration upload              Migration upload                                  
TBI0300000068460002NPR030                  8000DA04-03-2022DISBT04-03-2022NNN  Migration upload              Migration upload                                  
TBI03002071524001  NPR030                  8000CA04-03-2022     04-03-2022NNN  Migration upload              Migration upload                                  
TBI0300000068470002NPR030                  8000DA04-03-2022DISBT04-03-2022NNN  Migration upload              Migration upload                                  
TBI03002071524001  NPR030                  8000CA04-03-2022     04-03-2022NNN  Migration upload              Migration upload                                  
TBI0300000068480002NPR030                  8000DA04-03-2022DISBT04-03-2022NNN  Migration upload              Migration upload                                  
TBI03002071524001  NPR030                  8000CA04-03-2022     04-03-2022NNN  Migration upload              Migration upload                                  
TBI0300000068490002NPR030                  8000DA04-03-2022DISBT04-03-2022NNN  Migration upload              Migration upload                                  
TBI03002071524001  NPR030                  8000CA04-03-2022     04-03-2022NNN  Migration upload              Migration upload                                  
TBI0300000068500002NPR030                  8000DA04-03-2022DISBT04-03-2022NNN  Migration upload              Migration upload                                  
TBI03002071524001  NPR030                  8000CA04-03-2022     04-03-2022NNN  Migration upload              Migration upload                                  
TBI0300000068510002NPR030                  8000DA04-03-2022DISBT04-03-2022NNN  Migration upload              Migration upload                                  
TBI03002071524001  NPR030                  8000CA04-03-2022     04-03-2022NNN  Migration upload              Migration upload                                  
TBI0300000068520002NPR030                  8000DA04-03-2022DISBT04-03-2022NNN  Migration upload              Migration upload                                  
TBI03002071524001  NPR030                  8000CA04-03-2022     04-03-2022NNN  Migration upload              Migration upload                                  
TBI0300000068530002NPR030                  8000DA04-03-2022DISBT04-03-2022NNN  Migration upload              Migration upload                                  
TBI03002071524001  NPR030                  8000CA04-03-2022     04-03-2022NNN  Migration upload              Migration upload                                  
TBI0300000068540002NPR030                  8000DA04-03-2022DISBT04-03-2022NNN  Migration upload              Migration upload                                  
TBI03002071524001  NPR030                  8000CA04-03-2022     04-03-2022NNN  Migration upload              Migration upload                                  
TBI0300000068550002NPR030                  8000DA04-03-2022DISBT04-03-2022NNN  Migration upload              Migration upload                                  
TBI03002071524001  NPR030                  8000CA04-03-2022     04-03-2022NNN  Migration upload              Migration upload                                  
TBI0300000068560002NPR030                  8000DA04-03-2022DISBT04-03-2022NNN  Migration upload              Migration upload                                  
TBI03002071524001  NPR030                 10000CA04-03-2022     04-03-2022NNN  Migration upload              Migration upload                                  
TBI0300000068570002NPR030                 10000DA04-03-2022DISBT04-03-2022NNN  Migration upload              Migration upload                                  
TBI03002071524001  NPR030                  8000CA04-03-2022     04-03-2022NNN  Migration upload              Migration upload                                  
TBI0300000068590002NPR030                  8000DA04-03-2022DISBT04-03-2022NNN  Migration upload              Migration upload                                  
TBI03002071524001  NPR030                  8000CA04-03-2022     04-03-2022NNN  Migration upload              Migration upload                                  
TBI0300000068600002NPR030                  8000DA04-03-2022DISBT04-03-2022NNN  Migration upload              Migration upload                                  
TBI03002071524001  NPR030                  8000CA04-03-2022     04-03-2022NNN  Migration upload              Migration upload                                  
TBI0300000068610002NPR030                  8000DA04-03-2022DISBT04-03-2022NNN  Migration upload              Migration upload                                  
TBI03002071524001  NPR030                  8000CA04-03-2022     04-03-2022NNN  Migration upload              Migration upload                                  
TBI0300000068620002NPR030                  8000DA04-03-2022DISBT04-03-2022NNN  Migration upload              Migration upload                                  
TBI03002071524001  NPR030                  8000CA04-03-2022     04-03-2022NNN  Migration upload              Migration upload                                  
TBI0300000068630002NPR030                  8000DA04-03-2022DISBT04-03-2022NNN  Migration upload              Migration upload                                  
TBI03002071524001  NPR030                  8000CA04-03-2022     04-03-2022NNN  Migration upload              Migration upload                                  
TBI0300000068640002NPR030                  8000DA04-03-2022DISBT04-03-2022NNN  Migration upload              Migration upload                                  
TBI03002071524001  NPR030                  8000CA04-03-2022     04-03-2022NNN  Migration upload              Migration upload                                  
TBI0300000068650002NPR030                  8000DA04-03-2022DISBT04-03-2022NNN  Migration upload              Migration upload                                  
TBI03002071524001  NPR030                  8000CA04-03-2022     04-03-2022NNN  Migration upload              Migration upload                                  
TBI0300000068660002NPR030                  8000DA04-03-2022DISBT04-03-2022NNN  Migration upload              Migration upload                                  
TBI03002071524001  NPR030                  8000CA04-03-2022     04-03-2022NNN  Migration upload              Migration upload                                  
TBI0300000068670002NPR030                  8000DA04-03-2022DISBT04-03-2022NNN  Migration upload              Migration upload                                  
TBI03002071524001  NPR030                  8000CA04-03-2022     04-03-2022NNN  Migration upload              Migration upload                                  
TBI0300000068680002NPR030                  8000DA04-03-2022DISBT04-03-2022NNN  Migration upload              Migration upload                                  
TBI03002071524001  NPR030                  8000CA04-03-2022     04-03-2022NNN  Migration upload              Migration upload                                  
TBI0300000068690002NPR030                  8000DA04-03-2022DISBT04-03-2022NNN  Migration upload              Migration upload                                  
TBI03002071524001  NPR030                  8000CA04-03-2022     04-03-2022NNN  Migration upload              Migration upload                                  
TBI0300000068700002NPR030                  8000DA04-03-2022DISBT04-03-2022NNN  Migration upload              Migration upload                                  
TBI03002071524001  NPR030                  8000CA04-03-2022     04-03-2022NNN  Migration upload              Migration upload                                  
TBI0300000068710002NPR030                  8000DA04-03-2022DISBT04-03-2022NNN  Migration upload              Migration upload                                  
TBI03002071524001  NPR030                  8000CA04-03-2022     04-03-2022NNN  Migration upload              Migration upload                                  
TBI0300000068720002NPR030                  8000DA04-03-2022DISBT04-03-2022NNN  Migration upload              Migration upload                                  
TBI03002071524001  NPR030                  8000CA04-03-2022     04-03-2022NNN  Migration upload              Migration upload                                  
TBI0300000068730002NPR030                  8000DA04-03-2022DISBT04-03-2022NNN  Migration upload              Migration upload                                  
TBI03002071524001  NPR030                  8000CA04-03-2022     04-03-2022NNN  Migration upload              Migration upload                                  
TBI0300000068740002NPR030                  8000DA04-03-2022DISBT04-03-2022NNN  Migration upload              Migration upload                                  
TBI03002071524001  NPR030                  8000CA04-03-2022     04-03-2022NNN  Migration upload              Migration upload                                  
TBI0300000068750002NPR030                  8000DA04-03-2022DISBT04-03-2022NNN  Migration upload              Migration upload                                  
TBI03002071524001  NPR030                  8000CA04-03-2022     04-03-2022NNN  Migration upload              Migration upload                                  
TBI0300000068770002NPR030                  8000DA04-03-2022DISBT04-03-2022NNN  Migration upload              Migration upload                                  
TBI03002071524001  NPR030                  8000CA04-03-2022     04-03-2022NNN  Migration upload              Migration upload                                  
TBI0300000068780002NPR030                  8000DA04-03-2022DISBT04-03-2022NNN  Migration upload              Migration upload                                  
TBI03002071524001  NPR030                  8000CA04-03-2022     04-03-2022NNN  Migration upload              Migration upload                                  
TBI0300000068790002NPR030                  8000DA04-03-2022DISBT04-03-2022NNN  Migration upload              Migration upload                                  
TBI03002071524001  NPR030                  8000CA04-03-2022     04-03-2022NNN  Migration upload              Migration upload                                  
TBI0300000068800002NPR030                  8000DA04-03-2022DISBT04-03-2022NNN  Migration upload              Migration upload                                  
TBI03002071524001  NPR030                  8000CA04-03-2022     04-03-2022NNN  Migration upload              Migration upload                                  
TBI0300000068810002NPR030                  8000DA04-03-2022DISBT04-03-2022NNN  Migration upload              Migration upload                                  
TBI03002071524001  NPR030                  8000CA04-03-2022     04-03-2022NNN  Migration upload              Migration upload                                  
TBI0300000068820002NPR030                  8000DA04-03-2022DISBT04-03-2022NNN  Migration upload              Migration upload                                  
TBI03002071524001  NPR030                  8000CA04-03-2022     04-03-2022NNN  Migration upload              Migration upload                                  
TBI0300000068830002NPR030                  8000DA04-03-2022DISBT04-03-2022NNN  Migration upload              Migration upload                                  
TBI03002071524001  NPR030                 11000CA04-03-2022     04-03-2022NNN  Migration upload              Migration upload                                  
TBI0300000068840002NPR030                 11000DA04-03-2022DISBT04-03-2022NNN  Migration upload              Migration upload                                  
TBI03002071524001  NPR030                  8000CA04-03-2022     04-03-2022NNN  Migration upload              Migration upload                                  
TBI0300000068850002NPR030                  8000DA04-03-2022DISBT04-03-2022NNN  Migration upload              Migration upload                                  
TBI03002071524001  NPR030                  8000CA04-03-2022     04-03-2022NNN  Migration upload              Migration upload                                  
TBI0300000068860002NPR030                  8000DA04-03-2022DISBT04-03-2022NNN  Migration upload              Migration upload                                  
TBI03002071524001  NPR030                  8000CA04-03-2022     04-03-2022NNN  Migration upload              Migration upload                                  
TBI0300000068870002NPR030                  8000DA04-03-2022DISBT04-03-2022NNN  Migration upload              Migration upload                                  
TBI03002071524001  NPR030                  8000CA04-03-2022     04-03-2022NNN  Migration upload              Migration upload                                  
TBI0300000068880002NPR030                  8000DA04-03-2022DISBT04-03-2022NNN  Migration upload              Migration upload                                  
TBI03002071524001  NPR030                 11000CA04-03-2022     04-03-2022NNN  Migration upload              Migration upload                                  
TBI0300000068890002NPR030                 11000DA04-03-2022DISBT04-03-2022NNN  Migration upload              Migration upload                                  
TBI03002071524001  NPR030                  8000CA04-03-2022     04-03-2022NNN  Migration upload              Migration upload                                  
TBI0300000068900002NPR030                  8000DA04-03-2022DISBT04-03-2022NNN  Migration upload              Migration upload                                  
TBI03002071524001  NPR030                  8000CA04-03-2022     04-03-2022NNN  Migration upload              Migration upload                                  
TBI0300000068910002NPR030                  8000DA04-03-2022DISBT04-03-2022NNN  Migration upload              Migration upload                                  
TBI03002071524001  NPR030                  8000CA04-03-2022     04-03-2022NNN  Migration upload              Migration upload                                  
TBI0300000068920002NPR030                  8000DA04-03-2022DISBT04-03-2022NNN  Migration upload              Migration upload                                  
TBI03002071524001  NPR030                  8000CA04-03-2022     04-03-2022NNN  Migration upload              Migration upload                                  
TBI0300000068930002NPR030                  8000DA04-03-2022DISBT04-03-2022NNN  Migration upload              Migration upload                                  
TBI03002071524001  NPR030                  8000CA04-03-2022     04-03-2022NNN  Migration upload              Migration upload                                  
TBI0300000068940002NPR030                  8000DA04-03-2022DISBT04-03-2022NNN  Migration upload              Migration upload                                  
TBI03002071524001  NPR030                  8000CA04-03-2022     04-03-2022NNN  Migration upload              Migration upload                                  
TBI0300000068950002NPR030                  8000DA04-03-2022DISBT04-03-2022NNN  Migration upload              Migration upload                                  
TBI03002071524001  NPR030                  8000CA04-03-2022     04-03-2022NNN  Migration upload              Migration upload                                  
TBI0300000068960002NPR030                  8000DA04-03-2022DISBT04-03-2022NNN  Migration upload              Migration upload                                  
TBI03002071524001  NPR030                  8000CA04-03-2022     04-03-2022NNN  Migration upload              Migration upload                                  
TBI0300000068970002NPR030                  8000DA04-03-2022DISBT04-03-2022NNN  Migration upload              Migration upload                                  
TBI03002071524001  NPR030                  8000CA04-03-2022     04-03-2022NNN  Migration upload              Migration upload                                  
TBI0300000068980002NPR030                  8000DA04-03-2022DISBT04-03-2022NNN  Migration upload              Migration upload                                  
TBI03002071524001  NPR030                  8000CA04-03-2022     04-03-2022NNN  Migration upload              Migration upload                                  
TBI0300000068990002NPR030                  8000DA04-03-2022DISBT04-03-2022NNN  Migration upload              Migration upload                                  
TBI03002071524001  NPR030                  8000CA04-03-2022     04-03-2022NNN  Migration upload              Migration upload                                  
TBI0300000069000002NPR030                  8000DA04-03-2022DISBT04-03-2022NNN  Migration upload              Migration upload                                  
TBI03002071524001  NPR030                  8000CA04-03-2022     04-03-2022NNN  Migration upload              Migration upload                                  
TBI0300000069010002NPR030                  8000DA04-03-2022DISBT04-03-2022NNN  Migration upload              Migration upload                                  
TBI03002071524001  NPR030                  8000CA04-03-2022     04-03-2022NNN  Migration upload              Migration upload                                  
TBI0300000069020002NPR030                  8000DA04-03-2022DISBT04-03-2022NNN  Migration upload              Migration upload                                  
TBI03002071524001  NPR030                  8000CA04-03-2022     04-03-2022NNN  Migration upload              Migration upload                                  
TBI0300000069030002NPR030                  8000DA04-03-2022DISBT04-03-2022NNN  Migration upload              Migration upload                                  
TBI03002071524001  NPR030                  8000CA04-03-2022     04-03-2022NNN  Migration upload              Migration upload                                  
TBI0300000069040002NPR030                  8000DA04-03-2022DISBT04-03-2022NNN  Migration upload              Migration upload                                  
TBI03002071524001  NPR030                  8000CA04-03-2022     04-03-2022NNN  Migration upload              Migration upload                                  
TBI0300000069050002NPR030                  8000DA04-03-2022DISBT04-03-2022NNN  Migration upload              Migration upload                                  
TBI03002071524001  NPR030                  8000CA04-03-2022     04-03-2022NNN  Migration upload              Migration upload                                  
TBI0300000069060002NPR030                  8000DA04-03-2022DISBT04-03-2022NNN  Migration upload              Migration upload                                  
TBI03002071524001  NPR030                  8000CA04-03-2022     04-03-2022NNN  Migration upload              Migration upload                                  
TBI0300000069070002NPR030                  8000DA04-03-2022DISBT04-03-2022NNN  Migration upload              Migration upload                                  
TBI03002071524001  NPR030                  8000CA04-03-2022     04-03-2022NNN  Migration upload              Migration upload                                  
TBI0300000069080002NPR030                  8000DA04-03-2022DISBT04-03-2022NNN  Migration upload              Migration upload                                  
TBI03002071524001  NPR030                  8000CA04-03-2022     04-03-2022NNN  Migration upload              Migration upload                                  
TBI0300000069090002NPR030                  8000DA04-03-2022DISBT04-03-2022NNN  Migration upload              Migration upload                                  
TBI03002071524001  NPR030                  8000CA04-03-2022     04-03-2022NNN  Migration upload              Migration upload                                  
TBI0300000069100002NPR030                  8000DA04-03-2022DISBT04-03-2022NNN  Migration upload              Migration upload                                  
TBI03002071524001  NPR030                  8000CA04-03-2022     04-03-2022NNN  Migration upload              Migration upload                                  
TBI0300000069110002NPR030                  8000DA04-03-2022DISBT04-03-2022NNN  Migration upload              Migration upload                                  
TBI03002071524001  NPR030                  8000CA04-03-2022     04-03-2022NNN  Migration upload              Migration upload                                  
TBI0300000069120002NPR030                  8000DA04-03-2022DISBT04-03-2022NNN  Migration upload              Migration upload                                  
TBI03002071524001  NPR030                  8000CA04-03-2022     04-03-2022NNN  Migration upload              Migration upload                                  
TBI0300000069130002NPR030                  8000DA04-03-2022DISBT04-03-2022NNN  Migration upload              Migration upload                                  
TBI03002071524001  NPR030                  8000CA04-03-2022     04-03-2022NNN  Migration upload              Migration upload                                  
TBI0300000069140002NPR030                  8000DA04-03-2022DISBT04-03-2022NNN  Migration upload              Migration upload                                  
TBI03002071524001  NPR030                  8000CA04-03-2022     04-03-2022NNN  Migration upload              Migration upload                                  
TBI0300000069150002NPR030                  8000DA04-03-2022DISBT04-03-2022NNN  Migration upload              Migration upload                                  
TBI03002071524001  NPR030                  8000CA04-03-2022     04-03-2022NNN  Migration upload              Migration upload                                  
TBI0300000069170002NPR030                  8000DA04-03-2022DISBT04-03-2022NNN  Migration upload              Migration upload                                  
TBI03002071524001  NPR030                  8000CA04-03-2022     04-03-2022NNN  Migration upload              Migration upload                                  
TBI0300000069180002NPR030                  8000DA04-03-2022DISBT04-03-2022NNN  Migration upload              Migration upload                                  
TBI03002071524001  NPR030                  8000CA04-03-2022     04-03-2022NNN  Migration upload              Migration upload                                  
TBI0300000069190002NPR030                  8000DA04-03-2022DISBT04-03-2022NNN  Migration upload              Migration upload                                  
TBI03002071524001  NPR030                  8000CA04-03-2022     04-03-2022NNN  Migration upload              Migration upload                                  
TBI0300000069200002NPR030                  8000DA04-03-2022DISBT04-03-2022NNN  Migration upload              Migration upload                                  
TBI03002071524001  NPR030                  8000CA04-03-2022     04-03-2022NNN  Migration upload              Migration upload                                  
TBI0300000069210002NPR030                  8000DA04-03-2022DISBT04-03-2022NNN  Migration upload              Migration upload                                  
TBI03002071524001  NPR030                  8000CA04-03-2022     04-03-2022NNN  Migration upload              Migration upload                                  
TBI0300000069220002NPR030                  8000DA04-03-2022DISBT04-03-2022NNN  Migration upload              Migration upload                                  
TBI03002071524001  NPR030                  8000CA04-03-2022     04-03-2022NNN  Migration upload              Migration upload                                  
TBI0300000069230002NPR030                  8000DA04-03-2022DISBT04-03-2022NNN  Migration upload              Migration upload                                  
TBI03002071524001  NPR030                  8000CA04-03-2022     04-03-2022NNN  Migration upload              Migration upload                                  
TBI0300000069240002NPR030                  8000DA04-03-2022DISBT04-03-2022NNN  Migration upload              Migration upload                                  
TBI03002071524001  NPR030                  8000CA04-03-2022     04-03-2022NNN  Migration upload              Migration upload                                  
TBI0300000069260002NPR030                  8000DA04-03-2022DISBT04-03-2022NNN  Migration upload              Migration upload                                  
TBI03002071524001  NPR030                  8000CA04-03-2022     04-03-2022NNN  Migration upload              Migration upload                                  
TBI0300000069270002NPR030                  8000DA04-03-2022DISBT04-03-2022NNN  Migration upload              Migration upload                                  
TBI03002071524001  NPR030                  8000CA04-03-2022     04-03-2022NNN  Migration upload              Migration upload                                  
TBI0300000069280002NPR030                  8000DA04-03-2022DISBT04-03-2022NNN  Migration upload              Migration upload                                  
TBI03002071524001  NPR030                  8000CA04-03-2022     04-03-2022NNN  Migration upload              Migration upload                                  
TBI0300000069290002NPR030                  8000DA04-03-2022DISBT04-03-2022NNN  Migration upload              Migration upload                                  
TBI03002071524001  NPR030                  8000CA04-03-2022     04-03-2022NNN  Migration upload              Migration upload                                  
TBI0300000069300002NPR030                  8000DA04-03-2022DISBT04-03-2022NNN  Migration upload              Migration upload                                  
TBI03002071524001  NPR030                  8000CA04-03-2022     04-03-2022NNN  Migration upload              Migration upload                                  
TBI0300000069310002NPR030                  8000DA04-03-2022DISBT04-03-2022NNN  Migration upload              Migration upload                                  
TBI03002071524001  NPR030                  8000CA04-03-2022     04-03-2022NNN  Migration upload              Migration upload                                  
TBI0300000069320002NPR030                  8000DA04-03-2022DISBT04-03-2022NNN  Migration upload              Migration upload                                  
TBI03002071524001  NPR030                  8000CA04-03-2022     04-03-2022NNN  Migration upload              Migration upload                                  
TBI0300000069330002NPR030                  8000DA04-03-2022DISBT04-03-2022NNN  Migration upload              Migration upload                                  
TBI03002071524001  NPR030                  8000CA04-03-2022     04-03-2022NNN  Migration upload              Migration upload                                  
TBI0300000069340002NPR030                  8000DA04-03-2022DISBT04-03-2022NNN  Migration upload              Migration upload                                  
TBI03002071524001  NPR030                  4000CA04-03-2022     04-03-2022NNN  Migration upload              Migration upload                                  
TBI0300000069350002NPR030                  4000DA04-03-2022DISBT04-03-2022NNN  Migration upload              Migration upload                                  
TBI03002071524001  NPR030                  5000CA04-03-2022     04-03-2022NNN  Migration upload              Migration upload                                  
TBI0300000069360002NPR030                  5000DA04-03-2022DISBT04-03-2022NNN  Migration upload              Migration upload                                  
TBI03002071524001  NPR030                  8000CA04-03-2022     04-03-2022NNN  Migration upload              Migration upload                                  
TBI0300000069370002NPR030                  8000DA04-03-2022DISBT04-03-2022NNN  Migration upload              Migration upload                                  
TBI03002071524001  NPR030                  8000CA04-03-2022     04-03-2022NNN  Migration upload              Migration upload                                  
TBI0300000069380002NPR030                  8000DA04-03-2022DISBT04-03-2022NNN  Migration upload              Migration upload                                  
TBI03002071524001  NPR030                  8000CA04-03-2022     04-03-2022NNN  Migration upload              Migration upload                                  
TBI0300000069390002NPR030                  8000DA04-03-2022DISBT04-03-2022NNN  Migration upload              Migration upload                                  
TBI03002071524001  NPR030                  8000CA04-03-2022     04-03-2022NNN  Migration upload              Migration upload                                  
TBI0300000069400002NPR030                  8000DA04-03-2022DISBT04-03-2022NNN  Migration upload              Migration upload                                  
TBI03002071524001  NPR030                  8000CA04-03-2022     04-03-2022NNN  Migration upload              Migration upload                                  
TBI0300000069410002NPR030                  8000DA04-03-2022DISBT04-03-2022NNN  Migration upload              Migration upload                                  
TBI03002071524001  NPR030                  8000CA04-03-2022     04-03-2022NNN  Migration upload              Migration upload                                  
TBI0300000069420002NPR030                  8000DA04-03-2022DISBT04-03-2022NNN  Migration upload              Migration upload                                  
TBI03002071524001  NPR030                  8000CA04-03-2022     04-03-2022NNN  Migration upload              Migration upload                                  
TBI0300000069440002NPR030                  8000DA04-03-2022DISBT04-03-2022NNN  Migration upload              Migration upload                                  
TBI03002071524001  NPR030                  8000CA04-03-2022     04-03-2022NNN  Migration upload              Migration upload                                  
TBI0300000069450002NPR030                  8000DA04-03-2022DISBT04-03-2022NNN  Migration upload              Migration upload                                  
TBI03002071524001  NPR030                  8000CA04-03-2022     04-03-2022NNN  Migration upload              Migration upload                                  
TBI0300000069460002NPR030                  8000DA04-03-2022DISBT04-03-2022NNN  Migration upload              Migration upload                                  
TBI03002071524001  NPR030                  8000CA04-03-2022     04-03-2022NNN  Migration upload              Migration upload                                  
TBI0300000069470002NPR030                  8000DA04-03-2022DISBT04-03-2022NNN  Migration upload              Migration upload                                  
TBI03002071524001  NPR030                  8000CA04-03-2022     04-03-2022NNN  Migration upload              Migration upload                                  
TBI0300000069490002NPR030                  8000DA04-03-2022DISBT04-03-2022NNN  Migration upload              Migration upload                                  
TBI03002071524001  NPR030                  8000CA04-03-2022     04-03-2022NNN  Migration upload              Migration upload                                  
TBI0300000069500002NPR030                  8000DA04-03-2022DISBT04-03-2022NNN  Migration upload              Migration upload                                  
TBI03002071524001  NPR030                  8000CA04-03-2022     04-03-2022NNN  Migration upload              Migration upload                                  
TBI0300000069510002NPR030                  8000DA04-03-2022DISBT04-03-2022NNN  Migration upload              Migration upload                                  
TBI03002071524001  NPR030                  8000CA04-03-2022     04-03-2022NNN  Migration upload              Migration upload                                  
TBI0300000069520002NPR030                  8000DA04-03-2022DISBT04-03-2022NNN  Migration upload              Migration upload                                  
TBI03002071524001  NPR030                  8000CA04-03-2022     04-03-2022NNN  Migration upload              Migration upload                                  
TBI0300000069530002NPR030                  8000DA04-03-2022DISBT04-03-2022NNN  Migration upload              Migration upload                                  
TBI03002071524001  NPR030                  8000CA04-03-2022     04-03-2022NNN  Migration upload              Migration upload                                  
TBI0300000069540002NPR030                  8000DA04-03-2022DISBT04-03-2022NNN  Migration upload              Migration upload                                  
TBI03002071524001  NPR030                  8000CA04-03-2022     04-03-2022NNN  Migration upload              Migration upload                                  
TBI0300000069550002NPR030                  8000DA04-03-2022DISBT04-03-2022NNN  Migration upload              Migration upload                                  
TBI03002071524001  NPR030                  5000CA04-03-2022     04-03-2022NNN  Migration upload              Migration upload                                  
TBI0300000069560003NPR030                  5000DA04-03-2022DISBT04-03-2022NNN  Migration upload              Migration upload                                  
TBI03002071524001  NPR030                  8000CA04-03-2022     04-03-2022NNN  Migration upload              Migration upload                                  
TBI0300000069570002NPR030                  8000DA04-03-2022DISBT04-03-2022NNN  Migration upload              Migration upload                                  
TBI03002071524001  NPR030                  8000CA04-03-2022     04-03-2022NNN  Migration upload              Migration upload                                  
TBI0300000069580002NPR030                  8000DA04-03-2022DISBT04-03-2022NNN  Migration upload              Migration upload                                  
TBI03002071524001  NPR030                  8000CA04-03-2022     04-03-2022NNN  Migration upload              Migration upload                                  
TBI0300000069590002NPR030                  8000DA04-03-2022DISBT04-03-2022NNN  Migration upload              Migration upload                                  
TBI03002071524001  NPR030                  8000CA04-03-2022     04-03-2022NNN  Migration upload              Migration upload                                  
TBI0300000069600002NPR030                  8000DA04-03-2022DISBT04-03-2022NNN  Migration upload              Migration upload                                  
TBI03002071524001  NPR030                  8000CA04-03-2022     04-03-2022NNN  Migration upload              Migration upload                                  
TBI0300000069610002NPR030                  8000DA04-03-2022DISBT04-03-2022NNN  Migration upload              Migration upload                                  
TBI03002071524001  NPR030                  8000CA04-03-2022     04-03-2022NNN  Migration upload              Migration upload                                  
TBI0300000069620002NPR030                  8000DA04-03-2022DISBT04-03-2022NNN  Migration upload              Migration upload                                  
TBI03002071524001  NPR030                  8000CA04-03-2022     04-03-2022NNN  Migration upload              Migration upload                                  
TBI0300000069630002NPR030                  8000DA04-03-2022DISBT04-03-2022NNN  Migration upload              Migration upload                                  
TBI03002071524001  NPR030                  8000CA04-03-2022     04-03-2022NNN  Migration upload              Migration upload                                  
TBI0300000069640002NPR030                  8000DA04-03-2022DISBT04-03-2022NNN  Migration upload              Migration upload                                  
TBI03002071524001  NPR030                  5000CA04-03-2022     04-03-2022NNN  Migration upload              Migration upload                                  
TBI0300000069650002NPR030                  5000DA04-03-2022DISBT04-03-2022NNN  Migration upload              Migration upload                                  
TBI03002071524001  NPR030                  8000CA04-03-2022     04-03-2022NNN  Migration upload              Migration upload                                  
TBI0300000069660002NPR030                  8000DA04-03-2022DISBT04-03-2022NNN  Migration upload              Migration upload                                  
TBI03002071524001  NPR030                  8000CA04-03-2022     04-03-2022NNN  Migration upload              Migration upload                                  
TBI0300000069670002NPR030                  8000DA04-03-2022DISBT04-03-2022NNN  Migration upload              Migration upload                                  
TBI03002071524001  NPR030                  8000CA04-03-2022     04-03-2022NNN  Migration upload              Migration upload                                  
TBI0300000069680002NPR030                  8000DA04-03-2022DISBT04-03-2022NNN  Migration upload              Migration upload                                  
TBI03002071524001  NPR030                  8000CA04-03-2022     04-03-2022NNN  Migration upload              Migration upload                                  
TBI0300000069690002NPR030                  8000DA04-03-2022DISBT04-03-2022NNN  Migration upload              Migration upload                                  
TBI03002071524001  NPR030                  8000CA04-03-2022     04-03-2022NNN  Migration upload              Migration upload                                  
TBI0300000069700002NPR030                  8000DA04-03-2022DISBT04-03-2022NNN  Migration upload              Migration upload                                  
TBI03002071524001  NPR030                  8000CA04-03-2022     04-03-2022NNN  Migration upload              Migration upload                                  
TBI0300000069710002NPR030                  8000DA04-03-2022DISBT04-03-2022NNN  Migration upload              Migration upload                                  
TBI03002071524001  NPR030                  8000CA04-03-2022     04-03-2022NNN  Migration upload              Migration upload                                  
TBI0300000069720002NPR030                  8000DA04-03-2022DISBT04-03-2022NNN  Migration upload              Migration upload                                  
TBI03002071524001  NPR030                  8000CA04-03-2022     04-03-2022NNN  Migration upload              Migration upload                                  
TBI0300000069730002NPR030                  8000DA04-03-2022DISBT04-03-2022NNN  Migration upload              Migration upload                                  
TBI03002071524001  NPR030                  8000CA04-03-2022     04-03-2022NNN  Migration upload              Migration upload                                  
TBI0300000069740002NPR030                  8000DA04-03-2022DISBT04-03-2022NNN  Migration upload              Migration upload                                  
TBI03002071524001  NPR030                 18000CA04-03-2022     04-03-2022NNN  Migration upload              Migration upload                                  
TBI0300000069750002NPR030                 18000DA04-03-2022DISBT04-03-2022NNN  Migration upload              Migration upload                                  
TBI03002071524001  NPR030                  8000CA04-03-2022     04-03-2022NNN  Migration upload              Migration upload                                  
TBI0300000069760002NPR030                  8000DA04-03-2022DISBT04-03-2022NNN  Migration upload              Migration upload                                  
TBI03002071524001  NPR030                  8000CA04-03-2022     04-03-2022NNN  Migration upload              Migration upload                                  
TBI0300000069770002NPR030                  8000DA04-03-2022DISBT04-03-2022NNN  Migration upload              Migration upload                                  
TBI03002071524001  NPR030                  8000CA04-03-2022     04-03-2022NNN  Migration upload              Migration upload                                  
TBI0300000069780002NPR030                  8000DA04-03-2022DISBT04-03-2022NNN  Migration upload              Migration upload                                  
TBI03002071524001  NPR030                  8000CA04-03-2022     04-03-2022NNN  Migration upload              Migration upload                                  
TBI0300000069790002NPR030                  8000DA04-03-2022DISBT04-03-2022NNN  Migration upload              Migration upload                                  
TBI03002071524001  NPR030                  8000CA04-03-2022     04-03-2022NNN  Migration upload              Migration upload                                  
TBI0300000069800002NPR030                  8000DA04-03-2022DISBT04-03-2022NNN  Migration upload              Migration upload                                  
TBI03002071524001  NPR030                  8000CA04-03-2022     04-03-2022NNN  Migration upload              Migration upload                                  
TBI0300000069810002NPR030                  8000DA04-03-2022DISBT04-03-2022NNN  Migration upload              Migration upload                                  
TBI03002071524001  NPR030                  8000CA04-03-2022     04-03-2022NNN  Migration upload              Migration upload                                  
