TBI03002071524001  NPR030                 42500CA04-03-2022     04-03-2022NNN  Migration upload              Migration upload                                  
TBI0300000000380003NPR030                 42500DA04-03-2022DISBT04-03-2022NNN  Migration upload              Migration upload                                  
TBI03002071524001  NPR030                  7000CA04-03-2022     04-03-2022NNN  Migration upload              Migration upload                                  
TBI0300000000380004NPR030                  7000DA04-03-2022DISBT04-03-2022NNN  Migration upload              Migration upload                                  
TBI03002071524001  NPR030                  6000CA04-03-2022     04-03-2022NNN  Migration upload              Migration upload                                  
TBI0300000000390002NPR030                  6000DA04-03-2022DISBT04-03-2022NNN  Migration upload              Migration upload                                  
TBI03002071524001  NPR030                  8000CA04-03-2022     04-03-2022NNN  Migration upload              Migration upload                                  
TBI0300000000400002NPR030                  8000DA04-03-2022DISBT04-03-2022NNN  Migration upload              Migration upload                                  
TBI03002071524001  NPR030                  8000CA04-03-2022     04-03-2022NNN  Migration upload              Migration upload                                  
TBI0300000000510002NPR030                  8000DA04-03-2022DISBT04-03-2022NNN  Migration upload              Migration upload                                  
TBI03002071524001  NPR030                  8000CA04-03-2022     04-03-2022NNN  Migration upload              Migration upload                                  
TBI0300000000720002NPR030                  8000DA04-03-2022DISBT04-03-2022NNN  Migration upload              Migration upload                                  
TBI03002071524001  NPR030                  8000CA04-03-2022     04-03-2022NNN  Migration upload              Migration upload                                  
TBI0300000001130002NPR030                  8000DA04-03-2022DISBT04-03-2022NNN  Migration upload              Migration upload                                  
TBI03002071524001  NPR030                  8000CA04-03-2022     04-03-2022NNN  Migration upload              Migration upload                                  
TBI0300000001240002NPR030                  8000DA04-03-2022DISBT04-03-2022NNN  Migration upload              Migration upload                                  
TBI03002071524001  NPR030                  8000CA04-03-2022     04-03-2022NNN  Migration upload              Migration upload                                  
TBI0300000001350002NPR030                  8000DA04-03-2022DISBT04-03-2022NNN  Migration upload              Migration upload                                  
TBI03002071524001  NPR030                  8000CA04-03-2022     04-03-2022NNN  Migration upload              Migration upload                                  
TBI0300000001760003NPR030                  8000DA04-03-2022DISBT04-03-2022NNN  Migration upload              Migration upload                                  
TBI03002071524001  NPR030                  8000CA04-03-2022     04-03-2022NNN  Migration upload              Migration upload                                  
TBI0300000002460003NPR030                  8000DA04-03-2022DISBT04-03-2022NNN  Migration upload              Migration upload                                  
TBI03002071524001  NPR030                  8000CA04-03-2022     04-03-2022NNN  Migration upload              Migration upload                                  
TBI0300000002860002NPR030                  8000DA04-03-2022DISBT04-03-2022NNN  Migration upload              Migration upload                                  
TBI03002071524001  NPR030                  8000CA04-03-2022     04-03-2022NNN  Migration upload              Migration upload                                  
TBI0300000003070002NPR030                  8000DA04-03-2022DISBT04-03-2022NNN  Migration upload              Migration upload                                  
TBI03002071524001  NPR030                  8000CA04-03-2022     04-03-2022NNN  Migration upload              Migration upload                                  
TBI0300000003280002NPR030                  8000DA04-03-2022DISBT04-03-2022NNN  Migration upload              Migration upload                                  
TBI03002071524001  NPR030                  8000CA04-03-2022     04-03-2022NNN  Migration upload              Migration upload                                  
TBI0300000003490002NPR030                  8000DA04-03-2022DISBT04-03-2022NNN  Migration upload              Migration upload                                  
TBI03002071524001  NPR030                  8000CA04-03-2022     04-03-2022NNN  Migration upload              Migration upload                                  
TBI0300000003750004NPR030                  8000DA04-03-2022DISBT04-03-2022NNN  Migration upload              Migration upload                                  
TBI03002071524001  NPR030                  8000CA04-03-2022     04-03-2022NNN  Migration upload              Migration upload                                  
TBI0300000003850003NPR030                  8000DA04-03-2022DISBT04-03-2022NNN  Migration upload              Migration upload                                  
TBI03002071524001  NPR030                  8000CA04-03-2022     04-03-2022NNN  Migration upload              Migration upload                                  
TBI0300000004100002NPR030                  8000DA04-03-2022DISBT04-03-2022NNN  Migration upload              Migration upload                                  
TBI03002071524001  NPR030                  8000CA04-03-2022     04-03-2022NNN  Migration upload              Migration upload                                  
TBI0300000004610002NPR030                  8000DA04-03-2022DISBT04-03-2022NNN  Migration upload              Migration upload                                  
TBI03002071524001  NPR030                  8000CA04-03-2022     04-03-2022NNN  Migration upload              Migration upload                                  
TBI0300000004920002NPR030                  8000DA04-03-2022DISBT04-03-2022NNN  Migration upload              Migration upload                                  
TBI03002071524001  NPR030                  8000CA04-03-2022     04-03-2022NNN  Migration upload              Migration upload                                  
TBI0300000005030002NPR030                  8000DA04-03-2022DISBT04-03-2022NNN  Migration upload              Migration upload                                  
TBI03002071524001  NPR030                  8000CA04-03-2022     04-03-2022NNN  Migration upload              Migration upload                                  
TBI0300000005230002NPR030                  8000DA04-03-2022DISBT04-03-2022NNN  Migration upload              Migration upload                                  
TBI03002071524001  NPR030                  8000CA04-03-2022     04-03-2022NNN  Migration upload              Migration upload                                  
TBI0300000005240002NPR030                  8000DA04-03-2022DISBT04-03-2022NNN  Migration upload              Migration upload                                  
TBI03002071524001  NPR030                  8000CA04-03-2022     04-03-2022NNN  Migration upload              Migration upload                                  
TBI0300000005250002NPR030                  8000DA04-03-2022DISBT04-03-2022NNN  Migration upload              Migration upload                                  
TBI03002071524001  NPR030                  8000CA04-03-2022     04-03-2022NNN  Migration upload              Migration upload                                  
TBI0300000005260002NPR030                  8000DA04-03-2022DISBT04-03-2022NNN  Migration upload              Migration upload                                  
TBI03002071524001  NPR030                  8000CA04-03-2022     04-03-2022NNN  Migration upload              Migration upload                                  
TBI0300000005270002NPR030                  8000DA04-03-2022DISBT04-03-2022NNN  Migration upload              Migration upload                                  
TBI03002071524001  NPR030                  8000CA04-03-2022     04-03-2022NNN  Migration upload              Migration upload                                  
TBI0300000005280002NPR030                  8000DA04-03-2022DISBT04-03-2022NNN  Migration upload              Migration upload                                  
TBI03002071524001  NPR030                  8000CA04-03-2022     04-03-2022NNN  Migration upload              Migration upload                                  
TBI0300000005290002NPR030                  8000DA04-03-2022DISBT04-03-2022NNN  Migration upload              Migration upload                                  
TBI03002071524001  NPR030                  8000CA04-03-2022     04-03-2022NNN  Migration upload              Migration upload                                  
TBI0300000005300002NPR030                  8000DA04-03-2022DISBT04-03-2022NNN  Migration upload              Migration upload                                  
TBI03002071524001  NPR030                  8000CA04-03-2022     04-03-2022NNN  Migration upload              Migration upload                                  
TBI0300000005310002NPR030                  8000DA04-03-2022DISBT04-03-2022NNN  Migration upload              Migration upload                                  
TBI03002071524001  NPR030                  8000CA04-03-2022     04-03-2022NNN  Migration upload              Migration upload                                  
TBI0300000005320002NPR030                  8000DA04-03-2022DISBT04-03-2022NNN  Migration upload              Migration upload                                  
TBI03002071524001  NPR030                  8000CA04-03-2022     04-03-2022NNN  Migration upload              Migration upload                                  
TBI0300000005330002NPR030                  8000DA04-03-2022DISBT04-03-2022NNN  Migration upload              Migration upload                                  
TBI03002071524001  NPR030                  8000CA04-03-2022     04-03-2022NNN  Migration upload              Migration upload                                  
TBI0300000005340002NPR030                  8000DA04-03-2022DISBT04-03-2022NNN  Migration upload              Migration upload                                  
TBI03002071524001  NPR030                  8000CA04-03-2022     04-03-2022NNN  Migration upload              Migration upload                                  
TBI0300000005350002NPR030                  8000DA04-03-2022DISBT04-03-2022NNN  Migration upload              Migration upload                                  
TBI03002071524001  NPR030                  8000CA04-03-2022     04-03-2022NNN  Migration upload              Migration upload                                  
TBI0300000005360002NPR030                  8000DA04-03-2022DISBT04-03-2022NNN  Migration upload              Migration upload                                  
TBI03002071524001  NPR030                  8000CA04-03-2022     04-03-2022NNN  Migration upload              Migration upload                                  
TBI0300000005370002NPR030                  8000DA04-03-2022DISBT04-03-2022NNN  Migration upload              Migration upload                                  
TBI03002071524001  NPR030                  8000CA04-03-2022     04-03-2022NNN  Migration upload              Migration upload                                  
TBI0300000005380002NPR030                  8000DA04-03-2022DISBT04-03-2022NNN  Migration upload              Migration upload                                  
TBI03002071524001  NPR030                  8000CA04-03-2022     04-03-2022NNN  Migration upload              Migration upload                                  
TBI0300000005390002NPR030                  8000DA04-03-2022DISBT04-03-2022NNN  Migration upload              Migration upload                                  
TBI03002071524001  NPR030                  8000CA04-03-2022     04-03-2022NNN  Migration upload              Migration upload                                  
TBI0300000005430002NPR030                  8000DA04-03-2022DISBT04-03-2022NNN  Migration upload              Migration upload                                  
TBI03002071524001  NPR030                  8000CA04-03-2022     04-03-2022NNN  Migration upload              Migration upload                                  
TBI0300000005440002NPR030                  8000DA04-03-2022DISBT04-03-2022NNN  Migration upload              Migration upload                                  
TBI03002071524001  NPR030                 12000CA04-03-2022     04-03-2022NNN  Migration upload              Migration upload                                  
TBI0300000005460002NPR030                 12000DA04-03-2022DISBT04-03-2022NNN  Migration upload              Migration upload                                  
TBI03002071524001  NPR030                 19000CA04-03-2022     04-03-2022NNN  Migration upload              Migration upload                                  
TBI0300000005470002NPR030                 19000DA04-03-2022DISBT04-03-2022NNN  Migration upload              Migration upload                                  
TBI03002071524001  NPR030                 19000CA04-03-2022     04-03-2022NNN  Migration upload              Migration upload                                  
TBI0300000005480002NPR030                 19000DA04-03-2022DISBT04-03-2022NNN  Migration upload              Migration upload                                  
TBI03002071524001  NPR030                  8000CA04-03-2022     04-03-2022NNN  Migration upload              Migration upload                                  
TBI0300000005490002NPR030                  8000DA04-03-2022DISBT04-03-2022NNN  Migration upload              Migration upload                                  
TBI03002071524001  NPR030                  8000CA04-03-2022     04-03-2022NNN  Migration upload              Migration upload                                  
TBI0300000005500002NPR030                  8000DA04-03-2022DISBT04-03-2022NNN  Migration upload              Migration upload                                  
TBI03002071524001  NPR030                  8000CA04-03-2022     04-03-2022NNN  Migration upload              Migration upload                                  
TBI0300000005510002NPR030                  8000DA04-03-2022DISBT04-03-2022NNN  Migration upload              Migration upload                                  
TBI03002071524001  NPR030                  8000CA04-03-2022     04-03-2022NNN  Migration upload              Migration upload                                  
TBI0300000005530002NPR030                  8000DA04-03-2022DISBT04-03-2022NNN  Migration upload              Migration upload                                  
TBI03002071524001  NPR030                  8000CA04-03-2022     04-03-2022NNN  Migration upload              Migration upload                                  
TBI0300000005560002NPR030                  8000DA04-03-2022DISBT04-03-2022NNN  Migration upload              Migration upload                                  
TBI03002071524001  NPR030                  8000CA04-03-2022     04-03-2022NNN  Migration upload              Migration upload                                  
TBI0300000005570002NPR030                  8000DA04-03-2022DISBT04-03-2022NNN  Migration upload              Migration upload                                  
TBI03002071524001  NPR030                 12000CA04-03-2022     04-03-2022NNN  Migration upload              Migration upload                                  
TBI0300000005580002NPR030                 12000DA04-03-2022DISBT04-03-2022NNN  Migration upload              Migration upload                                  
TBI03002071524001  NPR030                 12000CA04-03-2022     04-03-2022NNN  Migration upload              Migration upload                                  
TBI0300000005590002NPR030                 12000DA04-03-2022DISBT04-03-2022NNN  Migration upload              Migration upload                                  
TBI03002071524001  NPR030                 12000CA04-03-2022     04-03-2022NNN  Migration upload              Migration upload                                  
TBI0300000005600002NPR030                 12000DA04-03-2022DISBT04-03-2022NNN  Migration upload              Migration upload                                  
TBI03002071524001  NPR030                 19000CA04-03-2022     04-03-2022NNN  Migration upload              Migration upload                                  
TBI0300000005610002NPR030                 19000DA04-03-2022DISBT04-03-2022NNN  Migration upload              Migration upload                                  
TBI03002071524001  NPR030                 12000CA04-03-2022     04-03-2022NNN  Migration upload              Migration upload                                  
TBI0300000005620002NPR030                 12000DA04-03-2022DISBT04-03-2022NNN  Migration upload              Migration upload                                  
TBI03002071524001  NPR030                  8000CA04-03-2022     04-03-2022NNN  Migration upload              Migration upload                                  
TBI0300000005640002NPR030                  8000DA04-03-2022DISBT04-03-2022NNN  Migration upload              Migration upload                                  
TBI03002071524001  NPR030                  8000CA04-03-2022     04-03-2022NNN  Migration upload              Migration upload                                  
TBI0300000005650002NPR030                  8000DA04-03-2022DISBT04-03-2022NNN  Migration upload              Migration upload                                  
TBI03002071524001  NPR030                  8000CA04-03-2022     04-03-2022NNN  Migration upload              Migration upload                                  
TBI0300000005700002NPR030                  8000DA04-03-2022DISBT04-03-2022NNN  Migration upload              Migration upload                                  
TBI03002071524001  NPR030                  8000CA04-03-2022     04-03-2022NNN  Migration upload              Migration upload                                  
TBI0300000005700003NPR030                  8000DA04-03-2022DISBT04-03-2022NNN  Migration upload              Migration upload                                  
TBI03002071524001  NPR030                 12000CA04-03-2022     04-03-2022NNN  Migration upload              Migration upload                                  
TBI0300000005710002NPR030                 12000DA04-03-2022DISBT04-03-2022NNN  Migration upload              Migration upload                                  
TBI03002071524001  NPR030                 12000CA04-03-2022     04-03-2022NNN  Migration upload              Migration upload                                  
TBI0300000005770002NPR030                 12000DA04-03-2022DISBT04-03-2022NNN  Migration upload              Migration upload                                  
TBI03002071524001  NPR030                 12000CA04-03-2022     04-03-2022NNN  Migration upload              Migration upload                                  
TBI0300000005830002NPR030                 12000DA04-03-2022DISBT04-03-2022NNN  Migration upload              Migration upload                                  
TBI03002071524001  NPR030                 12000CA04-03-2022     04-03-2022NNN  Migration upload              Migration upload                                  
TBI0300000005840002NPR030                 12000DA04-03-2022DISBT04-03-2022NNN  Migration upload              Migration upload                                  
TBI03002071524001  NPR030                 19000CA04-03-2022     04-03-2022NNN  Migration upload              Migration upload                                  
TBI0300000005850002NPR030                 19000DA04-03-2022DISBT04-03-2022NNN  Migration upload              Migration upload                                  
TBI03002071524001  NPR030                 16000CA04-03-2022     04-03-2022NNN  Migration upload              Migration upload                                  
TBI0300000005860002NPR030                 16000DA04-03-2022DISBT04-03-2022NNN  Migration upload              Migration upload                                  
TBI03002071524001  NPR030                 26000CA04-03-2022     04-03-2022NNN  Migration upload              Migration upload                                  
TBI0300000005870002NPR030                 26000DA04-03-2022DISBT04-03-2022NNN  Migration upload              Migration upload                                  
TBI03002071524001  NPR030                 26000CA04-03-2022     04-03-2022NNN  Migration upload              Migration upload                                  
TBI0300000005880002NPR030                 26000DA04-03-2022DISBT04-03-2022NNN  Migration upload              Migration upload                                  
TBI03002071524001  NPR030                 26000CA04-03-2022     04-03-2022NNN  Migration upload              Migration upload                                  
TBI0300000005890002NPR030                 26000DA04-03-2022DISBT04-03-2022NNN  Migration upload              Migration upload                                  
TBI03002071524001  NPR030                 26000CA04-03-2022     04-03-2022NNN  Migration upload              Migration upload                                  
TBI0300000005900002NPR030                 26000DA04-03-2022DISBT04-03-2022NNN  Migration upload              Migration upload                                  
TBI03002071524001  NPR030                  8000CA04-03-2022     04-03-2022NNN  Migration upload              Migration upload                                  
TBI0300000005910002NPR030                  8000DA04-03-2022DISBT04-03-2022NNN  Migration upload              Migration upload                                  
TBI03002071524001  NPR030                 26000CA04-03-2022     04-03-2022NNN  Migration upload              Migration upload                                  
TBI0300000005920002NPR030                 26000DA04-03-2022DISBT04-03-2022NNN  Migration upload              Migration upload                                  
TBI03002071524001  NPR030                 35000CA04-03-2022     04-03-2022NNN  Migration upload              Migration upload                                  
TBI0300000005940002NPR030                 35000DA04-03-2022DISBT04-03-2022NNN  Migration upload              Migration upload                                  
TBI03002071524001  NPR030                 30000CA04-03-2022     04-03-2022NNN  Migration upload              Migration upload                                  
TBI0300000005950002NPR030                 30000DA04-03-2022DISBT04-03-2022NNN  Migration upload              Migration upload                                  
TBI03002071524001  NPR030                 30000CA04-03-2022     04-03-2022NNN  Migration upload              Migration upload                                  
TBI0300000005970003NPR030                 30000DA04-03-2022DISBT04-03-2022NNN  Migration upload              Migration upload                                  
TBI03002071524001  NPR030                 30000CA04-03-2022     04-03-2022NNN  Migration upload              Migration upload                                  
TBI0300000005970004NPR030                 30000DA04-03-2022DISBT04-03-2022NNN  Migration upload              Migration upload                                  
TBI03002071524001  NPR030                 25000CA04-03-2022     04-03-2022NNN  Migration upload              Migration upload                                  
TBI0300000005980002NPR030                 25000DA04-03-2022DISBT04-03-2022NNN  Migration upload              Migration upload                                  
TBI03002071524001  NPR030                 26000CA04-03-2022     04-03-2022NNN  Migration upload              Migration upload                                  
TBI0300000005990002NPR030                 26000DA04-03-2022DISBT04-03-2022NNN  Migration upload              Migration upload                                  
TBI03002071524001  NPR030                 26000CA04-03-2022     04-03-2022NNN  Migration upload              Migration upload                                  
TBI0300000006010002NPR030                 26000DA04-03-2022DISBT04-03-2022NNN  Migration upload              Migration upload                                  
TBI03002071524001  NPR030                 15000CA04-03-2022     04-03-2022NNN  Migration upload              Migration upload                                  
TBI0300000006020002NPR030                 15000DA04-03-2022DISBT04-03-2022NNN  Migration upload              Migration upload                                  
TBI03002071524001  NPR030                  8000CA04-03-2022     04-03-2022NNN  Migration upload              Migration upload                                  
TBI0300000006030002NPR030                  8000DA04-03-2022DISBT04-03-2022NNN  Migration upload              Migration upload                                  
TBI03002071524001  NPR030                 26000CA04-03-2022     04-03-2022NNN  Migration upload              Migration upload                                  
TBI0300000006040002NPR030                 26000DA04-03-2022DISBT04-03-2022NNN  Migration upload              Migration upload                                  
TBI03002071524001  NPR030                  8000CA04-03-2022     04-03-2022NNN  Migration upload              Migration upload                                  
TBI0300000006060002NPR030                  8000DA04-03-2022DISBT04-03-2022NNN  Migration upload              Migration upload                                  
TBI03002071524001  NPR030                 26000CA04-03-2022     04-03-2022NNN  Migration upload              Migration upload                                  
TBI0300000006070002NPR030                 26000DA04-03-2022DISBT04-03-2022NNN  Migration upload              Migration upload                                  
TBI03002071524001  NPR030                 26000CA04-03-2022     04-03-2022NNN  Migration upload              Migration upload                                  
TBI0300000006080002NPR030                 26000DA04-03-2022DISBT04-03-2022NNN  Migration upload              Migration upload                                  
TBI03002071524001  NPR030                 15000CA04-03-2022     04-03-2022NNN  Migration upload              Migration upload                                  
TBI0300000006090002NPR030                 15000DA04-03-2022DISBT04-03-2022NNN  Migration upload              Migration upload                                  
TBI03002071524001  NPR030                 15000CA04-03-2022     04-03-2022NNN  Migration upload              Migration upload                                  
TBI0300000006100002NPR030                 15000DA04-03-2022DISBT04-03-2022NNN  Migration upload              Migration upload                                  
TBI03002071524001  NPR030                 35000CA04-03-2022     04-03-2022NNN  Migration upload              Migration upload                                  
TBI0300000006110002NPR030                 35000DA04-03-2022DISBT04-03-2022NNN  Migration upload              Migration upload                                  
TBI03002071524001  NPR030                 35000CA04-03-2022     04-03-2022NNN  Migration upload              Migration upload                                  
TBI0300000006110003NPR030                 35000DA04-03-2022DISBT04-03-2022NNN  Migration upload              Migration upload                                  
TBI03002071524001  NPR030                 35000CA04-03-2022     04-03-2022NNN  Migration upload              Migration upload                                  
TBI0300000006200002NPR030                 35000DA04-03-2022DISBT04-03-2022NNN  Migration upload              Migration upload                                  
TBI03002071524001  NPR030                 12000CA04-03-2022     04-03-2022NNN  Migration upload              Migration upload                                  
TBI0300000006210002NPR030                 12000DA04-03-2022DISBT04-03-2022NNN  Migration upload              Migration upload                                  
TBI03002071524001  NPR030                  8000CA04-03-2022     04-03-2022NNN  Migration upload              Migration upload                                  
TBI0300000006220002NPR030                  8000DA04-03-2022DISBT04-03-2022NNN  Migration upload              Migration upload                                  
TBI03002071524001  NPR030                 12000CA04-03-2022     04-03-2022NNN  Migration upload              Migration upload                                  
TBI0300000006230002NPR030                 12000DA04-03-2022DISBT04-03-2022NNN  Migration upload              Migration upload                                  
TBI03002071524001  NPR030                 12000CA04-03-2022     04-03-2022NNN  Migration upload              Migration upload                                  
TBI0300000006240002NPR030                 12000DA04-03-2022DISBT04-03-2022NNN  Migration upload              Migration upload                                  
TBI03002071524001  NPR030                 25000CA04-03-2022     04-03-2022NNN  Migration upload              Migration upload                                  
TBI0300000006250002NPR030                 25000DA04-03-2022DISBT04-03-2022NNN  Migration upload              Migration upload                                  
TBI03002071524001  NPR030                 25000CA04-03-2022     04-03-2022NNN  Migration upload              Migration upload                                  
TBI0300000006260002NPR030                 25000DA04-03-2022DISBT04-03-2022NNN  Migration upload              Migration upload                                  
TBI03002071524001  NPR030                 40000CA04-03-2022     04-03-2022NNN  Migration upload              Migration upload                                  
TBI0300000006270002NPR030                 40000DA04-03-2022DISBT04-03-2022NNN  Migration upload              Migration upload                                  
TBI03002071524001  NPR030                 23000CA04-03-2022     04-03-2022NNN  Migration upload              Migration upload                                  
TBI0300000006280002NPR030                 23000DA04-03-2022DISBT04-03-2022NNN  Migration upload              Migration upload                                  
TBI03002071524001  NPR030                 28000CA04-03-2022     04-03-2022NNN  Migration upload              Migration upload                                  
TBI0300000006290002NPR030                 28000DA04-03-2022DISBT04-03-2022NNN  Migration upload              Migration upload                                  
TBI03002071524001  NPR030                 28000CA04-03-2022     04-03-2022NNN  Migration upload              Migration upload                                  
TBI0300000006300002NPR030                 28000DA04-03-2022DISBT04-03-2022NNN  Migration upload              Migration upload                                  
TBI03002071524001  NPR030                 40000CA04-03-2022     04-03-2022NNN  Migration upload              Migration upload                                  
TBI0300000006310002NPR030                 40000DA04-03-2022DISBT04-03-2022NNN  Migration upload              Migration upload                                  
TBI03002071524001  NPR030                 28000CA04-03-2022     04-03-2022NNN  Migration upload              Migration upload                                  
TBI0300000006320002NPR030                 28000DA04-03-2022DISBT04-03-2022NNN  Migration upload              Migration upload                                  
TBI03002071524001  NPR030                 28000CA04-03-2022     04-03-2022NNN  Migration upload              Migration upload                                  
TBI0300000006330002NPR030                 28000DA04-03-2022DISBT04-03-2022NNN  Migration upload              Migration upload                                  
TBI03002071524001  NPR030                 28000CA04-03-2022     04-03-2022NNN  Migration upload              Migration upload                                  
TBI0300000006340002NPR030                 28000DA04-03-2022DISBT04-03-2022NNN  Migration upload              Migration upload                                  
TBI03002071524001  NPR030                  8000CA04-03-2022     04-03-2022NNN  Migration upload              Migration upload                                  
TBI0300000006350002NPR030                  8000DA04-03-2022DISBT04-03-2022NNN  Migration upload              Migration upload                                  
TBI03002071524001  NPR030                  8000CA04-03-2022     04-03-2022NNN  Migration upload              Migration upload                                  
TBI0300000006360002NPR030                  8000DA04-03-2022DISBT04-03-2022NNN  Migration upload              Migration upload                                  
TBI03002071524001  NPR030                 40000CA04-03-2022     04-03-2022NNN  Migration upload              Migration upload                                  
TBI0300000006370002NPR030                 40000DA04-03-2022DISBT04-03-2022NNN  Migration upload              Migration upload                                  
TBI03002071524001  NPR030                 40000CA04-03-2022     04-03-2022NNN  Migration upload              Migration upload                                  
TBI0300000006370003NPR030                 40000DA04-03-2022DISBT04-03-2022NNN  Migration upload              Migration upload                                  
TBI03002071524001  NPR030                 40000CA04-03-2022     04-03-2022NNN  Migration upload              Migration upload                                  
TBI0300000006370004NPR030                 40000DA04-03-2022DISBT04-03-2022NNN  Migration upload              Migration upload                                  
TBI03002071524001  NPR030                 40000CA04-03-2022     04-03-2022NNN  Migration upload              Migration upload                                  
TBI0300000006370005NPR030                 40000DA04-03-2022DISBT04-03-2022NNN  Migration upload              Migration upload                                  
TBI03002071524001  NPR030                  8000CA04-03-2022     04-03-2022NNN  Migration upload              Migration upload                                  
TBI0300000006390002NPR030                  8000DA04-03-2022DISBT04-03-2022NNN  Migration upload              Migration upload                                  
TBI03002071524001  NPR030                  8000CA04-03-2022     04-03-2022NNN  Migration upload              Migration upload                                  
TBI0300000006390003NPR030                  8000DA04-03-2022DISBT04-03-2022NNN  Migration upload              Migration upload                                  
TBI03002071524001  NPR030                 40000CA04-03-2022     04-03-2022NNN  Migration upload              Migration upload                                  
TBI0300000006400002NPR030                 40000DA04-03-2022DISBT04-03-2022NNN  Migration upload              Migration upload                                  
TBI03002071524001  NPR030                 28000CA04-03-2022     04-03-2022NNN  Migration upload              Migration upload                                  
TBI0300000006410002NPR030                 28000DA04-03-2022DISBT04-03-2022NNN  Migration upload              Migration upload                                  
TBI03002071524001  NPR030                  8000CA04-03-2022     04-03-2022NNN  Migration upload              Migration upload                                  
TBI0300000006420002NPR030                  8000DA04-03-2022DISBT04-03-2022NNN  Migration upload              Migration upload                                  
TBI03002071524001  NPR030                  8000CA04-03-2022     04-03-2022NNN  Migration upload              Migration upload                                  
TBI0300000006430002NPR030                  8000DA04-03-2022DISBT04-03-2022NNN  Migration upload              Migration upload                                  
TBI03002071524001  NPR030                  8000CA04-03-2022     04-03-2022NNN  Migration upload              Migration upload                                  
TBI0300000006440002NPR030                  8000DA04-03-2022DISBT04-03-2022NNN  Migration upload              Migration upload                                  
TBI03002071524001  NPR030                  8000CA04-03-2022     04-03-2022NNN  Migration upload              Migration upload                                  
TBI0300000006450002NPR030                  8000DA04-03-2022DISBT04-03-2022NNN  Migration upload              Migration upload                                  
TBI03002071524001  NPR030                  8000CA04-03-2022     04-03-2022NNN  Migration upload              Migration upload                                  
TBI0300000006460002NPR030                  8000DA04-03-2022DISBT04-03-2022NNN  Migration upload              Migration upload                                  
TBI03002071524001  NPR030                  8000CA04-03-2022     04-03-2022NNN  Migration upload              Migration upload                                  
TBI0300000006470002NPR030                  8000DA04-03-2022DISBT04-03-2022NNN  Migration upload              Migration upload                                  
TBI03002071524001  NPR030                 28000CA04-03-2022     04-03-2022NNN  Migration upload              Migration upload                                  
TBI0300000006480002NPR030                 28000DA04-03-2022DISBT04-03-2022NNN  Migration upload              Migration upload                                  
TBI03002071524001  NPR030                 28000CA04-03-2022     04-03-2022NNN  Migration upload              Migration upload                                  
TBI0300000006490002NPR030                 28000DA04-03-2022DISBT04-03-2022NNN  Migration upload              Migration upload                                  
TBI03002071524001  NPR030                  8000CA04-03-2022     04-03-2022NNN  Migration upload              Migration upload                                  
TBI0300000006500002NPR030                  8000DA04-03-2022DISBT04-03-2022NNN  Migration upload              Migration upload                                  
TBI03002071524001  NPR030                  8000CA04-03-2022     04-03-2022NNN  Migration upload              Migration upload                                  
TBI0300000006510002NPR030                  8000DA04-03-2022DISBT04-03-2022NNN  Migration upload              Migration upload                                  
TBI03002071524001  NPR030                  8000CA04-03-2022     04-03-2022NNN  Migration upload              Migration upload                                  
TBI0300000006520002NPR030                  8000DA04-03-2022DISBT04-03-2022NNN  Migration upload              Migration upload                                  
TBI03002071524001  NPR030                 40000CA04-03-2022     04-03-2022NNN  Migration upload              Migration upload                                  
TBI0300000006530002NPR030                 40000DA04-03-2022DISBT04-03-2022NNN  Migration upload              Migration upload                                  
TBI03002071524001  NPR030                  8000CA04-03-2022     04-03-2022NNN  Migration upload              Migration upload                                  
TBI0300000006540002NPR030                  8000DA04-03-2022DISBT04-03-2022NNN  Migration upload              Migration upload                                  
TBI03002071524001  NPR030                  8000CA04-03-2022     04-03-2022NNN  Migration upload              Migration upload                                  
TBI0300000006570002NPR030                  8000DA04-03-2022DISBT04-03-2022NNN  Migration upload              Migration upload                                  
TBI03002071524001  NPR030                  8000CA04-03-2022     04-03-2022NNN  Migration upload              Migration upload                                  
TBI0300000006590002NPR030                  8000DA04-03-2022DISBT04-03-2022NNN  Migration upload              Migration upload                                  
TBI03002071524001  NPR030                  8000CA04-03-2022     04-03-2022NNN  Migration upload              Migration upload                                  
TBI0300000006600002NPR030                  8000DA04-03-2022DISBT04-03-2022NNN  Migration upload              Migration upload                                  
TBI03002071524001  NPR030                  8000CA04-03-2022     04-03-2022NNN  Migration upload              Migration upload                                  
TBI0300000006610002NPR030                  8000DA04-03-2022DISBT04-03-2022NNN  Migration upload              Migration upload                                  
TBI03002071524001  NPR030                  8000CA04-03-2022     04-03-2022NNN  Migration upload              Migration upload                                  
TBI0300000006620002NPR030                  8000DA04-03-2022DISBT04-03-2022NNN  Migration upload              Migration upload                                  
TBI03002071524001  NPR030                 28000CA04-03-2022     04-03-2022NNN  Migration upload              Migration upload                                  
TBI0300000006630002NPR030                 28000DA04-03-2022DISBT04-03-2022NNN  Migration upload              Migration upload                                  
TBI03002071524001  NPR030                 28000CA04-03-2022     04-03-2022NNN  Migration upload              Migration upload                                  
TBI0300000006630003NPR030                 28000DA04-03-2022DISBT04-03-2022NNN  Migration upload              Migration upload                                  
TBI03002071524001  NPR030                 28000CA04-03-2022     04-03-2022NNN  Migration upload              Migration upload                                  
TBI0300000006640002NPR030                 28000DA04-03-2022DISBT04-03-2022NNN  Migration upload              Migration upload                                  
TBI03002071524001  NPR030                 28000CA04-03-2022     04-03-2022NNN  Migration upload              Migration upload                                  
TBI0300000006640003NPR030                 28000DA04-03-2022DISBT04-03-2022NNN  Migration upload              Migration upload                                  
TBI03002071524001  NPR030                 28000CA04-03-2022     04-03-2022NNN  Migration upload              Migration upload                                  
TBI0300000006650002NPR030                 28000DA04-03-2022DISBT04-03-2022NNN  Migration upload              Migration upload                                  
TBI03002071524001  NPR030                 28000CA04-03-2022     04-03-2022NNN  Migration upload              Migration upload                                  
TBI0300000006660002NPR030                 28000DA04-03-2022DISBT04-03-2022NNN  Migration upload              Migration upload                                  
TBI03002071524001  NPR030                 28000CA04-03-2022     04-03-2022NNN  Migration upload              Migration upload                                  
TBI0300000006670002NPR030                 28000DA04-03-2022DISBT04-03-2022NNN  Migration upload              Migration upload                                  
TBI03002071524001  NPR030                  8000CA04-03-2022     04-03-2022NNN  Migration upload              Migration upload                                  
TBI0300000006680002NPR030                  8000DA04-03-2022DISBT04-03-2022NNN  Migration upload              Migration upload                                  
TBI03002071524001  NPR030                  8000CA04-03-2022     04-03-2022NNN  Migration upload              Migration upload                                  
TBI0300000006690002NPR030                  8000DA04-03-2022DISBT04-03-2022NNN  Migration upload              Migration upload                                  
TBI03002071524001  NPR030                  8000CA04-03-2022     04-03-2022NNN  Migration upload              Migration upload                                  
TBI0300000006700002NPR030                  8000DA04-03-2022DISBT04-03-2022NNN  Migration upload              Migration upload                                  
TBI03002071524001  NPR030                  8000CA04-03-2022     04-03-2022NNN  Migration upload              Migration upload                                  
TBI0300000006710002NPR030                  8000DA04-03-2022DISBT04-03-2022NNN  Migration upload              Migration upload                                  
TBI03002071524001  NPR030                  8000CA04-03-2022     04-03-2022NNN  Migration upload              Migration upload                                  
TBI0300000006720002NPR030                  8000DA04-03-2022DISBT04-03-2022NNN  Migration upload              Migration upload                                  
TBI03002071524001  NPR030                  8000CA04-03-2022     04-03-2022NNN  Migration upload              Migration upload                                  
TBI0300000006730002NPR030                  8000DA04-03-2022DISBT04-03-2022NNN  Migration upload              Migration upload                                  
TBI03002071524001  NPR030                  8000CA04-03-2022     04-03-2022NNN  Migration upload              Migration upload                                  
TBI0300000006740002NPR030                  8000DA04-03-2022DISBT04-03-2022NNN  Migration upload              Migration upload                                  
TBI03002071524001  NPR030                  8000CA04-03-2022     04-03-2022NNN  Migration upload              Migration upload                                  
TBI0300000006750002NPR030                  8000DA04-03-2022DISBT04-03-2022NNN  Migration upload              Migration upload                                  
TBI03002071524001  NPR030                  8000CA04-03-2022     04-03-2022NNN  Migration upload              Migration upload                                  
TBI0300000006760002NPR030                  8000DA04-03-2022DISBT04-03-2022NNN  Migration upload              Migration upload                                  
TBI03002071524001  NPR030                  8000CA04-03-2022     04-03-2022NNN  Migration upload              Migration upload                                  
TBI0300000006770002NPR030                  8000DA04-03-2022DISBT04-03-2022NNN  Migration upload              Migration upload                                  
TBI03002071524001  NPR030                  8000CA04-03-2022     04-03-2022NNN  Migration upload              Migration upload                                  
TBI0300000006780002NPR030                  8000DA04-03-2022DISBT04-03-2022NNN  Migration upload              Migration upload                                  
TBI03002071524001  NPR030                 27000CA04-03-2022     04-03-2022NNN  Migration upload              Migration upload                                  
TBI0300000006810002NPR030                 27000DA04-03-2022DISBT04-03-2022NNN  Migration upload              Migration upload                                  
TBI03002071524001  NPR030                 27000CA04-03-2022     04-03-2022NNN  Migration upload              Migration upload                                  
TBI0300000006820002NPR030                 27000DA04-03-2022DISBT04-03-2022NNN  Migration upload              Migration upload                                  
TBI03002071524001  NPR030                  8000CA04-03-2022     04-03-2022NNN  Migration upload              Migration upload                                  
TBI0300000006830002NPR030                  8000DA04-03-2022DISBT04-03-2022NNN  Migration upload              Migration upload                                  
TBI03002071524001  NPR030                  8000CA04-03-2022     04-03-2022NNN  Migration upload              Migration upload                                  
TBI0300000006840002NPR030                  8000DA04-03-2022DISBT04-03-2022NNN  Migration upload              Migration upload                                  
TBI03002071524001  NPR030                  8000CA04-03-2022     04-03-2022NNN  Migration upload              Migration upload                                  
TBI0300000006850002NPR030                  8000DA04-03-2022DISBT04-03-2022NNN  Migration upload              Migration upload                                  
TBI03002071524001  NPR030                  8000CA04-03-2022     04-03-2022NNN  Migration upload              Migration upload                                  
TBI0300000006860002NPR030                  8000DA04-03-2022DISBT04-03-2022NNN  Migration upload              Migration upload                                  
TBI03002071524001  NPR030                  8000CA04-03-2022     04-03-2022NNN  Migration upload              Migration upload                                  
TBI0300000006870002NPR030                  8000DA04-03-2022DISBT04-03-2022NNN  Migration upload              Migration upload                                  
TBI03002071524001  NPR030                 27000CA04-03-2022     04-03-2022NNN  Migration upload              Migration upload                                  
TBI0300000006880002NPR030                 27000DA04-03-2022DISBT04-03-2022NNN  Migration upload              Migration upload                                  
TBI03002071524001  NPR030                 27000CA04-03-2022     04-03-2022NNN  Migration upload              Migration upload                                  
TBI0300000006890002NPR030                 27000DA04-03-2022DISBT04-03-2022NNN  Migration upload              Migration upload                                  
TBI03002071524001  NPR030                 40000CA04-03-2022     04-03-2022NNN  Migration upload              Migration upload                                  
TBI0300000006900002NPR030                 40000DA04-03-2022DISBT04-03-2022NNN  Migration upload              Migration upload                                  
TBI03002071524001  NPR030                  8000CA04-03-2022     04-03-2022NNN  Migration upload              Migration upload                                  
TBI0300000006910002NPR030                  8000DA04-03-2022DISBT04-03-2022NNN  Migration upload              Migration upload                                  
TBI03002071524001  NPR030                 27000CA04-03-2022     04-03-2022NNN  Migration upload              Migration upload                                  
TBI0300000006920002NPR030                 27000DA04-03-2022DISBT04-03-2022NNN  Migration upload              Migration upload                                  
TBI03002071524001  NPR030                 40000CA04-03-2022     04-03-2022NNN  Migration upload              Migration upload                                  
TBI0300000006930002NPR030                 40000DA04-03-2022DISBT04-03-2022NNN  Migration upload              Migration upload                                  
TBI03002071524001  NPR030                  8000CA04-03-2022     04-03-2022NNN  Migration upload              Migration upload                                  
TBI0300000006940002NPR030                  8000DA04-03-2022DISBT04-03-2022NNN  Migration upload              Migration upload                                  
TBI03002071524001  NPR030                  8000CA04-03-2022     04-03-2022NNN  Migration upload              Migration upload                                  
TBI0300000006950002NPR030                  8000DA04-03-2022DISBT04-03-2022NNN  Migration upload              Migration upload                                  
TBI03002071524001  NPR030                  8000CA04-03-2022     04-03-2022NNN  Migration upload              Migration upload                                  
TBI0300000006960002NPR030                  8000DA04-03-2022DISBT04-03-2022NNN  Migration upload              Migration upload                                  
TBI03002071524001  NPR030                  8000CA04-03-2022     04-03-2022NNN  Migration upload              Migration upload                                  
TBI0300000006970002NPR030                  8000DA04-03-2022DISBT04-03-2022NNN  Migration upload              Migration upload                                  
TBI03002071524001  NPR030                  8000CA04-03-2022     04-03-2022NNN  Migration upload              Migration upload                                  
TBI0300000006980002NPR030                  8000DA04-03-2022DISBT04-03-2022NNN  Migration upload              Migration upload                                  
TBI03002071524001  NPR030                  8000CA04-03-2022     04-03-2022NNN  Migration upload              Migration upload                                  
TBI0300000006990002NPR030                  8000DA04-03-2022DISBT04-03-2022NNN  Migration upload              Migration upload                                  
TBI03002071524001  NPR030                  8000CA04-03-2022     04-03-2022NNN  Migration upload              Migration upload                                  
TBI0300000007000002NPR030                  8000DA04-03-2022DISBT04-03-2022NNN  Migration upload              Migration upload                                  
TBI03002071524001  NPR030                  8000CA04-03-2022     04-03-2022NNN  Migration upload              Migration upload                                  
TBI0300000007010002NPR030                  8000DA04-03-2022DISBT04-03-2022NNN  Migration upload              Migration upload                                  
TBI03002071524001  NPR030                 27000CA04-03-2022     04-03-2022NNN  Migration upload              Migration upload                                  
TBI0300000007050002NPR030                 27000DA04-03-2022DISBT04-03-2022NNN  Migration upload              Migration upload                                  
TBI03002071524001  NPR030                 27000CA04-03-2022     04-03-2022NNN  Migration upload              Migration upload                                  
TBI0300000007060002NPR030                 27000DA04-03-2022DISBT04-03-2022NNN  Migration upload              Migration upload                                  
TBI03002071524001  NPR030                  8000CA04-03-2022     04-03-2022NNN  Migration upload              Migration upload                                  
TBI0300000007080002NPR030                  8000DA04-03-2022DISBT04-03-2022NNN  Migration upload              Migration upload                                  
TBI03002071524001  NPR030                  8000CA04-03-2022     04-03-2022NNN  Migration upload              Migration upload                                  
TBI0300000007090002NPR030                  8000DA04-03-2022DISBT04-03-2022NNN  Migration upload              Migration upload                                  
TBI03002071524001  NPR030                  8000CA04-03-2022     04-03-2022NNN  Migration upload              Migration upload                                  
TBI0300000007100002NPR030                  8000DA04-03-2022DISBT04-03-2022NNN  Migration upload              Migration upload                                  
TBI03002071524001  NPR030                  8000CA04-03-2022     04-03-2022NNN  Migration upload              Migration upload                                  
TBI0300000007110002NPR030                  8000DA04-03-2022DISBT04-03-2022NNN  Migration upload              Migration upload                                  
TBI03002071524001  NPR030                 15000CA04-03-2022     04-03-2022NNN  Migration upload              Migration upload                                  
TBI0300000007130002NPR030                 15000DA04-03-2022DISBT04-03-2022NNN  Migration upload              Migration upload                                  
TBI03002071524001  NPR030                 15000CA04-03-2022     04-03-2022NNN  Migration upload              Migration upload                                  
TBI0300000007130003NPR030                 15000DA04-03-2022DISBT04-03-2022NNN  Migration upload              Migration upload                                  
TBI03002071524001  NPR030                 15000CA04-03-2022     04-03-2022NNN  Migration upload              Migration upload                                  
TBI0300000007140002NPR030                 15000DA04-03-2022DISBT04-03-2022NNN  Migration upload              Migration upload                                  
TBI03002071524001  NPR030                 15000CA04-03-2022     04-03-2022NNN  Migration upload              Migration upload                                  
TBI0300000007140003NPR030                 15000DA04-03-2022DISBT04-03-2022NNN  Migration upload              Migration upload                                  
TBI03002071524001  NPR030                 14000CA04-03-2022     04-03-2022NNN  Migration upload              Migration upload                                  
TBI0300000007150002NPR030                 14000DA04-03-2022DISBT04-03-2022NNN  Migration upload              Migration upload                                  
TBI03002071524001  NPR030                 15000CA04-03-2022     04-03-2022NNN  Migration upload              Migration upload                                  
TBI0300000007160002NPR030                 15000DA04-03-2022DISBT04-03-2022NNN  Migration upload              Migration upload                                  
TBI03002071524001  NPR030                 15000CA04-03-2022     04-03-2022NNN  Migration upload              Migration upload                                  
TBI0300000007180002NPR030                 15000DA04-03-2022DISBT04-03-2022NNN  Migration upload              Migration upload                                  
TBI03002071524001  NPR030                 15000CA04-03-2022     04-03-2022NNN  Migration upload              Migration upload                                  
TBI0300000007190002NPR030                 15000DA04-03-2022DISBT04-03-2022NNN  Migration upload              Migration upload                                  
TBI03002071524001  NPR030                 15000CA04-03-2022     04-03-2022NNN  Migration upload              Migration upload                                  
TBI0300000007200002NPR030                 15000DA04-03-2022DISBT04-03-2022NNN  Migration upload              Migration upload                                  
TBI03002071524001  NPR030                  8000CA04-03-2022     04-03-2022NNN  Migration upload              Migration upload                                  
TBI0300000007210002NPR030                  8000DA04-03-2022DISBT04-03-2022NNN  Migration upload              Migration upload                                  
TBI03002071524001  NPR030                 27000CA04-03-2022     04-03-2022NNN  Migration upload              Migration upload                                  
TBI0300000007220002NPR030                 27000DA04-03-2022DISBT04-03-2022NNN  Migration upload              Migration upload                                  
TBI03002071524001  NPR030                 15000CA04-03-2022     04-03-2022NNN  Migration upload              Migration upload                                  
TBI0300000007230002NPR030                 15000DA04-03-2022DISBT04-03-2022NNN  Migration upload              Migration upload                                  
TBI03002071524001  NPR030                 27000CA04-03-2022     04-03-2022NNN  Migration upload              Migration upload                                  
TBI0300000007240002NPR030                 27000DA04-03-2022DISBT04-03-2022NNN  Migration upload              Migration upload                                  
TBI03002071524001  NPR030                 27000CA04-03-2022     04-03-2022NNN  Migration upload              Migration upload                                  
TBI0300000007250002NPR030                 27000DA04-03-2022DISBT04-03-2022NNN  Migration upload              Migration upload                                  
TBI03002071524001  NPR030                 30000CA04-03-2022     04-03-2022NNN  Migration upload              Migration upload                                  
TBI0300000007260002NPR030                 30000DA04-03-2022DISBT04-03-2022NNN  Migration upload              Migration upload                                  
TBI03002071524001  NPR030                 15000CA04-03-2022     04-03-2022NNN  Migration upload              Migration upload                                  
TBI0300000007260003NPR030                 15000DA04-03-2022DISBT04-03-2022NNN  Migration upload              Migration upload                                  
TBI03002071524001  NPR030                 27000CA04-03-2022     04-03-2022NNN  Migration upload              Migration upload                                  
TBI0300000007270002NPR030                 27000DA04-03-2022DISBT04-03-2022NNN  Migration upload              Migration upload                                  
TBI03002071524001  NPR030                 27000CA04-03-2022     04-03-2022NNN  Migration upload              Migration upload                                  
TBI0300000007270003NPR030                 27000DA04-03-2022DISBT04-03-2022NNN  Migration upload              Migration upload                                  
TBI03002071524001  NPR030                  8000CA04-03-2022     04-03-2022NNN  Migration upload              Migration upload                                  
TBI0300000007290002NPR030                  8000DA04-03-2022DISBT04-03-2022NNN  Migration upload              Migration upload                                  
TBI03002071524001  NPR030                  8000CA04-03-2022     04-03-2022NNN  Migration upload              Migration upload                                  
TBI0300000007300002NPR030                  8000DA04-03-2022DISBT04-03-2022NNN  Migration upload              Migration upload                                  
TBI03002071524001  NPR030                  8000CA04-03-2022     04-03-2022NNN  Migration upload              Migration upload                                  
TBI0300000007310002NPR030                  8000DA04-03-2022DISBT04-03-2022NNN  Migration upload              Migration upload                                  
TBI03002071524001  NPR030                  8000CA04-03-2022     04-03-2022NNN  Migration upload              Migration upload                                  
TBI0300000007320002NPR030                  8000DA04-03-2022DISBT04-03-2022NNN  Migration upload              Migration upload                                  
TBI03002071524001  NPR030                  8000CA04-03-2022     04-03-2022NNN  Migration upload              Migration upload                                  
TBI0300000007330002NPR030                  8000DA04-03-2022DISBT04-03-2022NNN  Migration upload              Migration upload                                  
TBI03002071524001  NPR030                  8000CA04-03-2022     04-03-2022NNN  Migration upload              Migration upload                                  
TBI0300000007340002NPR030                  8000DA04-03-2022DISBT04-03-2022NNN  Migration upload              Migration upload                                  
TBI03002071524001  NPR030                  8000CA04-03-2022     04-03-2022NNN  Migration upload              Migration upload                                  
TBI0300000007350002NPR030                  8000DA04-03-2022DISBT04-03-2022NNN  Migration upload              Migration upload                                  
TBI03002071524001  NPR030                  8000CA04-03-2022     04-03-2022NNN  Migration upload              Migration upload                                  
TBI0300000007360002NPR030                  8000DA04-03-2022DISBT04-03-2022NNN  Migration upload              Migration upload                                  
TBI03002071524001  NPR030                  8000CA04-03-2022     04-03-2022NNN  Migration upload              Migration upload                                  
TBI0300000007370002NPR030                  8000DA04-03-2022DISBT04-03-2022NNN  Migration upload              Migration upload                                  
TBI03002071524001  NPR030                  8000CA04-03-2022     04-03-2022NNN  Migration upload              Migration upload                                  
TBI0300000007410002NPR030                  8000DA04-03-2022DISBT04-03-2022NNN  Migration upload              Migration upload                                  
TBI03002071524001  NPR030                  8000CA04-03-2022     04-03-2022NNN  Migration upload              Migration upload                                  
TBI0300000007420002NPR030                  8000DA04-03-2022DISBT04-03-2022NNN  Migration upload              Migration upload                                  
TBI03002071524001  NPR030                  8000CA04-03-2022     04-03-2022NNN  Migration upload              Migration upload                                  
TBI0300000007430002NPR030                  8000DA04-03-2022DISBT04-03-2022NNN  Migration upload              Migration upload                                  
TBI03002071524001  NPR030                  8000CA04-03-2022     04-03-2022NNN  Migration upload              Migration upload                                  
TBI0300000007440002NPR030                  8000DA04-03-2022DISBT04-03-2022NNN  Migration upload              Migration upload                                  
TBI03002071524001  NPR030                  8000CA04-03-2022     04-03-2022NNN  Migration upload              Migration upload                                  
TBI0300000007450002NPR030                  8000DA04-03-2022DISBT04-03-2022NNN  Migration upload              Migration upload                                  
TBI03002071524001  NPR030                  8000CA04-03-2022     04-03-2022NNN  Migration upload              Migration upload                                  
TBI0300000007460002NPR030                  8000DA04-03-2022DISBT04-03-2022NNN  Migration upload              Migration upload                                  
TBI03002071524001  NPR030                  8000CA04-03-2022     04-03-2022NNN  Migration upload              Migration upload                                  
TBI0300000007470002NPR030                  8000DA04-03-2022DISBT04-03-2022NNN  Migration upload              Migration upload                                  
TBI03002071524001  NPR030                  8000CA04-03-2022     04-03-2022NNN  Migration upload              Migration upload                                  
TBI0300000007480002NPR030                  8000DA04-03-2022DISBT04-03-2022NNN  Migration upload              Migration upload                                  
TBI03002071524001  NPR030                  8000CA04-03-2022     04-03-2022NNN  Migration upload              Migration upload                                  
TBI0300000007490002NPR030                  8000DA04-03-2022DISBT04-03-2022NNN  Migration upload              Migration upload                                  
TBI03002071524001  NPR030                 15000CA04-03-2022     04-03-2022NNN  Migration upload              Migration upload                                  
TBI0300000007510002NPR030                 15000DA04-03-2022DISBT04-03-2022NNN  Migration upload              Migration upload                                  
TBI03002071524001  NPR030                  8000CA04-03-2022     04-03-2022NNN  Migration upload              Migration upload                                  
TBI0300000007520002NPR030                  8000DA04-03-2022DISBT04-03-2022NNN  Migration upload              Migration upload                                  
TBI03002071524001  NPR030                  8000CA04-03-2022     04-03-2022NNN  Migration upload              Migration upload                                  
TBI0300000007530002NPR030                  8000DA04-03-2022DISBT04-03-2022NNN  Migration upload              Migration upload                                  
TBI03002071524001  NPR030                  8000CA04-03-2022     04-03-2022NNN  Migration upload              Migration upload                                  
TBI0300000007540002NPR030                  8000DA04-03-2022DISBT04-03-2022NNN  Migration upload              Migration upload                                  
TBI03002071524001  NPR030                  8000CA04-03-2022     04-03-2022NNN  Migration upload              Migration upload                                  
TBI0300000007550002NPR030                  8000DA04-03-2022DISBT04-03-2022NNN  Migration upload              Migration upload                                  
TBI03002071524001  NPR030                 40000CA04-03-2022     04-03-2022NNN  Migration upload              Migration upload                                  
TBI0300000007560002NPR030                 40000DA04-03-2022DISBT04-03-2022NNN  Migration upload              Migration upload                                  
TBI03002071524001  NPR030                  8000CA04-03-2022     04-03-2022NNN  Migration upload              Migration upload                                  
TBI0300000007570002NPR030                  8000DA04-03-2022DISBT04-03-2022NNN  Migration upload              Migration upload                                  
TBI03002071524001  NPR030                  8000CA04-03-2022     04-03-2022NNN  Migration upload              Migration upload                                  
TBI0300000007580002NPR030                  8000DA04-03-2022DISBT04-03-2022NNN  Migration upload              Migration upload                                  
TBI03002071524001  NPR030                  8000CA04-03-2022     04-03-2022NNN  Migration upload              Migration upload                                  
TBI0300000007590002NPR030                  8000DA04-03-2022DISBT04-03-2022NNN  Migration upload              Migration upload                                  
TBI03002071524001  NPR030                 27000CA04-03-2022     04-03-2022NNN  Migration upload              Migration upload                                  
TBI0300000007600002NPR030                 27000DA04-03-2022DISBT04-03-2022NNN  Migration upload              Migration upload                                  
TBI03002071524001  NPR030                  8000CA04-03-2022     04-03-2022NNN  Migration upload              Migration upload                                  
TBI0300000007610002NPR030                  8000DA04-03-2022DISBT04-03-2022NNN  Migration upload              Migration upload                                  
TBI03002071524001  NPR030                  8000CA04-03-2022     04-03-2022NNN  Migration upload              Migration upload                                  
TBI0300000007620002NPR030                  8000DA04-03-2022DISBT04-03-2022NNN  Migration upload              Migration upload                                  
TBI03002071524001  NPR030                 27000CA04-03-2022     04-03-2022NNN  Migration upload              Migration upload                                  
TBI0300000007630002NPR030                 27000DA04-03-2022DISBT04-03-2022NNN  Migration upload              Migration upload                                  
TBI03002071524001  NPR030                 27000CA04-03-2022     04-03-2022NNN  Migration upload              Migration upload                                  
TBI0300000007640002NPR030                 27000DA04-03-2022DISBT04-03-2022NNN  Migration upload              Migration upload                                  
TBI03002071524001  NPR030                 27000CA04-03-2022     04-03-2022NNN  Migration upload              Migration upload                                  
TBI0300000007650002NPR030                 27000DA04-03-2022DISBT04-03-2022NNN  Migration upload              Migration upload                                  
TBI03002071524001  NPR030                 30000CA04-03-2022     04-03-2022NNN  Migration upload              Migration upload                                  
TBI0300000007660003NPR030                 30000DA04-03-2022DISBT04-03-2022NNN  Migration upload              Migration upload                                  
TBI03002071524001  NPR030                  8000CA04-03-2022     04-03-2022NNN  Migration upload              Migration upload                                  
TBI0300000007670002NPR030                  8000DA04-03-2022DISBT04-03-2022NNN  Migration upload              Migration upload                                  
TBI03002071524001  NPR030                  8000CA04-03-2022     04-03-2022NNN  Migration upload              Migration upload                                  
TBI0300000007680002NPR030                  8000DA04-03-2022DISBT04-03-2022NNN  Migration upload              Migration upload                                  
TBI03002071524001  NPR030                 15000CA04-03-2022     04-03-2022NNN  Migration upload              Migration upload                                  
TBI0300000007690002NPR030                 15000DA04-03-2022DISBT04-03-2022NNN  Migration upload              Migration upload                                  
TBI03002071524001  NPR030                  8000CA04-03-2022     04-03-2022NNN  Migration upload              Migration upload                                  
TBI0300000007700002NPR030                  8000DA04-03-2022DISBT04-03-2022NNN  Migration upload              Migration upload                                  
TBI03002071524001  NPR030                  8000CA04-03-2022     04-03-2022NNN  Migration upload              Migration upload                                  
TBI0300000007710002NPR030                  8000DA04-03-2022DISBT04-03-2022NNN  Migration upload              Migration upload                                  
TBI03002071524001  NPR030                  8000CA04-03-2022     04-03-2022NNN  Migration upload              Migration upload                                  
TBI0300000007720002NPR030                  8000DA04-03-2022DISBT04-03-2022NNN  Migration upload              Migration upload                                  
TBI03002071524001  NPR030                  8000CA04-03-2022     04-03-2022NNN  Migration upload              Migration upload                                  
TBI0300000007730002NPR030                  8000DA04-03-2022DISBT04-03-2022NNN  Migration upload              Migration upload                                  
TBI03002071524001  NPR030                 15000CA04-03-2022     04-03-2022NNN  Migration upload              Migration upload                                  
TBI0300000007740002NPR030                 15000DA04-03-2022DISBT04-03-2022NNN  Migration upload              Migration upload                                  
TBI03002071524001  NPR030                  8000CA04-03-2022     04-03-2022NNN  Migration upload              Migration upload                                  
TBI0300000007750002NPR030                  8000DA04-03-2022DISBT04-03-2022NNN  Migration upload              Migration upload                                  
TBI03002071524001  NPR030                  8000CA04-03-2022     04-03-2022NNN  Migration upload              Migration upload                                  
TBI0300000007760002NPR030                  8000DA04-03-2022DISBT04-03-2022NNN  Migration upload              Migration upload                                  
TBI03002071524001  NPR030                 15000CA04-03-2022     04-03-2022NNN  Migration upload              Migration upload                                  
TBI0300000007770002NPR030                 15000DA04-03-2022DISBT04-03-2022NNN  Migration upload              Migration upload                                  
TBI03002071524001  NPR030                  8000CA04-03-2022     04-03-2022NNN  Migration upload              Migration upload                                  
TBI0300000007780002NPR030                  8000DA04-03-2022DISBT04-03-2022NNN  Migration upload              Migration upload                                  
TBI03002071524001  NPR030                  8000CA04-03-2022     04-03-2022NNN  Migration upload              Migration upload                                  
TBI0300000007790002NPR030                  8000DA04-03-2022DISBT04-03-2022NNN  Migration upload              Migration upload                                  
TBI03002071524001  NPR030                 20000CA04-03-2022     04-03-2022NNN  Migration upload              Migration upload                                  
TBI0300000007800002NPR030                 20000DA04-03-2022DISBT04-03-2022NNN  Migration upload              Migration upload                                  
TBI03002071524001  NPR030                  8000CA04-03-2022     04-03-2022NNN  Migration upload              Migration upload                                  
TBI0300000007810002NPR030                  8000DA04-03-2022DISBT04-03-2022NNN  Migration upload              Migration upload                                  
TBI03002071524001  NPR030                  8000CA04-03-2022     04-03-2022NNN  Migration upload              Migration upload                                  
TBI0300000007830002NPR030                  8000DA04-03-2022DISBT04-03-2022NNN  Migration upload              Migration upload                                  
TBI03002071524001  NPR030                 35000CA04-03-2022     04-03-2022NNN  Migration upload              Migration upload                                  
TBI0300000007840002NPR030                 35000DA04-03-2022DISBT04-03-2022NNN  Migration upload              Migration upload                                  
TBI03002071524001  NPR030                 35000CA04-03-2022     04-03-2022NNN  Migration upload              Migration upload                                  
TBI0300000007860003NPR030                 35000DA04-03-2022DISBT04-03-2022NNN  Migration upload              Migration upload                                  
TBI03002071524001  NPR030                 35000CA04-03-2022     04-03-2022NNN  Migration upload              Migration upload                                  
TBI0300000007870002NPR030                 35000DA04-03-2022DISBT04-03-2022NNN  Migration upload              Migration upload                                  
TBI03002071524001  NPR030                 35000CA04-03-2022     04-03-2022NNN  Migration upload              Migration upload                                  
TBI0300000007880002NPR030                 35000DA04-03-2022DISBT04-03-2022NNN  Migration upload              Migration upload                                  
TBI03002071524001  NPR030                 35000CA04-03-2022     04-03-2022NNN  Migration upload              Migration upload                                  
TBI0300000007910002NPR030                 35000DA04-03-2022DISBT04-03-2022NNN  Migration upload              Migration upload                                  
TBI03002071524001  NPR030                 35000CA04-03-2022     04-03-2022NNN  Migration upload              Migration upload                                  
TBI0300000007930002NPR030                 35000DA04-03-2022DISBT04-03-2022NNN  Migration upload              Migration upload                                  
TBI03002071524001  NPR030                  8000CA04-03-2022     04-03-2022NNN  Migration upload              Migration upload                                  
TBI0300000007940002NPR030                  8000DA04-03-2022DISBT04-03-2022NNN  Migration upload              Migration upload                                  
TBI03002071524001  NPR030                 20000CA04-03-2022     04-03-2022NNN  Migration upload              Migration upload                                  
TBI0300000007950002NPR030                 20000DA04-03-2022DISBT04-03-2022NNN  Migration upload              Migration upload                                  
TBI03002071524001  NPR030                 35000CA04-03-2022     04-03-2022NNN  Migration upload              Migration upload                                  
TBI0300000007970002NPR030                 35000DA04-03-2022DISBT04-03-2022NNN  Migration upload              Migration upload                                  
TBI03002071524001  NPR030                 35000CA04-03-2022     04-03-2022NNN  Migration upload              Migration upload                                  
TBI0300000007990002NPR030                 35000DA04-03-2022DISBT04-03-2022NNN  Migration upload              Migration upload                                  
TBI03002071524001  NPR030                 30000CA04-03-2022     04-03-2022NNN  Migration upload              Migration upload                                  
TBI0300000008030002NPR030                 30000DA04-03-2022DISBT04-03-2022NNN  Migration upload              Migration upload                                  
TBI03002071524001  NPR030                  8000CA04-03-2022     04-03-2022NNN  Migration upload              Migration upload                                  
TBI0300000008040002NPR030                  8000DA04-03-2022DISBT04-03-2022NNN  Migration upload              Migration upload                                  
TBI03002071524001  NPR030                  8000CA04-03-2022     04-03-2022NNN  Migration upload              Migration upload                                  
TBI0300000008050002NPR030                  8000DA04-03-2022DISBT04-03-2022NNN  Migration upload              Migration upload                                  
TBI03002071524001  NPR030                  8000CA04-03-2022     04-03-2022NNN  Migration upload              Migration upload                                  
TBI0300000008060002NPR030                  8000DA04-03-2022DISBT04-03-2022NNN  Migration upload              Migration upload                                  
TBI03002071524001  NPR030                  8000CA04-03-2022     04-03-2022NNN  Migration upload              Migration upload                                  
TBI0300000008070002NPR030                  8000DA04-03-2022DISBT04-03-2022NNN  Migration upload              Migration upload                                  
TBI03002071524001  NPR030                  8000CA04-03-2022     04-03-2022NNN  Migration upload              Migration upload                                  
TBI0300000008080002NPR030                  8000DA04-03-2022DISBT04-03-2022NNN  Migration upload              Migration upload                                  
TBI03002071524001  NPR030                  8000CA04-03-2022     04-03-2022NNN  Migration upload              Migration upload                                  
TBI0300000008090002NPR030                  8000DA04-03-2022DISBT04-03-2022NNN  Migration upload              Migration upload                                  
TBI03002071524001  NPR030                  8000CA04-03-2022     04-03-2022NNN  Migration upload              Migration upload                                  
TBI0300000008100002NPR030                  8000DA04-03-2022DISBT04-03-2022NNN  Migration upload              Migration upload                                  
TBI03002071524001  NPR030                  8000CA04-03-2022     04-03-2022NNN  Migration upload              Migration upload                                  
TBI0300000008120002NPR030                  8000DA04-03-2022DISBT04-03-2022NNN  Migration upload              Migration upload                                  
TBI03002071524001  NPR030                  8000CA04-03-2022     04-03-2022NNN  Migration upload              Migration upload                                  
TBI0300000008130002NPR030                  8000DA04-03-2022DISBT04-03-2022NNN  Migration upload              Migration upload                                  
TBI03002071524001  NPR030                  8000CA04-03-2022     04-03-2022NNN  Migration upload              Migration upload                                  
TBI0300000008140002NPR030                  8000DA04-03-2022DISBT04-03-2022NNN  Migration upload              Migration upload                                  
TBI03002071524001  NPR030                  8000CA04-03-2022     04-03-2022NNN  Migration upload              Migration upload                                  
TBI0300000008150002NPR030                  8000DA04-03-2022DISBT04-03-2022NNN  Migration upload              Migration upload                                  
TBI03002071524001  NPR030                 35000CA04-03-2022     04-03-2022NNN  Migration upload              Migration upload                                  
TBI0300000008160002NPR030                 35000DA04-03-2022DISBT04-03-2022NNN  Migration upload              Migration upload                                  
TBI03002071524001  NPR030                 35000CA04-03-2022     04-03-2022NNN  Migration upload              Migration upload                                  
TBI0300000008170002NPR030                 35000DA04-03-2022DISBT04-03-2022NNN  Migration upload              Migration upload                                  
TBI03002071524001  NPR030                 10000CA04-03-2022     04-03-2022NNN  Migration upload              Migration upload                                  
TBI0300000008190002NPR030                 10000DA04-03-2022DISBT04-03-2022NNN  Migration upload              Migration upload                                  
TBI03002071524001  NPR030                  8000CA04-03-2022     04-03-2022NNN  Migration upload              Migration upload                                  
TBI0300000008200002NPR030                  8000DA04-03-2022DISBT04-03-2022NNN  Migration upload              Migration upload                                  
TBI03002071524001  NPR030                 10000CA04-03-2022     04-03-2022NNN  Migration upload              Migration upload                                  
TBI0300000008220002NPR030                 10000DA04-03-2022DISBT04-03-2022NNN  Migration upload              Migration upload                                  
TBI03002071524001  NPR030                  8000CA04-03-2022     04-03-2022NNN  Migration upload              Migration upload                                  
TBI0300000008230002NPR030                  8000DA04-03-2022DISBT04-03-2022NNN  Migration upload              Migration upload                                  
TBI03002071524001  NPR030                 15000CA04-03-2022     04-03-2022NNN  Migration upload              Migration upload                                  
TBI0300000008250002NPR030                 15000DA04-03-2022DISBT04-03-2022NNN  Migration upload              Migration upload                                  
TBI03002071524001  NPR030                 15000CA04-03-2022     04-03-2022NNN  Migration upload              Migration upload                                  
TBI0300000008280002NPR030                 15000DA04-03-2022DISBT04-03-2022NNN  Migration upload              Migration upload                                  
TBI03002071524001  NPR030                 15000CA04-03-2022     04-03-2022NNN  Migration upload              Migration upload                                  
TBI0300000008290002NPR030                 15000DA04-03-2022DISBT04-03-2022NNN  Migration upload              Migration upload                                  
TBI03002071524001  NPR030                 20000CA04-03-2022     04-03-2022NNN  Migration upload              Migration upload                                  
TBI0300000008300002NPR030                 20000DA04-03-2022DISBT04-03-2022NNN  Migration upload              Migration upload                                  
TBI03002071524001  NPR030                  8000CA04-03-2022     04-03-2022NNN  Migration upload              Migration upload                                  
TBI0300000008310002NPR030                  8000DA04-03-2022DISBT04-03-2022NNN  Migration upload              Migration upload                                  
TBI03002071524001  NPR030                  8000CA04-03-2022     04-03-2022NNN  Migration upload              Migration upload                                  
TBI0300000008320002NPR030                  8000DA04-03-2022DISBT04-03-2022NNN  Migration upload              Migration upload                                  
TBI03002071524001  NPR030                  8000CA04-03-2022     04-03-2022NNN  Migration upload              Migration upload                                  
TBI0300000008330002NPR030                  8000DA04-03-2022DISBT04-03-2022NNN  Migration upload              Migration upload                                  
TBI03002071524001  NPR030                 15000CA04-03-2022     04-03-2022NNN  Migration upload              Migration upload                                  
TBI0300000008350002NPR030                 15000DA04-03-2022DISBT04-03-2022NNN  Migration upload              Migration upload                                  
TBI03002071524001  NPR030                  8000CA04-03-2022     04-03-2022NNN  Migration upload              Migration upload                                  
TBI0300000008370002NPR030                  8000DA04-03-2022DISBT04-03-2022NNN  Migration upload              Migration upload                                  
TBI03002071524001  NPR030                 20000CA04-03-2022     04-03-2022NNN  Migration upload              Migration upload                                  
TBI0300000008380002NPR030                 20000DA04-03-2022DISBT04-03-2022NNN  Migration upload              Migration upload                                  
TBI03002071524001  NPR030                 35000CA04-03-2022     04-03-2022NNN  Migration upload              Migration upload                                  
TBI0300000008390002NPR030                 35000DA04-03-2022DISBT04-03-2022NNN  Migration upload              Migration upload                                  
TBI03002071524001  NPR030                 35000CA04-03-2022     04-03-2022NNN  Migration upload              Migration upload                                  
TBI0300000008400002NPR030                 35000DA04-03-2022DISBT04-03-2022NNN  Migration upload              Migration upload                                  
TBI03002071524001  NPR030                 15000CA04-03-2022     04-03-2022NNN  Migration upload              Migration upload                                  
TBI0300000008410002NPR030                 15000DA04-03-2022DISBT04-03-2022NNN  Migration upload              Migration upload                                  
TBI03002071524001  NPR030                  8000CA04-03-2022     04-03-2022NNN  Migration upload              Migration upload                                  
TBI0300000008420002NPR030                  8000DA04-03-2022DISBT04-03-2022NNN  Migration upload              Migration upload                                  
TBI03002071524001  NPR030                 15000CA04-03-2022     04-03-2022NNN  Migration upload              Migration upload                                  
TBI0300000008430002NPR030                 15000DA04-03-2022DISBT04-03-2022NNN  Migration upload              Migration upload                                  
TBI03002071524001  NPR030                  8000CA04-03-2022     04-03-2022NNN  Migration upload              Migration upload                                  
TBI0300000008440002NPR030                  8000DA04-03-2022DISBT04-03-2022NNN  Migration upload              Migration upload                                  
TBI03002071524001  NPR030                 15000CA04-03-2022     04-03-2022NNN  Migration upload              Migration upload                                  
TBI0300000008450002NPR030                 15000DA04-03-2022DISBT04-03-2022NNN  Migration upload              Migration upload                                  
TBI03002071524001  NPR030                  8000CA04-03-2022     04-03-2022NNN  Migration upload              Migration upload                                  
TBI0300000008460002NPR030                  8000DA04-03-2022DISBT04-03-2022NNN  Migration upload              Migration upload                                  
TBI03002071524001  NPR030                  8000CA04-03-2022     04-03-2022NNN  Migration upload              Migration upload                                  
TBI0300000008470002NPR030                  8000DA04-03-2022DISBT04-03-2022NNN  Migration upload              Migration upload                                  
TBI03002071524001  NPR030                 35000CA04-03-2022     04-03-2022NNN  Migration upload              Migration upload                                  
TBI0300000008490002NPR030                 35000DA04-03-2022DISBT04-03-2022NNN  Migration upload              Migration upload                                  
TBI03002071524001  NPR030                 35000CA04-03-2022     04-03-2022NNN  Migration upload              Migration upload                                  
TBI0300000008500002NPR030                 35000DA04-03-2022DISBT04-03-2022NNN  Migration upload              Migration upload                                  
TBI03002071524001  NPR030                 10000CA04-03-2022     04-03-2022NNN  Migration upload              Migration upload                                  
TBI0300000008520002NPR030                 10000DA04-03-2022DISBT04-03-2022NNN  Migration upload              Migration upload                                  
TBI03002071524001  NPR030                 15000CA04-03-2022     04-03-2022NNN  Migration upload              Migration upload                                  
TBI0300000008520003NPR030                 15000DA04-03-2022DISBT04-03-2022NNN  Migration upload              Migration upload                                  
TBI03002071524001  NPR030                  8000CA04-03-2022     04-03-2022NNN  Migration upload              Migration upload                                  
TBI0300000008530002NPR030                  8000DA04-03-2022DISBT04-03-2022NNN  Migration upload              Migration upload                                  
TBI03002071524001  NPR030                  8000CA04-03-2022     04-03-2022NNN  Migration upload              Migration upload                                  
TBI0300000008540002NPR030                  8000DA04-03-2022DISBT04-03-2022NNN  Migration upload              Migration upload                                  
TBI03002071524001  NPR030                  8000CA04-03-2022     04-03-2022NNN  Migration upload              Migration upload                                  
TBI0300000008550002NPR030                  8000DA04-03-2022DISBT04-03-2022NNN  Migration upload              Migration upload                                  
TBI03002071524001  NPR030                  8000CA04-03-2022     04-03-2022NNN  Migration upload              Migration upload                                  
TBI0300000008560002NPR030                  8000DA04-03-2022DISBT04-03-2022NNN  Migration upload              Migration upload                                  
TBI03002071524001  NPR030                 12000CA04-03-2022     04-03-2022NNN  Migration upload              Migration upload                                  
TBI0300000008570002NPR030                 12000DA04-03-2022DISBT04-03-2022NNN  Migration upload              Migration upload                                  
TBI03002071524001  NPR030                 19000CA04-03-2022     04-03-2022NNN  Migration upload              Migration upload                                  
TBI0300000008580002NPR030                 19000DA04-03-2022DISBT04-03-2022NNN  Migration upload              Migration upload                                  
TBI03002071524001  NPR030                  8000CA04-03-2022     04-03-2022NNN  Migration upload              Migration upload                                  
TBI0300000008590002NPR030                  8000DA04-03-2022DISBT04-03-2022NNN  Migration upload              Migration upload                                  
TBI03002071524001  NPR030                 29000CA04-03-2022     04-03-2022NNN  Migration upload              Migration upload                                  
TBI0300000008620002NPR030                 29000DA04-03-2022DISBT04-03-2022NNN  Migration upload              Migration upload                                  
TBI03002071524001  NPR030                 29000CA04-03-2022     04-03-2022NNN  Migration upload              Migration upload                                  
TBI0300000008630002NPR030                 29000DA04-03-2022DISBT04-03-2022NNN  Migration upload              Migration upload                                  
TBI03002071524001  NPR030                 29000CA04-03-2022     04-03-2022NNN  Migration upload              Migration upload                                  
TBI0300000008640002NPR030                 29000DA04-03-2022DISBT04-03-2022NNN  Migration upload              Migration upload                                  
TBI03002071524001  NPR030                 35000CA04-03-2022     04-03-2022NNN  Migration upload              Migration upload                                  
TBI0300000008650002NPR030                 35000DA04-03-2022DISBT04-03-2022NNN  Migration upload              Migration upload                                  
TBI03002071524001  NPR030                 35000CA04-03-2022     04-03-2022NNN  Migration upload              Migration upload                                  
TBI0300000008660002NPR030                 35000DA04-03-2022DISBT04-03-2022NNN  Migration upload              Migration upload                                  
TBI03002071524001  NPR030                 12000CA04-03-2022     04-03-2022NNN  Migration upload              Migration upload                                  
TBI0300000008670002NPR030                 12000DA04-03-2022DISBT04-03-2022NNN  Migration upload              Migration upload                                  
TBI03002071524001  NPR030                 15000CA04-03-2022     04-03-2022NNN  Migration upload              Migration upload                                  
TBI0300000008680002NPR030                 15000DA04-03-2022DISBT04-03-2022NNN  Migration upload              Migration upload                                  
TBI03002071524001  NPR030                 15000CA04-03-2022     04-03-2022NNN  Migration upload              Migration upload                                  
TBI0300000008690002NPR030                 15000DA04-03-2022DISBT04-03-2022NNN  Migration upload              Migration upload                                  
TBI03002071524001  NPR030                 15000CA04-03-2022     04-03-2022NNN  Migration upload              Migration upload                                  
TBI0300000008700002NPR030                 15000DA04-03-2022DISBT04-03-2022NNN  Migration upload              Migration upload                                  
TBI03002071524001  NPR030                  8000CA04-03-2022     04-03-2022NNN  Migration upload              Migration upload                                  
TBI0300000008710002NPR030                  8000DA04-03-2022DISBT04-03-2022NNN  Migration upload              Migration upload                                  
TBI03002071524001  NPR030                  8000CA04-03-2022     04-03-2022NNN  Migration upload              Migration upload                                  
TBI0300000008720002NPR030                  8000DA04-03-2022DISBT04-03-2022NNN  Migration upload              Migration upload                                  
TBI03002071524001  NPR030                 15000CA04-03-2022     04-03-2022NNN  Migration upload              Migration upload                                  
