0300000096010001WP       5                 R000000001                      0         0         0         0                             N       D    N24-03-2022                             22-02-2022     CA00810008NS                                                                                                                                                                                                                                                      A          FREE3                                   ZEROC     NPR030                    Suman testuser Grg                                                              N                    Y                                     NA                                                                                                                                                                      N N                                                                                                                                                                                                                                                                                                                                                                                                                                                                                                                                                                                    
0300000096610001WP       5                 R000000001                      0         0         0         0                             N       D    N24-03-2022                             22-02-2022     CA00810008NS                                                                                                                                                                                                                                                      A          FREE3                                   ZEROC     NPR030                    Suman testuser Grg                                                              N                    Y                                     NA                                                                                                                                                                      N N                                                                                                                                                                                                                                                                                                                                                                                                                                                                                                                                                                                    
0300000097220001WP       5                 R000000001                      0         0         0         0                             N       D    N24-03-2022                             22-02-2022     CA00810008NS                                                                                                                                                                                                                                                      A          FREE3                                   ZEROC     NPR030                    Sapana testuser Rimal                                                           N                    Y                                     NA                                                                                                                                                                      N N                                                                                                                                                                                                                                                                                                                                                                                                                                                                                                                                                                                    
0300000097220001WP       5                 R000000001                      0         0         0         0                             N       D    N24-03-2022                             22-02-2022     CA00810008NS                                                                                                                                                                                                                                                      A          FREE3                                   ZEROC     NPR030                    Sapana testuser Rimal                                                           N                    Y                                     NA                                                                                                                                                                      N N                                                                                                                                                                                                                                                                                                                                                                                                                                                                                                                                                                                    
0300000097220001WP       5                 R000000001                      0         0         0         0                             N       D    N24-03-2022                             22-02-2022     CA00810008NS                                                                                                                                                                                                                                                      A          FREE3                                   ZEROC     NPR030                    Sapana testuser Rimal                                                           N                    Y                                     NA                                                                                                                                                                      N N                                                                                                                                                                                                                                                                                                                                                                                                                                                                                                                                                                                    
0300000097840001WP       5                 R000000001                      0         0         0         0                             N       D    N24-03-2022                             22-02-2022     CA00810008NS                                                                                                                                                                                                                                                      A          FREE3                                   ZEROC     NPR030                    Suman testuser Grg                                                              N                    Y                                     NA                                                                                                                                                                      N N                                                                                                                                                                                                                                                                                                                                                                                                                                                                                                                                                                                    
