TBI00402071524001  NPR004                 10000CA24-08-2022     24-08-2022NNN  Migration upload              Migration upload                                  
TBI0040000007930005NPR004                 10000DA24-08-2022DISBT24-08-2022NNN  Migration upload              Migration upload                                  
TBI00402071524001  NPR004              32500.66CA24-08-2022     24-08-2022NNN  Migration upload              Migration upload                                  
TBI0040000007940002NPR004              32500.66DA24-08-2022DISBT24-08-2022NNN  Migration upload              Migration upload                                  
TBI00402071524001  NPR004               8350.41CA24-08-2022     24-08-2022NNN  Migration upload              Migration upload                                  
TBI0040000007960002NPR004               8350.41DA24-08-2022DISBT24-08-2022NNN  Migration upload              Migration upload                                  
TBI00402071524001  NPR004              14296.08CA24-08-2022     24-08-2022NNN  Migration upload              Migration upload                                  
TBI0040000007990003NPR004              14296.08DA24-08-2022DISBT24-08-2022NNN  Migration upload              Migration upload                                  
TBI00402071524001  NPR004              24481.01CA24-08-2022     24-08-2022NNN  Migration upload              Migration upload                                  
TBI0040000008020003NPR004              24481.01DA24-08-2022DISBT24-08-2022NNN  Migration upload              Migration upload                                  
TBI00402071524001  NPR004                 32000CA24-08-2022     24-08-2022NNN  Migration upload              Migration upload                                  
TBI0040000008050003NPR004                 32000DA24-08-2022DISBT24-08-2022NNN  Migration upload              Migration upload                                  
TBI00402071524001  NPR004              16988.17CA24-08-2022     24-08-2022NNN  Migration upload              Migration upload                                  
TBI0040000008100002NPR004              16988.17DA24-08-2022DISBT24-08-2022NNN  Migration upload              Migration upload                                  
TBI00402071524001  NPR004               2224.67CA24-08-2022     24-08-2022NNN  Migration upload              Migration upload                                  
TBI0040000008120002NPR004               2224.67DA24-08-2022DISBT24-08-2022NNN  Migration upload              Migration upload                                  
TBI00402071524001  NPR004               4915.98CA24-08-2022     24-08-2022NNN  Migration upload              Migration upload                                  
TBI0040000008130002NPR004               4915.98DA24-08-2022DISBT24-08-2022NNN  Migration upload              Migration upload                                  
TBI00402071524001  NPR004               8427.38CA24-08-2022     24-08-2022NNN  Migration upload              Migration upload                                  
TBI0040000008140002NPR004               8427.38DA24-08-2022DISBT24-08-2022NNN  Migration upload              Migration upload                                  
TBI00402071524001  NPR004              17727.63CA24-08-2022     24-08-2022NNN  Migration upload              Migration upload                                  
TBI0040000008150002NPR004              17727.63DA24-08-2022DISBT24-08-2022NNN  Migration upload              Migration upload                                  
TBI00402071524001  NPR004               8721.16CA24-08-2022     24-08-2022NNN  Migration upload              Migration upload                                  
TBI0040000008160002NPR004               8721.16DA24-08-2022DISBT24-08-2022NNN  Migration upload              Migration upload                                  
TBI00402071524001  NPR004               6494.77CA24-08-2022     24-08-2022NNN  Migration upload              Migration upload                                  
TBI0040000008180002NPR004               6494.77DA24-08-2022DISBT24-08-2022NNN  Migration upload              Migration upload                                  
TBI00402071524001  NPR004              25617.37CA24-08-2022     24-08-2022NNN  Migration upload              Migration upload                                  
TBI0040000008200002NPR004              25617.37DA24-08-2022DISBT24-08-2022NNN  Migration upload              Migration upload                                  
TBI00402071524001  NPR004                 74000CA24-08-2022     24-08-2022NNN  Migration upload              Migration upload                                  
TBI0040000008210002NPR004                 74000DA24-08-2022DISBT24-08-2022NNN  Migration upload              Migration upload                                  
TBI00402071524001  NPR004                 15500CA24-08-2022     24-08-2022NNN  Migration upload              Migration upload                                  
TBI0040000008230002NPR004                 15500DA24-08-2022DISBT24-08-2022NNN  Migration upload              Migration upload                                  
TBI00402071524001  NPR004              17442.31CA24-08-2022     24-08-2022NNN  Migration upload              Migration upload                                  
TBI0040000008280002NPR004              17442.31DA24-08-2022DISBT24-08-2022NNN  Migration upload              Migration upload                                  
TBI00402071524001  NPR004               6512.62CA24-08-2022     24-08-2022NNN  Migration upload              Migration upload                                  
TBI0040000008290002NPR004               6512.62DA24-08-2022DISBT24-08-2022NNN  Migration upload              Migration upload                                  
TBI00402071524001  NPR004              23526.46CA24-08-2022     24-08-2022NNN  Migration upload              Migration upload                                  
TBI0040000008300002NPR004              23526.46DA24-08-2022DISBT24-08-2022NNN  Migration upload              Migration upload                                  
TBI00402071524001  NPR004              10676.39CA24-08-2022     24-08-2022NNN  Migration upload              Migration upload                                  
TBI0040000008310002NPR004              10676.39DA24-08-2022DISBT24-08-2022NNN  Migration upload              Migration upload                                  
TBI00402071524001  NPR004              26163.48CA24-08-2022     24-08-2022NNN  Migration upload              Migration upload                                  
TBI0040000008320002NPR004              26163.48DA24-08-2022DISBT24-08-2022NNN  Migration upload              Migration upload                                  
TBI00402071524001  NPR004              41978.41CA24-08-2022     24-08-2022NNN  Migration upload              Migration upload                                  
TBI0040000008340003NPR004              41978.41DA24-08-2022DISBT24-08-2022NNN  Migration upload              Migration upload                                  
TBI00402071524001  NPR004              19884.29CA24-08-2022     24-08-2022NNN  Migration upload              Migration upload                                  
TBI0040000008350003NPR004              19884.29DA24-08-2022DISBT24-08-2022NNN  Migration upload              Migration upload                                  
TBI00402071524001  NPR004              47273.69CA24-08-2022     24-08-2022NNN  Migration upload              Migration upload                                  
TBI0040000008360002NPR004              47273.69DA24-08-2022DISBT24-08-2022NNN  Migration upload              Migration upload                                  
TBI00402071524001  NPR004               6755.16CA24-08-2022     24-08-2022NNN  Migration upload              Migration upload                                  
TBI0040000008370002NPR004               6755.16DA24-08-2022DISBT24-08-2022NNN  Migration upload              Migration upload                                  
TBI00402071524001  NPR004                 48500CA24-08-2022     24-08-2022NNN  Migration upload              Migration upload                                  
TBI0040000008390002NPR004                 48500DA24-08-2022DISBT24-08-2022NNN  Migration upload              Migration upload                                  
TBI00402071524001  NPR004                 35000CA24-08-2022     24-08-2022NNN  Migration upload              Migration upload                                  
TBI0040000008390003NPR004                 35000DA24-08-2022DISBT24-08-2022NNN  Migration upload              Migration upload                                  
TBI00402071524001  NPR004                 30000CA24-08-2022     24-08-2022NNN  Migration upload              Migration upload                                  
TBI0040000008390004NPR004                 30000DA24-08-2022DISBT24-08-2022NNN  Migration upload              Migration upload                                  
TBI00402071524001  NPR004                 10000CA24-08-2022     24-08-2022NNN  Migration upload              Migration upload                                  
TBI0040000008390005NPR004                 10000DA24-08-2022DISBT24-08-2022NNN  Migration upload              Migration upload                                  
TBI00402071524001  NPR004                 30000CA24-08-2022     24-08-2022NNN  Migration upload              Migration upload                                  
TBI0040000008390006NPR004                 30000DA24-08-2022DISBT24-08-2022NNN  Migration upload              Migration upload                                  
TBI00402071524001  NPR004                 50000CA24-08-2022     24-08-2022NNN  Migration upload              Migration upload                                  
TBI0040000008390007NPR004                 50000DA24-08-2022DISBT24-08-2022NNN  Migration upload              Migration upload                                  
TBI00402071524001  NPR004              13122.07CA24-08-2022     24-08-2022NNN  Migration upload              Migration upload                                  
TBI0040000008390008NPR004              13122.07DA24-08-2022DISBT24-08-2022NNN  Migration upload              Migration upload                                  
TBI00402071524001  NPR004                 65000CA24-08-2022     24-08-2022NNN  Migration upload              Migration upload                                  
TBI0040000008400004NPR004                 65000DA24-08-2022DISBT24-08-2022NNN  Migration upload              Migration upload                                  
TBI00402071524001  NPR004               8251.83CA24-08-2022     24-08-2022NNN  Migration upload              Migration upload                                  
TBI0040000008420002NPR004               8251.83DA24-08-2022DISBT24-08-2022NNN  Migration upload              Migration upload                                  
TBI00402071524001  NPR004                 10000CA24-08-2022     24-08-2022NNN  Migration upload              Migration upload                                  
TBI0040000008450002NPR004                 10000DA24-08-2022DISBT24-08-2022NNN  Migration upload              Migration upload                                  
TBI00402071524001  NPR004              18352.74CA24-08-2022     24-08-2022NNN  Migration upload              Migration upload                                  
TBI0040000008490002NPR004              18352.74DA24-08-2022DISBT24-08-2022NNN  Migration upload              Migration upload                                  
TBI00402071524001  NPR004               8317.72CA24-08-2022     24-08-2022NNN  Migration upload              Migration upload                                  
TBI0040000008510003NPR004               8317.72DA24-08-2022DISBT24-08-2022NNN  Migration upload              Migration upload                                  
TBI00402071524001  NPR004                 30000CA24-08-2022     24-08-2022NNN  Migration upload              Migration upload                                  
TBI0040000008530003NPR004                 30000DA24-08-2022DISBT24-08-2022NNN  Migration upload              Migration upload                                  
TBI00402071524001  NPR004              26755.47CA24-08-2022     24-08-2022NNN  Migration upload              Migration upload                                  
TBI0040000008550002NPR004              26755.47DA24-08-2022DISBT24-08-2022NNN  Migration upload              Migration upload                                  
TBI00402071524001  NPR004                9215.2CA24-08-2022     24-08-2022NNN  Migration upload              Migration upload                                  
TBI0040000008560003NPR004                9215.2DA24-08-2022DISBT24-08-2022NNN  Migration upload              Migration upload                                  
TBI00402071524001  NPR004               6892.37CA24-08-2022     24-08-2022NNN  Migration upload              Migration upload                                  
TBI0040000008570002NPR004               6892.37DA24-08-2022DISBT24-08-2022NNN  Migration upload              Migration upload                                  
TBI00402071524001  NPR004              33441.76CA24-08-2022     24-08-2022NNN  Migration upload              Migration upload                                  
TBI0040000008600002NPR004              33441.76DA24-08-2022DISBT24-08-2022NNN  Migration upload              Migration upload                                  
TBI00402071524001  NPR004              30205.57CA24-08-2022     24-08-2022NNN  Migration upload              Migration upload                                  
TBI0040000008620002NPR004              30205.57DA24-08-2022DISBT24-08-2022NNN  Migration upload              Migration upload                                  
TBI00402071524001  NPR004               7537.93CA24-08-2022     24-08-2022NNN  Migration upload              Migration upload                                  
TBI0040000008640002NPR004               7537.93DA24-08-2022DISBT24-08-2022NNN  Migration upload              Migration upload                                  
TBI00402071524001  NPR004              12641.09CA24-08-2022     24-08-2022NNN  Migration upload              Migration upload                                  
TBI0040000008660002NPR004              12641.09DA24-08-2022DISBT24-08-2022NNN  Migration upload              Migration upload                                  
TBI00402071524001  NPR004               5699.48CA24-08-2022     24-08-2022NNN  Migration upload              Migration upload                                  
TBI0040000008670002NPR004               5699.48DA24-08-2022DISBT24-08-2022NNN  Migration upload              Migration upload                                  
TBI00402071524001  NPR004               5449.48CA24-08-2022     24-08-2022NNN  Migration upload              Migration upload                                  
TBI0040000008680002NPR004               5449.48DA24-08-2022DISBT24-08-2022NNN  Migration upload              Migration upload                                  
TBI00402071524001  NPR004              71962.99CA24-08-2022     24-08-2022NNN  Migration upload              Migration upload                                  
TBI0040000008690006NPR004              71962.99DA24-08-2022DISBT24-08-2022NNN  Migration upload              Migration upload                                  
TBI00402071524001  NPR004               9808.42CA24-08-2022     24-08-2022NNN  Migration upload              Migration upload                                  
TBI0040000008700002NPR004               9808.42DA24-08-2022DISBT24-08-2022NNN  Migration upload              Migration upload                                  
TBI00402071524001  NPR004                 33500CA24-08-2022     24-08-2022NNN  Migration upload              Migration upload                                  
TBI0040000008710002NPR004                 33500DA24-08-2022DISBT24-08-2022NNN  Migration upload              Migration upload                                  
TBI00402071524001  NPR004                 15500CA24-08-2022     24-08-2022NNN  Migration upload              Migration upload                                  
TBI0040000008730002NPR004                 15500DA24-08-2022DISBT24-08-2022NNN  Migration upload              Migration upload                                  
TBI00402071524001  NPR004              57201.35CA24-08-2022     24-08-2022NNN  Migration upload              Migration upload                                  
TBI0040000008760003NPR004              57201.35DA24-08-2022DISBT24-08-2022NNN  Migration upload              Migration upload                                  
TBI00402071524001  NPR004              24087.98CA24-08-2022     24-08-2022NNN  Migration upload              Migration upload                                  
TBI0040000008780002NPR004              24087.98DA24-08-2022DISBT24-08-2022NNN  Migration upload              Migration upload                                  
TBI00402071524001  NPR004              13167.78CA24-08-2022     24-08-2022NNN  Migration upload              Migration upload                                  
TBI0040000008810002NPR004              13167.78DA24-08-2022DISBT24-08-2022NNN  Migration upload              Migration upload                                  
TBI00402071524001  NPR004              13167.78CA24-08-2022     24-08-2022NNN  Migration upload              Migration upload                                  
TBI0040000008870002NPR004              13167.78DA24-08-2022DISBT24-08-2022NNN  Migration upload              Migration upload                                  
TBI00402071524001  NPR004                 30500CA24-08-2022     24-08-2022NNN  Migration upload              Migration upload                                  
TBI0040000008880002NPR004                 30500DA24-08-2022DISBT24-08-2022NNN  Migration upload              Migration upload                                  
TBI00402071524001  NPR004                7198.4CA24-08-2022     24-08-2022NNN  Migration upload              Migration upload                                  
TBI0040000008890002NPR004                7198.4DA24-08-2022DISBT24-08-2022NNN  Migration upload              Migration upload                                  
TBI00402071524001  NPR004              13596.42CA24-08-2022     24-08-2022NNN  Migration upload              Migration upload                                  
TBI0040000008910002NPR004              13596.42DA24-08-2022DISBT24-08-2022NNN  Migration upload              Migration upload                                  
TBI00402071524001  NPR004              13420.26CA24-08-2022     24-08-2022NNN  Migration upload              Migration upload                                  
TBI0040000008920002NPR004              13420.26DA24-08-2022DISBT24-08-2022NNN  Migration upload              Migration upload                                  
TBI00402071524001  NPR004               7022.82CA24-08-2022     24-08-2022NNN  Migration upload              Migration upload                                  
TBI0040000008930002NPR004               7022.82DA24-08-2022DISBT24-08-2022NNN  Migration upload              Migration upload                                  
TBI00402071524001  NPR004              35058.89CA24-08-2022     24-08-2022NNN  Migration upload              Migration upload                                  
TBI0040000008940002NPR004              35058.89DA24-08-2022DISBT24-08-2022NNN  Migration upload              Migration upload                                  
TBI00402071524001  NPR004              30812.31CA24-08-2022     24-08-2022NNN  Migration upload              Migration upload                                  
TBI0040000009050003NPR004              30812.31DA24-08-2022DISBT24-08-2022NNN  Migration upload              Migration upload                                  
TBI00402071524001  NPR004                 30000CA24-08-2022     24-08-2022NNN  Migration upload              Migration upload                                  
TBI0040000009060002NPR004                 30000DA24-08-2022DISBT24-08-2022NNN  Migration upload              Migration upload                                  
TBI00402071524001  NPR004              22062.98CA24-08-2022     24-08-2022NNN  Migration upload              Migration upload                                  
TBI0040000009090002NPR004              22062.98DA24-08-2022DISBT24-08-2022NNN  Migration upload              Migration upload                                  
TBI00402071524001  NPR004               7373.97CA24-08-2022     24-08-2022NNN  Migration upload              Migration upload                                  
TBI0040000009110002NPR004               7373.97DA24-08-2022DISBT24-08-2022NNN  Migration upload              Migration upload                                  
TBI00402071524001  NPR004               6496.11CA24-08-2022     24-08-2022NNN  Migration upload              Migration upload                                  
TBI0040000009120002NPR004               6496.11DA24-08-2022DISBT24-08-2022NNN  Migration upload              Migration upload                                  
TBI00402071524001  NPR004                 21000CA24-08-2022     24-08-2022NNN  Migration upload              Migration upload                                  
TBI0040000009140002NPR004                 21000DA24-08-2022DISBT24-08-2022NNN  Migration upload              Migration upload                                  
TBI00402071524001  NPR004               7373.97CA24-08-2022     24-08-2022NNN  Migration upload              Migration upload                                  
TBI0040000009150002NPR004               7373.97DA24-08-2022DISBT24-08-2022NNN  Migration upload              Migration upload                                  
TBI00402071524001  NPR004                 12000CA24-08-2022     24-08-2022NNN  Migration upload              Migration upload                                  
TBI0040000009160002NPR004                 12000DA24-08-2022DISBT24-08-2022NNN  Migration upload              Migration upload                                  
TBI00402071524001  NPR004               3954.81CA24-08-2022     24-08-2022NNN  Migration upload              Migration upload                                  
TBI0040000009180002NPR004               3954.81DA24-08-2022DISBT24-08-2022NNN  Migration upload              Migration upload                                  
TBI00402071524001  NPR004               16152.5CA24-08-2022     24-08-2022NNN  Migration upload              Migration upload                                  
TBI0040000009230002NPR004               16152.5DA24-08-2022DISBT24-08-2022NNN  Migration upload              Migration upload                                  
TBI00402071524001  NPR004               8602.97CA24-08-2022     24-08-2022NNN  Migration upload              Migration upload                                  
TBI0040000009250002NPR004               8602.97DA24-08-2022DISBT24-08-2022NNN  Migration upload              Migration upload                                  
TBI00402071524001  NPR004              23323.29CA24-08-2022     24-08-2022NNN  Migration upload              Migration upload                                  
TBI0040000009260002NPR004              23323.29DA24-08-2022DISBT24-08-2022NNN  Migration upload              Migration upload                                  
TBI00402071524001  NPR004              12314.93CA24-08-2022     24-08-2022NNN  Migration upload              Migration upload                                  
TBI0040000009320002NPR004              12314.93DA24-08-2022DISBT24-08-2022NNN  Migration upload              Migration upload                                  
TBI00402071524001  NPR004               9129.64CA24-08-2022     24-08-2022NNN  Migration upload              Migration upload                                  
TBI0040000009330002NPR004               9129.64DA24-08-2022DISBT24-08-2022NNN  Migration upload              Migration upload                                  
TBI00402071524001  NPR004               8602.97CA24-08-2022     24-08-2022NNN  Migration upload              Migration upload                                  
TBI0040000009350002NPR004               8602.97DA24-08-2022DISBT24-08-2022NNN  Migration upload              Migration upload                                  
TBI00402071524001  NPR004              34220.14CA24-08-2022     24-08-2022NNN  Migration upload              Migration upload                                  
TBI0040000009390002NPR004              34220.14DA24-08-2022DISBT24-08-2022NNN  Migration upload              Migration upload                                  
TBI00402071524001  NPR004               8666.57CA24-08-2022     24-08-2022NNN  Migration upload              Migration upload                                  
TBI0040000009470002NPR004               8666.57DA24-08-2022DISBT24-08-2022NNN  Migration upload              Migration upload                                  
TBI00402071524001  NPR004               8778.52CA24-08-2022     24-08-2022NNN  Migration upload              Migration upload                                  
TBI0040000009480002NPR004               8778.52DA24-08-2022DISBT24-08-2022NNN  Migration upload              Migration upload                                  
TBI00402071524001  NPR004              10603.68CA24-08-2022     24-08-2022NNN  Migration upload              Migration upload                                  
TBI0040000009500002NPR004              10603.68DA24-08-2022DISBT24-08-2022NNN  Migration upload              Migration upload                                  
TBI00402071524001  NPR004              23214.76CA24-08-2022     24-08-2022NNN  Migration upload              Migration upload                                  
TBI0040000009520002NPR004              23214.76DA24-08-2022DISBT24-08-2022NNN  Migration upload              Migration upload                                  
TBI00402071524001  NPR004              11631.77CA24-08-2022     24-08-2022NNN  Migration upload              Migration upload                                  
TBI0040000009540002NPR004              11631.77DA24-08-2022DISBT24-08-2022NNN  Migration upload              Migration upload                                  
TBI00402071524001  NPR004              19822.09CA24-08-2022     24-08-2022NNN  Migration upload              Migration upload                                  
TBI0040000009560002NPR004              19822.09DA24-08-2022DISBT24-08-2022NNN  Migration upload              Migration upload                                  
TBI00402071524001  NPR004                7198.4CA24-08-2022     24-08-2022NNN  Migration upload              Migration upload                                  
TBI0040000009570002NPR004                7198.4DA24-08-2022DISBT24-08-2022NNN  Migration upload              Migration upload                                  
TBI00402071524001  NPR004               7900.68CA24-08-2022     24-08-2022NNN  Migration upload              Migration upload                                  
TBI0040000009630002NPR004               7900.68DA24-08-2022DISBT24-08-2022NNN  Migration upload              Migration upload                                  
TBI00402071524001  NPR004                 89500CA24-08-2022     24-08-2022NNN  Migration upload              Migration upload                                  
TBI0040000009680003NPR004                 89500DA24-08-2022DISBT24-08-2022NNN  Migration upload              Migration upload                                  
TBI00402071524001  NPR004               6847.24CA24-08-2022     24-08-2022NNN  Migration upload              Migration upload                                  
TBI0040000009730002NPR004               6847.24DA24-08-2022DISBT24-08-2022NNN  Migration upload              Migration upload                                  
TBI00402071524001  NPR004              28139.38CA24-08-2022     24-08-2022NNN  Migration upload              Migration upload                                  
TBI0040000009750002NPR004              28139.38DA24-08-2022DISBT24-08-2022NNN  Migration upload              Migration upload                                  
TBI00402071524001  NPR004               24903.1CA24-08-2022     24-08-2022NNN  Migration upload              Migration upload                                  
TBI0040000009760002NPR004               24903.1DA24-08-2022DISBT24-08-2022NNN  Migration upload              Migration upload                                  
TBI00402071524001  NPR004              27857.71CA24-08-2022     24-08-2022NNN  Migration upload              Migration upload                                  
TBI0040000009770003NPR004              27857.71DA24-08-2022DISBT24-08-2022NNN  Migration upload              Migration upload                                  
TBI00402071524001  NPR004                199500CA24-08-2022     24-08-2022NNN  Migration upload              Migration upload                                  
TBI0040000009880002NPR004                199500DA24-08-2022DISBT24-08-2022NNN  Migration upload              Migration upload                                  
TBI00402071524001  NPR004              34793.75CA24-08-2022     24-08-2022NNN  Migration upload              Migration upload                                  
TBI0040000010010002NPR004              34793.75DA24-08-2022DISBT24-08-2022NNN  Migration upload              Migration upload                                  
TBI00402071524001  NPR004              16461.37CA24-08-2022     24-08-2022NNN  Migration upload              Migration upload                                  
TBI0040000010040002NPR004              16461.37DA24-08-2022DISBT24-08-2022NNN  Migration upload              Migration upload                                  
TBI00402071524001  NPR004               1405.06CA24-08-2022     24-08-2022NNN  Migration upload              Migration upload                                  
TBI0040000010330002NPR004               1405.06DA24-08-2022DISBT24-08-2022NNN  Migration upload              Migration upload                                  
TBI00402071524001  NPR004                 12000CA24-08-2022     24-08-2022NNN  Migration upload              Migration upload                                  
TBI0040000010330003NPR004                 12000DA24-08-2022DISBT24-08-2022NNN  Migration upload              Migration upload                                  
TBI00402071524001  NPR004                 12000CA24-08-2022     24-08-2022NNN  Migration upload              Migration upload                                  
TBI0040000010330004NPR004                 12000DA24-08-2022DISBT24-08-2022NNN  Migration upload              Migration upload                                  
TBI00402071524001  NPR004              25235.03CA24-08-2022     24-08-2022NNN  Migration upload              Migration upload                                  
TBI0040000010470002NPR004              25235.03DA24-08-2022DISBT24-08-2022NNN  Migration upload              Migration upload                                  
TBI00402071524001  NPR004              21104.32CA24-08-2022     24-08-2022NNN  Migration upload              Migration upload                                  
TBI0040000010550003NPR004              21104.32DA24-08-2022DISBT24-08-2022NNN  Migration upload              Migration upload                                  
TBI00402071524001  NPR004               5099.33CA24-08-2022     24-08-2022NNN  Migration upload              Migration upload                                  
TBI0040000010560002NPR004               5099.33DA24-08-2022DISBT24-08-2022NNN  Migration upload              Migration upload                                  
TBI00402071524001  NPR004              32631.39CA24-08-2022     24-08-2022NNN  Migration upload              Migration upload                                  
TBI0040000010570002NPR004              32631.39DA24-08-2022DISBT24-08-2022NNN  Migration upload              Migration upload                                  
TBI00402071524001  NPR004              17529.45CA24-08-2022     24-08-2022NNN  Migration upload              Migration upload                                  
TBI0040000010580003NPR004              17529.45DA24-08-2022DISBT24-08-2022NNN  Migration upload              Migration upload                                  
TBI00402071524001  NPR004              69195.19CA24-08-2022     24-08-2022NNN  Migration upload              Migration upload                                  
TBI0040000010590003NPR004              69195.19DA24-08-2022DISBT24-08-2022NNN  Migration upload              Migration upload                                  
TBI00402071524001  NPR004              11556.96CA24-08-2022     24-08-2022NNN  Migration upload              Migration upload                                  
TBI0040000010610002NPR004              11556.96DA24-08-2022DISBT24-08-2022NNN  Migration upload              Migration upload                                  
TBI00402071524001  NPR004              21793.89CA24-08-2022     24-08-2022NNN  Migration upload              Migration upload                                  
TBI0040000010630002NPR004              21793.89DA24-08-2022DISBT24-08-2022NNN  Migration upload              Migration upload                                  
TBI00402071524001  NPR004              13421.44CA24-08-2022     24-08-2022NNN  Migration upload              Migration upload                                  
TBI0040000010650002NPR004              13421.44DA24-08-2022DISBT24-08-2022NNN  Migration upload              Migration upload                                  
TBI00402071524001  NPR004              14529.26CA24-08-2022     24-08-2022NNN  Migration upload              Migration upload                                  
TBI0040000010700002NPR004              14529.26DA24-08-2022DISBT24-08-2022NNN  Migration upload              Migration upload                                  
TBI00402071524001  NPR004              23889.73CA24-08-2022     24-08-2022NNN  Migration upload              Migration upload                                  
TBI0040000010770003NPR004              23889.73DA24-08-2022DISBT24-08-2022NNN  Migration upload              Migration upload                                  
TBI00402071524001  NPR004                 24500CA24-08-2022     24-08-2022NNN  Migration upload              Migration upload                                  
TBI0040000010840003NPR004                 24500DA24-08-2022DISBT24-08-2022NNN  Migration upload              Migration upload                                  
TBI00402071524001  NPR004              14146.91CA24-08-2022     24-08-2022NNN  Migration upload              Migration upload                                  
TBI0040000010850002NPR004              14146.91DA24-08-2022DISBT24-08-2022NNN  Migration upload              Migration upload                                  
TBI00402071524001  NPR004              26382.07CA24-08-2022     24-08-2022NNN  Migration upload              Migration upload                                  
TBI0040000010860002NPR004              26382.07DA24-08-2022DISBT24-08-2022NNN  Migration upload              Migration upload                                  
TBI00402071524001  NPR004              14183.35CA24-08-2022     24-08-2022NNN  Migration upload              Migration upload                                  
TBI0040000010870002NPR004              14183.35DA24-08-2022DISBT24-08-2022NNN  Migration upload              Migration upload                                  
TBI00402071524001  NPR004               5618.26CA24-08-2022     24-08-2022NNN  Migration upload              Migration upload                                  
TBI0040000011110002NPR004               5618.26DA24-08-2022DISBT24-08-2022NNN  Migration upload              Migration upload                                  
TBI00402071524001  NPR004                2927.2CA24-08-2022     24-08-2022NNN  Migration upload              Migration upload                                  
TBI0040000011220002NPR004                2927.2DA24-08-2022DISBT24-08-2022NNN  Migration upload              Migration upload                                  
TBI00402071524001  NPR004                7198.4CA24-08-2022     24-08-2022NNN  Migration upload              Migration upload                                  
TBI0040000011440002NPR004                7198.4DA24-08-2022DISBT24-08-2022NNN  Migration upload              Migration upload                                  
TBI00402071524001  NPR004              12216.66CA24-08-2022     24-08-2022NNN  Migration upload              Migration upload                                  
TBI0040000011550003NPR004              12216.66DA24-08-2022DISBT24-08-2022NNN  Migration upload              Migration upload                                  
TBI00402071524001  NPR004              16606.84CA24-08-2022     24-08-2022NNN  Migration upload              Migration upload                                  
TBI0040000011630002NPR004              16606.84DA24-08-2022DISBT24-08-2022NNN  Migration upload              Migration upload                                  
TBI00402071524001  NPR004              18790.01CA24-08-2022     24-08-2022NNN  Migration upload              Migration upload                                  
TBI0040000011670004NPR004              18790.01DA24-08-2022DISBT24-08-2022NNN  Migration upload              Migration upload                                  
TBI00402071524001  NPR004                 24000CA24-08-2022     24-08-2022NNN  Migration upload              Migration upload                                  
TBI0040000011690003NPR004                 24000DA24-08-2022DISBT24-08-2022NNN  Migration upload              Migration upload                                  
TBI00402071524001  NPR004              19374.88CA24-08-2022     24-08-2022NNN  Migration upload              Migration upload                                  
TBI0040000011700002NPR004              19374.88DA24-08-2022DISBT24-08-2022NNN  Migration upload              Migration upload                                  
TBI00402071524001  NPR004              12999.86CA24-08-2022     24-08-2022NNN  Migration upload              Migration upload                                  
TBI0040000011830002NPR004              12999.86DA24-08-2022DISBT24-08-2022NNN  Migration upload              Migration upload                                  
TBI00402071524001  NPR004                 48000CA24-08-2022     24-08-2022NNN  Migration upload              Migration upload                                  
TBI0040000011880002NPR004                 48000DA24-08-2022DISBT24-08-2022NNN  Migration upload              Migration upload                                  
TBI00402071524001  NPR004              33991.03CA24-08-2022     24-08-2022NNN  Migration upload              Migration upload                                  
TBI0040000011960002NPR004              33991.03DA24-08-2022DISBT24-08-2022NNN  Migration upload              Migration upload                                  
TBI00402071524001  NPR004              36323.15CA24-08-2022     24-08-2022NNN  Migration upload              Migration upload                                  
TBI0040000011970002NPR004              36323.15DA24-08-2022DISBT24-08-2022NNN  Migration upload              Migration upload                                  
TBI00402071524001  NPR004              14529.26CA24-08-2022     24-08-2022NNN  Migration upload              Migration upload                                  
TBI0040000011980002NPR004              14529.26DA24-08-2022DISBT24-08-2022NNN  Migration upload              Migration upload                                  
TBI00402071524001  NPR004              27972.71CA24-08-2022     24-08-2022NNN  Migration upload              Migration upload                                  
TBI0040000012040002NPR004              27972.71DA24-08-2022DISBT24-08-2022NNN  Migration upload              Migration upload                                  
TBI00402071524001  NPR004              35940.79CA24-08-2022     24-08-2022NNN  Migration upload              Migration upload                                  
TBI0040000012050002NPR004              35940.79DA24-08-2022DISBT24-08-2022NNN  Migration upload              Migration upload                                  
TBI00402071524001  NPR004               9811.31CA24-08-2022     24-08-2022NNN  Migration upload              Migration upload                                  
TBI0040000012090002NPR004               9811.31DA24-08-2022DISBT24-08-2022NNN  Migration upload              Migration upload                                  
TBI00402071524001  NPR004               8794.02CA24-08-2022     24-08-2022NNN  Migration upload              Migration upload                                  
TBI0040000012120002NPR004               8794.02DA24-08-2022DISBT24-08-2022NNN  Migration upload              Migration upload                                  
TBI00402071524001  NPR004              27529.12CA24-08-2022     24-08-2022NNN  Migration upload              Migration upload                                  
TBI0040000012140002NPR004              27529.12DA24-08-2022DISBT24-08-2022NNN  Migration upload              Migration upload                                  
TBI00402071524001  NPR004              25832.87CA24-08-2022     24-08-2022NNN  Migration upload              Migration upload                                  
TBI0040000012150003NPR004              25832.87DA24-08-2022DISBT24-08-2022NNN  Migration upload              Migration upload                                  
TBI00402071524001  NPR004              13001.41CA24-08-2022     24-08-2022NNN  Migration upload              Migration upload                                  
TBI0040000012160002NPR004              13001.41DA24-08-2022DISBT24-08-2022NNN  Migration upload              Migration upload                                  
TBI00402071524001  NPR004               4420.07CA24-08-2022     24-08-2022NNN  Migration upload              Migration upload                                  
TBI0040000012200002NPR004               4420.07DA24-08-2022DISBT24-08-2022NNN  Migration upload              Migration upload                                  
TBI00402071524001  NPR004               8258.56CA24-08-2022     24-08-2022NNN  Migration upload              Migration upload                                  
TBI0040000012210002NPR004               8258.56DA24-08-2022DISBT24-08-2022NNN  Migration upload              Migration upload                                  
TBI00402071524001  NPR004              19499.79CA24-08-2022     24-08-2022NNN  Migration upload              Migration upload                                  
TBI0040000012230002NPR004              19499.79DA24-08-2022DISBT24-08-2022NNN  Migration upload              Migration upload                                  
TBI00402071524001  NPR004              30445.88CA24-08-2022     24-08-2022NNN  Migration upload              Migration upload                                  
TBI0040000012270002NPR004              30445.88DA24-08-2022DISBT24-08-2022NNN  Migration upload              Migration upload                                  
TBI00402071524001  NPR004              29058.51CA24-08-2022     24-08-2022NNN  Migration upload              Migration upload                                  
TBI0040000012330002NPR004              29058.51DA24-08-2022DISBT24-08-2022NNN  Migration upload              Migration upload                                  
TBI00402071524001  NPR004              42058.38CA24-08-2022     24-08-2022NNN  Migration upload              Migration upload                                  
TBI0040000012400002NPR004              42058.38DA24-08-2022DISBT24-08-2022NNN  Migration upload              Migration upload                                  
TBI00402071524001  NPR004              40260.78CA24-08-2022     24-08-2022NNN  Migration upload              Migration upload                                  
TBI0040000012470002NPR004              40260.78DA24-08-2022DISBT24-08-2022NNN  Migration upload              Migration upload                                  
TBI00402071524001  NPR004              15293.96CA24-08-2022     24-08-2022NNN  Migration upload              Migration upload                                  
TBI0040000012500002NPR004              15293.96DA24-08-2022DISBT24-08-2022NNN  Migration upload              Migration upload                                  
TBI00402071524001  NPR004              13421.44CA24-08-2022     24-08-2022NNN  Migration upload              Migration upload                                  
TBI0040000012540002NPR004              13421.44DA24-08-2022DISBT24-08-2022NNN  Migration upload              Migration upload                                  
TBI00402071524001  NPR004                 10000CA24-08-2022     24-08-2022NNN  Migration upload              Migration upload                                  
TBI0040000012640002NPR004                 10000DA24-08-2022DISBT24-08-2022NNN  Migration upload              Migration upload                                  
TBI00402071524001  NPR004                 31000CA24-08-2022     24-08-2022NNN  Migration upload              Migration upload                                  
TBI0040000012660002NPR004                 31000DA24-08-2022DISBT24-08-2022NNN  Migration upload              Migration upload                                  
TBI00402071524001  NPR004              27529.12CA24-08-2022     24-08-2022NNN  Migration upload              Migration upload                                  
TBI0040000012710002NPR004              27529.12DA24-08-2022DISBT24-08-2022NNN  Migration upload              Migration upload                                  
TBI00402071524001  NPR004              11470.47CA24-08-2022     24-08-2022NNN  Migration upload              Migration upload                                  
TBI0040000012730002NPR004              11470.47DA24-08-2022DISBT24-08-2022NNN  Migration upload              Migration upload                                  
TBI00402071524001  NPR004              34029.05CA24-08-2022     24-08-2022NNN  Migration upload              Migration upload                                  
TBI0040000012750002NPR004              34029.05DA24-08-2022DISBT24-08-2022NNN  Migration upload              Migration upload                                  
TBI00402071524001  NPR004              25992.88CA24-08-2022     24-08-2022NNN  Migration upload              Migration upload                                  
TBI0040000012760002NPR004              25992.88DA24-08-2022DISBT24-08-2022NNN  Migration upload              Migration upload                                  
TBI00402071524001  NPR004                 50000CA24-08-2022     24-08-2022NNN  Migration upload              Migration upload                                  
TBI0040000012760003NPR004                 50000DA24-08-2022DISBT24-08-2022NNN  Migration upload              Migration upload                                  
TBI00402071524001  NPR004                 20000CA24-08-2022     24-08-2022NNN  Migration upload              Migration upload                                  
TBI0040000012780003NPR004                 20000DA24-08-2022DISBT24-08-2022NNN  Migration upload              Migration upload                                  
TBI00402071524001  NPR004              21411.53CA24-08-2022     24-08-2022NNN  Migration upload              Migration upload                                  
TBI0040000012890002NPR004              21411.53DA24-08-2022DISBT24-08-2022NNN  Migration upload              Migration upload                                  
TBI00402071524001  NPR004              32291.09CA24-08-2022     24-08-2022NNN  Migration upload              Migration upload                                  
TBI0040000012980002NPR004              32291.09DA24-08-2022DISBT24-08-2022NNN  Migration upload              Migration upload                                  
TBI00402071524001  NPR004              24470.33CA24-08-2022     24-08-2022NNN  Migration upload              Migration upload                                  
TBI0040000012990002NPR004              24470.33DA24-08-2022DISBT24-08-2022NNN  Migration upload              Migration upload                                  
TBI00402071524001  NPR004              25235.03CA24-08-2022     24-08-2022NNN  Migration upload              Migration upload                                  
TBI0040000013020002NPR004              25235.03DA24-08-2022DISBT24-08-2022NNN  Migration upload              Migration upload                                  
TBI00402071524001  NPR004                8667.6CA24-08-2022     24-08-2022NNN  Migration upload              Migration upload                                  
TBI0040000013100003NPR004                8667.6DA24-08-2022DISBT24-08-2022NNN  Migration upload              Migration upload                                  
TBI00402071524001  NPR004              24087.98CA24-08-2022     24-08-2022NNN  Migration upload              Migration upload                                  
TBI0040000013120002NPR004              24087.98DA24-08-2022DISBT24-08-2022NNN  Migration upload              Migration upload                                  
TBI00402071524001  NPR004                 29000CA24-08-2022     24-08-2022NNN  Migration upload              Migration upload                                  
TBI0040000013140003NPR004                 29000DA24-08-2022DISBT24-08-2022NNN  Migration upload              Migration upload                                  
TBI00402071524001  NPR004              25047.47CA24-08-2022     24-08-2022NNN  Migration upload              Migration upload                                  
TBI0040000013190002NPR004              25047.47DA24-08-2022DISBT24-08-2022NNN  Migration upload              Migration upload                                  
TBI00402071524001  NPR004               2751.57CA24-08-2022     24-08-2022NNN  Migration upload              Migration upload                                  
TBI0040000013200002NPR004               2751.57DA24-08-2022DISBT24-08-2022NNN  Migration upload              Migration upload                                  
TBI00402071524001  NPR004               73808.2CA24-08-2022     24-08-2022NNN  Migration upload              Migration upload                                  
TBI0040000013320002NPR004               73808.2DA24-08-2022DISBT24-08-2022NNN  Migration upload              Migration upload                                  
TBI00402071524001  NPR004              25999.72CA24-08-2022     24-08-2022NNN  Migration upload              Migration upload                                  
TBI0040000013450002NPR004              25999.72DA24-08-2022DISBT24-08-2022NNN  Migration upload              Migration upload                                  
TBI00402071524001  NPR004              46130.12CA24-08-2022     24-08-2022NNN  Migration upload              Migration upload                                  
TBI0040000013490002NPR004              46130.12DA24-08-2022DISBT24-08-2022NNN  Migration upload              Migration upload                                  
TBI00402071524001  NPR004              21029.19CA24-08-2022     24-08-2022NNN  Migration upload              Migration upload                                  
TBI0040000013500002NPR004              21029.19DA24-08-2022DISBT24-08-2022NNN  Migration upload              Migration upload                                  
TBI00402071524001  NPR004              65504.78CA24-08-2022     24-08-2022NNN  Migration upload              Migration upload                                  
TBI0040000013530002NPR004              65504.78DA24-08-2022DISBT24-08-2022NNN  Migration upload              Migration upload                                  
TBI00402071524001  NPR004              20394.62CA24-08-2022     24-08-2022NNN  Migration upload              Migration upload                                  
TBI0040000013600002NPR004              20394.62DA24-08-2022DISBT24-08-2022NNN  Migration upload              Migration upload                                  
TBI00402071524001  NPR004              32500.66CA24-08-2022     24-08-2022NNN  Migration upload              Migration upload                                  
TBI0040000013650002NPR004              32500.66DA24-08-2022DISBT24-08-2022NNN  Migration upload              Migration upload                                  
TBI00402071524001  NPR004              22183.85CA24-08-2022     24-08-2022NNN  Migration upload              Migration upload                                  
TBI0040000013660002NPR004              22183.85DA24-08-2022DISBT24-08-2022NNN  Migration upload              Migration upload                                  
TBI00402071524001  NPR004              21598.59CA24-08-2022     24-08-2022NNN  Migration upload              Migration upload                                  
TBI0040000013670002NPR004              21598.59DA24-08-2022DISBT24-08-2022NNN  Migration upload              Migration upload                                  
TBI00402071524001  NPR004              30970.26CA24-08-2022     24-08-2022NNN  Migration upload              Migration upload                                  
TBI0040000013680002NPR004              30970.26DA24-08-2022DISBT24-08-2022NNN  Migration upload              Migration upload                                  
TBI00402071524001  NPR004              25325.19CA24-08-2022     24-08-2022NNN  Migration upload              Migration upload                                  
TBI0040000013730002NPR004              25325.19DA24-08-2022DISBT24-08-2022NNN  Migration upload              Migration upload                                  
TBI00402071524001  NPR004              18913.35CA24-08-2022     24-08-2022NNN  Migration upload              Migration upload                                  
TBI0040000013740002NPR004              18913.35DA24-08-2022DISBT24-08-2022NNN  Migration upload              Migration upload                                  
TBI00402071524001  NPR004               6847.24CA24-08-2022     24-08-2022NNN  Migration upload              Migration upload                                  
TBI0040000013770002NPR004               6847.24DA24-08-2022DISBT24-08-2022NNN  Migration upload              Migration upload                                  
TBI00402071524001  NPR004              20054.71CA24-08-2022     24-08-2022NNN  Migration upload              Migration upload                                  
TBI0040000013810002NPR004              20054.71DA24-08-2022DISBT24-08-2022NNN  Migration upload              Migration upload                                  
TBI00402071524001  NPR004              10534.24CA24-08-2022     24-08-2022NNN  Migration upload              Migration upload                                  
TBI0040000013990002NPR004              10534.24DA24-08-2022DISBT24-08-2022NNN  Migration upload              Migration upload                                  
TBI00402071524001  NPR004              43205.42CA24-08-2022     24-08-2022NNN  Migration upload              Migration upload                                  
TBI0040000014040002NPR004              43205.42DA24-08-2022DISBT24-08-2022NNN  Migration upload              Migration upload                                  
TBI00402071524001  NPR004              41517.11CA24-08-2022     24-08-2022NNN  Migration upload              Migration upload                                  
TBI0040000014080002NPR004              41517.11DA24-08-2022DISBT24-08-2022NNN  Migration upload              Migration upload                                  
TBI00402071524001  NPR004              38818.08CA24-08-2022     24-08-2022NNN  Migration upload              Migration upload                                  
TBI0040000014100003NPR004              38818.08DA24-08-2022DISBT24-08-2022NNN  Migration upload              Migration upload                                  
TBI00402071524001  NPR004                 38000CA24-08-2022     24-08-2022NNN  Migration upload              Migration upload                                  
TBI0040000014170003NPR004                 38000DA24-08-2022DISBT24-08-2022NNN  Migration upload              Migration upload                                  
TBI00402071524001  NPR004               18571.8CA24-08-2022     24-08-2022NNN  Migration upload              Migration upload                                  
TBI0040000014180002NPR004               18571.8DA24-08-2022DISBT24-08-2022NNN  Migration upload              Migration upload                                  
TBI00402071524001  NPR004              29058.51CA24-08-2022     24-08-2022NNN  Migration upload              Migration upload                                  
TBI0040000014250002NPR004              29058.51DA24-08-2022DISBT24-08-2022NNN  Migration upload              Migration upload                                  
TBI00402071524001  NPR004              26382.07CA24-08-2022     24-08-2022NNN  Migration upload              Migration upload                                  
TBI0040000014260002NPR004              26382.07DA24-08-2022DISBT24-08-2022NNN  Migration upload              Migration upload                                  
TBI00402071524001  NPR004              12465.51CA24-08-2022     24-08-2022NNN  Migration upload              Migration upload                                  
TBI0040000014270002NPR004              12465.51DA24-08-2022DISBT24-08-2022NNN  Migration upload              Migration upload                                  
TBI00402071524001  NPR004              18913.35CA24-08-2022     24-08-2022NNN  Migration upload              Migration upload                                  
TBI0040000014310002NPR004              18913.35DA24-08-2022DISBT24-08-2022NNN  Migration upload              Migration upload                                  
TBI00402071524001  NPR004                 61000CA24-08-2022     24-08-2022NNN  Migration upload              Migration upload                                  
TBI0040000014390003NPR004                 61000DA24-08-2022DISBT24-08-2022NNN  Migration upload              Migration upload                                  
TBI00402071524001  NPR004              19415.98CA24-08-2022     24-08-2022NNN  Migration upload              Migration upload                                  
TBI0040000014400002NPR004              19415.98DA24-08-2022DISBT24-08-2022NNN  Migration upload              Migration upload                                  
TBI00402071524001  NPR004              38409.87CA24-08-2022     24-08-2022NNN  Migration upload              Migration upload                                  
TBI0040000014430002NPR004              38409.87DA24-08-2022DISBT24-08-2022NNN  Migration upload              Migration upload                                  
TBI00402071524001  NPR004              10736.21CA24-08-2022     24-08-2022NNN  Migration upload              Migration upload                                  
TBI0040000014500003NPR004              10736.21DA24-08-2022DISBT24-08-2022NNN  Migration upload              Migration upload                                  
TBI00402071524001  NPR004              33553.59CA24-08-2022     24-08-2022NNN  Migration upload              Migration upload                                  
TBI0040000014600002NPR004              33553.59DA24-08-2022DISBT24-08-2022NNN  Migration upload              Migration upload                                  
TBI00402071524001  NPR004                 65000CA24-08-2022     24-08-2022NNN  Migration upload              Migration upload                                  
TBI0040000014690003NPR004                 65000DA24-08-2022DISBT24-08-2022NNN  Migration upload              Migration upload                                  
TBI00402071524001  NPR004              38234.89CA24-08-2022     24-08-2022NNN  Migration upload              Migration upload                                  
TBI0040000014890002NPR004              38234.89DA24-08-2022DISBT24-08-2022NNN  Migration upload              Migration upload                                  
TBI00402071524001  NPR004               8491.21CA24-08-2022     24-08-2022NNN  Migration upload              Migration upload                                  
TBI0040000014900002NPR004               8491.21DA24-08-2022DISBT24-08-2022NNN  Migration upload              Migration upload                                  
TBI00402071524001  NPR004                 25000CA24-08-2022     24-08-2022NNN  Migration upload              Migration upload                                  
TBI0040000014910002NPR004                 25000DA24-08-2022DISBT24-08-2022NNN  Migration upload              Migration upload                                  
TBI00402071524001  NPR004              33264.36CA24-08-2022     24-08-2022NNN  Migration upload              Migration upload                                  
TBI0040000014950002NPR004              33264.36DA24-08-2022DISBT24-08-2022NNN  Migration upload              Migration upload                                  
TBI00402071524001  NPR004              27678.07CA24-08-2022     24-08-2022NNN  Migration upload              Migration upload                                  
TBI0040000014990002NPR004              27678.07DA24-08-2022DISBT24-08-2022NNN  Migration upload              Migration upload                                  
TBI00402071524001  NPR004                7198.4CA24-08-2022     24-08-2022NNN  Migration upload              Migration upload                                  
TBI0040000015010002NPR004                7198.4DA24-08-2022DISBT24-08-2022NNN  Migration upload              Migration upload                                  
TBI00402071524001  NPR004              12236.77CA24-08-2022     24-08-2022NNN  Migration upload              Migration upload                                  
TBI0040000015050002NPR004              12236.77DA24-08-2022DISBT24-08-2022NNN  Migration upload              Migration upload                                  
TBI00402071524001  NPR004                 27500CA24-08-2022     24-08-2022NNN  Migration upload              Migration upload                                  
TBI0040000015120002NPR004                 27500DA24-08-2022DISBT24-08-2022NNN  Migration upload              Migration upload                                  
TBI00402071524001  NPR004              18452.05CA24-08-2022     24-08-2022NNN  Migration upload              Migration upload                                  
TBI0040000015200002NPR004              18452.05DA24-08-2022DISBT24-08-2022NNN  Migration upload              Migration upload                                  
TBI00402071524001  NPR004              42208.65CA24-08-2022     24-08-2022NNN  Migration upload              Migration upload                                  
TBI0040000015210002NPR004              42208.65DA24-08-2022DISBT24-08-2022NNN  Migration upload              Migration upload                                  
TBI00402071524001  NPR004              23705.64CA24-08-2022     24-08-2022NNN  Migration upload              Migration upload                                  
TBI0040000015280002NPR004              23705.64DA24-08-2022DISBT24-08-2022NNN  Migration upload              Migration upload                                  
TBI00402071524001  NPR004               6798.21CA24-08-2022     24-08-2022NNN  Migration upload              Migration upload                                  
TBI0040000015290002NPR004               6798.21DA24-08-2022DISBT24-08-2022NNN  Migration upload              Migration upload                                  
TBI00402071524001  NPR004               5091.55CA24-08-2022     24-08-2022NNN  Migration upload              Migration upload                                  
TBI0040000015330002NPR004               5091.55DA24-08-2022DISBT24-08-2022NNN  Migration upload              Migration upload                                  
TBI00402071524001  NPR004               20397.3CA24-08-2022     24-08-2022NNN  Migration upload              Migration upload                                  
TBI0040000015340002NPR004               20397.3DA24-08-2022DISBT24-08-2022NNN  Migration upload              Migration upload                                  
TBI00402071524001  NPR004              21029.19CA24-08-2022     24-08-2022NNN  Migration upload              Migration upload                                  
TBI0040000015380002NPR004              21029.19DA24-08-2022DISBT24-08-2022NNN  Migration upload              Migration upload                                  
TBI00402071524001  NPR004              24470.33CA24-08-2022     24-08-2022NNN  Migration upload              Migration upload                                  
TBI0040000015390002NPR004              24470.33DA24-08-2022DISBT24-08-2022NNN  Migration upload              Migration upload                                  
TBI00402071524001  NPR004              37143.61CA24-08-2022     24-08-2022NNN  Migration upload              Migration upload                                  
TBI0040000015400002NPR004              37143.61DA24-08-2022DISBT24-08-2022NNN  Migration upload              Migration upload                                  
TBI00402071524001  NPR004              16854.78CA24-08-2022     24-08-2022NNN  Migration upload              Migration upload                                  
TBI0040000015450002NPR004              16854.78DA24-08-2022DISBT24-08-2022NNN  Migration upload              Migration upload                                  
TBI00402071524001  NPR004                 25000CA24-08-2022     24-08-2022NNN  Migration upload              Migration upload                                  
TBI0040000015470007NPR004                 25000DA24-08-2022DISBT24-08-2022NNN  Migration upload              Migration upload                                  
TBI00402071524001  NPR004              47273.69CA24-08-2022     24-08-2022NNN  Migration upload              Migration upload                                  
TBI0040000015510002NPR004              47273.69DA24-08-2022DISBT24-08-2022NNN  Migration upload              Migration upload                                  
TBI00402071524001  NPR004              18788.36CA24-08-2022     24-08-2022NNN  Migration upload              Migration upload                                  
TBI0040000015650002NPR004              18788.36DA24-08-2022DISBT24-08-2022NNN  Migration upload              Migration upload                                  
TBI00402071524001  NPR004              49654.96CA24-08-2022     24-08-2022NNN  Migration upload              Migration upload                                  
TBI0040000015690002NPR004              49654.96DA24-08-2022DISBT24-08-2022NNN  Migration upload              Migration upload                                  
TBI00402071524001  NPR004              20260.15CA24-08-2022     24-08-2022NNN  Migration upload              Migration upload                                  
TBI0040000015720002NPR004              20260.15DA24-08-2022DISBT24-08-2022NNN  Migration upload              Migration upload                                  
TBI00402071524001  NPR004              44746.22CA24-08-2022     24-08-2022NNN  Migration upload              Migration upload                                  
TBI0040000015860002NPR004              44746.22DA24-08-2022DISBT24-08-2022NNN  Migration upload              Migration upload                                  
TBI00402071524001  NPR004               8837.67CA24-08-2022     24-08-2022NNN  Migration upload              Migration upload                                  
TBI0040000015880002NPR004               8837.67DA24-08-2022DISBT24-08-2022NNN  Migration upload              Migration upload                                  
TBI00402071524001  NPR004              15293.96CA24-08-2022     24-08-2022NNN  Migration upload              Migration upload                                  
TBI0040000015900002NPR004              15293.96DA24-08-2022DISBT24-08-2022NNN  Migration upload              Migration upload                                  
TBI00402071524001  NPR004              29123.97CA24-08-2022     24-08-2022NNN  Migration upload              Migration upload                                  
TBI0040000015930002NPR004              29123.97DA24-08-2022DISBT24-08-2022NNN  Migration upload              Migration upload                                  
TBI00402071524001  NPR004              17305.55CA24-08-2022     24-08-2022NNN  Migration upload              Migration upload                                  
TBI0040000015980002NPR004              17305.55DA24-08-2022DISBT24-08-2022NNN  Migration upload              Migration upload                                  
TBI00402071524001  NPR004              35058.89CA24-08-2022     24-08-2022NNN  Migration upload              Migration upload                                  
TBI0040000016110004NPR004              35058.89DA24-08-2022DISBT24-08-2022NNN  Migration upload              Migration upload                                  
TBI00402071524001  NPR004              36323.15CA24-08-2022     24-08-2022NNN  Migration upload              Migration upload                                  
TBI0040000016160002NPR004              36323.15DA24-08-2022DISBT24-08-2022NNN  Migration upload              Migration upload                                  
TBI00402071524001  NPR004                 13000CA24-08-2022     24-08-2022NNN  Migration upload              Migration upload                                  
TBI0040000016200002NPR004                 13000DA24-08-2022DISBT24-08-2022NNN  Migration upload              Migration upload                                  
TBI00402071524001  NPR004              10243.53CA24-08-2022     24-08-2022NNN  Migration upload              Migration upload                                  
TBI0040000016210003NPR004              10243.53DA24-08-2022DISBT24-08-2022NNN  Migration upload              Migration upload                                  
TBI00402071524001  NPR004               19699.1CA24-08-2022     24-08-2022NNN  Migration upload              Migration upload                                  
TBI0040000016240002NPR004               19699.1DA24-08-2022DISBT24-08-2022NNN  Migration upload              Migration upload                                  
TBI00402071524001  NPR004              26764.43CA24-08-2022     24-08-2022NNN  Migration upload              Migration upload                                  
TBI0040000016260002NPR004              26764.43DA24-08-2022DISBT24-08-2022NNN  Migration upload              Migration upload                                  
TBI00402071524001  NPR004               1463.61CA24-08-2022     24-08-2022NNN  Migration upload              Migration upload                                  
TBI0040000016330002NPR004               1463.61DA24-08-2022DISBT24-08-2022NNN  Migration upload              Migration upload                                  
TBI00402071524001  NPR004              16995.52CA24-08-2022     24-08-2022NNN  Migration upload              Migration upload                                  
TBI0040000016340002NPR004              16995.52DA24-08-2022DISBT24-08-2022NNN  Migration upload              Migration upload                                  
TBI00402071524001  NPR004               6556.62CA24-08-2022     24-08-2022NNN  Migration upload              Migration upload                                  
TBI0040000016450002NPR004               6556.62DA24-08-2022DISBT24-08-2022NNN  Migration upload              Migration upload                                  
TBI00402071524001  NPR004               36442.8CA24-08-2022     24-08-2022NNN  Migration upload              Migration upload                                  
TBI0040000016480002NPR004               36442.8DA24-08-2022DISBT24-08-2022NNN  Migration upload              Migration upload                                  
TBI00402071524001  NPR004               8482.94CA24-08-2022     24-08-2022NNN  Migration upload              Migration upload                                  
TBI0040000016530002NPR004               8482.94DA24-08-2022DISBT24-08-2022NNN  Migration upload              Migration upload                                  
TBI00402071524001  NPR004              13299.79CA24-08-2022     24-08-2022NNN  Migration upload              Migration upload                                  
TBI0040000016540002NPR004              13299.79DA24-08-2022DISBT24-08-2022NNN  Migration upload              Migration upload                                  
TBI00402071524001  NPR004              16058.65CA24-08-2022     24-08-2022NNN  Migration upload              Migration upload                                  
TBI0040000016840002NPR004              16058.65DA24-08-2022DISBT24-08-2022NNN  Migration upload              Migration upload                                  
TBI00402071524001  NPR004              22940.93CA24-08-2022     24-08-2022NNN  Migration upload              Migration upload                                  
TBI0040000016920002NPR004              22940.93DA24-08-2022DISBT24-08-2022NNN  Migration upload              Migration upload                                  
TBI00402071524001  NPR004              15195.11CA24-08-2022     24-08-2022NNN  Migration upload              Migration upload                                  
TBI0040000016960002NPR004              15195.11DA24-08-2022DISBT24-08-2022NNN  Migration upload              Migration upload                                  
TBI00402071524001  NPR004              64579.23CA24-08-2022     24-08-2022NNN  Migration upload              Migration upload                                  
TBI0040000017020002NPR004              64579.23DA24-08-2022DISBT24-08-2022NNN  Migration upload              Migration upload                                  
TBI00402071524001  NPR004                 35000CA24-08-2022     24-08-2022NNN  Migration upload              Migration upload                                  
TBI0040000017070003NPR004                 35000DA24-08-2022DISBT24-08-2022NNN  Migration upload              Migration upload                                  
TBI00402071524001  NPR004               47891.4CA24-08-2022     24-08-2022NNN  Migration upload              Migration upload                                  
TBI0040000017090002NPR004               47891.4DA24-08-2022DISBT24-08-2022NNN  Migration upload              Migration upload                                  
TBI00402071524001  NPR004              11763.23CA24-08-2022     24-08-2022NNN  Migration upload              Migration upload                                  
TBI0040000017190002NPR004              11763.23DA24-08-2022DISBT24-08-2022NNN  Migration upload              Migration upload                                  
TBI00402071524001  NPR004              32922.75CA24-08-2022     24-08-2022NNN  Migration upload              Migration upload                                  
TBI0040000017270002NPR004              32922.75DA24-08-2022DISBT24-08-2022NNN  Migration upload              Migration upload                                  
TBI00402071524001  NPR004              25235.03CA24-08-2022     24-08-2022NNN  Migration upload              Migration upload                                  
TBI0040000017350002NPR004              25235.03DA24-08-2022DISBT24-08-2022NNN  Migration upload              Migration upload                                  
TBI00402071524001  NPR004              13084.68CA24-08-2022     24-08-2022NNN  Migration upload              Migration upload                                  
TBI0040000017370002NPR004              13084.68DA24-08-2022DISBT24-08-2022NNN  Migration upload              Migration upload                                  
TBI00402071524001  NPR004              20646.84CA24-08-2022     24-08-2022NNN  Migration upload              Migration upload                                  
TBI0040000017380002NPR004              20646.84DA24-08-2022DISBT24-08-2022NNN  Migration upload              Migration upload                                  
TBI00402071524001  NPR004                 15000CA24-08-2022     24-08-2022NNN  Migration upload              Migration upload                                  
TBI0040000017400003NPR004                 15000DA24-08-2022DISBT24-08-2022NNN  Migration upload              Migration upload                                  
TBI00402071524001  NPR004               9458.46CA24-08-2022     24-08-2022NNN  Migration upload              Migration upload                                  
TBI0040000017410002NPR004               9458.46DA24-08-2022DISBT24-08-2022NNN  Migration upload              Migration upload                                  
TBI00402071524001  NPR004              22603.76CA24-08-2022     24-08-2022NNN  Migration upload              Migration upload                                  
TBI0040000017420002NPR004              22603.76DA24-08-2022DISBT24-08-2022NNN  Migration upload              Migration upload                                  
TBI00402071524001  NPR004              34611.09CA24-08-2022     24-08-2022NNN  Migration upload              Migration upload                                  
TBI0040000017450002NPR004              34611.09DA24-08-2022DISBT24-08-2022NNN  Migration upload              Migration upload                                  
TBI00402071524001  NPR004              28279.79CA24-08-2022     24-08-2022NNN  Migration upload              Migration upload                                  
TBI0040000017460002NPR004              28279.79DA24-08-2022DISBT24-08-2022NNN  Migration upload              Migration upload                                  
TBI00402071524001  NPR004              57403.76CA24-08-2022     24-08-2022NNN  Migration upload              Migration upload                                  
TBI0040000017500002NPR004              57403.76DA24-08-2022DISBT24-08-2022NNN  Migration upload              Migration upload                                  
TBI00402071524001  NPR004                 47500CA24-08-2022     24-08-2022NNN  Migration upload              Migration upload                                  
TBI0040000017530002NPR004                 47500DA24-08-2022DISBT24-08-2022NNN  Migration upload              Migration upload                                  
TBI00402071524001  NPR004              71332.62CA24-08-2022     24-08-2022NNN  Migration upload              Migration upload                                  
TBI0040000017540002NPR004              71332.62DA24-08-2022DISBT24-08-2022NNN  Migration upload              Migration upload                                  
TBI00402071524001  NPR004               84417.3CA24-08-2022     24-08-2022NNN  Migration upload              Migration upload                                  
TBI0040000017550002NPR004               84417.3DA24-08-2022DISBT24-08-2022NNN  Migration upload              Migration upload                                  
TBI00402071524001  NPR004              14276.23CA24-08-2022     24-08-2022NNN  Migration upload              Migration upload                                  
TBI0040000017570002NPR004              14276.23DA24-08-2022DISBT24-08-2022NNN  Migration upload              Migration upload                                  
TBI00402071524001  NPR004              14580.08CA24-08-2022     24-08-2022NNN  Migration upload              Migration upload                                  
TBI0040000017590002NPR004              14580.08DA24-08-2022DISBT24-08-2022NNN  Migration upload              Migration upload                                  
TBI00402071524001  NPR004              20131.27CA24-08-2022     24-08-2022NNN  Migration upload              Migration upload                                  
TBI0040000017600002NPR004              20131.27DA24-08-2022DISBT24-08-2022NNN  Migration upload              Migration upload                                  
TBI00402071524001  NPR004              26840.52CA24-08-2022     24-08-2022NNN  Migration upload              Migration upload                                  
TBI0040000017620002NPR004              26840.52DA24-08-2022DISBT24-08-2022NNN  Migration upload              Migration upload                                  
TBI00402071524001  NPR004               6496.11CA24-08-2022     24-08-2022NNN  Migration upload              Migration upload                                  
TBI0040000017710002NPR004               6496.11DA24-08-2022DISBT24-08-2022NNN  Migration upload              Migration upload                                  
TBI00402071524001  NPR004              20394.62CA24-08-2022     24-08-2022NNN  Migration upload              Migration upload                                  
TBI0040000017730002NPR004              20394.62DA24-08-2022DISBT24-08-2022NNN  Migration upload              Migration upload                                  
TBI00402071524001  NPR004              28293.82CA24-08-2022     24-08-2022NNN  Migration upload              Migration upload                                  
TBI0040000017770002NPR004              28293.82DA24-08-2022DISBT24-08-2022NNN  Migration upload              Migration upload                                  
TBI00402071524001  NPR004              20260.15CA24-08-2022     24-08-2022NNN  Migration upload              Migration upload                                  
TBI0040000017780002NPR004              20260.15DA24-08-2022DISBT24-08-2022NNN  Migration upload              Migration upload                                  
TBI00402071524001  NPR004              23638.91CA24-08-2022     24-08-2022NNN  Migration upload              Migration upload                                  
TBI0040000017790002NPR004              23638.91DA24-08-2022DISBT24-08-2022NNN  Migration upload              Migration upload                                  
TBI00402071524001  NPR004                 24500CA24-08-2022     24-08-2022NNN  Migration upload              Migration upload                                  
TBI0040000017800002NPR004                 24500DA24-08-2022DISBT24-08-2022NNN  Migration upload              Migration upload                                  
TBI00402071524001  NPR004              21526.41CA24-08-2022     24-08-2022NNN  Migration upload              Migration upload                                  
TBI0040000017810002NPR004              21526.41DA24-08-2022DISBT24-08-2022NNN  Migration upload              Migration upload                                  
TBI00402071524001  NPR004              16461.37CA24-08-2022     24-08-2022NNN  Migration upload              Migration upload                                  
TBI0040000017830002NPR004              16461.37DA24-08-2022DISBT24-08-2022NNN  Migration upload              Migration upload                                  
TBI00402071524001  NPR004                 44000CA24-08-2022     24-08-2022NNN  Migration upload              Migration upload                                  
TBI0040000017890002NPR004                 44000DA24-08-2022DISBT24-08-2022NNN  Migration upload              Migration upload                                  
TBI00402071524001  NPR004              55822.94CA24-08-2022     24-08-2022NNN  Migration upload              Migration upload                                  
TBI0040000017900002NPR004              55822.94DA24-08-2022DISBT24-08-2022NNN  Migration upload              Migration upload                                  
TBI00402071524001  NPR004              81822.65CA24-08-2022     24-08-2022NNN  Migration upload              Migration upload                                  
TBI0040000017930002NPR004              81822.65DA24-08-2022DISBT24-08-2022NNN  Migration upload              Migration upload                                  
TBI00402071524001  NPR004               5066.37CA24-08-2022     24-08-2022NNN  Migration upload              Migration upload                                  
TBI0040000017940002NPR004               5066.37DA24-08-2022DISBT24-08-2022NNN  Migration upload              Migration upload                                  
TBI00402071524001  NPR004                 24000CA24-08-2022     24-08-2022NNN  Migration upload              Migration upload                                  
TBI0040000018020002NPR004                 24000DA24-08-2022DISBT24-08-2022NNN  Migration upload              Migration upload                                  
TBI00402071524001  NPR004              42208.65CA24-08-2022     24-08-2022NNN  Migration upload              Migration upload                                  
TBI0040000018040002NPR004              42208.65DA24-08-2022DISBT24-08-2022NNN  Migration upload              Migration upload                                  
TBI00402071524001  NPR004              14350.94CA24-08-2022     24-08-2022NNN  Migration upload              Migration upload                                  
TBI0040000018110002NPR004              14350.94DA24-08-2022DISBT24-08-2022NNN  Migration upload              Migration upload                                  
TBI00402071524001  NPR004              29061.98CA24-08-2022     24-08-2022NNN  Migration upload              Migration upload                                  
TBI0040000018180002NPR004              29061.98DA24-08-2022DISBT24-08-2022NNN  Migration upload              Migration upload                                  
TBI00402071524001  NPR004              11088.12CA24-08-2022     24-08-2022NNN  Migration upload              Migration upload                                  
TBI0040000018200002NPR004              11088.12DA24-08-2022DISBT24-08-2022NNN  Migration upload              Migration upload                                  
TBI00402071524001  NPR004              15195.11CA24-08-2022     24-08-2022NNN  Migration upload              Migration upload                                  
TBI0040000018220002NPR004              15195.11DA24-08-2022DISBT24-08-2022NNN  Migration upload              Migration upload                                  
TBI00402071524001  NPR004              41517.11CA24-08-2022     24-08-2022NNN  Migration upload              Migration upload                                  
TBI0040000018280002NPR004              41517.11DA24-08-2022DISBT24-08-2022NNN  Migration upload              Migration upload                                  
TBI00402071524001  NPR004              28139.38CA24-08-2022     24-08-2022NNN  Migration upload              Migration upload                                  
TBI0040000018440002NPR004              28139.38DA24-08-2022DISBT24-08-2022NNN  Migration upload              Migration upload                                  
TBI00402071524001  NPR004              23636.84CA24-08-2022     24-08-2022NNN  Migration upload              Migration upload                                  
TBI0040000018530002NPR004              23636.84DA24-08-2022DISBT24-08-2022NNN  Migration upload              Migration upload                                  
TBI00402071524001  NPR004               3686.98CA24-08-2022     24-08-2022NNN  Migration upload              Migration upload                                  
TBI0040000018550002NPR004               3686.98DA24-08-2022DISBT24-08-2022NNN  Migration upload              Migration upload                                  
TBI00402071524001  NPR004               37365.4CA24-08-2022     24-08-2022NNN  Migration upload              Migration upload                                  
TBI0040000018590002NPR004               37365.4DA24-08-2022DISBT24-08-2022NNN  Migration upload              Migration upload                                  
TBI00402071524001  NPR004               2810.13CA24-08-2022     24-08-2022NNN  Migration upload              Migration upload                                  
TBI0040000018670002NPR004               2810.13DA24-08-2022DISBT24-08-2022NNN  Migration upload              Migration upload                                  
TBI00402071524001  NPR004              39395.26CA24-08-2022     24-08-2022NNN  Migration upload              Migration upload                                  
TBI0040000018790002NPR004              39395.26DA24-08-2022DISBT24-08-2022NNN  Migration upload              Migration upload                                  
TBI00402071524001  NPR004              45668.82CA24-08-2022     24-08-2022NNN  Migration upload              Migration upload                                  
TBI0040000018870002NPR004              45668.82DA24-08-2022DISBT24-08-2022NNN  Migration upload              Migration upload                                  
TBI00402071524001  NPR004              11587.67CA24-08-2022     24-08-2022NNN  Migration upload              Migration upload                                  
TBI0040000018880002NPR004              11587.67DA24-08-2022DISBT24-08-2022NNN  Migration upload              Migration upload                                  
TBI00402071524001  NPR004              17893.68CA24-08-2022     24-08-2022NNN  Migration upload              Migration upload                                  
TBI0040000018890003NPR004              17893.68DA24-08-2022DISBT24-08-2022NNN  Migration upload              Migration upload                                  
TBI00402071524001  NPR004                 30000CA24-08-2022     24-08-2022NNN  Migration upload              Migration upload                                  
TBI0040000019040002NPR004                 30000DA24-08-2022DISBT24-08-2022NNN  Migration upload              Migration upload                                  
TBI00402071524001  NPR004               9455.57CA24-08-2022     24-08-2022NNN  Migration upload              Migration upload                                  
TBI0040000019050002NPR004               9455.57DA24-08-2022DISBT24-08-2022NNN  Migration upload              Migration upload                                  
TBI00402071524001  NPR004              23638.91CA24-08-2022     24-08-2022NNN  Migration upload              Migration upload                                  
TBI0040000019090002NPR004              23638.91DA24-08-2022DISBT24-08-2022NNN  Migration upload              Migration upload                                  
TBI00402071524001  NPR004                 13000CA24-08-2022     24-08-2022NNN  Migration upload              Migration upload                                  
TBI0040000019200002NPR004                 13000DA24-08-2022DISBT24-08-2022NNN  Migration upload              Migration upload                                  
TBI00402071524001  NPR004              40371.13CA24-08-2022     24-08-2022NNN  Migration upload              Migration upload                                  
TBI0040000019410002NPR004              40371.13DA24-08-2022DISBT24-08-2022NNN  Migration upload              Migration upload                                  
TBI00402071524001  NPR004                 20000CA24-08-2022     24-08-2022NNN  Migration upload              Migration upload                                  
TBI0040000019450002NPR004                 20000DA24-08-2022DISBT24-08-2022NNN  Migration upload              Migration upload                                  
TBI00402071524001  NPR004               3511.41CA24-08-2022     24-08-2022NNN  Migration upload              Migration upload                                  
TBI0040000019750002NPR004               3511.41DA24-08-2022DISBT24-08-2022NNN  Migration upload              Migration upload                                  
TBI00402071524001  NPR004                 28000CA24-08-2022     24-08-2022NNN  Migration upload              Migration upload                                  
TBI0040000019820002NPR004                 28000DA24-08-2022DISBT24-08-2022NNN  Migration upload              Migration upload                                  
TBI00402071524001  NPR004              31518.55CA24-08-2022     24-08-2022NNN  Migration upload              Migration upload                                  
TBI0040000020000002NPR004              31518.55DA24-08-2022DISBT24-08-2022NNN  Migration upload              Migration upload                                  
TBI00402071524001  NPR004              32291.09CA24-08-2022     24-08-2022NNN  Migration upload              Migration upload                                  
TBI0040000020060002NPR004              32291.09DA24-08-2022DISBT24-08-2022NNN  Migration upload              Migration upload                                  
TBI00402071524001  NPR004              33766.92CA24-08-2022     24-08-2022NNN  Migration upload              Migration upload                                  
TBI0040000020070002NPR004              33766.92DA24-08-2022DISBT24-08-2022NNN  Migration upload              Migration upload                                  
TBI00402071524001  NPR004              27857.71CA24-08-2022     24-08-2022NNN  Migration upload              Migration upload                                  
TBI0040000020090002NPR004              27857.71DA24-08-2022DISBT24-08-2022NNN  Migration upload              Migration upload                                  
TBI00402071524001  NPR004              22176.23CA24-08-2022     24-08-2022NNN  Migration upload              Migration upload                                  
TBI0040000020220002NPR004              22176.23DA24-08-2022DISBT24-08-2022NNN  Migration upload              Migration upload                                  
TBI00402071524001  NPR004               9831.95CA24-08-2022     24-08-2022NNN  Migration upload              Migration upload                                  
TBI0040000020290002NPR004               9831.95DA24-08-2022DISBT24-08-2022NNN  Migration upload              Migration upload                                  
TBI00402071524001  NPR004              24058.93CA24-08-2022     24-08-2022NNN  Migration upload              Migration upload                                  
TBI0040000020310002NPR004              24058.93DA24-08-2022DISBT24-08-2022NNN  Migration upload              Migration upload                                  
TBI00402071524001  NPR004              16461.37CA24-08-2022     24-08-2022NNN  Migration upload              Migration upload                                  
TBI0040000020410002NPR004              16461.37DA24-08-2022DISBT24-08-2022NNN  Migration upload              Migration upload                                  
TBI00402071524001  NPR004              12657.01CA24-08-2022     24-08-2022NNN  Migration upload              Migration upload                                  
TBI0040000020510002NPR004              12657.01DA24-08-2022DISBT24-08-2022NNN  Migration upload              Migration upload                                  
TBI00402071524001  NPR004              26591.45CA24-08-2022     24-08-2022NNN  Migration upload              Migration upload                                  
TBI0040000020660002NPR004              26591.45DA24-08-2022DISBT24-08-2022NNN  Migration upload              Migration upload                                  
TBI00402071524001  NPR004              24058.93CA24-08-2022     24-08-2022NNN  Migration upload              Migration upload                                  
TBI0040000020820002NPR004              24058.93DA24-08-2022DISBT24-08-2022NNN  Migration upload              Migration upload                                  
TBI00402071524001  NPR004                 23500CA24-08-2022     24-08-2022NNN  Migration upload              Migration upload                                  
TBI0040000020960006NPR004                 23500DA24-08-2022DISBT24-08-2022NNN  Migration upload              Migration upload                                  
TBI00402071524001  NPR004              37987.78CA24-08-2022     24-08-2022NNN  Migration upload              Migration upload                                  
TBI0040000020980002NPR004              37987.78DA24-08-2022DISBT24-08-2022NNN  Migration upload              Migration upload                                  
TBI00402071524001  NPR004              11013.55CA24-08-2022     24-08-2022NNN  Migration upload              Migration upload                                  
TBI0040000020990002NPR004              11013.55DA24-08-2022DISBT24-08-2022NNN  Migration upload              Migration upload                                  
TBI00402071524001  NPR004               6754.57CA24-08-2022     24-08-2022NNN  Migration upload              Migration upload                                  
TBI0040000021060002NPR004               6754.57DA24-08-2022DISBT24-08-2022NNN  Migration upload              Migration upload                                  
TBI00402071524001  NPR004              15222.94CA24-08-2022     24-08-2022NNN  Migration upload              Migration upload                                  
TBI0040000021550002NPR004              15222.94DA24-08-2022DISBT24-08-2022NNN  Migration upload              Migration upload                                  
TBI00402071524001  NPR004              35455.26CA24-08-2022     24-08-2022NNN  Migration upload              Migration upload                                  
TBI0040000021570002NPR004              35455.26DA24-08-2022DISBT24-08-2022NNN  Migration upload              Migration upload                                  
TBI00402071524001  NPR004               36904.1CA24-08-2022     24-08-2022NNN  Migration upload              Migration upload                                  
TBI0040000021580002NPR004               36904.1DA24-08-2022DISBT24-08-2022NNN  Migration upload              Migration upload                                  
TBI00402071524001  NPR004              27678.07CA24-08-2022     24-08-2022NNN  Migration upload              Migration upload                                  
TBI0040000021610003NPR004              27678.07DA24-08-2022DISBT24-08-2022NNN  Migration upload              Migration upload                                  
TBI00402071524001  NPR004              14747.92CA24-08-2022     24-08-2022NNN  Migration upload              Migration upload                                  
TBI0040000021710002NPR004              14747.92DA24-08-2022DISBT24-08-2022NNN  Migration upload              Migration upload                                  
TBI00402071524001  NPR004                 26500CA24-08-2022     24-08-2022NNN  Migration upload              Migration upload                                  
TBI0040000021810002NPR004                 26500DA24-08-2022DISBT24-08-2022NNN  Migration upload              Migration upload                                  
TBI00402071524001  NPR004              10066.08CA24-08-2022     24-08-2022NNN  Migration upload              Migration upload                                  
TBI0040000021890002NPR004              10066.08DA24-08-2022DISBT24-08-2022NNN  Migration upload              Migration upload                                  
TBI00402071524001  NPR004               37365.4CA24-08-2022     24-08-2022NNN  Migration upload              Migration upload                                  
TBI0040000022190002NPR004               37365.4DA24-08-2022DISBT24-08-2022NNN  Migration upload              Migration upload                                  
TBI00402071524001  NPR004               9458.29CA24-08-2022     24-08-2022NNN  Migration upload              Migration upload                                  
TBI0040000022370002NPR004               9458.29DA24-08-2022DISBT24-08-2022NNN  Migration upload              Migration upload                                  
TBI00402071524001  NPR004                 80000CA24-08-2022     24-08-2022NNN  Migration upload              Migration upload                                  
TBI0040000022510002NPR004                 80000DA24-08-2022DISBT24-08-2022NNN  Migration upload              Migration upload                                  
TBI00402071524001  NPR004              39398.19CA24-08-2022     24-08-2022NNN  Migration upload              Migration upload                                  
