004000000810000211-07-202311-07-2023PRDEM          1745.39N                                                                                            
004000000810000211-07-202311-07-2023INDEM             0.77N                                                                                            
004000000829000211-07-202311-07-2023PRDEM          1210.78N                                                                                            
004000000829000211-07-202311-07-2023INDEM             0.53N                                                                                            
004000000831000211-07-202311-07-2023PRDEM          1663.27N                                                                                            
004000000831000211-07-202311-07-2023INDEM             0.73N                                                                                            
004000000853000304-06-202304-06-2023PRDEM          2321.93N                                                                                            
004000000853000304-06-202304-06-2023INDEM           434.71N                                                                                            
004000000853000304-07-202304-07-2023PRDEM          2352.88N                                                                                            
004000000853000304-07-202304-07-2023INDEM           378.57N                                                                                            
004000000856000316-05-202316-05-2023PRDEM           827.17N                                                                                            
004000000856000316-05-202316-05-2023INDEM             6.84N                                                                                            
004000000856000316-06-202316-06-2023PRDEM          1633.46N                                                                                            
004000000856000316-06-202316-06-2023INDEM            13.68N                                                                                            
004000000864000213-05-202313-05-2023PRDEM          1215.09N                                                                                            
004000000864000213-05-202313-05-2023INDEM           131.02N                                                                                            
004000000864000213-06-202313-06-2023PRDEM          1231.29N                                                                                            
004000000864000213-06-202313-06-2023INDEM           101.13N                                                                                            
004000000956000217-04-202317-04-2023PRDEM          1107.22N                                                                                            
004000000956000217-04-202317-04-2023INDEM            32.34N                                                                                            
004000000956000217-05-202317-05-2023PRDEM          3016.78N                                                                                            
004000000956000217-05-202317-05-2023INDEM           332.11N                                                                                            
004000000956000217-06-202317-06-2023PRDEM             3057N                                                                                            
004000000956000217-06-202317-06-2023INDEM           245.06N                                                                                            
004000001077000309-07-202309-07-2023PRDEM           824.67N                                                                                            
004000001077000309-07-202309-07-2023INDEM             1.08N                                                                                            
004000001216000225-06-202325-06-2023PRDEM          1784.36N                                                                                            
004000001216000225-06-202325-06-2023INDEM           168.27N                                                                                            
004000001310000326-05-202326-05-2023PRDEM           474.72N                                                                                            
004000001310000326-05-202326-05-2023INDEM             6.09N                                                                                            
004000001310000326-06-202326-06-2023PRDEM          1173.92N                                                                                            
004000001310000326-06-202326-06-2023INDEM           140.34N                                                                                            
004000001312000228-06-202328-06-2023PRDEM          2444.07N                                                                                            
004000001312000228-06-202328-06-2023INDEM            14.98N                                                                                            
004000001319000227-06-202327-06-2023PRDEM          2106.54N                                                                                            
004000001319000227-06-202327-06-2023INDEM             13.8N                                                                                            
004000001365000230-06-202330-06-2023PRDEM           3059.8N                                                                                            
004000001365000230-06-202330-06-2023INDEM           449.51N                                                                                            
004000001366000219-02-202319-02-2023PRDEM          2225.61N                                                                                            
004000001366000219-02-202319-02-2023INDEM            28.42N                                                                                            
004000001366000219-03-202319-03-2023PRDEM          3886.62N                                                                                            
004000001366000219-03-202319-03-2023INDEM            49.53N                                                                                            
004000001366000219-04-202319-04-2023PRDEM          3938.44N                                                                                            
004000001366000219-04-202319-04-2023INDEM            50.17N                                                                                            
004000001366000219-05-202319-05-2023PRDEM          3990.95N                                                                                            
004000001366000219-05-202319-05-2023INDEM            50.75N                                                                                            
004000001366000219-06-202319-06-2023PRDEM          4044.16N                                                                                            
004000001366000219-06-202319-06-2023INDEM           150.43N                                                                                            
004000001367000230-06-202330-06-2023PRDEM           951.75N                                                                                            
004000001367000230-06-202330-06-2023INDEM             5.04N                                                                                            
004000001373000205-07-202305-07-2023PRDEM          2384.26N                                                                                            
004000001373000205-07-202305-07-2023INDEM           335.14N                                                                                            
004000001410000323-06-202323-06-2023PRDEM            68.78N                                                                                            
004000001410000323-06-202323-06-2023INDEM             0.45N                                                                                            
004000001512000219-01-202319-01-2023PRDEM          2185.57N                                                                                            
004000001512000219-01-202319-01-2023INDEM           537.88N                                                                                            
004000001512000219-02-202319-02-2023PRDEM          2214.71N                                                                                            
004000001512000219-02-202319-02-2023INDEM           466.24N                                                                                            
004000001512000219-03-202319-03-2023PRDEM          2244.24N                                                                                            
004000001512000219-03-202319-03-2023INDEM           397.68N                                                                                            
004000001512000219-04-202319-04-2023PRDEM          2274.16N                                                                                            
004000001512000219-04-202319-04-2023INDEM           325.92N                                                                                            
004000001512000219-05-202319-05-2023PRDEM          2304.48N                                                                                            
004000001512000219-05-202319-05-2023INDEM              255N                                                                                            
004000001512000219-06-202319-06-2023PRDEM          2335.21N                                                                                            
004000001512000219-06-202319-06-2023INDEM           184.96N                                                                                            
004000001512000219-11-202219-11-2022PRDEM          2128.43N                                                                                            
004000001512000219-11-202219-11-2022INDEM           474.84N                                                                                            
004000001512000219-12-202219-12-2022PRDEM          2156.81N                                                                                            
004000001512000219-12-202219-12-2022INDEM           610.73N                                                                                            
004000001611000406-07-202306-07-2023PRDEM          2980.32N                                                                                            
004000001611000406-07-202306-07-2023INDEM           407.53N                                                                                            
004000001624000205-07-202305-07-2023PRDEM          2703.58N                                                                                            
004000001624000205-07-202305-07-2023INDEM           268.97N                                                                                            
004000001645000205-07-202305-07-2023PRDEM          1457.29N                                                                                            
004000001645000205-07-202305-07-2023INDEM             4.48N                                                                                            
004000001741000220-03-202320-03-2023PRDEM           420.14N                                                                                            
004000001741000220-03-202320-03-2023INDEM            29.87N                                                                                            
004000001741000220-04-202320-04-2023PRDEM          1240.45N                                                                                            
004000001741000220-04-202320-04-2023INDEM           182.19N                                                                                            
004000001741000220-05-202320-05-2023PRDEM          1256.99N                                                                                            
004000001741000220-05-202320-05-2023INDEM           140.61N                                                                                            
004000001741000220-06-202320-06-2023PRDEM          1273.75N                                                                                            
004000001741000220-06-202320-06-2023INDEM           100.41N                                                                                            
004000001742000210-07-202310-07-2023PRDEM          1921.52N                                                                                            
004000001742000210-07-202310-07-2023INDEM            74.33N                                                                                            
004000001760000221-01-202321-01-2023PRDEM          3972.58N                                                                                            
004000001760000221-01-202321-01-2023INDEM           573.69N                                                                                            
004000001760000221-02-202321-02-2023PRDEM          4025.55N                                                                                            
004000001760000221-02-202321-02-2023INDEM           453.87N                                                                                            
004000001760000221-03-202321-03-2023PRDEM          4079.22N                                                                                            
004000001760000221-03-202321-03-2023INDEM            339.3N                                                                                            
004000001760000221-04-202321-04-2023PRDEM          4133.61N                                                                                            
004000001760000221-04-202321-04-2023INDEM           223.73N                                                                                            
004000001760000221-12-202221-12-2022PRDEM          3920.31N                                                                                            
004000001760000221-12-202221-12-2022INDEM            621.4N                                                                                            
004000001822000222-01-202322-01-2023PRDEM          1430.55N                                                                                            
004000001822000222-01-202322-01-2023INDEM           317.99N                                                                                            
004000001822000222-02-202322-02-2023PRDEM          1449.63N                                                                                            
004000001822000222-02-202322-02-2023INDEM            311.3N                                                                                            
004000001822000222-03-202322-03-2023PRDEM          1468.96N                                                                                            
004000001822000222-03-202322-03-2023INDEM           263.88N                                                                                            
004000001822000222-04-202322-04-2023PRDEM          1488.54N                                                                                            
004000001822000222-04-202322-04-2023INDEM           214.56N                                                                                            
004000001822000222-05-202322-05-2023PRDEM          1508.39N                                                                                            
004000001822000222-05-202322-05-2023INDEM           165.89N                                                                                            
004000001822000222-06-202322-06-2023PRDEM           1528.5N                                                                                            
004000001822000222-06-202322-06-2023INDEM           119.06N                                                                                            
004000001879000210-07-202310-07-2023PRDEM          2491.16N                                                                                            
004000001879000210-07-202310-07-2023INDEM             2.18N                                                                                            
004000001905000211-07-202311-07-2023PRDEM          1297.72N                                                                                            
004000001905000211-07-202311-07-2023INDEM            73.61N                                                                                            
004000002099000204-07-202304-07-2023PRDEM          2289.62N                                                                                            
004000002099000204-07-202304-07-2023INDEM                8N                                                                                            
004000002237000225-05-202325-05-2023PRDEM          1391.22N                                                                                            
004000002237000225-05-202325-05-2023INDEM            30.81N                                                                                            
004000002237000225-06-202325-06-2023PRDEM          1570.96N                                                                                            
004000002237000225-06-202325-06-2023INDEM           120.14N                                                                                            
004000002529000503-07-202303-07-2023PRDEM          3947.27N                                                                                            
004000002529000503-07-202303-07-2023INDEM           695.59N                                                                                            
004000002550000201-04-202301-04-2023PRDEM          1962.66N                                                                                            
004000002550000201-04-202301-04-2023INDEM            104.8N                                                                                            
004000002550000201-05-202301-05-2023PRDEM          2025.48N                                                                                            
004000002550000201-05-202301-05-2023INDEM           187.43N                                                                                            
004000002550000201-06-202301-06-2023PRDEM          2052.49N                                                                                            
004000002550000201-06-202301-06-2023INDEM           124.27N                                                                                            
004000002550000201-07-202301-07-2023PRDEM          2079.85N                                                                                            
004000002550000201-07-202301-07-2023INDEM            66.18N                                                                                            
004000002572000408-07-202308-07-2023PRDEM          8623.06N                                                                                            
004000002572000408-07-202308-07-2023INDEM           240.33N                                                                                            
004000002600000202-07-202302-07-2023PRDEM          1707.52N                                                                                            
004000002600000202-07-202302-07-2023INDEM           198.36N                                                                                            
004000002603000210-07-202310-07-2023PRDEM          1882.31N                                                                                            
004000002603000210-07-202310-07-2023INDEM            286.1N                                                                                            
004000002657000202-07-202302-07-2023PRDEM          1568.59N                                                                                            
004000002657000202-07-202302-07-2023INDEM           219.99N                                                                                            
004000002672000207-07-202307-07-2023PRDEM           135.39N                                                                                            
004000002672000207-07-202307-07-2023INDEM             0.12N                                                                                            
004000002687000209-07-202309-07-2023PRDEM          1686.23N                                                                                            
004000002687000209-07-202309-07-2023INDEM           251.75N                                                                                            
004000002691000202-07-202302-07-2023PRDEM          3602.41N                                                                                            
004000002691000202-07-202302-07-2023INDEM             15.8N                                                                                            
004000002715000225-06-202325-06-2023PRDEM           688.33N                                                                                            
004000002715000225-06-202325-06-2023INDEM              5.1N                                                                                            
004000002717000202-07-202302-07-2023PRDEM          1205.16N                                                                                            
004000002717000202-07-202302-07-2023INDEM             0.53N                                                                                            
004000002759000202-01-202302-01-2023PRDEM          1280.64N                                                                                            
004000002759000202-01-202302-01-2023INDEM           302.62N                                                                                            
004000002759000202-02-202302-02-2023PRDEM          1297.72N                                                                                            
004000002759000202-02-202302-02-2023INDEM           258.25N                                                                                            
004000002759000202-03-202302-03-2023PRDEM          1315.02N                                                                                            
004000002759000202-03-202302-03-2023INDEM           215.15N                                                                                            
004000002759000202-04-202302-04-2023PRDEM          1332.55N                                                                                            
004000002759000202-04-202302-04-2023INDEM           170.69N                                                                                            
004000002759000202-05-202302-05-2023PRDEM          1350.32N                                                                                            
004000002759000202-05-202302-05-2023INDEM           126.79N                                                                                            
004000002759000202-06-202302-06-2023PRDEM          1368.33N                                                                                            
004000002759000202-06-202302-06-2023INDEM            82.56N                                                                                            
004000002759000202-07-202302-07-2023PRDEM          1386.57N                                                                                            
004000002759000202-07-202302-07-2023INDEM            43.42N                                                                                            
004000002759000202-12-202202-12-2022PRDEM          1263.79N                                                                                            
004000002759000202-12-202202-12-2022INDEM           313.09N                                                                                            
004000002808000208-07-202308-07-2023PRDEM          1227.28N                                                                                            
004000002808000208-07-202308-07-2023INDEM           115.17N                                                                                            
004000002859000228-01-202328-01-2023PRDEM          2053.66N                                                                                            
004000002859000228-01-202328-01-2023INDEM           461.55N                                                                                            
004000002859000228-02-202328-02-2023PRDEM          2081.04N                                                                                            
004000002859000228-02-202328-02-2023INDEM           395.33N                                                                                            
004000002859000228-03-202328-03-2023PRDEM          2108.79N                                                                                            
004000002859000228-03-202328-03-2023INDEM           330.66N                                                                                            
004000002859000228-04-202328-04-2023PRDEM          2136.91N                                                                                            
004000002859000228-04-202328-04-2023INDEM           263.44N                                                                                            
004000002859000228-05-202328-05-2023PRDEM           2165.4N                                                                                            
004000002859000228-05-202328-05-2023INDEM           197.07N                                                                                            
004000002859000228-06-202328-06-2023PRDEM          2194.27N                                                                                            
004000002859000228-06-202328-06-2023INDEM           133.53N                                                                                            
004000002883000324-06-202324-06-2023PRDEM          1316.45N                                                                                            
004000002883000324-06-202324-06-2023INDEM           172.33N                                                                                            
004000002899000205-07-202305-07-2023PRDEM          2187.76N                                                                                            
004000002899000205-07-202305-07-2023INDEM           221.95N                                                                                            
004000002925000208-07-202308-07-2023PRDEM          3226.84N                                                                                            
004000002925000208-07-202308-07-2023INDEM           221.14N                                                                                            
004000002984000207-07-202307-07-2023PRDEM          1568.59N                                                                                            
004000002984000207-07-202307-07-2023INDEM           217.37N                                                                                            
004000003124000209-07-202309-07-2023PRDEM          2027.68N                                                                                            
004000003124000209-07-202309-07-2023INDEM           227.47N                                                                                            
004000003131000324-06-202324-06-2023PRDEM          1192.13N                                                                                            
004000003131000324-06-202324-06-2023INDEM           179.63N                                                                                            
004000003152000229-06-202329-06-2023PRDEM           921.79N                                                                                            
004000003152000229-06-202329-06-2023INDEM             5.32N                                                                                            
004000003155000210-07-202310-07-2023PRDEM          1239.38N                                                                                            
004000003155000210-07-202310-07-2023INDEM             1.08N                                                                                            
004000003211000206-07-202306-07-2023PRDEM          2554.12N                                                                                            
004000003211000206-07-202306-07-2023INDEM           417.22N                                                                                            
004000003285000203-04-202303-04-2023PRDEM          1999.41N                                                                                            
004000003285000203-04-202303-04-2023INDEM           138.26N                                                                                            
004000003285000203-05-202303-05-2023PRDEM          2026.07N                                                                                            
004000003285000203-05-202303-05-2023INDEM           274.19N                                                                                            
004000003285000203-06-202303-06-2023PRDEM          2053.09N                                                                                            
004000003285000203-06-202303-06-2023INDEM           209.81N                                                                                            
004000003285000203-07-202303-07-2023PRDEM          2080.46N                                                                                            
004000003285000203-07-202303-07-2023INDEM           151.18N                                                                                            
004000003384000204-04-202304-04-2023PRDEM          1527.86N                                                                                            
004000003384000204-04-202304-04-2023INDEM            81.97N                                                                                            
004000003384000204-05-202304-05-2023PRDEM          1777.98N                                                                                            
004000003384000204-05-202304-05-2023INDEM           240.89N                                                                                            
004000003384000204-06-202304-06-2023PRDEM          1801.69N                                                                                            
004000003384000204-06-202304-06-2023INDEM           183.54N                                                                                            
004000003384000204-07-202304-07-2023PRDEM          1825.71N                                                                                            
004000003384000204-07-202304-07-2023INDEM           131.88N                                                                                            
004000003638000208-07-202308-07-2023PRDEM          1570.96N                                                                                            
004000003638000208-07-202308-07-2023INDEM            22.48N                                                                                            
004000003697000224-06-202324-06-2023PRDEM          1130.37N                                                                                            
004000003697000224-06-202324-06-2023INDEM              2.5N                                                                                            
004000003734000226-06-202326-06-2023PRDEM           5265.8N                                                                                            
004000003734000226-06-202326-06-2023INDEM           497.79N                                                                                            
004000003735000226-06-202326-06-2023PRDEM          3947.27N                                                                                            
004000003735000226-06-202326-06-2023INDEM           605.24N                                                                                            
004000003760000208-06-202308-06-2023PRDEM          2272.22N                                                                                            
004000003760000208-06-202308-06-2023INDEM            34.92N                                                                                            
004000003760000208-07-202308-07-2023PRDEM          2310.95N                                                                                            
004000003760000208-07-202308-07-2023INDEM             66.2N                                                                                            
004000003784000210-07-202310-07-2023PRDEM          1348.52N                                                                                            
004000003784000210-07-202310-07-2023INDEM             1.18N                                                                                            
004000003814000203-06-202303-06-2023PRDEM          3831.18N                                                                                            
004000003814000203-06-202303-06-2023INDEM           738.99N                                                                                            
004000003814000203-07-202303-07-2023PRDEM          3882.26N                                                                                            
004000003814000203-07-202303-07-2023INDEM           626.65N                                                                                            
004000003882000210-07-202310-07-2023PRDEM          3099.51N                                                                                            
004000003882000210-07-202310-07-2023INDEM             2.72N                                                                                            
004000003893000211-04-202311-04-2023PRDEM           804.67N                                                                                            
004000003893000211-04-202311-04-2023INDEM            46.16N                                                                                            
004000003893000211-05-202311-05-2023PRDEM           992.36N                                                                                            
004000003893000211-05-202311-05-2023INDEM              133N                                                                                            
004000003893000211-06-202311-06-2023PRDEM          1005.59N                                                                                            
004000003893000211-06-202311-06-2023INDEM            98.28N                                                                                            
004000003893000211-07-202311-07-2023PRDEM             1019N                                                                                            
004000003893000211-07-202311-07-2023INDEM            70.25N                                                                                            
004000003901000214-03-202314-03-2023PRDEM            80.15N                                                                                            
004000003901000214-03-202314-03-2023INDEM            21.99N                                                                                            
004000003901000214-04-202314-04-2023PRDEM          3345.96N                                                                                            
004000003901000214-04-202314-04-2023INDEM           534.08N                                                                                            
004000003901000214-05-202314-05-2023PRDEM          3390.57N                                                                                            
004000003901000214-05-202314-05-2023INDEM           432.29N                                                                                            
004000003901000214-06-202314-06-2023PRDEM          3435.78N                                                                                            
004000003901000214-06-202314-06-2023INDEM           329.83N                                                                                            
004000003909000213-03-202313-03-2023PRDEM           313.56N                                                                                            
004000003909000213-03-202313-03-2023INDEM            12.18N                                                                                            
004000003909000213-04-202313-04-2023PRDEM           2774.7N                                                                                            
004000003909000213-04-202313-04-2023INDEM           107.32N                                                                                            
004000003909000213-05-202313-05-2023PRDEM          2811.69N                                                                                            
004000003909000213-05-202313-05-2023INDEM           361.12N                                                                                            
004000003909000213-06-202313-06-2023PRDEM          2849.18N                                                                                            
004000003909000213-06-202313-06-2023INDEM           274.82N                                                                                            
004000003919000211-07-202311-07-2023PRDEM          4627.96N                                                                                            
004000003919000211-07-202311-07-2023INDEM            309.3N                                                                                            
004000003932000207-07-202307-07-2023PRDEM          4438.87N                                                                                            
004000003932000207-07-202307-07-2023INDEM             9.75N                                                                                            
004000003939000211-07-202311-07-2023PRDEM          1042.53N                                                                                            
004000003939000211-07-202311-07-2023INDEM             0.46N                                                                                            
004000004059000210-06-202310-06-2023PRDEM           240.06N                                                                                            
004000004059000210-06-202310-06-2023INDEM             3.96N                                                                                            
004000004059000210-07-202310-07-2023PRDEM           856.89N                                                                                            
004000004059000210-07-202310-07-2023INDEM            96.62N                                                                                            
004000004107000329-06-202329-06-2023PRDEM           2392.1N                                                                                            
004000004107000329-06-202329-06-2023INDEM           370.76N                                                                                            
004000004171000217-05-202317-05-2023PRDEM           594.62N                                                                                            
004000004171000217-05-202317-05-2023INDEM             1.56N                                                                                            
004000004171000217-06-202317-06-2023PRDEM          1634.09N                                                                                            
004000004171000217-06-202317-06-2023INDEM             4.32N                                                                                            
004000004404000307-07-202307-07-2023PRDEM          1625.35N                                                                                            
004000004404000307-07-202307-07-2023INDEM           280.51N                                                                                            
004000004481000201-07-202301-07-2023PRDEM          1953.09N                                                                                            
004000004481000201-07-202301-07-2023INDEM            83.43N                                                                                            
004000004592000226-05-202326-05-2023PRDEM          2165.38N                                                                                            
004000004592000226-05-202326-05-2023INDEM            199.1N                                                                                            
004000004592000226-06-202326-06-2023PRDEM          2194.25N                                                                                            
004000004592000226-06-202326-06-2023INDEM           135.55N                                                                                            
004000004792000226-01-202326-01-2023PRDEM          2561.28N                                                                                            
004000004792000226-01-202326-01-2023INDEM           531.29N                                                                                            
004000004792000226-02-202326-02-2023PRDEM          2595.43N                                                                                            
004000004792000226-02-202326-02-2023INDEM           449.79N                                                                                            
004000004792000226-03-202326-03-2023PRDEM          2630.04N                                                                                            
004000004792000226-03-202326-03-2023INDEM           371.51N                                                                                            
004000004792000226-04-202326-04-2023PRDEM          2665.11N                                                                                            
004000004792000226-04-202326-04-2023INDEM           289.85N                                                                                            
004000004792000226-05-202326-05-2023PRDEM          2700.64N                                                                                            
004000004792000226-05-202326-05-2023INDEM           209.37N                                                                                            
004000004792000226-06-202326-06-2023PRDEM          2736.65N                                                                                            
004000004792000226-06-202326-06-2023INDEM           130.93N                                                                                            
004000004992000211-06-202311-06-2023PRDEM           326.27N                                                                                            
004000004992000211-06-202311-06-2023INDEM             3.78N                                                                                            
004000004992000211-07-202311-07-2023PRDEM           1589.5N                                                                                            
004000004992000211-07-202311-07-2023INDEM           225.92N                                                                                            
004000005077000201-03-202301-03-2023PRDEM          1549.77N                                                                                            
004000005077000201-03-202301-03-2023INDEM           323.64N                                                                                            
004000005077000230-03-202330-03-2023PRDEM          1570.43N                                                                                            
004000005077000230-03-202330-03-2023INDEM           297.28N                                                                                            
004000005077000230-04-202330-04-2023PRDEM          1591.37N                                                                                            
004000005077000230-04-202330-04-2023INDEM           244.52N                                                                                            
004000005077000230-05-202330-05-2023PRDEM          1612.59N                                                                                            
004000005077000230-05-202330-05-2023INDEM           192.96N                                                                                            
004000005077000230-06-202330-06-2023PRDEM          1634.09N                                                                                            
004000005077000230-06-202330-06-2023INDEM           144.52N                                                                                            
004000005258000201-07-202301-07-2023PRDEM          1795.35N                                                                                            
004000005258000201-07-202301-07-2023INDEM             8.69N                                                                                            
004000005301000204-03-202304-03-2023PRDEM           409.22N                                                                                            
004000005301000204-03-202304-03-2023INDEM             15.2N                                                                                            
004000005301000204-04-202304-04-2023PRDEM          1205.44N                                                                                            
004000005301000204-04-202304-04-2023INDEM            47.31N                                                                                            
004000005301000204-05-202304-05-2023PRDEM          1221.51N                                                                                            
004000005301000204-05-202304-05-2023INDEM           130.64N                                                                                            
004000005301000204-06-202304-06-2023PRDEM          1237.79N                                                                                            
004000005301000204-06-202304-06-2023INDEM            90.85N                                                                                            
004000005301000204-07-202304-07-2023PRDEM           1254.3N                                                                                            
004000005301000204-07-202304-07-2023INDEM             55.4N                                                                                            
004000005322000327-06-202327-06-2023PRDEM          3263.28N                                                                                            
004000005322000327-06-202327-06-2023INDEM           142.96N                                                                                            
004000005343000222-03-202322-03-2023PRDEM           2480.9N                                                                                            
004000005343000222-03-202322-03-2023INDEM           380.95N                                                                                            
004000005343000222-04-202322-04-2023PRDEM          2513.98N                                                                                            
004000005343000222-04-202322-04-2023INDEM           316.98N                                                                                            
004000005343000222-05-202322-05-2023PRDEM           2547.5N                                                                                            
004000005343000222-05-202322-05-2023INDEM           239.92N                                                                                            
004000005343000222-06-202322-06-2023PRDEM          2581.47N                                                                                            
004000005343000222-06-202322-06-2023INDEM           164.26N                                                                                            
004000005365000201-03-202301-03-2023PRDEM          1622.15N                                                                                            
004000005365000201-03-202301-03-2023INDEM           270.45N                                                                                            
004000005365000201-05-202301-05-2023PRDEM          1665.69N                                                                                            
004000005365000201-05-202301-05-2023INDEM           179.98N                                                                                            
004000005365000201-07-202301-07-2023PRDEM          1710.41N                                                                                            
004000005365000201-07-202301-07-2023INDEM            77.91N                                                                                            
004000005365000231-03-202331-03-2023PRDEM          1643.78N                                                                                            
004000005365000231-03-202331-03-2023INDEM           218.69N                                                                                            
004000005365000231-05-202331-05-2023PRDEM           1687.9N                                                                                            
004000005365000231-05-202331-05-2023INDEM           127.13N                                                                                            
004000005650000201-05-202301-05-2023PRDEM          1887.78N                                                                                            
004000005650000201-05-202301-05-2023INDEM            89.23N                                                                                            
004000005650000201-06-202301-06-2023PRDEM          1912.96N                                                                                            
004000005650000201-06-202301-06-2023INDEM           142.69N                                                                                            
004000005650000201-07-202301-07-2023PRDEM          1938.46N                                                                                            
004000005650000201-07-202301-07-2023INDEM            88.26N                                                                                            
004000005724000401-07-202301-07-2023PRDEM          1137.23N                                                                                            
004000005724000401-07-202301-07-2023INDEM           184.75N                                                                                            
004000005724000431-05-202331-05-2023PRDEM           276.58N                                                                                            
004000005724000431-05-202331-05-2023INDEM             3.72N                                                                                            
004000005877000209-03-202309-03-2023PRDEM          1565.48N                                                                                            
004000005877000209-03-202309-03-2023INDEM           103.81N                                                                                            
004000005877000209-04-202309-04-2023PRDEM          5995.52N                                                                                            
004000005877000209-04-202309-04-2023INDEM            871.3N                                                                                            
004000005877000209-05-202309-05-2023PRDEM          6075.46N                                                                                            
004000005877000209-05-202309-05-2023INDEM           695.55N                                                                                            
004000005877000209-06-202309-06-2023PRDEM          6156.46N                                                                                            
004000005877000209-06-202309-06-2023INDEM           517.35N                                                                                            
004000005877000209-07-202309-07-2023PRDEM          6238.55N                                                                                            
004000005877000209-07-202309-07-2023INDEM           348.08N                                                                                            
004000005908000202-07-202302-07-2023PRDEM          3351.98N                                                                                            
004000005908000202-07-202302-07-2023INDEM           140.01N                                                                                            
004000005941000203-07-202303-07-2023PRDEM           143.47N                                                                                            
004000005941000203-07-202303-07-2023INDEM             0.48N                                                                                            
004000006004000219-06-202319-06-2023PRDEM           773.98N                                                                                            
004000006004000219-06-202319-06-2023INDEM            94.31N                                                                                            
004000006109000203-01-202303-01-2023PRDEM          1354.46N                                                                                            
004000006109000203-01-202303-01-2023INDEM           372.92N                                                                                            
004000006109000203-02-202303-02-2023PRDEM          1372.52N                                                                                            
004000006109000203-02-202303-02-2023INDEM           358.57N                                                                                            
004000006109000203-03-202303-03-2023PRDEM          1390.82N                                                                                            
004000006109000203-03-202303-03-2023INDEM           312.55N                                                                                            
004000006109000203-04-202303-04-2023PRDEM          1409.36N                                                                                            
004000006109000203-04-202303-04-2023INDEM            264.7N                                                                                            
004000006109000203-05-202303-05-2023PRDEM          1428.15N                                                                                            
004000006109000203-05-202303-05-2023INDEM            217.4N                                                                                            
004000006109000203-06-202303-06-2023PRDEM          1447.19N                                                                                            
004000006109000203-06-202303-06-2023INDEM           169.88N                                                                                            
004000006109000203-07-202303-07-2023PRDEM          1466.49N                                                                                            
004000006109000203-07-202303-07-2023INDEM            127.6N                                                                                            
004000006841000210-07-202310-07-2023PRDEM          1580.59N                                                                                            
004000006841000210-07-202310-07-2023INDEM             1.38N                                                                                            
004000006945000211-07-202311-07-2023PRDEM          1996.78N                                                                                            
004000006945000211-07-202311-07-2023INDEM             0.88N                                                                                            
004000006975000211-07-202311-07-2023PRDEM          1486.76N                                                                                            
004000006975000211-07-202311-07-2023INDEM             0.65N                                                                                            
004000006996000225-06-202325-06-2023PRDEM           875.93N                                                                                            
004000006996000225-06-202325-06-2023INDEM             6.46N                                                                                            
004000007834000204-07-202304-07-2023PRDEM          2894.39N                                                                                            
004000007834000204-07-202304-07-2023INDEM           263.55N                                                                                            
004000008200000207-07-202307-07-2023PRDEM          2398.21N                                                                                            
004000008200000207-07-202307-07-2023INDEM           238.22N                                                                                            
004000008445000303-03-202303-03-2023PRDEM          1095.85N                                                                                            
004000008445000303-03-202303-03-2023INDEM            175.5N                                                                                            
004000008445000303-04-202303-04-2023PRDEM          1110.46N                                                                                            
004000008445000303-04-202303-04-2023INDEM           144.61N                                                                                            
004000008445000303-05-202303-05-2023PRDEM          1125.27N                                                                                            
004000008445000303-05-202303-05-2023INDEM           106.68N                                                                                            
004000008445000303-06-202303-06-2023PRDEM          1140.27N                                                                                            
004000008445000303-06-202303-06-2023INDEM            68.57N                                                                                            
004000008445000303-07-202303-07-2023PRDEM          1155.47N                                                                                            
004000008445000303-07-202303-07-2023INDEM             35.7N                                                                                            
004000008544000202-07-202302-07-2023PRDEM          2600.53N                                                                                            
004000008544000202-07-202302-07-2023INDEM             11.4N                                                                                            
004000008704000208-07-202308-07-2023PRDEM           661.09N                                                                                            
004000008704000208-07-202308-07-2023INDEM             1.16N                                                                                            
004000008784000217-04-202317-04-2023PRDEM           763.92N                                                                                            
004000008784000217-04-202317-04-2023INDEM            41.51N                                                                                            
004000008784000217-05-202317-05-2023PRDEM          1006.69N                                                                                            
004000008784000217-05-202317-05-2023INDEM           160.95N                                                                                            
004000008784000217-06-202317-06-2023PRDEM          1020.11N                                                                                            
004000008784000217-06-202317-06-2023INDEM           126.53N                                                                                            
004000008823000211-07-202311-07-2023PRDEM          2280.55N                                                                                            
004000008823000211-07-202311-07-2023INDEM                1N                                                                                            
004000009347000201-07-202301-07-2023PRDEM          1315.76N                                                                                            
004000009347000201-07-202301-07-2023INDEM            94.97N                                                                                            
004000009369000228-06-202328-06-2023PRDEM          3543.54N                                                                                            
004000009369000228-06-202328-06-2023INDEM           441.26N                                                                                            
004000009780000311-07-202311-07-2023PRDEM           955.46N                                                                                            
004000009780000311-07-202311-07-2023INDEM             0.42N                                                                                            
004000009881000211-07-202311-07-2023PRDEM           1836.2N                                                                                            
004000009881000211-07-202311-07-2023INDEM             43.1N                                                                                            
004000010055000219-06-202319-06-2023PRDEM          2013.37N                                                                                            
004000010055000219-06-202319-06-2023INDEM           241.38N                                                                                            
004000010122000226-03-202326-03-2023PRDEM           773.98N                                                                                            
004000010122000226-03-202326-03-2023INDEM           189.27N                                                                                            
004000010122000226-04-202326-04-2023PRDEM           784.29N                                                                                            
004000010122000226-04-202326-04-2023INDEM           164.32N                                                                                            
004000010122000226-05-202326-05-2023PRDEM           794.75N                                                                                            
004000010122000226-05-202326-05-2023INDEM           134.88N                                                                                            
004000010122000226-06-202326-06-2023PRDEM           805.35N                                                                                            
004000010122000226-06-202326-06-2023INDEM           108.36N                                                                                            
004000010166000203-07-202303-07-2023PRDEM           1333.3N                                                                                            
004000010166000203-07-202303-07-2023INDEM           199.25N                                                                                            
004000010410000211-07-202311-07-2023PRDEM          2244.24N                                                                                            
004000010410000211-07-202311-07-2023INDEM            35.07N                                                                                            
004000010543000211-07-202311-07-2023PRDEM          1224.13N                                                                                            
004000010543000211-07-202311-07-2023INDEM           129.69N                                                                                            
004000010677000214-06-202314-06-2023PRDEM           637.35N                                                                                            
004000010677000214-06-202314-06-2023INDEM             3.64N                                                                                            
004000010732000219-06-202319-06-2023PRDEM          2739.63N                                                                                            
004000010732000219-06-202319-06-2023INDEM           256.07N                                                                                            
004000011022000214-04-202314-04-2023PRDEM          10117.4N                                                                                            
004000011022000214-04-202314-04-2023INDEM          2061.73N                                                                                            
004000011022000214-05-202314-05-2023PRDEM          10252.3N                                                                                            
004000011022000214-05-202314-05-2023INDEM          1762.77N                                                                                            
004000011022000214-06-202314-06-2023PRDEM            10389N                                                                                            
004000011022000214-06-202314-06-2023INDEM          1458.92N                                                                                            
004000011466000219-06-202319-06-2023PRDEM          2849.21N                                                                                            
004000011466000219-06-202319-06-2023INDEM           256.25N                                                                                            
004000011977000228-06-202328-06-2023PRDEM          1260.23N                                                                                            
004000011977000228-06-202328-06-2023INDEM           110.33N                                                                                            
004000014775000303-07-202303-07-2023PRDEM           462.51N                                                                                            
004000014775000303-07-202303-07-2023INDEM              1.8N                                                                                            
004000015186000227-06-202327-06-2023PRDEM           913.14N                                                                                            
004000015186000227-06-202327-06-2023INDEM                6N                                                                                            
004000015354000225-04-202325-04-2023PRDEM          1019.58N                                                                                            
004000015354000225-04-202325-04-2023INDEM           202.89N                                                                                            
004000015354000225-05-202325-05-2023PRDEM          1033.18N                                                                                            
004000015354000225-05-202325-05-2023INDEM           175.02N                                                                                            
004000015354000225-06-202325-06-2023PRDEM          1046.95N                                                                                            
004000015354000225-06-202325-06-2023INDEM           141.39N                                                                                            
004000015615000201-03-202301-03-2023PRDEM           2191.7N                                                                                            
004000015615000201-03-202301-03-2023INDEM           295.96N                                                                                            
004000015615000229-03-202329-03-2023PRDEM          2220.92N                                                                                            
004000015615000229-03-202329-03-2023INDEM           279.43N                                                                                            
004000015615000229-04-202329-04-2023PRDEM          2250.54N                                                                                            
004000015615000229-04-202329-04-2023INDEM           209.79N                                                                                            
004000015615000229-05-202329-05-2023PRDEM          2280.54N                                                                                            
004000015615000229-05-202329-05-2023INDEM            141.2N                                                                                            
004000015615000229-06-202329-06-2023PRDEM          2310.95N                                                                                            
004000015615000229-06-202329-06-2023INDEM            75.56N                                                                                            
004000016027000222-05-202322-05-2023PRDEM            52.08N                                                                                            
004000016027000222-05-202322-05-2023INDEM             0.88N                                                                                            
004000016027000222-06-202322-06-2023PRDEM          4302.45N                                                                                            
004000016027000222-06-202322-06-2023INDEM           273.89N                                                                                            
004000016125000201-07-202301-07-2023PRDEM           2632.9N                                                                                            
004000016125000201-07-202301-07-2023INDEM            344.7N                                                                                            
004000016157000201-07-202301-07-2023PRDEM          2685.56N                                                                                            
004000016157000201-07-202301-07-2023INDEM           350.39N                                                                                            
004000016477000205-07-202305-07-2023PRDEM          4002.63N                                                                                            
004000016477000205-07-202305-07-2023INDEM            12.25N                                                                                            
004000016533000206-07-202306-07-2023PRDEM           1174.3N                                                                                            
004000016533000206-07-202306-07-2023INDEM             3.06N                                                                                            
004000018929000211-07-202311-07-2023PRDEM          2384.26N                                                                                            
004000018929000211-07-202311-07-2023INDEM           329.27N                                                                                            
004000022532000226-01-202326-01-2023PRDEM          3973.76N                                                                                            
004000022532000226-01-202326-01-2023INDEM           472.11N                                                                                            
004000022532000226-02-202326-02-2023PRDEM          4026.74N                                                                                            
004000022532000226-02-202326-02-2023INDEM           810.56N                                                                                            
004000022532000226-03-202326-03-2023PRDEM          4080.43N                                                                                            
004000022532000226-03-202326-03-2023INDEM            691.4N                                                                                            
004000022532000226-04-202326-04-2023PRDEM          4134.84N                                                                                            
004000022532000226-04-202326-04-2023INDEM           566.69N                                                                                            
004000022532000226-05-202326-05-2023PRDEM          4189.97N                                                                                            
004000022532000226-05-202326-05-2023INDEM           443.94N                                                                                            
004000022532000226-06-202326-06-2023PRDEM          4245.84N                                                                                            
004000022532000226-06-202326-06-2023INDEM           322.54N                                                                                            
004000022632000223-02-202323-02-2023PRDEM          1632.17N                                                                                            
004000022632000223-02-202323-02-2023INDEM           314.58N                                                                                            
004000022632000223-03-202323-03-2023PRDEM          1653.94N                                                                                            
004000022632000223-03-202323-03-2023INDEM           268.57N                                                                                            
004000022632000223-04-202323-04-2023PRDEM          1675.99N                                                                                            
004000022632000223-04-202323-04-2023INDEM           214.32N                                                                                            
004000022632000223-05-202323-05-2023PRDEM          1698.34N                                                                                            
004000022632000223-05-202323-05-2023INDEM           160.65N                                                                                            
004000022632000223-06-202323-06-2023PRDEM          1720.98N                                                                                            
004000022632000223-06-202323-06-2023INDEM           108.84N                                                                                            
004000022776000203-06-202303-06-2023PRDEM            255.5N                                                                                            
004000022776000203-06-202303-06-2023INDEM              1.1N                                                                                            
004000022776000203-07-202303-07-2023PRDEM          1932.84N                                                                                            
004000022776000203-07-202303-07-2023INDEM           253.25N                                                                                            
004000023509000223-06-202323-06-2023PRDEM            558.2N                                                                                            
004000023509000223-06-202323-06-2023INDEM             4.56N                                                                                            
004000023576000224-04-202324-04-2023PRDEM          1005.59N                                                                                            
004000023576000224-04-202324-04-2023INDEM           124.74N                                                                                            
004000023576000224-05-202324-05-2023PRDEM             1019N                                                                                            
004000023576000224-05-202324-05-2023INDEM            97.25N                                                                                            
004000023576000224-06-202324-06-2023PRDEM          1032.59N                                                                                            
004000023576000224-06-202324-06-2023INDEM            64.82N                                                                                            
004000024199000208-07-202308-07-2023PRDEM          2431.31N                                                                                            
004000024199000208-07-202308-07-2023INDEM           350.47N                                                                                            
004000024421000208-07-202308-07-2023PRDEM             2038N                                                                                            
004000024421000208-07-202308-07-2023INDEM           120.73N                                                                                            
004000024465000225-03-202325-03-2023PRDEM          2813.17N                                                                                            
004000024465000225-03-202325-03-2023INDEM           313.29N                                                                                            
004000024465000225-04-202325-04-2023PRDEM          2850.68N                                                                                            
004000024465000225-04-202325-04-2023INDEM           228.81N                                                                                            
004000024465000225-05-202325-05-2023PRDEM          2888.69N                                                                                            
004000024465000225-05-202325-05-2023INDEM           144.02N                                                                                            
004000024465000225-06-202325-06-2023PRDEM           2927.2N                                                                                            
004000024465000225-06-202325-06-2023INDEM            61.13N                                                                                            
004000024554000225-05-202325-05-2023PRDEM          1698.34N                                                                                            
004000024554000225-05-202325-05-2023INDEM            88.03N                                                                                            
004000024554000225-06-202325-06-2023PRDEM          1720.98N                                                                                            
004000024554000225-06-202325-06-2023INDEM           107.24N                                                                                            
004000024598000416-06-202316-06-2023PRDEM          4887.02N                                                                                            
004000024598000416-06-202316-06-2023INDEM             6.42N                                                                                            
004000024798000211-07-202311-07-2023PRDEM          1515.25N                                                                                            
004000024798000211-07-202311-07-2023INDEM             0.66N                                                                                            
004000024809000225-01-202325-01-2023PRDEM          1248.29N                                                                                            
004000024809000225-01-202325-01-2023INDEM           277.15N                                                                                            
004000024809000225-02-202325-02-2023PRDEM          1264.93N                                                                                            
004000024809000225-02-202325-02-2023INDEM           252.23N                                                                                            
004000024809000225-03-202325-03-2023PRDEM           1281.8N                                                                                            
004000024809000225-03-202325-03-2023INDEM            210.4N                                                                                            
004000024809000225-04-202325-04-2023PRDEM          1298.89N                                                                                            
004000024809000225-04-202325-04-2023INDEM            166.7N                                                                                            
004000024809000225-05-202325-05-2023PRDEM          1316.21N                                                                                            
004000024809000225-05-202325-05-2023INDEM           123.62N                                                                                            
004000024809000225-06-202325-06-2023PRDEM          1333.76N                                                                                            
004000024809000225-06-202325-06-2023INDEM            83.11N                                                                                            
004000024809000225-11-202225-11-2022PRDEM          1215.66N                                                                                            
004000024809000225-11-202225-11-2022INDEM           164.73N                                                                                            
004000024809000225-12-202225-12-2022PRDEM          1231.87N                                                                                            
004000024809000225-12-202225-12-2022INDEM           301.73N                                                                                            
004000025154000226-06-202326-06-2023PRDEM          2004.12N                                                                                            
004000025154000226-06-202326-06-2023INDEM            14.08N                                                                                            
004000025576000205-07-202305-07-2023PRDEM          2165.43N                                                                                            
004000025576000205-07-202305-07-2023INDEM             6.65N                                                                                            
004000025632000226-06-202326-06-2023PRDEM          2323.32N                                                                                            
004000025632000226-06-202326-06-2023INDEM           117.94N                                                                                            
004000025854000227-06-202327-06-2023PRDEM          1463.61N                                                                                            
004000025854000227-06-202327-06-2023INDEM            28.88N                                                                                            
004000026008000311-07-202311-07-2023PRDEM          1625.35N                                                                                            
004000026008000311-07-202311-07-2023INDEM            203.1N                                                                                            
004000026352000212-06-202312-06-2023PRDEM          2291.98N                                                                                            
004000026352000212-06-202312-06-2023INDEM               10N                                                                                            
004000026452000228-04-202328-04-2023PRDEM          3351.98N                                                                                            
004000026452000228-04-202328-04-2023INDEM            379.5N                                                                                            
004000026452000228-05-202328-05-2023PRDEM          3396.67N                                                                                            
004000026452000228-05-202328-05-2023INDEM           307.47N                                                                                            
004000026452000228-06-202328-06-2023PRDEM          3441.96N                                                                                            
004000026452000228-06-202328-06-2023INDEM           209.53N                                                                                            
004000026606000226-06-202326-06-2023PRDEM          3372.47N                                                                                            
004000026606000226-06-202326-06-2023INDEM           556.32N                                                                                            
004000026840000318-06-202318-06-2023PRDEM           391.67N                                                                                            
004000026840000318-06-202318-06-2023INDEM             2.04N                                                                                            
004000026873000228-04-202328-04-2023PRDEM           2693.8N                                                                                            
004000026873000228-04-202328-04-2023INDEM            20.06N                                                                                            
004000026873000228-05-202328-05-2023PRDEM          4044.16N                                                                                            
004000026873000228-05-202328-05-2023INDEM            30.23N                                                                                            
004000026873000228-06-202328-06-2023PRDEM          4098.07N                                                                                            
004000026873000228-06-202328-06-2023INDEM            80.14N                                                                                            
004000026939000228-06-202328-06-2023PRDEM          1088.32N                                                                                            
004000026939000228-06-202328-06-2023INDEM             6.72N                                                                                            
004000027673000229-06-202329-06-2023PRDEM           943.78N                                                                                            
004000027673000229-06-202329-06-2023INDEM             4.92N                                                                                            
004000027806000210-07-202310-07-2023PRDEM          2791.95N                                                                                            
004000027806000210-07-202310-07-2023INDEM             2.44N                                                                                            
004000027895000229-06-202329-06-2023PRDEM          4566.45N                                                                                            
004000027895000229-06-202329-06-2023INDEM           707.56N                                                                                            
004000027939000201-03-202301-03-2023PRDEM           1713.1N                                                                                            
004000027939000201-03-202301-03-2023INDEM             10.5N                                                                                            
004000027939000230-03-202330-03-2023PRDEM           2306.8N                                                                                            
004000027939000230-03-202330-03-2023INDEM            14.14N                                                                                            
004000027939000230-04-202330-04-2023PRDEM          2337.56N                                                                                            
004000027939000230-04-202330-04-2023INDEM             14.4N                                                                                            
004000027939000230-05-202330-05-2023PRDEM          2368.72N                                                                                            
004000027939000230-05-202330-05-2023INDEM            14.56N                                                                                            
004000027939000230-06-202330-06-2023PRDEM          2400.31N                                                                                            
004000027939000230-06-202330-06-2023INDEM            44.84N                                                                                            
004000027950000227-03-202327-03-2023PRDEM          3418.23N                                                                                            
004000027950000227-03-202327-03-2023INDEM           176.92N                                                                                            
004000027950000227-04-202327-04-2023PRDEM          3744.87N                                                                                            
004000027950000227-04-202327-04-2023INDEM            626.2N                                                                                            
004000027950000227-05-202327-05-2023PRDEM           3794.8N                                                                                            
004000027950000227-05-202327-05-2023INDEM           512.88N                                                                                            
004000027950000227-06-202327-06-2023PRDEM           3845.4N                                                                                            
004000027950000227-06-202327-06-2023INDEM           401.33N                                                                                            
004000028826000317-06-202317-06-2023PRDEM          2520.46N                                                                                            
004000028826000317-06-202317-06-2023INDEM            97.45N                                                                                            
004000028850000209-06-202309-06-2023PRDEM           7048.4N                                                                                            
004000028850000209-06-202309-06-2023INDEM           284.34N                                                                                            
004000028850000209-07-202309-07-2023PRDEM          7142.37N                                                                                            
004000028850000209-07-202309-07-2023INDEM           104.75N                                                                                            
004000028858000218-05-202318-05-2023PRDEM          2280.54N                                                                                            
004000028858000218-05-202318-05-2023INDEM           155.17N                                                                                            
004000028858000218-06-202318-06-2023PRDEM          2310.95N                                                                                            
004000028858000218-06-202318-06-2023INDEM               87N                                                                                            
004000028862000305-07-202305-07-2023PRDEM          7058.65N                                                                                            
004000028862000305-07-202305-07-2023INDEM          1131.94N                                                                                            
005000001027000228-06-202328-06-2023PRDEM          1033.46N                                                                                            
005000001027000228-06-202328-06-2023INDEM            25.96N                                                                                            
005000001067000221-04-202321-04-2023PRDEM          1509.88N                                                                                            
005000001067000221-04-202321-04-2023INDEM           299.05N                                                                                            
005000001067000221-05-202321-05-2023PRDEM           1529.9N                                                                                            
005000001067000221-05-202321-05-2023INDEM           278.77N                                                                                            
005000001067000221-06-202321-06-2023PRDEM          1550.19N                                                                                            
005000001067000221-06-202321-06-2023INDEM            234.4N                                                                                            
005000001143000223-06-202323-06-2023PRDEM           4849.3N                                                                                            
005000001143000223-06-202323-06-2023INDEM           662.95N                                                                                            
005000001145000211-07-202311-07-2023PRDEM          1961.41N                                                                                            
005000001145000211-07-202311-07-2023INDEM           301.64N                                                                                            
005000001206000225-05-202325-05-2023PRDEM          1449.68N                                                                                            
005000001206000225-05-202325-05-2023INDEM            30.41N                                                                                            
005000001206000225-06-202325-06-2023PRDEM          1907.92N                                                                                            
005000001206000225-06-202325-06-2023INDEM           284.75N                                                                                            
005000001252000230-06-202330-06-2023PRDEM          2186.16N                                                                                            
005000001252000230-06-202330-06-2023INDEM           253.89N                                                                                            
005000001371000205-07-202305-07-2023PRDEM          1868.17N                                                                                            
005000001371000205-07-202305-07-2023INDEM           218.31N                                                                                            
005000001448000211-07-202311-07-2023PRDEM          2496.28N                                                                                            
005000001448000211-07-202311-07-2023INDEM             1.09N                                                                                            
005000001546000202-07-202302-07-2023PRDEM          2225.91N                                                                                            
005000001546000202-07-202302-07-2023INDEM           314.91N                                                                                            
005000001573000205-07-202305-07-2023PRDEM          1192.45N                                                                                            
005000001573000205-07-202305-07-2023INDEM           136.73N                                                                                            
005000001601000211-07-202311-07-2023PRDEM          1709.18N                                                                                            
005000001601000211-07-202311-07-2023INDEM           207.61N                                                                                            
005000001605000205-07-202305-07-2023PRDEM          1351.44N                                                                                            
005000001605000205-07-202305-07-2023INDEM            180.2N                                                                                            
005000001619000209-07-202309-07-2023PRDEM          1828.42N                                                                                            
005000001619000209-07-202309-07-2023INDEM           244.32N                                                                                            
005000001657000205-07-202305-07-2023PRDEM          5353.91N                                                                                            
005000001657000205-07-202305-07-2023INDEM           476.15N                                                                                            
005000001821000209-07-202309-07-2023PRDEM          1748.93N                                                                                            
005000001821000209-07-202309-07-2023INDEM           218.61N                                                                                            
005000001826000210-07-202310-07-2023PRDEM          1271.95N                                                                                            
005000001826000210-07-202310-07-2023INDEM            138.3N                                                                                            
005000001827000209-07-202309-07-2023PRDEM          1351.44N                                                                                            
